:020000021000EC
:109000000000012079930100619301006393010046
:10901000659301006793010069930100000000005F
:109020000000000000000000000000006B93010041
:109030006D930100000000006F9301007193010027
:10904000FDB001007393010025B501001DB60100BC
:109050002DB6010073930100A9B3010073930100C1
:1090600073930100739301007393010073930100E4
:1090700073930100739301007393010073930100D4
:10908000739301004D9F01007393010073930100DE
:10909000E99F01007393010059F7010073930100E8
:1090A00073930100739301007393010073930100A4
:1090B00073930100739301000000000000000000A2
:1090C0007393010073930100739301007393010084
:1090D000611402007393010073930100000000000B
:1090E0000000000000000000000000000000000080
:1090F0000000000000000000000000000000000070
:10910000000000000000000000000000000000005F
:10911000000000000000000000000000000000004F
:10912000000000000000000000000000000000003F
:10913000000000000000000000000000000000002F
:10914000000000000000000000000000000000001F
:10915000000000000000000000000000000000000F
:1091600000000000000000000000000000000000FF
:1091700000000000000000000000000000000000EF
:1091800000000000000000000000000000000000DF
:1091900000000000000000000000000000000000CF
:1091A00000000000000000000000000000000000BF
:1091B00000000000000000000000000000000000AF
:1091C000000000000000000000000000000000009F
:1091D000000000000000000000000000000000008F
:1091E000000000000000000000000000000000007F
:1091F000000000000000000000000000000000006F
:10920000364937480A1A02D0072291438D4635491C
:1092100035480A1A06D00722914381F309880222B1
:1092200082F3148831483249324A00F045F8324816
:109230003249334A00F040F832483349334A00F0AB
:109240003BF833483349344A00F036F83348344960
:10925000344A00F031F834483449354A00F02CF8EB
:1092600034483549354A00F027F835483549002259
:1092700000F02DF834483549002200F028F8344831
:109280003449091A082903DB002202600430016016
:10929000314A90471F482049884205D0026804306F
:1092A00003B4904703BCF7E700208646EC46002055
:1092B00000212A4A9047FEE7884207D0521A05D07B
:1092C000037801300B700131013AF9D170478842BF
:1092D00002D002700130FAE7704700000000012060
:1092E00000F800200000012000000120584F02007B
:1092F0000025002070250020D8930100D89301009C
:10930000DC3D0200584F020000250020002500200F
:10931000D83E0200D83E0200D83E0200D83E0200ED
:10932000D83E0200D83E0200D83E0200D83E0200DD
:10933000584F0200C84F0200702500207025002001
:109340007025002088390020883900208C390020C1
:109350008C3900208C410020A193010039D90100F3
:10936000FEE7FEE7FEE7FEE7FEE7FEE7FEE7FEE7D5
:10937000FEE7FEE7704700BF1048804710484FF0F7
:109380000701884385460F4880470F48016841F42C
:1093900070010160BFF34F8FBFF36F8FFFF730BFD6
:1093A0000A480B490B4A884207D0521A05D0037865
:1093B00001300B700131013AF9D17047759301000A
:1093C0000000012035AC010088ED00E0D83E02002D
:0893D00000250020002500200B
:1093D80000487047803900207047000007B5044BEB
:1093E8000093044A402300F032F803B05DF804FB10
:1093F80001940100712500202DE9F843894614469F
:10940800B2B10F4B0F4E0325002743F00108224647
:1094180009EB0701002004F045FF0744241A48B966
:1094280033782BB14FF47A40C047013D02D13570F3
:10943800BDE8F88301233370002CE8D1F8E700BFBA
:10944800E03E020070250020704704F05FBFF0B5D1
:1094580095B01C46164608460D4601F0ECFA1A9BD4
:109468000D93CDE9086400242346082205A928465F
:109478000A948DF82C400C9401F0FBFA079B029398
:10948800BDF81830ADF80C30BDF81A30ADF80E3014
:109498009DF814308DF8114003F00302012A1DD104
:1094A800BDF81440059EC3F3C203C4F383148DF8BA
:1094B8001030A20008230EA9284601F0DAFAC6F3F4
:1094C800952608AB0093224602AB0EA9304600F061
:1094D800D1FB284601F0B3FA15B0F0BD022AF8D145
:1094E800BDF81640C3F3C203A4098DF8103008274D
:1094F800082C264628BF08263B4632460EA9284691
:1095080001F0B7FAA41B08AB02AA31460EA83744EB
:1095180000F014FC002CEBD1DBE7000008B5FFF7E6
:1095280094FF0421034800F013FB034B01225A71F6
:1095380008BD00BFC83E020000250020037813F0D4
:10954800040216D003F00303012B03D0022B09D029
:10955800012070470A6800880232C0F38310024471
:109568000A60F5E70B684288023303EB92130B603D
:10957800EEE71046704700002DE9F04F89B0054628
:10958800861C08A8484C019200230F4600F8113D9C
:1095980000F014FF23683B60D4E9012313442268D8
:1095A80001339B1A04F21C4704F5836A04F2144839
:1095B800B3421AD3019A0023002A6DD0012262F324
:1095C800010343F0040365F389132168A2689DF839
:1095D8000F000A4003320E4444F82230266000F09F
:1095E80011FF012009B0BDE8F08F0121384600F0D5
:1095F80066FF504600F079FF404600F076FF0DF117
:1096080020096068D4F808B049F8100D00EA0B008A
:10961800033004EB80004946FFF790FF049BB0B984
:109628000BEA030204EB8202D16805919A1C01330C
:1096380003EA0B0B04EB8B0C01F00303012B0492E0
:10964800DCF80CB020D0022B04D083460BE00BEAE8
:109658000300DDE7BDF816309B0903334FEA1B4BC7
:1096680002EB93030493404600F042FF08B1049BC9
:1096780063605946384600F022FFD4E901231344B9
:10968800226801339B1A93E7BDF81430C3F38313A0
:109698004FEA1B4B1344E5E7022262F3010343F050
:1096A800040365F39F5390E7842600200B4B0C4876
:1096B800FF2210B59A600022C3F81824C3E90022DB
:1096C800C3F8142483F8202401F06EF9044610B975
:1096D800044801F017FA204610BD00BF8426002078
:1096E800443E0200043F020030B50A4C71B10A4AF8
:1096F8000A49121BD20800239A4201D1002030BD2A
:1097080031F82350854202D00133F5E7034654F877
:109718003300F4E7583E0200C83E0200002500204E
:10972800094B013903EBC000032909D8DFE801F030
:109738000A02040604207047007970474079704790
:109748000020704702207047583E0200034BD3E9BF
:109758000030C31A58425841704700BF8426002081
:109768002DE9F04387B0FFF7F1FF0646002840F0E7
:10977800FC807F4DC5F81804BFF34F8F6868AC684C
:1097880006AF47F8100D2040033005EB800039463E
:10979800FFF7D4FE029B18B1D5F81824002A5FD031
:1097A80004EA0302991C013305EB8202234005EB0E
:1097B8008303D268DB68049302F00303022B03924D
:1097C800029162D1BDF80E306A484FEA9318B8F199
:1097D800500FC14628BF4FF0500969F38F1309F1A4
:1097E8000801ADF80E3001F0F7F80746002800F040
:1097F800A78001F020F903A900230822384601F0C8
:109808002DF9029924EA01060136B600B14535D989
:109818005FFA89F97EB3F6B2A9EB06092140033154
:109828005FFA89F4B146544E05EB810108234A4694
:10983800384601F013F936B109F1080322463146DA
:10984800384601F00BF9029B08F1030803EB980373
:109858000293D5F81834002B4BD1D5F810445BE0AF
:109868002A689A4204D86A60304607B0BDE8F08397
:1098780004EA030088E740493446D7E7214003312A
:1098880008234A4605EB8101DAE7012B58D1BDF8D8
:109898000C303848C3F38311062928BF062161F329
:1098A800891302318900ADF80C3001F095F80746AC
:1098B800002845D001F0BFF80023082203A9384644
:1098C80001F0CCF80026BDF80C20C2F38312B31CBB
:1098D80096424FEA8303BCD202994A1C21400331C5
:1098E800029205EB81010422384601F0B7F80136EF
:1098F800E9E7384601F0A3F8FFF728FF80F00100F8
:10990800C6B2B1E7E3685B7923B1236839461B68BF
:1099180020469847E3681C68002CF3D1384601F0CC
:109928008EF806A800F8114D00F048FDD5F8183457
:109938000BB9029B6B609DF8070000F063FDDBE745
:10994800D5F8104454B90D4B0D480E49C01AC0083B
:10995800000440F0020000F06FF8CDE723682046CD
:109968009B689847E3681C68ECE700267CE700BF23
:1099780084260020443E020090260020583E020023
:10998800883E0200103F02002DE9F74F284C804620
:109998000F46924601A9012218469B46D4F8089022
:1099A800FFF7EAFD88B3019D0026A91C5E4506EB7A
:1099B800010234D100211F4800F056FD80F3100049
:1099C8006A1C02EA090204EB8202000405EA0903A0
:1099D800033340EA1840D06014F8232068F3C50226
:1099E80004F8232034F8232066F3891224F823206E
:1099F80054F82320012167F39F2244F8232061F3C0
:109A080001026FF3820204F8232094F820341BB17A
:109A1800FFF7A6FE0028FBD103B0BDE8F08F09EAE6
:109A2800020204EB82025AF82630D3600136BDE701
:109A380084260020A02A002000231A46FFF7A4BF8E
:109A480013B502AC012344F8042D2246FFF79CFF0E
:109A580002B010BD07B5CDE9002302236A46FFF71F
:109A680093FF03B05DF804FB1FB5CDE90123069B06
:109A7800039301AA0323FFF787FF05B05DF804FBF2
:109A88002DE9F3478046304CD01C8A46174601A979
:109A980000228008A568FFF76FFD002840D0DDF898
:109AA8000490A66809F10200019001362840361A90
:109AB800B6000330B74204EB80003BD83A46514623
:109AC80009F042FD0021214800F0CEFC80F310008F
:109AD80009F101032B4004EB83034FEA184242EAE1
:109AE8000040D86005EA0903033304EB830214F845
:109AF800231068F3C50104F8231034F823106FF31A
:109B08008F1124F82310518867F38F11518014F8AE
:109B18002320022161F301026FF3820204F823205B
:109B280094F820341BB1FFF71BFE0028FBD102B0CC
:109B3800BDE8F0873246514609F006FDBA1B0AEB2C
:109B4800060104F10C00BBE784260020A02A0020AF
:109B580030B50F49D1F81024002314463CB9C46825
:109B6800237152B9C1F810042260184630BDE46868
:109B780025799D4206D02468F0E7D26811682160F3
:109B88001060F2E701330A2BE7D14FF0FF33ECE71F
:109B980084260020094A38B50123D2F8104482F8F7
:109BA80020341D4604B938BDE3685D71236820463A
:109BB8005B689847E3681C68F4E700BF84260020C8
:109BC800037A052B10B50C460FD0437A23B1084A07
:109BD8000849204600F0EDFC0749204600F0E9FC62
:109BE8002046BDE8104000F0D9BC002AF8D0F3E7C1
:109BF8005B3F0200603F0200803F0200C38873B5EC
:109C080004460D4633B1144A00921449144A2846B2
:109C180000F0CFFC217A05291CD0637A4BB1A088CB
:109C2800FFF77EFD0F4B104953F82020284600F01F
:109C3800C0FC227A0D4BA08853F822600021FFF760
:109C480053FD0B4903463246284602B0BDE8704032
:109C580000F0AFBC02B070BD5B3F02006B3F02007A
:109C6800633F0200283F0200603F0200903F02006D
:109C7800833F02002DE9F04385B01F460C9D002369
:109C880006460C46904695F80C902B7329463846A4
:109C9800FFF7B4FFB8F1060F09D8DFE808F004129F
:109CA800181F283340003146284600F082FC002265
:109CB80029463846FFF784FF85F80C9005B0BDE8C3
:109CC800F08322683146284600F073FCEFE7D4E9B8
:109CD80000233146284600F06CFCE8E7A3680093AF
:109CE8003146D4E90023284600F063FCDFE7E36847
:109CF8000193A36800933146D4E90023284600F075
:109D080058FCD4E723690293E3680193A36800939E
:109D18003146D4E90023284600F04BFCC7E76369C5
:109D2800039323690293E3680193A3680093314680
:109D3800D4E90023284600F03CFCB8E708292DE9BF
:109D4800F84F80460E4617461C4636D8002593F82D
:109D58000C901D7319461046FFF750FFDFF87CA0E2
:109D6800DFF87CB0AE422AD918F8052059462046BB
:109D780000F01FFC0135082DF4D11649DFF864B056
:109D8800204600F016FC0025AE421DD918F805A0A3
:109D9800504609F089FB002814BF52462E22594626
:109DA800204600F006FC0135082DEDD101222146A0
:109DB8003846FFF705FF84F80C90BDE8F88F514648
:109DC800204600F0F6FBD5E70349204600F0F1FBFA
:109DD800E9E700BF563F0200543F0200523F02002D
:109DE8004C3F0200583F02001FB50021039001AA12
:109DF80044F20100CDE9011100F004F805B05DF866
:109E080004FB000010B572B6FFF7C4FEFFF7A8FC0C
:109E18000028FBD1104B114C1149E41AE408240422
:109E280044F00100FFF708FE0E4B1B68DB0700D566
:109E380000BE0D4944F00200FFF7FEFDBFF34F8F4F
:109E48000A490B4BCA6802F4E0621343CB60BFF3C4
:109E58004F8F00BFFDE700BF583E0200883E02005A
:109E6800EF3F0200F0ED00E0FB3F020000ED00E0F4
:109E78000400FA05094A537891780133DBB2994214
:109E880008BF0023117899421FBF03705078182328
:109E980003FB002014BF043000207047402B002033
:109EA80073B5054602A8002400F8014D0E4600F0DF
:109EB80085FA0DF10600FFF7DDFF90B106700A4B39
:109EC8009DF8062045605A709DF8070000F09AFA40
:109ED80024B9064B4FF48012C3F80021204602B083
:109EE80070BD0424F0E700BF402B002000E100E033
:109EF800024B4FF43C6043F0010318471040020046
:109F080038B50C4B0C4C4FF40032C3F880200125B7
:109F18004FF48033C4F84833C4F808336560FFF75A
:109F2800E7FF064BA56000241C60FFF7E1FF044B28
:109F38001C7038BD00E100E0001001405C2C0020DE
:109F48004D2C0020F8B51F4B1F491B680025C1F890
:109F58004051C1F84451C1F84851C1F84C51C1F8B9
:109F68000051C1F804514BB3D1F8044517490968A9
:109F7800641A24F07F442F461A68A24209D8A41A0A
:109F880015441A7CDE691AB11F74D3E9052090477D
:109F9800AEB90F4B0F4A197813788B4205D10133AC
:109FA800DBB2022B08BF0023137012780A4B43F868
:109FB80022500A4B4FF48012C3F80021F8BD3346F3
:109FC800DAE700BF602C0020001001405C2C002064
:109FD800582C0020592C0020502C002000E100E0D3
:109FE8002DE9F74F9E4A9F49137809789E4D99426B
:109FF8003CD00133DBB2022B08BF002313709B490E
:10A0080012789B4B0F6853F822003B1823F07F43CC
:10A0180000220B602B6816461446944613B942B1C9
:10A028002B6006E0196881420ED902B12B60091A2B
:10A0380019604FF001082B68DFF83CA20093002755
:10A04800BEB9DFF83CB260E0401A0C44D968C3F8E6
:10A0580000C0D3F81CE031B13A1922F07F42C3E9BD
:10A068000121DE611E4601227346D7E70026B0466D
:10A07800E1E73446F6697D4A63681268DFF804C28E
:10A08800A068991A21F07F41614500F2A58001443A
:10A098002160012222742A680023C4E90133E361A4
:10A0A800002A40F0A2802C60CAE75A1C9BF80210D4
:10A0B800D2B291428BF8002004BF00228BF8002016
:10A0C800182202FB03B32A6819799C68022974D004
:10A0D80003297ED0012918D1217CB1B9DA686260E0
:10A0E8001A69A2605A699B69A361624BE2601B7896
:10A0F800002BC0D06160BEE79C4200F09380994677
:10A10800DB69002BF8D1002323749BF800309BF8FF
:10A1180001209A42C9D12B682FB9009A934202D1E3
:10A12800B8F1000F43D0002B79D0D3F800A0524DDE
:10A138004E4BD5F804751C68DFF84C813E1B98F827
:10A14800003026F07F4603369BB94FF48033C5F8BC
:10A158004433C5F80433494B4FF400324FF001093A
:10A16800C3F880211A60C5F80090FFF7C1FE88F88F
:10A178000090B2452CBF5444A41924F07F44C5F87C
:10A188004045D5F80435DB1B23F07F43E41B03333C
:10A1980024F07F44A3420AD9D5F80435C5F84035E0
:10A1A800FFF7A6FE354B4FF40032C3F80021314BC0
:10A1B80000221A7003B0BDE8F08F13469146A0E75D
:10A1C8001174D2690123002AFAD1002B9DD02A608C
:10A1D8009BE700231946F6E7D31A23F07F4383420F
:10A1E80034BFC31A0023236053E7216813689942D8
:10A1F80013D8591A1160E26155E7091AD8691A4645
:10A2080038B1034618688842F7D3401A18601846D0
:10A2180013462160E061DC6112E71346F2E7FFF7BD
:10A228006FFEC4E74C450DD1D3692B6053B90F4875
:10A2380001920121CAF8081003600E4B1970FFF74C
:10A2480057FE019AE1692368C9F81C1011B1086822
:10A2580003440B602B689A4218BF012753E700BFDD
:10A26800582C0020592C0020602C00205C2C002049
:10A27800502C00204C2C00200010014000E100E090
:10A28800402B0020FEFF7F004D2C002010B5FFF76B
:10A2980037FE114B00200B2218809A700F4B186064
:10A2A8000F4B18700F4B18700F4B4FF48012C021D2
:10A2B800C3F8802183F814131A6002F18042A2F5D2
:10A2C8006F221F24C2F8084583F81113074BD2F8F0
:10A2D80004251A6010BD00BF402B0020602C002010
:10A2E800582C0020592C002000E100E05C2C0020B4
:10A2F800074B9B784BB132B128B10368187C20B961
:10A3080059745A617047072070470820704700BF8A
:10A31800402B00202DE9F7431D4FBB7805460E461C
:10A3280090469BB390B304292ED9436973B3437CF9
:10A3380002A80024012B00F8014D0CBF8946A14654
:10A3480000F03CF80DF10600FFF794FDD0B10123B1
:10A358000370104B4560D3F80435C0E90498C0E990
:10A3680002369DF806307B709DF8070000F04AF829
:10A3780024B9094B4FF48012C3F80021204603B0DA
:10A38800BDE8F0830424EFE70724F7E70824F5E79E
:10A39800402B00200010014000E100E0064A9278BE
:10A3A8003AB130B1426922B1002202740221FFF7AA
:10A3B80077BD0820704700BF402B002070B5EFF331
:10A3C800108672B60C4A946801239CB993600B4BB3
:10A3D8000B4DD3F8801029401160C3F88050D3F892
:10A3E800841051604FF0FF32C3F88420047006B91E
:10A3F80062B670BD0370FAE7642C002000E100E04B
:10A40800FC06FFBD084B9A6810B55AB150B9EFF376
:10A41800108172B6054A1C6814605C6854609860C4
:10A4280001B962B610BD00BF642C002000E100E055
:10A4380001F01F024B090121914000EB830000F05D
:10A448001DB801F01F0301229A404B0900EB83005D
:10A45800D14300F029B84B0901F01F0150F823003F
:10A46800C84000F00100704750E8002F0B4640E854
:10A47800003C9CF0000FF7D11046704750E8003FB1
:10A4880043EA010240E8002C9CF0000FF6D1104688
:10A49800704750E8002F02EA010340E8003C9CF0B6
:10A4A800000FF6D11046704750E8003F03EA01025A
:10A4B80040E8002C9CF0000FF6D11046704750E899
:10A4C800003F03EB010240E8002C9CF0000FF6D19E
:10A4D8001046704750E8003FA3EB010240E8002C0B
:10A4E8009CF0000FF6D1104670470121FFF7C6BF58
:10A4F8000021FFF7CEBF10B590B1D0E90123016864
:10A508009B1ADBB20A60013BDBB2FF2B026802D167
:10A518000020107110BD11684C1C14600B70F2E71C
:10A528000E20F7E737B5054602A8002400F8014DCC
:10A53800FFF744FF2A686B68116899420ED9481ED4
:10A54800106011F8014CEB68298A01FB0434AB68F0
:10A5580011791B1ADBB2994238BF13719DF80700B5
:10A56800FFF750FF204603B030BD37B5054602A8B7
:10A57800002300F8013D0C46FFF720FF2A68136806
:10A58800591C1160E968641A298AB4FBF1F41C703B
:10A598009DF80700FFF736FF03B030BD826810B59D
:10A5A80004462AB143690168006998470023A360FB
:10A5B80010BD0EB403B5039929B102AA04AB42F841
:10A5C800043D00F06BF802B05DF804EB03B070478F
:10A5D800826830B40468551C8560A154D0E9013202
:10A5E8009A4202D330BCFFF7D9BF30BC7047000095
:10A5F8002DE9F84F9946DDE90A4317468246884611
:10A608000A460126BA420FD24E4538BF4E4613F0CD
:10A61800010B01D164B900240125B9F1010F1AD940
:10A6280009F1FF397D43F8E7B2FBF7F20136E9E7B4
:10A638009B070ED5B9F1000F0CBF30252025A64287
:10A64800EAD2013C29465046FFF7C2FF002CF6D15A
:10A65800E1E72025F3E7B8FBF5F39F42E2D9DFF8FD
:10A668003890B8FBF5F3504619F8031005FB13882A
:10A67800FFF7AEFFB5FBF7F5002DF2D1BBF1000FE8
:10A6880002D00CB1A64201D3BDE8F88F2021504674
:10A69800013CFFF79DFFF4E7164002002DE9F74F54
:10A6A800054690460E46002900F03A8116F8011B2F
:10A6B800002958D0252940F0D180002702E047F032
:10A6C80001071646324612F8013B2D2BF7D0302BE6
:10A6D80004D02B2B05D147F00407F2E747F0020717
:10A6E800EFE700242A2B06F101021BD1D8F800302D
:10A6F800191D1B68C8F800101C44164633782E2B09
:10A708001CD101364FF0000A314611F8012BA2F195
:10A718003000092814D80A2303FB0A23A3F1300ABE
:10A728000E46F1E712F8013CA3F130010929E5D8FA
:10A738000A2101FB0434303C1646D3E74FF0000AE7
:10A74800324612F8011B01F0FB0068281646F8D0C3
:10A75800692916D054D8582970D00ED825297DD00B
:10A768003378002BA2D12B7B002B00F0D980284610
:10A7780003B0BDE8F04FFFF711BF632968D0642923
:10A78800EED1D8F80020D2F80090111D89EAE972BC
:10A79800C8F80010A2EBE9724FF0010B092A61DC3E
:10A7A800D34538BFD3462CB1B9F1000F01DB790787
:10A7B80000D5013CBA0702D5BAF1000F04D0FB0757
:10A7C80002D4002C54D10024B9F1000F58DAC9F191
:10A7D80000092D212846FFF7FBFE07F00302022A95
:10A7E80005D1BAF1000F02D1002C4DD10024CDE9DA
:10A7F800004753460A2249462846FFF7F9FEAFE7C5
:10A80800732954D016D87029AAD1D8F800301A1D47
:10A81800C8F80020302128461C68FFF7D9FE7821A7
:10A828002846FFF7D5FE00220823CDE9003221464D
:10A838001022E1E775292FD0782991D1D8F8001096
:10A848000A1DC8F80020CDE90047534610222CE025
:10A85800D8F800301A1D1978C8F800202846FFF7E4
:10A86800B7FE7DE70A230BF1010B92FBF3F295E7A4
:10A87800A345A9D220212846013CFFF7A9FEA0E75D
:10A888007807AAD52B21A5E7A345B0D230212846C1
:10A89800013CFFF79DFEA7E7D8F80010CDE9004777
:10A8A8000A1DC8F8002053460A220968A4E7D8F808
:10A8B80000301A1DC8F80020F907D3F8009012D507
:10A8C8004F46A7EB090B17F8011B41B9A345BFF485
:10A8D80047AF20212846013CFFF77AFEF6E72846D5
:10A8E800FFF776FEEDE7B9F1000F17D0484608F0FC
:10A8F800A9FE0746BC4200D954B909F1FF3919F835
:10A90800011F00293FF42CAF2846FFF761FEF6E748
:10A9180020212846013CFFF75BFEEBE74F46E9E7BD
:10A9280003B0BDE8F08F2DE9F047B0F80690447900
:10A93800D2F800A09DF8208009FB04F4043C0646E8
:10A948000AEB0300A0420F4688BFA4EB030A191DB7
:10A95800C2F800A0B1FBF9F509FB15114DB9A9EB37
:10A968000104544528BF5446BAF1000F04D1BDE88C
:10A97800F0873668013DF1E704317B1970182246EB
:10A98800B8F1000F0ED001461846AAEB040A08F0E9
:10A99800DBFDD145254436684C464FF0000128BF01
:10A9A8005446E1E71946F0E7FFF7A5BDF8B5467943
:10A9B8000146721E0546002393422D6803D30024E6
:10A9C800A64202D8F8BD0133F6E70F682846FFF71C
:10A9D800CCFD01343946F3E72DE9F843068ACD1C4E
:10A9E8000746FFF79FFD043E35440446B5FBF6F5E0
:10A9F800F0B14FF48073EDB28380C680013D0760EB
:10AA080081464FF00008A84512D23846FFF78AFD64
:10AA1800064648B163790133637108F10108C9F842
:10AA2800000007608146EEE72046FFF7BFFF344687
:10AA38002046BDE8F88301210430FFF740BD10B57A
:10AA4800012104460430FFF745FD10F0FF0F04D143
:10AA58002046BDE81040FFF7A9BF10BD1FB504ACE4
:10AA680044F8042D002200922246FFF75CFF04B050
:10AA780010BD1FB504AC44F8042D012200922246F3
:10AA8800FFF751FF04B010BD41DF7047064B10B50A
:10AA980000241C70054B1C60BFF35F8F04490548F8
:10AAA80000F039F8204610BD782C00207C2C0020BE
:10AAB80028400200702C002007B502A8002300F8E7
:10AAC800013DFFF77BFCF1EE103A23F09F03E1EE26
:10AAD800103ABFF35F8F0A4B4022C3F884219DF8D8
:10AAE8000700FFF78FFC04F019FE20B1FFF7CCFF39
:10AAF80003B05DF804FB20BF40BF20BFF8E700BFEC
:10AB080000E100E0836800225A609A60C3E90422E9
:10AB1800DA601A6070470B684A684360934208BF5E
:10AB28000023016008BF43607047436843B102686F
:10AB3800916852680B449342436004BF002343600A
:10AB4800704700000D4930B5A1F594720225914275
:10AB580001D800200EE08B1ADB1093FBF5F302EB13
:10AB6800C30452F83330834205D802D204F10802F4
:10AB7800EDE7606830BD2146E9E700BF7841020093
:10AB880008B5FFF7DFFF024B002808BF184608BDCD
:10AB98003D400200BFF34F8F0549064BCA6802F4D7
:10ABA800E0621343CB60BFF34F8F00BFFDE700BFE8
:10ABB80000ED00E00400FA050C4B1B78062B10D1C1
:10ABC8000B4B1B681A070CD10A4B186800F0F003EE
:10ABD800302B08D000F0E000A0F140035842584163
:10ABE8007047002070470120704700BFE00F00F059
:10ABF800E40F00F0E80F00F0094B1B78062B0CD18E
:10AC0800084B1B681A0708D1074B186800F0F000BA
:10AC1800A0F130035842584170470020704700BFE8
:10AC2800E00F00F0E40F00F0E80F00F008B5FFF7C0
:10AC3800C3FF28B1894B8A4A1B68C3F304231360F6
:10AC4800FFF7DAFF10B1874B874A1A60FFF7B4FFA6
:10AC580028B1864B864A1B68C3F342331360FFF75B
:10AC6800CBFF20B1834AD36823F08073D360FFF70A
:10AC7800A3FF40B14FF080430022C3F80C21C3F872
:10AC88001021C3F83825FFF7B7FF10B17A4B03221C
:10AC98001A60FFF7B1FF40B1784B05221A60012214
:10ACA8009A6700229A603F225A60754B1B78062BE0
:10ACB80050D1744B1B6818074CD1734B1B6803F0B9
:10ACC800F003502B46D14FF08052704BD2F8041449
:10ACD800C3F82015D2F80814C3F82415D2F80C14B8
:10ACE800C3F82815D2F81014C3F82C15D2F8141488
:10ACF800C3F83015D2F81814C3F83415D2F81C1458
:10AD0800C3F84015D2F82014C3F84415D2F8241417
:10AD1800C3F84815D2F82814C3F84C15D2F82C14E7
:10AD2800C3F85015D2F83014C3F85415D2F83414B7
:10AD3800C3F86015D2F83814C3F86415D2F83C1477
:10AD4800C3F86815D2F84014C3F86C15D2F8442437
:10AD5800C3F87025FFF730FF28B14D4B4D4A1B68EB
:10AD680003F04F031360FFF727FF48B14FF080430C
:10AD7800D3F80024D10744BF6FF00102C3F80024C0
:10AD8800454B1B68062B08D1444B1B68062B01BF9B
:10AD9800434A136843F480631360424AD2F8883008
:10ADA80043F47003C2F88830BFF34F8FBFF36F8F3F
:10ADB8004FF01023D3F80C22D2071ED53A4B0122AC
:10ADC800C3F80425D3F80024002AFBD04FF0102242
:10ADD800D2F80C3223F00103C2F80C32324B1A4677
:10ADE800D3F800140029FBD00021C3F80415D2F8C9
:10ADF8000034002BFBD0FFF7CDFED3F80022002A49
:10AE080003DBD3F80432002B23DA274B0122C3F8E3
:10AE18000425D3F80024002AFBD04FF01022152176
:10AE2800C2F80012D3F80024002AFBD04FF01023F8
:10AE38001522C3F804221C4B1A46D3F80014002923
:10AE4800FBD00021C3F80415D2F80034002BFBD046
:10AE5800D1E7164B164A1A6008BD00BF240300103C
:10AE68004035014074C007400DF0ADBA44020010EF
:10AE78003C050040F0ED00E0A00500401056004001
:10AE8800E00F00F0E40F00F0E80F00F000C0004011
:10AE980058020010E40E0040300100103401001088
:10AEA8003C17004000ED00E000E0014008250020CC
:10AEB8000090D003054A4FF0A043105CD3F8043546
:10AEC80023FA00F0C04300F0010070473645020045
:10AED800044B1A5C012393404FF0A042C2F80C3592
:10AEE800704700BF36450200044B1A5C01239340AB
:10AEF8004FF0A042C2F80835704700BF364502003F
:10AF080008B50020FFF7F0FF0120FFF7EDFF022052
:10AF1800FFF7EAFF0320BDE80840FFF7E5BF08B5E3
:10AF28000020FFF7D5FF0120FFF7D2FF0220FFF72F
:10AF3800CFFF0320BDE80840FFF7CABF074A4FF01C
:10AF4800A041105CD1F804350122824022EA0300B6
:10AF58001340C1F80805C1F80C35704736450200A2
:10AF6800014B185C704700BF3245020038B5084CE9
:10AF780004F108030546002818BF1C4623682BB1B6
:10AF88001A6822605B6828469847F7E738BD00BF13
:10AF9800882C002020B9054B01225A70FFF7E6BF24
:10AFA800012802D1014A9070F8E77047802C0020F0
:10AFB80020B9034B01225A70FFF7D8BF704700BF72
:10AFC800802C002038B50B4C237883B90A4863607D
:10AFD800A3602361E36000F05FF8054604F09EFB80
:10AFE80008B900F067F801232370284638BD852585
:10AFF800FBE700BF802C00209DAF010037B502A8F9
:10B008000023094C00F8013DFFF7D8F9E368013B3C
:10B01800E360E56815B900F061F8A5709DF80700D0
:10B02800FFF7F0F903B030BD802C0020012813B5DC
:10B0380009D003D303281BD002B010BD0F4B012247
:10B04800C3F88020F8E702A800230D4C00F8013D62
:10B05800FFF7B4F923780BB9FFF7B4FFE3689DF85D
:10B0680007000133E3600123A370FFF7CBF9E3E79F
:10B0780000F020F8FFF7C2FFDEE700BF00E100E0C4
:10B08800802C002000F18040002382B00360036818
:10B098000193019B02B07047054A13792BB901212E
:10B0A800106011715371184670478520704700BFB2
:10B0B800942C0020084B1A68D20706D4C02283F8C3
:10B0C80000230122C3F880211A604FF08043012237
:10B0D800C3F81825704700BF00E100E0044B0122C7
:10B0E8001A604FF08042D2F81834DB03FBD4704763
:10B0F8000C000040124B1B6810B573B14FF4807000
:10B10800FFF7C0FF4FF080430122C3F808230D4B1F
:10B11800587910B95A711B6898470B4B1B6873B163
:10B128004FF48270FFF7AEFF4FF080430222C3F85E
:10B138000823044B01201B68BDE81040184710BDC8
:10B1480000010040942C00200401004000F18040E0
:10B1580000F5C040002382B0036003680193019B9F
:10B1680002B07047800000F1A040D0F8003723F407
:10B178004033C0F80037D0F8003743EA0141C0F83F
:10B1880000177047054B4FF0FF32072843F820207F
:10B1980084BF1B1883F84820704700BF9C2C0020F0
:10B1A80010B5174C94F8583043BBFF21E21801330F
:10B1B800202B82F83010F9D10021C8B2FFF7E2FF46
:10B1C80001310C29F9D1042200210E4808F0E5F9D3
:10B1D8000D4BC02283F806234022C3F880214FF488
:10B1E800BE701A60FFF7B2FF084B4FF00042C3F879
:10B1F8000423012384F85830002010BD0820FCE700
:10B208009C2C0020F02C002000E100E000600040B1
:10B21800034B93F85800003018BF0120704700BF57
:10B228009C2C0020F0B5394D2C18944694F93040E8
:10B23800002C68DA8E78C6F34006002E15BF00236E
:10B24800082308270C27BB4201D10420F0BD55F87C
:10B25800232001324FEA830441D12F1845F823C037
:10B2680087F8303016B9EA1882F848008A78560705
:10B2780016D4D70735D5820002F1A042D2F800676C
:10B2880026F00206C2F80067214FC60800F0070C36
:10B29800012202FA0CF217F806C042EA0C02BA556B
:10B2A8008A780E7812F0020224D004F1804303F564
:10B2B800C0430002D3F8102522F4473222F440722A
:10B2C800C3F810253604D3F8102500F4F85006F416
:10B2D800403630431043C3F810050020B6E7013369
:10B2E800B1E74E7800F5E0724FF0A047B60047F896
:10B2F8002260C9E7083B2B4493F8500040EA8616C1
:10B3080083F85060E9E70820A0E700BF9C2C0020E4
:10B31800F02C002038B5204C251895F93020072A44
:10B3280018DD224492F848309B09032B0DD14FF0C9
:10B33800A043D3F81035C34013F0010F0CBF02210E
:10B348000321BDE83840FFF70DBF012B14BF0321CF
:10B358000221F6E7D3B2072B1CD8930003F18043F0
:10B3680003F5C043D3F8100540F00100C3F81005F9
:10B3780002F14000800080B2FFF7E8FE51B195F974
:10B38800303054F823302BB1012303FA02F2034B77
:10B39800C3F8042338BD00BF9C2C00200060004087
:10B3A8002DE9FF470024584A584E594D0194012170
:10B3B8001368A2F5C040012B80B206D1D6F8043339
:10B3C8000B4202D0FFF7C2FE0C430432AA424FEAF6
:10B3D8004101EDD14F4B1B68012B0AD14FF4BE70D0
:10B3E800FFF7B4FE4FF0A04344F00044D3F8103503
:10B3F800019314F0FF0F1AD0474F0025012634425D
:10B4080010D0AB0003F1804303F5C043D3F8100517
:10B41800D3F8101557F82530C0F30420C1F30141C3
:10B4280003B198470135082D4FEA4606E7D1002CAD
:10B4380066DA00224FF0FF33CDE90223DFF8D89017
:10B448000127002634464FF0A04809EB060393F97C
:10B458005020531C45D0D2B222F0C005E90804A8F8
:10B46800084402F0070310F804CC07FA03F31CEAB7
:10B47800030F36D009EB050C92099CF930C059F836
:10B488002CA0BAF1000F0AD1032A2AD10DF1080E17
:10B498001EF801C04CEA030C0EF801C001E0032AB3
:10B4A800F4D005F5E07110F80C0C58F8211018428A
:10B4B800C1F3014105D0022913D1032A0BD111464A
:10B4C80004E003290DD1032A05D102212846FFF7FC
:10B4D80049FE0134E4B2BAF1000F02D01146284601
:10B4E800D0470136042EB0D154B14FF0A043019A91
:10B4F800D3F81035934203D00193029B0393A0E73E
:10B5080004B0BDE8F08700BF006100400060004063
:10B51800206100407C6100409C2C0020014B1B688E
:10B52800184700BFF82C00200D4B984237B50D4640
:10B5380010D102A8002300F8013DFEF73FFF094B98
:10B548001C7914B901221D601A719DF80700FEF7D5
:10B5580059FF14B9002003B030BD1120FBE700BF2C
:10B5680000200040F82C002037B5D0F818358A693B
:10B57800DBB28DF807304B6A93423EBF4A699DF8AB
:10B588000740D4544A6A91F82840531C4B6202324F
:10B598003CB10C69A2428C6938BF0A61944288BFE9
:10B5A8008A610D69954205D9CB689B5CC0F81C354A
:10B5B80001200BE08C69944202D991F82030F5E71C
:10B5C800AB42F5D3A3422CBF0020012003B030BD0D
:10B5D80013B50022C0F80821D0F808310193019B67
:10B5E800FFF7C2FFA0B98A7FFF2A1EBF012393403D
:10B5F8004FF0A042084618BFC2F8083500234B7721
:10B6080000F8083FD1E9003102B0BDE81040184702
:10B6180002B010BD01490248FFF7DABF002D002033
:10B628000030004002494FF04020FFF7D1BF00BF73
:10B638002C2D00202DE9F74F06796A4D2C277743EA
:10B6480005EB070A9B469AF81C3080460C46914643
:10B65800002B40F0C280644B006853F82610FFF7B7
:10B6680063FF002840F0BB8045F80790CAF804B093
:10B6780094F800C0277B4FF0A042012303FA0CF393
:10B68800012F94BFC2F80C35C2F808350CF5E073E9
:10B69800012142F823106378FF2B1FBF9940C2F89D
:10B6A8000C1503F5E0714FF0030E18BF42F821E0C6
:10B6B800A27808BF4FF0FF33FF2A1FBF02F5E071E1
:10B6C8004FF0A04E4FF0040B4EF821B098F804103C
:10B6D80001914FF02C0E0EFB015E18BF92468EF8BA
:10B6E8001F20E27808BF4FF0FF3AFF2A0CD04FF036
:10B6F800A04B4FF0010E0EFA02FECBF808E502F55A
:10B70800E07E03214BF82E1001994FF02C0E0EFB12
:10B71800015E8EF81E20D8F80020C2F808C5C2F8CD
:10B728000C35A368C2F810A5C2F82435637B003332
:10B7380018BF0123022F4AD0032F4BD0012F01D16C
:10B7480043F002030199C2F854352C2303FB01513D
:10B75800637981F82030B9F1000F02D00423C2F8D0
:10B7680004330123C2F80035B9F1000F25D0120BBC
:10B7780053B22179002BA8BF03F16044D2B24FEA3B
:10B788005313B8BF02F00F074FEA4111B4BF174C6B
:10B7980004F561444FEA8303C9B203F16043B4BFBF
:10B7A800E15584F8001303F5614302F01F020121FB
:10B7B80001FA02F2C3F880211A602C2303FB065514
:10B7C80000236B7701232B7703B0BDE8F08F43F09C
:10B7D8000403B7E743F00603B4E70820F4E71120B1
:10B7E800F2E700BF002D00205C45020014ED00E0E8
:10B7F8002DE9F7430679424D2C2373439646EA1800
:10B808000F46517F8146002978D155F803C0BCF115
:10B81800000F01D00123537797E80F002C2404FB75
:10B82800065404F10C0888E80F00A27F0023FF2AC1
:10B8380084F828301FBF012393404FF0A042C2F87C
:10B848000C352C23BEF1000F07D003FB0653002252
:10B858005A77062003B0BDE8F083D9F800400422E7
:10B86800C4F8082303FB0653C4F808E1D4F80821F8
:10B87800C3F824E00092009A7A688AB13B681B7882
:10B88800C4F81C35012A0ED93B685B78C4F81C350E
:10B89800BCF1000F10D00423C4F804330020D9E70A
:10B8A80093F82030ECE7FB68012BF1D92C2303FB3C
:10B8B800065393F82030E9E74FF02C0806FB0858A8
:10B8C8006746D4F80831002BFBD0C4F80871D4F8C7
:10B8D8000831019341462046019BFFF745FE0028A9
:10B8E800EFD12C2303FB0655AA7FFF2AB2D00123F0
:10B8F80093404FF0A042C2F80835ABE71120A9E702
:10B90800002D00207FB503788DF80430436802933A
:10B9180083688DF80C30C368049303698DF814307C
:10B92800054A064B01A853F8213052F821109847D0
:10B9380007B05DF804FB00BF582D0020642D0020DF
:10B9480030B4084D10F8044B45F82420064D002A61
:10B9580045F82430054A234608BF002230BCFFF7CB
:10B9680069BE00BF642D0020582D00200DB90100CC
:10B9780008B5094B1B7853B10020FFF7B5FA012031
:10B98800FFF7B2FA0320BDE80840FFF7ADBABDE8FB
:10B998000840FFF7B5BA00BF702D0020F8B57A4C03
:10B9A800237805461BB100232370FFF7E1FF172D0D
:10B9B80000F28680DFE805F00C1717435465757EA2
:10B9C800868B868B939898989898C2C7CFD7E2E2CF
:10B9D800FFF7CEFF6D48FEF7E1FC6D4B00220446F1
:10B9E8001A702046F8BD0020FFF764FAF8B100206D
:10B9F800FFF77AFA022D0CBF4FF4E1614FF47A6138
:10BA0800634B1D704FF400404FF47A540025E0FB5F
:10BA180001454FF4FA4200232046294607F04AFC24
:10BA2800002201465948BDE8F840FEF773BCFFF70D
:10BA38004FFA022D0CBFC8214FF4C871E0E700206F
:10BA4800FFF738FA40B10020FFF74EFA4FF448717B
:10BA58004F4B03221A70D5E7FFF73AFAC821F7E7E8
:10BA68000020FFF727FA38B10020FFF73DFA4FF41E
:10BA78007A61474B0422EDE7FFF72AFA4FF4C871C1
:10BA8800F7E70020FFF716FA40B10020FFF72CFA7D
:10BA98003F4B05221A70CD210022C3E7FFF718FAA1
:10BAA800F6E70020FFF74AFA394B06221A700022FF
:10BAB8006621B7E70020FFF70BFA354B07221A700B
:10BAC80000248EE701202070FFF738FAEFE7012005
:10BAD8002070FFF733FA00224FF40071A2E7FFF756
:10BAE8001EFA2B4B0C22EAE72A482B4EFEF756FC8F
:10BAF800D5F1110504461CD0D8B9012D13D0C8239F
:10BB08005D434FF400474FF47A5000214FF4FA4256
:10BB18000023C7FB050107F0CDFB224601461D485F
:10BB2800FEF7F8FB04460220FFF7D2F90123337031
:10BB380057E70220FFF7D8F90023F8E7FFF718FFC7
:10BB4800134B1222BBE7FFF713FF0020FFF7C0F9E2
:10BB58000F4B1322B3E7FFF70BFF0120FFF7B8F9EC
:10BB68000B4B1422ABE7FFF703FF0020FFF7B0F9F8
:10BB78000120FFF7ADF9064B1522A0E7FFF7CFF933
:10BB8800034B1D709CE700BFC42D0020942D00209E
:10BB9800C52D0020742D0020702D0020044B1B683B
:10BBA80013F0010301D0FFF7F9BE1846704700BF34
:10BBB800C02D0020032812D8012A0BD1012908D151
:10BBC80000F10E02D2B200EB40000C4B1A540020D8
:10BBD800704700220129F6D009D3022901D0072095
:10BBE8007047064B00EB400018444270EFE7034BE8
:10BBF80000EB400018448270E9E700BFB42D002034
:10BC0800032808B512D8FFF7ABF9800000F1A0406F
:10BC1800D0F8003723F44033C0F80037D0F80037A5
:10BC280043F44033C0F80037002008BD0620FCE785
:10BC380008B5012202210020FFF7BCFF08B1072840
:10BC480010D1072202210120FFF7B4FF08B107280D
:10BC580008D100210A220846FFF7ACFF10B10728D7
:10BC680008BF002008BD00000388102B10B502D0C3
:10BC7800112B1ED010BD1A4C2168B1B901220846FB
:10BC8800FFF798FF08B1072824D1072202210120D5
:10BC9800FFF790FF08B107281CD1042202210020D9
:10BCA800FFF788FF08B1072814D123680133236000
:10BCB800E0E70B4A1368013B1360002BDAD1FFF76A
:10BCC800B7FF0028D6D0074B1B68002BD2D0BDE8A1
:10BCD80010401847034B1B68002BE6D09847E4E751
:10BCE800CC2D0020C82D002008B50020FFF788FFC4
:10BCF80008B1062806D10120FFF782FF10B10628F7
:10BD080008BF002008BD76DF704777DF70477ADF0D
:10BD180070477CDF70477FDF70478FDF7047B1DF88
:10BD2800704733DF70473FDF70470000024B8001E8
:10BD380043F00103184700BF9045020000F180401E
:10BD480000F5E040002382B0036003680193019B83
:10BD580002B07047014B01221A7070473833002037
:10BD6800014B024A9A6270475C3300200000C842C7
:10BD7800034B044A9A62044B00205B6E184700BFCD
:10BD88005C330020000020C2384B020030B41E296A
:10BD98008AB007EE102A07EE903A0ED1002302A9C6
:10BDA800C25CCA5401331E2BF9D10C460FCC0B4D83
:10BDB8000FC594E80F0085E80F00094BB8EEC77A65
:10BDC800F8EEE77A83ED027AC3ED057A054B5B6EF0
:10BDD800019300200AB030BC184700BF043200208D
:10BDE8005C330020384B0200FDF7FEBF08B5002089
:10BDF800FFF7D4FE08B1FDF7F7FFFFF775FF08B1AD
:10BE0800FDF7F2FFFFF78DFF18B1BDE80840FDF719
:10BE1800EBBF08BD0388212B13B504463BD01FD8C0
:10BE2800112B28D0132B3ED0102B32D1264B27486C
:10BE38002749C01AC008000440F00300FDF7FCFDC4
:10BE48000720FFF7ABFE08B1FDF7CEFF214BA18815
:10BE58002148198003F036FAD8B1FDF7C5FF18E07C
:10BE6800522B28D0562B01D03B2B12D11321A0885E
:10BE7800FFF749FFF0E7144B14481849C01AC008E7
:10BE8800000440F00300FDF7D7FD124B4FF6FF7298
:10BE98001A8002B010BD02A9002321F8043D808851
:10BEA800FFF73BFFD8E70B4800231A468521008897
:10BEB800FFF731FFD0E7074800231A4619460088E4
:10BEC800FFF72DFFC8E700BF583E0200883E02007A
:10BED800784502002E250020F83200208245020015
:10BEE80010B504464FF47A70FFF720FF013CF9D1F2
:10BEF80010BD08B1FFF7F4BF704700000D4B4A882A
:10BF08001B889A4214D10A8840F677239A420FD1A7
:10BF18008B88094A09480A49033B9BB21380094A9E
:10BF2800801AC00800041A4640F00300FDF792BDCD
:10BF3800704700BF2E2500202C250020883E0200D7
:10BF480096450200583E020008B503784BB9054BE8
:10BF58003B211888FFF7D7FE18B1BDE80840FDF768
:10BF680043BF08BD2E25002008B548B103280BD1D2
:10BF78000220FFF713FE38B1BDE80840FDF734BFD3
:10BF8800BDE80840FFF732BF08BD000038B50E4BCA
:10BF98000E4D01221A702B78A3B10D4B0D4C0E4992
:10BFA800E41AE408240444F003042046FDF744FDA1
:10BFB800284607F047FB294682B22046BDE83840AC
:10BFC800FDF75EBD38BD00BF4C33002004330020B0
:10BFD800583E0200883E0200DC4602001FB5CDE94B
:10BFE8000001CDE90223694600220348FFF700FC5F
:10BFF80005B05DF804FB00BFD04602002DE9F04112
:10C00800002488B0184E8846174621461E226846E6
:10C018001D46347007F0C1FA8DF80080631CE4B245
:10C02800AC4218D34FF0A0434FF00052C3F80C2590
:10C038006B1CDBB2002219466846FFF7CFFF337846
:10C0480083B14FF0A0434FF000520020C3F80825F9
:10C0580008B0BDE8F08108AA2244395D02F81F1C27
:10C068001C46DBE720BFEAE74C3300202DE9F0410E
:10C078004FF0000890B01D4C0F46164641461E2250
:10C0880068461D4684F8008007F087FA1E2241465C
:10C0980008A807F082FA4FF0A0434FF0005267F06B
:10C0A8007F078DF80070C3F80C256B1CDBB208AA5B
:10C0B80019466846FFF792FF237873B14FF0A04303
:10C0C8004FF00052C3F8082500235A1CDBB2AB42DC
:10C0D80005D3002010B0BDE8F08120BFECE710A91F
:10C0E800194411F81F1CF1541346EEE74C33002095
:10C0F80070477047FDF778BE08B50849084802F050
:10C10800F5FF08B1FDF770FEF721054803F000F8C8
:10C1180018B1BDE80840FDF767BE08BD05BF0100BE
:10C12800E4320020104A08B50323C2F8F035022390
:10C13800C2F8F4356FF00043C2F808334FF4827048
:10C14800FFF7FCFD4FF48070FFF7F8FD0123C2F8FC
:10C158000035064BC2F828350023C2F824350923D8
:10C16800C2F8203508BD00BF00700040000005017E
:10C178001FB51D490122C1F800254FF48270C1F88E
:10C188002CD6C1F83026FFF7D9FD184B0A601A6083
:10C1980042F2107203F58073196801B9FAB9144BA9
:10C1A800012119604FF48070FFF7C8FD4FF48270C9
:10C1B800FFF7C4FD0C4B0021C3F800158AB1BDF888
:10C1C800000040F6E3034FF47A7210FB023041F2AC
:10C1D800C71390FBF3F080B205B05DF804FB013A99
:10C1E800DAE742F20F70F7E7007000400470004091
:10C1F800087000401FB5104B0FCB6C4684E80F0049
:10C2080040F20343ADF800301C238DF802300B4A8E
:10C218000B4800232146FFF793FB08B1FDF7E4FD27
:10C22800084B09480949C01AC008000440F0030037
:10C23800FDF702FC04B010BD6845020095BF01007F
:10C24800CC460200583E0200883E0200E746020043
:10C2580030B500258BB0204C14222946684625703D
:10C2680007F09BF9142229460DEB020007F095F917
:10C2780006238DF800304FF0A0434FF40072C3F846
:10C288000C25012305AA19466846FFF7A7FE23785F
:10C29800F3B14FF0A0434FF400721049C3F80825DA
:10C2A800009101218DF8041000212170C3F80C259C
:10C2B800052305AA19466846FFF790FE23784BB177
:10C2C8004FF0A0434FF40072C3F808250BB030BDFF
:10C2D80020BFDCE720BFF1E74C33002002008000DC
:10C2E80030B500258BB0204C1422294668462570AD
:10C2F80007F053F9142229460DEB020007F04DF917
:10C3080006238DF800304FF0A0434FF40072C3F8B5
:10C318000C25012305AA19466846FFF75FFE237816
:10C32800F3B14FF0A0434FF400721049C3F8082549
:10C33800009101218DF8041000212170C3F80C250B
:10C34800052305AA19466846FFF748FE23784BB12E
:10C358004FF0A0434FF40072C3F808250BB030BD6E
:10C3680020BFDCE720BFF1E74C330020020080014A
:10C3780030B500258BB0254C142229466846257017
:10C3880007F00BF9142229460DEB020007F005F916
:10C3980006238DF800304FF0A0434FF40072C3F825
:10C3A8000C25012305AA19466846FFF717FE2378CE
:10C3B8003BB34FF0A0424FF40071154BC2F808157B
:10C3C8001B6814480090C3F307408DF804008DF8EB
:10C3D8000630C3F307200023237007238DF80500D8
:10C3E800C2F80C15684605AA1946FFF7F7FD237829
:10C3F8004BB14FF0A0434FF40072C3F808250BB0BF
:10C4080030BD20BFD3E720BFF1E700BF4C33002089
:10C418000032002002008003F0B500268BB04D4C9E
:10C428001422314605466846267007F0B6F81422ED
:10C4380031460DEB020007F0B0F806238DF8003006
:10C448004FF0A0434FF40072C3F80C25012305AA4E
:10C4580019466846FFF7C2FD2378002B75D04FF0C8
:10C46800A04605F501404FF400774FF0020C3A4D15
:10C47800C6F808758DF800C0C0F3074C374B8DF827
:10C4880001C08DF80300C0F3072C286859688DF89F
:10C4980002C0C0F3072C8DF804008DF805C0C0F366
:10C4A800074CC0F307609A688DF80700C1F30720AE
:10C4B8008DF808108DF80900C1F30740C1F3076132
:10C4C8009B698DF80B10C2F307218DF80C208DF8AD
:10C4D8000D10C2F30741C2F307628DF80F20C3F3B2
:10C4E80007228DF810308DF81120C3F30742C3F3EB
:10C4F80007638DF813300023237014238DF80A0086
:10C508008DF80E108DF812208DF806C00DEB030281
:10C51800C6F80C7519466846FFF760FD2378B3B175
:10C528004FF0A0434FF40072C3F808250C4AD5ED2C
:10C53800007A1368103313600A4B93ED007A77EE94
:10C54800877AC5ED007A0BB0F0BD20BF84E720BF25
:10C55800E4E700BF4C330020F83100205C330020B2
:10C5680000320020283200202DE9F04FC9B0842283
:10C57800002106A807F011F88422002127A807F057
:10C588000CF84FF42F70FFF7D1FB5A4F00244FF0EF
:10C59800A0454FF400764FF000033B7006238DF85A
:10C5A80018304FF40073C5F80C35012327AA194633
:10C5B80006A8FFF713FD3B78002B00F09680DFF804
:10C5C8004881C5F8086502238DF81830D8F800307E
:10C5D80003F50143C3F307428DF819208DF81B308A
:10C5E800C3F307224FF000033B70434B8DF81A202A
:10C5F800D3ED007A414BC5F80C6593ED007A404BBA
:10C608001B6823440AAA03F108010092019106AAB3
:10C618000DF10C0C0DF1100E0DF114093F2B3948DA
:10C62800CDED027A19464FF00C0AC8BFA3F14001BC
:10C638000AFB0101D1F800A0CCF800A0D1F804A0B1
:10C648008968C9F80010CEF800A0002102A802EB02
:10C65800010A10F801B08AF804B001310429F5D1B3
:10C66800002102EB010A1CF801B08AF808B0013178
:10C678000429F6D1002102EB010A11F80EB08AF85C
:10C688000CB001310429F6D10021009811F809A055
:10C6980000F801A001310429F7D1014610310091B9
:10C6A800019901338B4277EE877A02F11002B5D1F6
:10C6B800114BC3ED007A842327AA194606A8FFF771
:10C6C8008DFC3B789BB1C5F80865D8F800304FF46D
:10C6D8002F7080330834C8F80030FFF727FB402C50
:10C6E8007FF459AF49B0BDE8F08F20BF63E720BFA2
:10C6F800E7E700BF4C330020F83100202832002043
:10C70800F4310020F42E0020003200201FB5204C08
:10C71800002300F501402370CDE90133039303237F
:10C728008DF80030C0F307438DF80130C0F30723BC
:10C738008DF802304FF0A0434FF400728DF80300DB
:10C74800C3F80C2508230DEB030219466846FFF7CA
:10C7580045FC2378D3B14FF0A0434FF40072C3F8DF
:10C7680008259DF80C20002362F307039DF80D208F
:10C7780062F30F239DF80E2062F317439DF80F20F4
:10C7880062F31F6300EE103A04B010BD20BFE0E76B
:10C798004C3300201FB51C4C0023CDE90033237017
:10C7A800CDE9023303238DF800304FF46073ADF800
:10C7B80002304FF0A0434FF40072C3F80C25072352
:10C7C80002AA19466846FFF709FC2378D3B14FF04F
:10C7D800A0434FF40072C3F808259DF80C200023ED
:10C7E80062F317439DF80D2062F30F239DF80E2086
:10C7F80062F30703054A9342054A88BF0023136082
:10C8080004B010BD20BFE0E74C330020FEFFFF005E
:10C81800003200201FB5134C0023CDE900332370EC
:10C82800CDE9023303238DF8003080238DF80230E0
:10C838004FF0A0434FF40072C3F80C25052302AA59
:10C8480019466846FFF7CAFB23784BB14FF0A0435F
:10C858004FF40072C3F808259DF80C0004B010BD11
:10C8680020BFF1E74C3300201FB5144C0023CDE95D
:10C8780000332370CDE9023303238DF800304FF4E1
:10C88800C073ADF802304FF0A0434FF40072C3F804
:10C898000C25052302AA19466846FFF79FFB237853
:10C8A8004BB14FF0A0434FF40072C3F808259DF830
:10C8B8000C0004B010BD20BFF1E700BF4C330020CE
:10C8C8002DE9F043002485B0CDE9014403224FF45B
:10C8D8000077204D03948DF800204FF0A046B8460D
:10C8E800DFF87490D9F8003003F50143C3F3074229
:10C8F8008DF801208DF80330C3F3072208238DF843
:10C9080002201946C6F80C850DEB030268462C7008
:10C91800FFF764FB00E020BF2B78002BFBD0C6F8A4
:10C9280008759DF80C30FF2B0BD19DF80D30FF2BAF
:10C9380007D19DF80E30FF2B03D19DF80F30FF2B48
:10C9480005D0D9F800301033C9F80030C8E705B071
:10C95800BDE8F0834C3300200032002013B51B4C97
:10C96800002323708DF8043006238DF800304FF033
:10C97800A0434FF40072C3F80C25012301AA1946FD
:10C988006846FFF72BFB2378E3B14FF0A0434FF441
:10C998000072C721C3F808258DF800100021217006
:10C9A800C3F80C25012301AA19466846FFF716FBB0
:10C9B80023784BB14FF0A0434FF40072C3F8082519
:10C9C80002B010BD20BFDEE720BFF1E74C330020E6
:10C9D80010B52DED028B104C8AB0224606A9032013
:10C9E80005F066FBDDE9080105F01BFCDFED0B7ABD
:10C9F80007EE100A87EE278ADDE9060105F011FC2B
:10CA08000190204605F0E1FADDED010AB0EE480A92
:10CA18000AB0BDEC028B10BD282E002000007A441D
:10CA280013B5FFF7D5FF224C10EE100A84ED010A6A
:10CA3800C4ED0A0A05F0D9FB17A3D3E9002305F0D2
:10CA480027FE05F0EEFB05F0D0FB9FED151B41EC32
:10CA5800100B06F0A5FA51EC100B05F0E2FB07EEFF
:10CA6800100AF7EE007A77EEC77A17EE900A05F00B
:10CA7800BCFB0DA3D3E9002305F054FD05F0D1FB61
:10CA8800D4ED037A07EE100A77EE677AC4ED047ADC
:10CA980002B010BDAFF30080CDCCCCCCCC54594003
:10CAA8003CDD79E2395BC83F9A999999B3BE014157
:10CAB8005C33002000000000F8B57B4C7B4B94ED04
:10CAC800067A93ED006AD4ED027AD4ED096A784BC0
:10CAD800784AD3ED005A784B7849E7EE067AA6EE05
:10CAE800267AE6EEA57AD3ED005A754B94ED046AE2
:10CAF80084ED067A93ED007AC4ED027A36EE477A31
:10CB08002DED028BC7EE257A83ED006AC2ED007A1F
:10CB18006C4A6D4B92ED007A1B78C2ED007A37EEC5
:10CB2800C77AC7EE256AC1ED006ABBBBFDEEE67A9F
:10CB380017EE900A06F0A9FC05F0F2FA0022634B02
:10CB480005F005FF50B3D4ED027A94ED047A604BFA
:10CB580037EE677A83ED007A5E4BD3ED006A5E4B61
:10CB6800E7EE267A93ED006AD4ED066A5B4BC4EDD6
:10CB7800027AE7EE066A93ED006AC4ED066AD4ED20
:10CB8800096AE7EE066A94ED057AC4ED096AF4EEDF
:10CB9800C77AF1EE10FAC8BFC4ED057A504B94ED90
:10CBA800068A1B7823B34F4D2B780BB3DFED4E7AF3
:10CBB800B4EEE78AF1EE10FA1ADD606A05F015FBAB
:10CBC80037A3D3E9002305F0C2FE88B100232B70F8
:10CBD800464B1A68464B1A60464B1A683D4B1A601A
:10CBE800454B1A683C4B1A60444B1A683B4B1A6019
:10CBF800E06905F0FAFA0022414B05F093FC06467D
:10CC080018EE100A0F4605F0F0FA02460B463046B9
:10CC1800394605F043FB00223A4B05F039FD05F093
:10CC280000FB394BE0611A7807EE900A92B9B8EE2A
:10CC3800007AF4EEC77AF1EE10FA0BD501221A70D9
:10CC48002A4A92ED007A314AF2EE0E6A37EE267AD7
:10CC580082ED007A1B78EBB1B8EE007AF4EEC77A71
:10CC6800F1EE10FA16DD214B93ED007A274BD3ED48
:10CC7800007AB4EEE77AF1EE10FA0BDD94ED027A61
:10CC8800DFED197AB4EEE77AF1EE10FA42BF204BE5
:10CC980001221A70BDEC028BF8BD00BFAFF3008013
:10CCA8009A999999991940C05C3300205033002013
:10CCB800543300208833002024250020142E00201F
:10CCC800182E00208C3300201F2E00200040DF404B
:10CCD800E82D0020EC2D0020F02D0020F42D002060
:10CCE80026320020F02E002000004842F8310020B3
:10CCF800583300201025002018250020202500206A
:10CD080000003340000034401D2E00205425002030
:10CD180025320020074B084A5A601A6000229A60A0
:10CD2800DA605A611A619A61DA611A625A62034AD0
:10CD38009A6270475C33002066A6CA4200006C42C3
:10CD48001FB5134B0193134B13481A68C2F30721FD
:10CD5800D3B28DF808308DF809100B44C2F307419F
:10CD680051FA83F3C2F307628DF80B2052FA83F36A
:10CD780004AA8DF80C30092322F80E3D074B8DF8D4
:10CD88000A101B8801A902F00FFC05B05DF804FB2E
:10CD9800F50304FC00320020302500202E25002059
:10CDA80073B50023ADF8063040F2F55302ACADF888
:10CDB8000430FA238DF80730042324F8063D0B4D80
:10CDC8000B482B88224601A902F0EEFB58B1084E09
:10CDD8000520FFF785F82B88224601A9304602F086
:10CDE800E3FB0028F4D102B070BD00BF2E2500205F
:10CDF800302500207FB5124B0193124B9A6803929D
:10CE08005A699B6A029300238DF814300423049214
:10CE18000DEB0301585C9DF8142001330244102BDC
:10CE28008DF81420F6D106AA112322F8163D064BD8
:10CE380006481B8802F0B8FB07B05DF804FB00BF8A
:10CE4800F5010C025C3300202E250020302500203F
:10CE580030B5144D0FCD95B002AC0FC495E80F0056
:10CE680084E80F00104B0A9300231A4602ACA15C19
:10CE78000AA8104401320B441E2A0171DBB2F6D114
:10CE88000022ADF84A2014AA8DF84C30252322F848
:10CE98004A3D064B06481B880AA902F085FB15B0D7
:10CEA80030BD00BF04320020F508201D2E250020CB
:10CEB80030250020054B01221A70054B00221A600C
:10CEC800044B00221A60FFF7C3B900BF39330020B2
:10CED80000320020F831002008B5FFF7EBFF024BC5
:10CEE80000221A7008BD00BF1E2E00200378ABB9BF
:10CEF800838A042B12D101698B787BB94A780B7825
:10CF0800C9781344DBB2994208D1F22A07D0F42A2F
:10CF180007D0F12A02D1044B01221A707047FFF79B
:10CF2800DBBF024BF8E700BF1C2E0020FC310020BD
:10CF38002DE9F04FADF50B7DFFF702FF4F4B1E6853
:10CF48004F4B18888008053805F0EAF841EC100BBB
:10CF580006F0CAF851EC100B05F031F905AD04469E
:10CF68004FF405720021284606F017FB7F2C4FEA84
:10CF7800960639D83F2C39D81F2C39D80F2C39D8D8
:10CF8800072C39D8032C39D8012C8CBF0224012452
:10CF980040F2F5732B80E3B25A1CB6FBF4F0033B66
:10CFA800AA70EB7005F0D3F841EC100B05F012FDF8
:10CFB800A400631D009351EC100BA31D019305F011
:10CFC800D7F8DFF8C090DFF8C0A00DF11D03C5F158
:10CFD800000883461F1900265E4511D1FFF7E0FEC1
:10CFE8000DF50B7DBDE8F08F8024D1E74024CFE715
:10CFF8002024CDE71024CBE70824C9E70424C7E799
:10D00800F1B229710DF11900021D974211D1009B4F
:10D01800E954019BADF81230B9F800300DF1120255
:10D028002946504602F0C0FA28B30520FEF758FFFB
:10D03800F2E705384044CDE90212FFF767FB10EE2E
:10D04800100A039A0299C3B2C0F3072C02F8043CF1
:10D0580063440B44C0F3074151FA83F3C0F30760FC
:10D0680050FA83F302F8021C02F8010C02F803CC10
:10D07800D9B21046C8E70136A044ADE70032002017
:10D088002C2500202E25002030250020000000003F
:10D0980038B53B4B3B4C00221A70FFF75FFC64200D
:10D0A800FEF71EFFFFF7BCFCFFF734FE6420FEF717
:10D0B80017FFFFF7B5FC6068206005F096F82AA313
:10D0C800D3E9002305F0E4FA05F0ABF8E06005F0D9
:10D0D8008CF89FED271B41EC100B05F061FF51EC1C
:10D0E800100B05F09EF807EE100AF7EE007A77EEBF
:10D0F800C77A17EE900A05F078F81FA3D3E9002342
:10D1080005F010FA05F08DF81F4BE060A56860681F
:10D1180003F5407100225D6018609A600C338B4201
:10D12800F9D11A4900230B6019490B6019490A60A3
:10D1380019490A60194A01211170194A1370194ACC
:10D148001370194A1370194A1370194B1A68194B3E
:10D158001A60194B1A68194B1A60194B1A68194B3F
:10D168001A6038BDAFF30080CDCCCCCCCC5459403C
:10D178003CDD79E2395BC83F9A999999B3BE014180
:10D18800393300205C330020F42E0020F4310020D5
:10D1980000320020F8310020583300201E2E0020D5
:10D1A800263200201D2E00202532002024320020A7
:10D1B8000C250020EC2D002014250020F02D002047
:10D1C8001C250020F42D00201FB50023ADF80C30DD
:10D1D8008DF80E300D4B0293FEF7CAFF04AAC0F378
:10D1E8000723C0B28DF80D308DF80C0018440723C2
:10D1F80022F80A3D064B8DF80E001B88054802A947
:10D2080002F0D2F905B05DF804FB00BFF50202F99F
:10D218002E250020302500201FB50E4B0E481A7809
:10D228000E4B19784FF0000361F3000362F34103DA
:10D238000B4A029204AA8DF80C308DF80D300623A3
:10D2480022F80A3D074B02A91B8802F0ADF905B088
:10D258005DF804FB39330020302500201E2E002005
:10D26800F50601FC2E25002038B5032304460125C8
:10D2780080F8AB30002380F8A95080F8AA5080F8D5
:10D28800AC3080F8AD300146362004F011FC84F84B
:10D29800A8502046BDE8384004F097BE09490A481E
:10D2A8000B6810B50C2202FB0302084801334468DE
:10D2B8001460402B84688069546008BF0023906024
:10D2C8000B6010BDF4310020F42E00205C330020E8
:10D2D800002370B51A461C46CD1C5E1CDBB29D426D
:10D2E80003DA08448271C47170BD03449B781A4400
:10D2F800D2B21444E4B23346EFE700002DE9F0411E
:10D30800ADF5007DFF220021684606F046F9F122BE
:10D3180000210DF5877006F040F9002640ACFF2388
:10D3280033550136FF2EFBD1DF4AE049E04D00239B
:10D33800C4E90012A360A381082120462B70FFF7DF
:10D34800C7FF4FF0A0434FF48062C3F80C25314665
:10D3580033466A462046FEF741FE2B78002B00F044
:10D368009A814FF0A0464FF480670A20C6F80875E6
:10D37800FEF7DCFC00232B70082101232046E37113
:10D38800FFF7A6FFFF23C6F80C756A461946204624
:10D39800FEF724FE2B78002B00F07F814FF0A0468B
:10D3A8004FF480670A20C6F80875FEF7BFFC002313
:10D3B8002B70082102232046E371FFF789FFFF2322
:10D3C800C6F80C756A4619462046FEF707FE2B7804
:10D3D800002B00F064814FF0A0464FF480670A20CC
:10D3E800C6F80875FEF7A2FC00232B70082103235A
:10D3F8002046E371FFF76CFFFF23C6F80C756A46F9
:10D4080019462046FEF7EAFD2B78002B00F04981EB
:10D418004FF0A0464FF480670A20C6F80875FEF75B
:10D4280085FC00232B70082104232046E371FFF7B5
:10D438004FFFFF23C6F80C756A4619462046FEF7CB
:10D44800CDFD2B78002B00F041814FF0A0464FF422
:10D4580080670A20C6F80875FEF768FC00232B7061
:10D46800082105232046E371FFF732FFFF23C6F8A2
:10D478000C756A4619462046FEF7B0FD2B78002B3E
:10D4880000F026814FF0A0464FF480670A20C6F8C6
:10D498000875FEF74BFC00232B700821412320461A
:10D4A800E371FFF715FFFF23C6F80C756A461946A6
:10D4B8002046FEF793FD2B78002B00F00B814FF0F0
:10D4C800A0464FF480670A20C6F80875FEF72EFCC0
:10D4D80000232B7040F20173E380082101232046CA
:10D4E8002373FFF7F5FEFF23C6F80C756A46194645
:10D4F8002046FEF773FD2B78002B00F0ED804FF0EF
:10D50800A0434FF48062C3F808250027FF23E355A2
:10D518000137FF2FFBD1DFF8B08100266420C4E972
:10D528000086C4E902662682FEF700FC31462046E2
:10D538002E70FFF7CDFE4FF0A0434FF48062C3F882
:10D548000C2539463B466A462046FEF747FD4346CA
:10D558002A78002A00F0C2804FF0A0424FF4806180
:10D56800C2F808150026FF22A2550136FF2EFBD16E
:10D578002360504B0C27C4E901734F4BE360012330
:10D5880023820A20FEF7D2FB0023394620462B705F
:10D59800FFF79EFE4FF0A0434FF48062C3F80C25BE
:10D5A800314633466A462046FEF718FD2B78002B95
:10D5B80000F096804FF0A0434FF48062C3F808252E
:10D5C8000026FF23A3550136FF2EFBD13B4B4FF01E
:10D5D80014080027C4E900384FF46023C4E902376F
:10D5E800A3F55C032361364B63610A202783FEF7AA
:10D5F8009DFB414620462F70FFF76AFE4FF0A0437F
:10D608004FF48062C3F80C25314633466A462046FB
:10D61800FEF7E4FC2B78002B64D04FF0A0434FF4C6
:10D628008062C3F808250023FF22E2540133FF2B50
:10D63800FBD1244B23602423A3800123A37140AD95
:10D64800072300265E5501332C2BFBD10A20184CEA
:10D65800FEF76CFB242128462670FFF739FE4FF0B1
:10D66800A0434FF48062C3F80C25FF236A4619468D
:10D678002846FEF7B3FC2378002B35D04FF0A043A3
:10D688004FF48062C3F808250A20FEF74FFB0DF51A
:10D69800007DBDE8F08120BF5FE620BF7AE620BFAD
:10D6A80095E620BFB0E600BF0800F000B5620601AD
:10D6B8004C330020FF01020308000100B562061E7A
:10D6C80000008080B5620624B562063E20BFB8E639
:10D6D80020BFD3E620BFEEE620BF0CE720BF37E728
:10D6E80020BF63E720BF95E720BFC4E70000000024
:10D6F8002DE9F0412DED028BFF24ADF5027D0026CA
:10D70800834D2246314602A82E7005F046FF224678
:10D71800314642A88DF8084005F03FFF4FF0A0437E
:10D728004FF480628DF808412146C3F80C2502A801
:10D73800234642AAFEF752FC2B78002B00F0D1803A
:10D748004FF0A0434FF48062C3F808259DF82631B6
:10D75800704D9DF825619DF82271AF70002463F328
:10D7680007049DF82731EE7063F30F249DF82831E4
:10D7780063F317449DF8293163F31F649DF82A3138
:10D788002C61A04663F307049DF82B3163F30F2443
:10D798009DF82C3163F317449DF82D3163F31F6412
:10D7A8009DF83231EC6063F307049DF8333163F37D
:10D7B8000F249DF8343163F317449DF8353163F332
:10D7C8001F649DF846316C6108EE104A63F3070444
:10D7D8009DF8473163F30F249DF8483163F31744EC
:10D7E8009DF8493163F31F64204604F099FC3EA379
:10D7F800D3E9002304F096FE04F0BAFC9DF84A3100
:10D80800688363F307049DF84B3163F30F249DF895
:10D818004C3163F317449DF84D3163F31F64204680
:10D8280004F07EFC30A3D3E9002304F07BFE04F06F
:10D838009FFC9DF84E31288363F307049DF84F3110
:10D8480063F30F249DF85031F8EEC87A63F3174458
:10D858009DF8513117EE900A63F31F6442F210737A
:10D8680094FBF3F4AC8304F0C0FC21A3D3E90023B8
:10D8780004F058FE20A3D3E9002304F009FF04F0C4
:10D88800D0FC254CA060404604F04AFC1CA3D3E918
:10D89800002304F047FE04F0C4FC6061304604F045
:10D8A8003FFC00221D4B04F0F7FC17A3D3E900232B
:10D8B80004F038FE04F0B5FC194BA06219489DF835
:10D8C80018210096C01AC00800043B46164940F0CB
:10D8D8000300FCF7C9F80DF5027DBDEC028BBDE82D
:10D8E800F08120BF28E700BFE5E48AFA40CCA03FDA
:10D8F8008FC2F5285CAF4340000000000070C740AD
:10D9080048AFBC9AF2D77A3E721CC7711CC7E13F78
:10D918004C330020043200205C33002000004040DB
:10D92800583E0200883E0200BC460200000000008B
:10D938002DE9F04FC84BC94CC949E41A2DED048BA9
:10D94800E408240444F00304BFB02046FCF774F84C
:10D958004FF480610020FBF7A9FE08B1FCF744FAF8
:10D96800FBF7DCFDBF492046FCF766F8FCF78EFCA8
:10D9780008B1FCF739FABC4ABC480121FCF7B8FCED
:10D9880008B1FCF731FABA49BA4D2046FCF754F809
:10D99800B94BBA49D3E9002310A805F095FD0E222A
:10D9A800B749284605F0A5FD9DF84030AB739DF8B2
:10D9B8004130EB739DF842302B749DF843306B7403
:10D9C8009DF84430AB749DF84530EB749DF84630B3
:10D9D8002B759DF847306B759DF84830AB759DF8F1
:10D9E8004930A849EB7520469DF84A302B76FCF75C
:10D9F80023F8FEF797FBFEF7BBFBA3492046FCF78D
:10DA08001BF8FDF743F808B1FCF7EEF901F04AFE00
:10DA180008B1FCF7E9F93EAE002346F8AC3D012019
:10DA2800314601F0CBFE08B1FCF7DEF9304601F0D3
:10DA380091FF08B1FCF7D8F994492046FBF7FCFFA1
:10DA48003EAD0120FEF76FF9112305F8BC3D89486A
:10DA580005F0F8FD874982B22846FEF75AF908B161
:10DA6800FCF7C2F908220021304605F096FD884AE5
:10DA78004FF0C8733046CDE91323FEF748F908B1D3
:10DA8800FCF7B2F9FEF738FB824B83481393314613
:10DA980001F006FC08B1FCF7A7F90021042228468A
:10DAA80005F07BFD7D4B7E480F93294601F008FD6C
:10DAB80008B1FCF799F9AC220021304605F06DFD5C
:10DAC800062202238DF84F20012276498DF84C302A
:10DAD800ADF8982000238DF8C8204FF4A0728DF877
:10DAE8004E302791CDE9352331466F4B6F483C9333
:10DAF80000F094FE08B1FCF777F901216B4800F0BB
:10DB08008AFE1C220021304605F047FD00234FF411
:10DB1800A052CDE91332ADF85A304FF4F0428DF8E7
:10DB28005C30634B159218930322624B8DF8582092
:10DB38003046199301F020F908B1FCF755F95E4910
:10DB48002046FBF779FF0321584800F0D9FE08B1B9
:10DB5800FCF74AF9042200210120FEF7D6F82046F6
:10DB68005649574D574FFBF767FF4FF0A043032225
:10DB78004FF00051C3F87427C3F808154FF400712B
:10DB8800C3F82427C3F80815C3F828274FF4806280
:10DB9800C3F80825FEF72EFB4B492046FBF74CFF40
:10DBA800FFF7ACFB49492046FBF746FF00236B70A3
:10DBB800AB70474B6B60474BAB602846464BEB60FE
:10DBC80004F0D4F838702846FFF74EFB387064200C
:10DBD800FEF786F9414D424FFEF7FAFE41492046CD
:10DBE800FBF72AFFFFF796F8002364206B61FEF726
:10DBF80077F9FEF715FF6420FEF772F96868286068
:10DC080004F0F3FA10A3D3E9002304F041FD04F073
:10DC180008FBE86004F0E9FA9FED0D1B41EC100BDE
:10DC280005F0BEF951EC100B04F0FBFA07EE900A70
:10DC3800B7EE008A78EE677A17EE900A04F0D5FA04
:10DC480052E000BFAFF30080CDCCCCCCCC545940CF
:10DC58003CDD79E2395BC83F583E0200883E02004D
:10DC6800B2450200C04502005DBD0100B846020091
:10DC7800CC450200D02D0020A4000010DA45020097
:10DC8800DD450200EC450200004602001546020090
:10DC980010003C00F1BD0100F8320020F5CE010073
:10DCA800302500202825002071BF01002C320020DB
:10DCB80051BF0100FDC001002746020036460200A0
:10DCC800282E00203A33002047460200534602001F
:10DCD80075C0010005C00100FBBE01005C330020D7
:10DCE800403300205F460200CDA3D3E9002304F0AF
:10DCF80019FC04F096FACC4BE8601A68CB4B1A6012
:10DD0800CB4B1A68CB4B1A60CB4B1A68CB4B1A60BB
:10DD1800CB4B93ED007A3B68013307EE903AF8EE6F
:10DD2800E77AC84B67EE877A17EE100AC3ED007AD8
:10DD3800C54B83ED007A04F058FA002280468946E4
:10DD4800C24B04F0EFFB42464B4604F0EBFB04F0F9
:10DD580068FABF4BDFF854931860012389F8003044
:10DD6800FEF758FD8046FEF77FFDB8F1010F0B95D1
:10DD7800CDE90C9740F00082FF2840F0FD81FEF7C6
:10DD88009FFDB4492046FBF757FE00224FF400617F
:10DD9800B148FCF7BFFA08B1FCF726F84FF0A047E6
:10DDA8004FF4FA60FEF79CF84FF40033C7F80835D3
:10DDB8000323C7F82037C7F81C37FBF7D1FCFCF75B
:10DDC8007BFEA649DFF8E8822046FBF735FE0C23E8
:10DDD800C7F8403703F54033C7F8403701F024FE51
:10DDE8009F492046FBF728FE9E489F4B83609F4B28
:10DDF80003619F4BC3609F4B43609F4B0360D8F800
:10DE080000309847002740F6B8330120CDE9077362
:10DE18000823CDE901030B230093D8F81C30CDE982
:10DE280003701D463A463B461621CDE90577A847BB
:10DE380092492046FBF700FE9FED759BB846904B34
:10DE48001A781AB100221A70FFF772F88D4B93F8FE
:10DE580000B0BBF1000F0AD000221A70FFF718F9C2
:10DE68004FF0A0434FF40032C3F80C255F46DFF8AB
:10DE780044B29BF80030002B00F07981FFF738FCA2
:10DE8800DFF834E2DFF82892BEE80F00B446ACE8C9
:10DE98000F009EE80F008CE80F00D9F828201E21FB
:10DEA80030469047D9F86030984700238BF8003007
:10DEB800DFF808B29BF80030002B3FD0724B734953
:10DEC80093F800E001224FF00C0C0EEB0203DBB2DA
:10DED800402B28BF002301320CFB0313D2B20B2ABC
:10DEE8001868F2D10B9B186004F07FF94AA3D3E9B4
:10DEF800002304F0CDFB04F094F90B9BD86004F0E8
:10DF080074F9B0EE491AF0EE691A41EC100B05F0FD
:10DF180047F851EC100B04F084F907EE900A78EEFC
:10DF2800677A17EE900A04F060F93DA3D3E900235D
:10DF380004F0F8FA04F075F90B9BD8600B9B93ED8D
:10DF4800067AF3EE0E7AB4EEE77AF1EE10FA23DDF4
:10DF580093ED027AF2EE047AB4EEE77AF1EE10FA73
:10DF68001ADD4B4B1B78BBB94A4BD3F80090B9F17B
:10DF7800000F11D14FF0A0424FF400318BF8009000
:10DF8800C2F80815444901220A7044490A70FEF78C
:10DF980091FFFEF7E9FA4F46414BDFED427A93EDE8
:10DFA800007AB4EEE77AF1EE10FAC2BF384B0022DD
:10DFB8001A703D4B1A7872B10C9901220A703449D3
:10DFC80000220A701A70FEF7D3F94FF42F70FDF78C
:10DFD800ADFEFEF785F9DFF8E8A0DFF8E890DAF89B
:10DFE8000010D9F80030DFF8E0B001310133CAF889
:10DFF8000010DBF80010C9F800300C9B0131CBF899
:10E008000010197800296FD160E000BFAFF30080DD
:10E018003CDD79E2395BC83FCDCCCCCCCC545940FF
:10E028009A999999B3BE01410C250020EC2D002046
:10E0380014250020F02D00201C250020F42D0020A0
:10E048002425002028320020503300200000E03F23
:10E05800543300206B460200183300207946020032
:10E068008B460200F82D002095BD010079BD010006
:10E0780069BD0100FBC00100F9C00100984602001B
:10E08800FC3100201C2E0020F4310020F42E00204A
:10E09800393300200032002026320020F02E0020E4
:10E0A800F8310020000007442532002024320020E7
:10E0B800384B020038330020043200201E2E002086
:10E0C8003C33002044330020202E0020FEF7A8FC1B
:10E0D8002C49097831B10B9BD3ED057A77EE887A14
:10E0E800C3ED057AFEF7E8FC2749D9F8000009686E
:10E0F80088420CDD20462549FBF79EFC0021C9F823
:10E108000010FEF777FEFFF787F8FEF7A1FE0D9BDC
:10E11800DAF800101A68914209DD1D4B1B780022BD
:10E12800CAF800205BB31B4B1868FEF775F91A4B49
:10E13800DBF800201B689A4204DD0023CBF800308E
:10E14800FFF742F89FB108F101085FFA88F8B8F1C3
:10E15800050F0CD94FF0A0434FF40032B8F1C80FA7
:10E16800C3F8082584BF4FF00008C3F80C25FBF757
:10E17800F7FAFCF7A1FC62E6FEF70CFB01E6FFF7F5
:10E188008DF8D4E71F2E002048330020A94602004E
:10E198003933002000320020242E00200369C16892
:10E1A8008B429DBF8268D21802F1FF3203F1FF3320
:10E1B80094BF501A581A70472DE9F041D0E9026708
:10E1C8000446F61B4068964288461546384405D9E9
:10E1D80005F0BAF93D44E560BDE8F0813246AD1B73
:10E1E80005F0B2F92A4608EB0601606805F0ACF9BB
:10E1F800F1E72DE9F843C5680646894617464FF00A
:10E2080000083469B3687068A54228BFE418013C67
:10E21800621B5C1BBC4228BF3C46944228BF144684
:10E2280049462844224605F08FF9B3682544AB4295
:10E2380008BF00253F1BA044A144F560E1D140463A
:10E24800BDE8F88310B5114C114AA2610223C4E954
:10E258000433104BE361A2644FF400730E4A236247
:10E26800E264002310220D49A362E01D6362E362A9
:10E27800A3656365E365226505F0C2F90849204690
:10E2880005F0BEF92023A37110BD00BF9033002014
:10E29800FC4602001834002008340020054702001C
:10E2A80009470200F8B5184C182300FB033503FB97
:10E2B80000402544C46A012C0F46164611D003D3EA
:10E2C800022C1BD000240AE02846FFF767FF86428D
:10E2D80005D8324639462846FFF76EFF34462046B1
:10E2E800F8BD2846FFF75AFF8642344628BF044641
:10E2F800224639462846FFF75FFFF0E72846BDE883
:10E30800F840FFF776BF00BF90330020FFF79ABFB1
:10E318006DDF704779DF70477DDF704764DF7047D6
:10E328002DE9F74F0C9CBDF834B0278800258046AE
:10E338008A4691462E46B8F80020B2420BDC35B129
:10E348002288013AD21B92B2FF2A39D8DA55002026
:10E3580003B0BDE8F08FD8F8042052F826000190E9
:10E3680000220DF1030101A8FFF7D8FF0028EFD123
:10E378009DF803204A4521D12288002D14BF002092
:10E38800022002EB09010144594519DC3DB901326B
:10E3980092B2228003F802A02288013222802288C9
:10E3A8000DF103011A4401A8FFF7B8FF0028CFD1E7
:10E3B80021889DF803200A44228001250136BAE706
:10E3C8000C20C5E72DE9F341089CBDF824501746F9
:10E3D800CDE9004502220646FFF7A2FF48B9102200
:10E3E80039463046CDE9084502B0BDE8F041FFF7AF
:10E3F80097BF02B0BDE8F0812DE9F04F00231688E1
:10E40800138090F82D3085B007460D46144653B357
:10E41800082E01D80C2026E102A8FFF779FF002872
:10E4280040F0218113880822CA54238801339BB203
:10E438001B222380CA542088013080B22080062203
:10E448000DF10901284405F07FF823889DF808207C
:10E4580006339BB212F0FE0218BF01222380EA5451
:10E46800238801332380BB78FBB123880433B3426C
:10E47800D0D802A8FFF74EFF002840F0F480238888
:10E488000322EA54238801339BB219222380EA54D9
:10E498002388BDF8082001339BB2E9182380EA5489
:10E4A800120A4A70238802332380FA789AB12388A3
:10E4B800D91CB142AED80221E954238801339BB25A
:10E4C80001212380E95423880B449BB22380EA541A
:10E4D80023880B4423807A68AAB12388D91CB142C7
:10E4E80098D8022192F90020E954238801339BB27D
:10E4F8000A212380E954238801339BB22380EA54FC
:10E508002388013323803B89002B40F0A0803B8A7D
:10E518005BB1CDE900462B460722032107F1100025
:10E52800FFF750FF002840F09E803B8B5BB1CDE9A0
:10E5380000462B461522142107F11800FFF742FF69
:10E54800002840F090803A6A002A40F08F80D7F87F
:10E558002480B8F1000F30D0B8F804302188981C16
:10E568008A1C0244B2423FF655AFFE283FF652AF2E
:10E5780003336B54238801339BB2FF222380EA5470
:10E58800238801339BB22380B8F80020EA54E918A5
:10E59800120A4A702088023080B22080B8F804201D
:10E5A8005AB1D8F8081000296AD0284404F0CCFFE2
:10E5B8002388B8F804201344238097F82C30002BC4
:10E5C80040F09980387800284DD03B88012B57D0EF
:10E5D80021888A1CB2423FF61DAF012805D17B78FD
:10E5E80002330B449E42FFF415AF023E761A04A98B
:10E5F800B6B221F8086DA818FFF78EFE98BB3978D7
:10E60800BDF80820022900F0BB807B78934202D332
:10E61800B24240F2B380012940F0B4809BB29E42DE
:10E62800C0F0B080ADF808300821BDF80830FE2BE6
:10E638003FF6F0AE22880133AB542288013292B201
:10E648002280A95422881344238000200BE0CDE9BE
:10E6580000462B460622022107F10800FFF7B2FE0A
:10E6680000283FF454AF05B0BDE8F08FB4F800C0FF
:10E678000CF10603B3423FF6CDAE1188052901D847
:10E688000720F0E76FF4486E01EB0E039BB24FF2E0
:10E698007D3E7345F4D95388052BF1D96FF4486052
:10E6A800181880B27045EBD94FF6FF70814203D03D
:10E6B800834201D09942E3D8052305F80C3023881A
:10E6C80001339BB212212380E954238801339BB282
:10E6D80023801188E954E818090A41702388023315
:10E6E8009BB223805288EA54E918120A4A70238898
:10E6F800023323802BE7BB6A002BC1D04FF00009FF
:10E708004FF00C0A4FF0160B97F82C305FFA89F28D
:10E7180093427FF657AFB96A0AFB02F201EB02088F
:10E72800B8F80430981CFE283FF674AE20880333EE
:10E738002B54238801339BB2238005F803B0238828
:10E7480001339BB223808A5AEA54E918120A4A70A4
:10E758002088023080B22080B8F804205AB1D8F856
:10E76800081000298CD0284404F0EEFE2388B8F85D
:10E7780004201344238009F10109C5E7092154E75E
:10E78800B242FBD9ADF808604EE770B5C0B14AB1E6
:10E7980016880024B44203D305196D789D4208D029
:10E7A800A14201D800200BE0055D01352C44A4B23C
:10E7B800F0E7A142F6D9A31C1380005D013880B2AE
:10E7C80070BD37B502AC002324F8023D134622463B
:10E7D8000546FFF7DAFF10B1BDF80600284403B07C
:10E7E80030BD72DF704773DF704738B501220446C9
:10E7F8000D46B0F89810D0F89400FFF7E2FF00B18A
:10E80800057004F13C0204F1940104F15400BDE8E0
:10E818003840FFF7E6BF80F830107047F8B5044677
:10E828000F46002968D0002866D091F87A301BB1CD
:10E8380091F89830002B61D1D7F8A030042B5DD027
:10E84800D7F89C30042B59D007F178060FCE4FF03B
:10E85800000C251D84F802C00FC50FCE0FC596E821
:10E86800070085E8070084F830C0D7F8A430636350
:10E87800D7F8A830A3634FF6FF7504F19403C4F8E2
:10E88800A430A4F8A8500722614604F1AA0004F0B5
:10E8980084FE23780BB984F85450224604F15501BC
:10E8A8001F25C4F89410384622F8985FFFF7A4FD96
:10E8B80008BB224604F17401C4F89C1007F13C001F
:10E8C80022F8A05FFFF798FDA8B9A269A4F848202C
:10E8D80001236269206484F850006264014684F868
:10E8E800513084F83C3004F13C0204F15400FFF745
:10E8F80078FF00B92370F8BD0E20FCE70720FAE77F
:10E90800F8B5077804460D46002F00F0FA8000F1AC
:10E91800AA06A17007220021304604F03EFEE388D3
:10E9280013B1A378012B04D0E3794BB1A378022B60
:10E9380006D1636BA3B1012284F8B120082098475F
:10E94800334604F1B00113F8012F12B99942FAD1F4
:10E9580017466B1E032B53D8DFE803F0050B0F1285
:10E9680084F8B130ECE7A3791BB194F8243003B9EB
:10E978005FB9E3790BB1002F44D1237A002B43D13F
:10E98800637A002B0CBF00250425636BA570002B50
:10E998003CD0033D012D39D86279002A36D094F84D
:10E9A800B220002A32D184F8B420012284F8B3209E
:10E9B8000720984704F13C0518220021284604F056
:10E9C800ECFDE36A0122591E914288BF134684F880
:10E9D800513094F8243084F83C2033B1914296BFEA
:10E9E800A36A84F8522084F85230A278002384F86D
:10E9F8005030042A1BD8DFE802F06C0D2232520096
:10EA08000025C2E70225C0E70325BEE7002384F8F6
:10EA1800B330CFE7C4F8A430C4E91063022301225D
:10EA280084F83C30802384F83120A4F84830A37857
:10EA3800002B51D1636B002B5FD100205CE00223D7
:10EA480084F83130032384F83C302369A4F8483033
:10EA58000023C4F8A430E36826646364E7E76369C5
:10EA68006364A369A4F848306379B3B194F8B23009
:10EA78009BB994F8B43083B1022384F85030042150
:10EA88002046FFF7B2FE0028D1D1052384F83130A3
:10EA980004F19403C4F8A430C9E70323F6E7E36953
:10EAA8006364236AA4F84830637983B194F8B23078
:10EAB8006BB994F8B43053B1022384F85030042170
:10EAC8002046FFF792FE0028B1D10623DEE7042393
