:020000021000EC
:109000000000012079930100619301006393010046
:10901000659301006793010069930100000000005F
:109020000000000000000000000000006B93010041
:109030006D930100000000006F9301007193010027
:10904000E1B001007393010041B30100A5B3010039
:109050007393010073930100C5B101007393010084
:1090600073930100739301007393010073930100E4
:1090700073930100739301007393010073930100D4
:1090800073930100359F01007393010073930100F6
:10909000D19F0100739301005509020073930100F1
:1090A00073930100739301007393010073930100A4
:1090B00073930100739301000000000000000000A2
:1090C0007393010073930100739301007393010084
:1090D000739301007393010073930100000000007B
:1090E0000000000000000000000000000000000080
:1090F0000000000000000000000000000000000070
:10910000000000000000000000000000000000005F
:10911000000000000000000000000000000000004F
:10912000000000000000000000000000000000003F
:10913000000000000000000000000000000000002F
:10914000000000000000000000000000000000001F
:10915000000000000000000000000000000000000F
:1091600000000000000000000000000000000000FF
:1091700000000000000000000000000000000000EF
:1091800000000000000000000000000000000000DF
:1091900000000000000000000000000000000000CF
:1091A00000000000000000000000000000000000BF
:1091B00000000000000000000000000000000000AF
:1091C000000000000000000000000000000000009F
:1091D000000000000000000000000000000000008F
:1091E000000000000000000000000000000000007F
:1091F000000000000000000000000000000000006F
:10920000364937480A1A02D0072291438D4635491C
:1092100035480A1A06D00722914381F309880222B1
:1092200082F3148831483249324A00F045F8324816
:109230003249334A00F040F832483349334A00F0AB
:109240003BF833483349344A00F036F83348344960
:10925000344A00F031F834483449354A00F02CF8EB
:1092600034483549354A00F027F835483549002259
:1092700000F02DF834483549002200F028F8344831
:109280003449091A082903DB002202600430016016
:10929000314A90471F482049884205D0026804306F
:1092A00003B4904703BCF7E700208646EC46002055
:1092B00000212A4A9047FEE7884207D0521A05D07B
:1092C000037801300B700131013AF9D170478842BF
:1092D00002D002700130FAE7704700000000012060
:1092E00000F800200000012000000120203A0200C8
:1092F00000250020D0250020D8930100D89301003C
:10930000882B0200203A02000025002000250020C2
:10931000842C0200842C0200842C0200842C020085
:10932000842C0200842C0200842C0200842C020075
:10933000203A0200F03A0200D0250020D02500207B
:10934000D0250020484E0020484E00204C4E0020E2
:109350004C4E00204C560020A193010059DD010025
:10936000FEE7FEE7FEE7FEE7FEE7FEE7FEE7FEE7D5
:10937000FEE7FEE7704700BF1048804710484FF0F7
:109380000701884385460F4880470F48016841F42C
:1093900070010160BFF34F8FBFF36F8FFFF730BFD6
:1093A0000A480B490B4A884207D0521A05D0037865
:1093B00001300B700131013AF9D17047759301000A
:1093C0000000012019AC010088ED00E0842C0200AF
:0893D00000250020002500200B
:1093D80000487047404E00207047000007B5044B16
:1093E8000093044A402300F032F803B05DF804FB10
:1093F80001940100D12500202DE9F843894614463F
:10940800B2B10F4B0F4E0325002743F00108224647
:1094180009EB0701002006F043F80744241A48B96D
:1094280033782BB14FF47A40C047013D02D13570F3
:10943800BDE8F88301233370002CE8D1F8E700BFBA
:10944800902C0200D0250020704706F05DB8F0B5DA
:1094580095B01C46164608460D4601F0DEFA1A9BE2
:109468000D93CDE9086400242346082205A928465F
:109478000A948DF82C400C9401F0EDFA079B0293A6
:10948800BDF81830ADF80C30BDF81A30ADF80E3014
:109498009DF814308DF8114003F00302012A1DD104
:1094A800BDF81440059EC3F3C203C4F383148DF8BA
:1094B8001030A20008230EA9284601F0CCFAC6F302
:1094C800952608AB0093224602AB0EA9304600F061
:1094D800C5FB284601F0A5FA15B0F0BD022AF8D15F
:1094E800BDF81640C3F3C203A4098DF8103008274D
:1094F800082C264628BF08263B4632460EA9284691
:1095080001F0A9FAA41B08AB02AA31460EA83744F9
:1095180000F008FC002CEBD1DBE7000008B5FFF7F2
:1095280094FF0421034800F007FB034B01225A7102
:1095380008BD00BF742C020000250020037813F03A
:10954800040216D003F00303012B03D0022B09D029
:10955800012070470A6800880232C0F38310024471
:109568000A60F5E70B684288023303EB92130B603D
:10957800EEE71046704700002DE9F04F89B0054628
:10958800861C08A8484C019200230F4600F8113D9C
:1095980000F006FF23683B60D4E9012313442268E6
:1095A80001339B1A04F21C4704F5836A04F2144839
:1095B800B3421AD3019A0023002A6DD0012262F324
:1095C800010343F0040365F389132168A2689DF839
:1095D8000F000A4003320E4444F82230266000F09F
:1095E80003FF012009B0BDE8F08F0121384600F0E3
:1095F80058FF504600F06BFF404600F068FF0DF141
:1096080020096068D4F808B049F8100D00EA0B008A
:10961800033004EB80004946FFF790FF049BB0B984
:109628000BEA030204EB8202D16805919A1C01330C
:1096380003EA0B0B04EB8B0C01F00303012B0492E0
:10964800DCF80CB020D0022B04D083460BE00BEAE8
:109658000300DDE7BDF816309B0903334FEA1B4BC7
:1096680002EB93030493404600F034FF08B1049BD7
:1096780063605946384600F014FFD4E901231344C7
:10968800226801339B1A93E7BDF81430C3F38313A0
:109698004FEA1B4B1344E5E7022262F3010343F050
:1096A800040365F39F5390E7E42600200B4B0C4816
:1096B800FF2210B59A600022C3F81824C3E90022DB
:1096C800C3F8142483F8202401F060F9044610B983
:1096D800044801F009FA204610BD00BFE426002026
:1096E800F02B0200B42C020030B50A4C71B10A4AC2
:1096F8000A49121BD20800239A4201D1002030BD2A
:1097080031F82350854202D00133F5E7034654F877
:109718003300F4E7042C0200742C0200002500201A
:10972800094B013903EBC000032909D8DFE801F030
:109738000A02040604207047007970474079704790
:109748000020704702207047042C0200034BD3E925
:109758000030C31A58425841704700BFE426002021
:109768002DE9F04387B0FFF7F1FF0646002840F0E7
:10977800FC807F4DC5F81804BFF34F8F6868AC684C
:1097880006AF47F8100D2040033005EB800039463E
:10979800FFF7D4FE029B18B1D5F81824002A5FD031
:1097A80004EA0302991C013305EB8202234005EB0E
:1097B8008303D268DB68049302F00303022B03924D
:1097C800029162D1BDF80E306A484FEA9318B8F199
:1097D800500FC14628BF4FF0500969F38F1309F1A4
:1097E8000801ADF80E3001F0E9F80746002800F04E
:1097F800A78001F012F903A900230822384601F0D6
:109808001FF9029924EA01060136B600B14535D997
:109818005FFA89F97EB3F6B2A9EB06092140033154
:109828005FFA89F4B146544E05EB810108234A4694
:10983800384601F005F936B109F1080322463146E8
:10984800384601F0FDF8029B08F1030803EB980382
:109858000293D5F81834002B4BD1D5F810445BE0AF
:109868002A689A4204D86A60304607B0BDE8F08397
:1098780004EA030088E740493446D7E7214003312A
:1098880008234A4605EB8101DAE7012B58D1BDF8D8
:109898000C303848C3F38311062928BF062161F329
:1098A800891302318900ADF80C3001F087F80746BA
:1098B800002845D001F0B1F80023082203A9384652
:1098C80001F0BEF80026BDF80C20C2F38312B31CC9
:1098D80096424FEA8303BCD202994A1C21400331C5
:1098E800029205EB81010422384601F0A9F80136FD
:1098F800E9E7384601F095F8FFF728FF80F0010006
:10990800C6B2B1E7E3685B7923B1236839461B68BF
:1099180020469847E3681C68002CF3D1384601F0CC
:1099280080F806A800F8114D00F03AFDD5F8183473
:109938000BB9029B6B609DF8070000F055FDDBE753
:10994800D5F8104454B90D4B0D480E49C01AC0083B
:10995800000440F0020000F06FF8CDE723682046CD
:109968009B689847E3681C68ECE700267CE700BF23
:10997800E4260020F02B0200F0260020042C020030
:10998800342C0200C02C02002DE9F74F284C8046E9
:109998000F46924601A9012218469B46D4F8089022
:1099A800FFF7EAFD88B3019D0026A91C5E4506EB7A
:1099B800010234D100211F4800F048FD80F3100057
:1099C8006A1C02EA090204EB8202000405EA0903A0
:1099D800033340EA1840D06014F8232068F3C50226
:1099E80004F8232034F8232066F3891224F823206E
:1099F80054F82320012167F39F2244F8232061F3C0
:109A080001026FF3820204F8232094F820341BB17A
:109A1800FFF7A6FE0028FBD103B0BDE8F08F09EAE6
:109A2800020204EB82025AF82630D3600136BDE701
:109A3800E4260020002B002000231A46FFF7A4BFCD
:109A480013B502AC012344F8042D2246FFF79CFF0E
:109A580002B010BD07B5CDE9002302236A46FFF71F
:109A680093FF03B05DF804FB2DE9F3478046304CC3
:109A7800D01C8A46174601A900228008A568FFF76E
:109A88007BFD002840D0DDF80490A66809F10200AB
:109A9800019001362840361AB6000330B74204EB6D
:109AA80080003BD83A46514608F024FC0021214862
:109AB80000F0CCFC80F3100009F101032B4004EB0B
:109AC80083034FEA184242EA0040D86005EA0903D6
:109AD800033304EB830214F8231068F3C50104F878
:109AE800231034F823106FF38F1124F823105188B2
:109AF80067F38F11518014F82320022161F30102CA
:109B08006FF3820204F8232094F820341BB1FFF786
:109B180027FE0028FBD102B0BDE8F0873246514647
:109B280008F0E8FBBA1B0AEB060104F10C00BBE7DE
:109B3800E4260020002B002030B50F49D1F810246E
:109B4800002314463CB9C468237152B9C1F8100403
:109B58002260184630BDE46825799D4206D0246805
:109B6800F0E7D268116821601060F2E701330A2B30
:109B7800E7D14FF0FF33ECE7E4260020094A38B577
:109B88000123D2F8104482F820341D4604B938BDA8
:109B9800E3685D71236820465B689847E3681C6842
:109BA800F4E700BFE4260020037A052B10B50C4625
:109BB8000FD0437A23B1084A0849204600F0EBFC4D
:109BC8000749204600F0E7FC2046BDE8104000F0B9
:109BD800D7BC002AF8D0F3E70B2D0200102D0200A5
:109BE800302D0200C38873B504460D4633B1144ABC
:109BF80000921449144A284600F0CDFC217A052920
:109C08001CD0637A4BB1A088FFF78AFD0F4B10492F
:109C180053F82020284600F0BEFC227A0D4BA0887D
:109C280053F822600021FFF75FFD0B4903463246D7
:109C3800284602B0BDE8704000F0ADBC02B070BD6F
:109C48000B2D02001B2D0200132D0200D82C020040
:109C5800102D0200402D0200332D02002DE9F043A3
:109C680085B01F460C9D002306460C46904695F885
:109C78000C902B7329463846FFF7B4FFB8F1060F4E
:109C880009D8DFE808F00412181F283340003146CD
:109C9800284600F080FC002229463846FFF784FF5A
:109CA80085F80C9005B0BDE8F08322683146284657
:109CB80000F071FCEFE7D4E900233146284600F0B4
:109CC8006AFCE8E7A36800933146D4E900232846F4
:109CD80000F061FCDFE7E3680193A3680093314675
:109CE800D4E90023284600F056FCD4E72369029300
:109CF800E3680193A36800933146D4E9002328461A
:109D080000F049FCC7E76369039323690293E3689A
:109D18000193A36800933146D4E90023284600F054
:109D28003AFCB8E708292DE9F84F80460E46174651
:109D38001C4636D8002593F80C901D73194610461A
:109D4800FFF750FFDFF87CA0DFF87CB0AE422AD9DD
:109D580018F805205946204600F01DFC0135082D4D
:109D6800F4D11649DFF864B0204600F014FC002551
:109D7800AE421DD918F805A0504608F06BFA002825
:109D880014BF52462E225946204600F004FC0135E5
:109D9800082DEDD1012221463846FFF705FF84F84A
:109DA8000C90BDE8F88F5146204600F0F4FBD5E74B
:109DB8000349204600F0EFFBE9E700BF062D02004B
:109DC800042D0200022D0200FC2C0200082D0200C6
:109DD8001FB50021039001AA44F20100CDE9011149
:109DE80000F004F805B05DF804FB000010B572B689
:109DF800FFF7C4FEFFF7B4FC0028FBD1104B114C51
:109E08001149E41AE408240444F00100FFF714FEA1
:109E18000E4B1B68DB0700D500BE0D4944F002005D
:109E2800FFF70AFEBFF34F8F0A490B4BCA6802F4CB
:109E3800E0621343CB60BFF34F8F00BFFDE700BF65
:109E4800042C0200342C02009F2D0200F0ED00E0EB
:109E5800AB2D020000ED00E00400FA05094A537832
:109E680091780133DBB2994208BF002311789942F7
:109E78001FBF03705078182303FB002014BF043061
:109E880000207047A02B002073B5054602A80024C7
:109E980000F8014D0E4600F083FA0DF10600FFF7B9
:109EA800DDFF90B106700A4B9DF8062045605A7098
:109EB8009DF8070000F098FA24B9064B4FF4801279
:109EC800C3F80021204602B070BD0424F0E700BFAB
:109ED800A02B002000E100E0024B4FF43C6043F06F
:109EE80001031847C02D020038B50C4B0C4C4FF439
:109EF8000032C3F8802001254FF48033C4F848337A
:109F0800C4F808336560FFF7E7FF064BA560002437
:109F18001C60FFF7E1FF044B1C7038BD00E100E056
:109F280000100140BC2C0020AD2C0020F8B51F4BC0
:109F38001F491B680025C1F84051C1F84451C1F8B8
:109F48004851C1F84C51C1F80051C1F804514BB304
:109F5800D1F8044517490968641A24F07F442F464C
:109F68001A68A24209D8A41A15441A7CDE691AB1E3
:109F78001F74D3E905209047AEB90F4B0F4A1978E3
:109F880013788B4205D10133DBB2022B08BF0023C3
:109F9800137012780A4B43F822500A4B4FF4801280
:109FA800C3F80021F8BD3346DAE700BFC02C002013
:109FB80000100140BC2C0020B82C0020B92C002037
:109FC800B02C002000E100E02DE9F74F9E4A9F49A0
:109FD800137809789E4D99423CD00133DBB2022BAD
:109FE80008BF002313709B4912789B4B0F6853F8E6
:109FF80022003B1823F07F4300220B602B68164693
:10A008001446944613B942B12B6006E019688142A0
:10A018000ED902B12B60091A19604FF001082B689C
:10A02800DFF83CA200930027BEB9DFF83CB260E03D
:10A03800401A0C44D968C3F800C0D3F81CE031B109
:10A048003A1922F07F42C3E90121DE611E4601224E
:10A058007346D7E70026B046E1E73446F6697D4AFD
:10A0680063681268DFF804C2A068991A21F07F417A
:10A07800614500F2A58001442160012222742A680A
:10A088000023C4E90133E361002A40F0A2802C6078
:10A09800CAE75A1C9BF80210D2B291428BF80020F2
:10A0A80004BF00228BF80020182202FB03B32A68A1
:10A0B80019799C68022974D003297ED0012918D106
:10A0C800217CB1B9DA6862601A69A2605A699B6931
:10A0D800A361624BE2601B78002BC0D06160BEE7D1
:10A0E8009C4200F093809946DB69002BF8D100234D
:10A0F80023749BF800309BF801209A42C9D12B6841
:10A108002FB9009A934202D1B8F1000F43D0002B27
:10A1180079D0D3F800A0524D4E4BD5F804751C6881
:10A12800DFF84C813E1B98F8003026F07F46033656
:10A138009BB94FF48033C5F84433C5F80433494B11
:10A148004FF400324FF00109C3F880211A60C5F8B6
:10A158000090FFF7C1FE88F80090B2452CBF544428
:10A16800A41924F07F44C5F84045D5F80435DB1B15
:10A1780023F07F43E41B033324F07F44A3420AD92E
:10A18800D5F80435C5F84035FFF7A6FE354B4FF432
:10A198000032C3F80021314B00221A7003B0BDE829
:10A1A800F08F13469146A0E71174D2690123002A63
:10A1B800FAD1002B9DD02A609BE700231946F6E7C9
:10A1C800D31A23F07F43834234BFC31A002323608A
:10A1D80053E721681368994213D8591A1160E2614C
:10A1E80055E7091AD8691A4638B1034618688842EB
:10A1F800F7D3401A1860184613462160E061DC6105
:10A2080012E71346F2E7FFF76FFEC4E74C450DD19E
:10A21800D3692B6053B90F4801920121CAF808107D
:10A2280003600E4B1970FFF757FE019AE169236826
:10A23800C9F81C1011B1086803440B602B689A42D6
:10A2480018BF012753E700BFB82C0020B92C002005
:10A25800C02C0020BC2C0020B02C0020AC2C0020EE
:10A268000010014000E100E0A02B0020FEFF7F006D
:10A27800AD2C002008B5FFF737FE104B00200B224D
:10A2880018809A700E4B18600E4B18700E4B187091
:10A298000E4B4FF48012C021C3F8802183F81413A9
:10A2A8001A6002F18042A2F56F22C2F8080583F80D
:10A2B8001113074BD2F804251A6008BDA02B002003
:10A2C800C02C0020B82C0020B92C002000E100E0B0
:10A2D800BC2C0020074B9B784BB132B128B10368E6
:10A2E800187C20B959745A617047072070470820B4
:10A2F800704700BFA02B00202DE9F7431D4FBB7806
:10A3080005460E4690469BB390B304292ED943695F
:10A3180073B3437C02A80024012B00F8014D0CBF45
:10A328008946A14600F03CF80DF10600FFF796FDBE
:10A33800D0B101230370104B4560D3F80435C0E950
:10A348000498C0E902369DF806307B709DF8070036
:10A3580000F04AF824B9094B4FF48012C3F80021E1
:10A36800204603B0BDE8F0830424EFE70724F7E7AD
:10A378000824F5E7A02B00200010014000E100E0D0
:10A38800064A92783AB130B1426922B10022027489
:10A398000221FFF779BD0820704700BFA02B0020DD
:10A3A80070B5EFF3108672B60C4A946801239CB915
:10A3B80093600B4B0B4DD3F8801029401160C3F804
:10A3C8008050D3F8841051604FF0FF32C3F88420D6
:10A3D800047006B962B670BD0370FAE7C42C002099
:10A3E80000E100E0FC06FFBD084B9A6810B55AB1C1
:10A3F80050B9EFF3108172B6054A1C6814605C68A6
:10A408005460986001B962B610BD00BFC42C00202A
:10A4180000E100E001F01F024B090121914000EB2F
:10A42800830000F01DB801F01F0301229A404B0978
:10A4380000EB8300D14300F029B84B0901F01F015C
:10A4480050F82300C84000F00100704750E8002F82
:10A458000B4640E8003C9CF0000FF7D110467047CF
:10A4680050E8003F43EA010240E8002C9CF0000F4E
:10A47800F6D11046704750E8002F02EA010340E881
:10A48800003C9CF0000FF6D11046704750E8003FA2
:10A4980003EA010240E8002C9CF0000FF6D11046B8
:10A4A800704750E8003F03EB010240E8002C9CF0A5
:10A4B800000FF6D11046704750E8003FA3EB0102A9
:10A4C80040E8002C9CF0000FF6D11046704701219F
:10A4D800FFF7C6BF0021FFF7CEBF10B590B1D0E996
:10A4E800012301689B1ADBB20A60013BDBB2FF2B38
:10A4F800026802D10020107110BD11684C1C146054
:10A508000B70F2E70E20F7E737B5054602A80024DE
:10A5180000F8014DFFF744FF2A686B6811689942FB
:10A528000ED9481E106011F8014CEB68298A01FB0E
:10A538000434AB6811791B1ADBB2994238BF137126
:10A548009DF80700FFF750FF204603B030BD37B530
:10A55800054602A8002300F8013D0C46FFF720FF3E
:10A568002A681368591C1160E968641A298AB4FBBF
:10A57800F1F41C709DF80700FFF736FF03B030BDFB
:10A58800826810B504462AB1436901680069984792
:10A598000023A36010BD0EB403B5039929B102AA24
:10A5A80004AB42F8043D00F06BF802B05DF804EB30
:10A5B80003B07047826830B40468551C8560A154A4
:10A5C800D0E901329A4202D330BCFFF7D9BF30BC80
:10A5D800704700002DE9F84F9946DDE90A43174610
:10A5E800824688460A460126BA420FD24E4538BFEF
:10A5F8004E4613F0010B01D164B900240125B9F1CD
:10A60800010F1AD909F1FF397D43F8E7B2FBF7F2D8
:10A618000136E9E79B070ED5B9F1000F0CBF3025CD
:10A628002025A642EAD2013C29465046FFF7C2FF40
:10A63800002CF6D1E1E72025F3E7B8FBF5F39F42BC
:10A64800E2D9DFF83890B8FBF5F3504619F8031053
:10A6580005FB1388FFF7AEFFB5FBF7F5002DF2D128
:10A66800BBF1000F02D00CB1A64201D3BDE8F88FB0
:10A6780020215046013CFFF79DFFF4E7C62D02005C
:10A688002DE9F74F054690460E46002900F03A811D
:10A6980016F8011B002958D0252940F0D180002741
:10A6A80002E047F001071646324612F8013B2D2B0F
:10A6B800F7D0302B04D02B2B05D147F00407F2E755
:10A6C80047F00207EFE700242A2B06F101021BD10D
:10A6D800D8F80030191D1B68C8F800101C4416462D
:10A6E80033782E2B1CD101364FF0000A314611F871
:10A6F800012BA2F13000092814D80A2303FB0A23EE
:10A70800A3F1300A0E46F1E712F8013CA3F130013B
:10A718000929E5D80A2101FB0434303C1646D3E761
:10A728004FF0000A324612F8011B01F0FB006828BE
:10A738001646F8D0692916D054D8582970D00ED8A2
:10A7480025297DD03378002BA2D12B7B002B00F05C
:10A75800D980284603B0BDE8F04FFFF711BF632941
:10A7680068D06429EED1D8F80020D2F80090111DE5
:10A7780089EAE972C8F80010A2EBE9724FF0010B00
:10A78800092A61DCD34538BFD3462CB1B9F1000F93
:10A7980001DB790700D5013CBA0702D5BAF1000FF1
:10A7A80004D0FB0702D4002C54D10024B9F1000FC7
:10A7B80058DAC9F100092D212846FFF7FBFE07F0FA
:10A7C8000302022A05D1BAF1000F02D1002C4DD1A3
:10A7D8000024CDE9004753460A2249462846FFF798
:10A7E800F9FEAFE7732954D016D87029AAD1D8F842
:10A7F80000301A1DC8F80020302128461C68FFF7D1
:10A80800D9FE78212846FFF7D5FE00220823CDE996
:10A81800003221461022E1E775292FD0782991D1FD
:10A82800D8F800100A1DC8F80020CDE900475346A3
:10A8380010222CE0D8F800301A1D1978C8F800202A
:10A848002846FFF7B7FE7DE70A230BF1010B92FBC1
:10A85800F3F295E7A345A9D220212846013CFFF74A
:10A86800A9FEA0E77807AAD52B21A5E7A345B0D272
:10A8780030212846013CFFF79DFEA7E7D8F80010D5
:10A88800CDE900470A1DC8F8002053460A22096886
:10A89800A4E7D8F800301A1DC8F80020F907D3F843
:10A8A800009012D54F46A7EB090B17F8011B41B9C9
:10A8B800A345BFF447AF20212846013CFFF77AFEA5
:10A8C800F6E72846FFF776FEEDE7B9F1000F17D057
:10A8D800484607F08DFD0746BC4200D954B909F136
:10A8E800FF3919F8011F00293FF42CAF2846FFF75C
:10A8F80061FEF6E720212846013CFFF75BFEEBE707
:10A908004F46E9E703B0BDE8F08F2DE9F047B0F80E
:10A9180006904479D2F800A09DF8208009FB04F441
:10A92800043C06460AEB0300A0420F4688BFA4EB8E
:10A93800030A191DC2F800A0B1FBF9F509FB1511AE
:10A948004DB9A9EB0104544528BF5446BAF1000F8C
:10A9580004D1BDE8F0873668013DF1E704317B1981
:10A9680070182246B8F1000F0ED001461846AAEB1F
:10A97800040A07F0BFFCD145254436684C464FF021
:10A98800000128BF5446E1E71946F0E7FFF7A5BDE7
:10A99800F8B546790146721E0546002393422D6894
:10A9A80003D30024A64202D8F8BD0133F6E70F68A6
:10A9B8002846FFF7CCFD01343946F3E72DE9F84383
:10A9C800068ACD1C0746FFF79FFD043E3544044622
:10A9D800B5FBF6F5F0B14FF48073EDB28380C68015
:10A9E800013D076081464FF00008A84512D238465D
:10A9F800FFF78AFD064648B163790133637108F1B0
:10AA08000108C9F8000007608146EEE72046FFF715
:10AA1800BFFF34462046BDE8F88301210430FFF724
:10AA280040BD10B5012104460430FFF745FD10F084
:10AA3800FF0F04D12046BDE81040FFF7A9BF10BDA5
:10AA48001FB504AC44F8042D002200922246FFF7FB
:10AA58005CFF04B010BD1FB504AC44F8042D0122FE
:10AA680000922246FFF751FF04B010BD41DF704746
:10AA7800064B10B500241C70054B1C60BFF35F8F9C
:10AA88000449054800F039F8204610BDD82C0020AC
:10AA9800DC2C0020D82D0200D02C002007B502A8FD
:10AAA800002300F8013DFFF77BFCF1EE103A23F09C
:10AAB8009F03E1EE103ABFF35F8F0A4B4022C3F8C1
:10AAC80084219DF80700FFF78FFC05F025FF20B1D2
:10AAD800FFF7CCFF03B05DF804FB20BF40BF20BFE9
:10AAE800F8E700BF00E100E0836800225A609A603E
:10AAF800C3E90422DA601A6070470B684A68436049
:10AB0800934208BF0023016008BF43607047436851
:10AB180043B10268916852680B449342436004BF92
:10AB280000234360704700000D4930B5A1F59472C9
:10AB38000225914201D800200EE08B1ADB1093FB0E
:10AB4800F5F302EBC30452F83330834205D802D23E
:10AB580004F10802EDE7606830BD2146E9E700BF6F
:10AB6800282F020008B5FFF7DFFF024B002808BFB7
:10AB7800184608BDED2D0200BFF34F8F0549064B5F
:10AB8800CA6802F4E0621343CB60BFF34F8F00BF83
:10AB9800FDE700BF00ED00E00400FA050C4B1B7850
:10ABA800062B10D10B4B1B681A070CD10A4B1868DF
:10ABB80000F0F003302B08D000F0E000A0F14003D3
:10ABC800584258417047002070470120704700BF25
:10ABD800E00F00F0E40F00F0E80F00F0094B1B78DD
:10ABE800062B0CD1084B1B681A0708D1074B1868AD
:10ABF80000F0F000A0F1300358425841704700209F
:10AC0800704700BFE00F00F0E40F00F0E80F00F01D
:10AC180008B5FFF7C3FF28B1894B8A4A1B68C3F3FD
:10AC280004231360FFF7DAFF10B1874B874A1A60D5
:10AC3800FFF7B4FF28B1864B864A1B68C3F342333B
:10AC48001360FFF7CBFF20B1834AD36823F08073EA
:10AC5800D360FFF7A3FF40B14FF080430022C3F851
:10AC68000C21C3F81021C3F83825FFF7B7FF10B13E
:10AC78007A4B03221A60FFF7B1FF40B1784B0522E7
:10AC88001A6001229A6700229A603F225A60754B27
:10AC98001B78062B50D1744B1B6818074CD1734B8B
:10ACA8001B6803F0F003502B46D14FF08052704BD5
:10ACB800D2F80414C3F82015D2F80814C3F82415E0
:10ACC800D2F80C14C3F82815D2F81014C3F82C15B0
:10ACD800D2F81414C3F83015D2F81814C3F8341580
:10ACE800D2F81C14C3F84015D2F82014C3F8441540
:10ACF800D2F82414C3F84815D2F82814C3F84C1510
:10AD0800D2F82C14C3F85015D2F83014C3F85415DF
:10AD1800D2F83414C3F86015D2F83814C3F864159F
:10AD2800D2F83C14C3F86815D2F84014C3F86C156F
:10AD3800D2F84424C3F87025FFF730FF28B14D4BF3
:10AD48004D4A1B6803F04F031360FFF727FF48B114
:10AD58004FF08043D3F80024D10744BF6FF00102BD
:10AD6800C3F80024454B1B68062B08D1444B1B68CD
:10AD7800062B01BF434A136843F480631360424AB9
:10AD8800D2F8883043F47003C2F88830BFF34F8F8D
:10AD9800BFF36F8F4FF01023D3F80C22D2071ED5C4
:10ADA8003A4B0122C3F80425D3F80024002AFBD02B
:10ADB8004FF01022D2F80C3223F00103C2F80C3203
:10ADC800324B1A46D3F800140029FBD00021C3F8EF
:10ADD8000415D2F80034002BFBD0FFF7CDFED3F8D2
:10ADE8000022002A03DBD3F80432002B23DA274B96
:10ADF8000122C3F80425D3F80024002AFBD04FF021
:10AE080010221521C2F80012D3F80024002AFBD022
:10AE18004FF010231522C3F804221C4B1A46D3F80E
:10AE280000140029FBD00021C3F80415D2F800341F
:10AE3800002BFBD0D1E7164B164A1A6008BD00BF9D
:10AE4800240300104035014074C007400DF0ADBA2E
:10AE5800440200103C050040F0ED00E0A005004071
:10AE680010560040E00F00F0E40F00F0E80F00F08B
:10AE780000C0004058020010E40E004030010010ED
:10AE8800340100103C17004000ED00E000E00140F4
:10AE9800082500200090D003054A4FF0A043105C1D
:10AEA800D3F8043523FA00F0C04300F001007047DE
:10AEB800E6320200044B1A5C012393404FF0A04293
:10AEC800C2F80C35704700BFE6320200044B1A5C2A
:10AED800012393404FF0A042C2F80835704700BFE5
:10AEE800E632020008B50020FFF7F0FF0120FFF767
:10AEF800EDFF0220FFF7EAFF0320BDE80840FFF757
:10AF0800E5BF08B50020FFF7D5FF0120FFF7D2FF06
:10AF18000220FFF7CFFF0320BDE80840FFF7CABFB4
:10AF2800074A4FF0A041105CD1F804350122824055
:10AF380022EA03001340C1F80805C1F80C35704730
:10AF4800E6320200014B185C704700BFE232020093
:10AF580038B5084C04F108030546002818BF1C46FC
:10AF680023682BB11A6822605B6828469847F7E780
:10AF780038BD00BFE82C002020B9054B01225A70CB
:10AF8800FFF7E6BF012802D1014A9070F8E7704741
:10AF9800E02C002020B9034B01225A70FFF7D8BFDC
:10AFA800704700BFE02C002038B50B4C237883B9DC
:10AFB8000A486360A3602361E36000F05FF8054618
:10AFC80005F0AAFC08B900F067F8012323702846A9
:10AFD80038BD8525FBE700BFE02C002081AF0100CC
:10AFE80037B502A80023094C00F8013DFFF7D8F94E
:10AFF800E368013BE360E56815B900F061F8A57006
:10B008009DF80700FFF7F0F903B030BDE02C0020F1
:10B01800012813B509D003D303281BD002B010BDF3
:10B028000F4B0122C3F88020F8E702A800230D4C3B
:10B0380000F8013DFFF7B4F923780BB9FFF7B4FF27
:10B04800E3689DF807000133E3600123A370FFF76D
:10B05800CBF9E3E700F020F8FFF7C2FFDEE700BF17
:10B0680000E100E0E02C002000F18040002382B0E5
:10B07800036003680193019B02B07047054A137986
:10B0880033B90121106093711171537118467047DB
:10B0980085207047F42C0020084B1A68D20706D484
:10B0A800C02283F800230122C3F880211A604FF0E0
:10B0B80080430022C3F81825704700BF00E100E074
:10B0C800044B01221A604FF08042D2F81834DB0397
:10B0D800FBD470470C000040244B1B6810B573B1BB
:10B0E8004FF48070FFF7C0FF4FF080430122C3F890
:10B0F80008231F4B587910B95A711B6898471D4B84
:10B108001B6863B14FF48270FFF7AEFF4FF08043C6
:10B118000222C3F80823164B01201B689847164BD8
:10B128001B6863B14FF48870FFF79EFF4FF08043B0
:10B138001022C3F808230E4B02201B6898470F4BB8
:10B148001B6893B10E4B00221A604FF48670FFF70C
:10B158008BFF4FF080430821C3F80813044B0320EA
:10B168009A71BDE810401B68184710BD00010040E7
:10B17800F42C002004010040100100400C010040A4
:10B18800340C004000F1804000F5C040002382B03C
:10B19800036003680193019B02B07047800000F1CF
:10B1A800A040D0F8003723F44033C0F80037D0F877
:10B1B800003743EA0141C0F8001770472DE9FF47FF
:10B1C8000024584A584E594D019401211368A2F59C
:10B1D800C040012B80B206D1D6F804330B4202D00E
:10B1E800FFF7D0FF0C430432AA424FEA4101EDD1E8
:10B1F8004F4B1B68012B0AD14FF4BE70FFF7C2FFFB
:10B208004FF0A04344F00044D3F81035019314F0F4
:10B21800FF0F1AD0474F00250126344210D0AB004B
:10B2280003F1804303F5C043D3F81005D3F8101594
:10B2380057F82530C0F30420C1F3014103B1984702
:10B248000135082D4FEA4606E7D1002C66DA0022C0
:10B258004FF0FF33CDE90223DFF8D890012700260D
:10B2680034464FF0A04809EB060393F95020531CCD
:10B2780045D0D2B222F0C005E90804A8084402F07B
:10B28800070310F804CC07FA03F31CEA030F36D0BF
:10B2980009EB050C92099CF930C059F82CA0BAF1B9
:10B2A800000F0AD1032A2AD10DF1080E1EF801C099
:10B2B8004CEA030C0EF801C001E0032AF4D005F5AE
:10B2C800E07110F80C0C58F821101842C1F3014134
:10B2D80005D0022913D1032A0BD1114604E0032912
:10B2E8000DD1032A05D102212846FFF757FF013463
:10B2F800E4B2BAF1000F02D011462846D047013611
:10B30800042EB0D154B14FF0A043019AD3F81035B0
:10B31800934203D00193029B0393A0E704B0BDE8D6
:10B32800F08700BF006100400060004020610040DD
:10B338007C610040FC2C0020014B1B68184700BFB3
:10B34800582D00200D4B984237B50D4610D102A854
:10B35800002300F8013DFFF723F8094B1C7914B9C5
:10B3680001221D601A719DF80700FFF73DF814B916
:10B37800002003B030BD1120FBE700BF00200040D3
:10B38800582D0020034B984201BF034B00221A603E
:10B398001A71704700200040582D0020114BD3F837
:10B3A800183182B0E3B1104B00221A601B68019378
:10B3B800019B0E4BD97FFF2907D0987F01228A4035
:10B3C8004FF0A04148B1C1F80C2500225A771A72F3
:10B3D800D3E90021064802B01047C1F80825F4E770
:10B3E80002B070470030004018310040602D002046
:10B3F800682D00202DE9F74F0679714F01934FF022
:10B40800240A0AFB06FA07EB0A0B91469BF81C2054
:10B41800009780460C46002A40F0CD8005686949AF
:10B428002846FFF78FFF002840F0C780009B227B4B
:10B4380043F80A90019BCBF8043094F800C04FF011
:10B44800A041012303FA0CF3012A94BFC1F80C357B
:10B45800C1F808350CF5E0734FF0010E41F823E010
:10B468006378FF2B1FBF0EFA03FEC1F80CE503F546
:10B47800E07E4FF0030A18BF41F82EA0A17808BF5C
:10B488004FF0FF33FF2917BF01F5E07E4FF0FF377C
:10B498004FF0A04A4FF0040B08BF0197009F1CBF54
:10B4A80001914AF82EB04FF0240E0EFB067E8EF85E
:10B4B8002010E1788EF81F10FF2919D094F804A005
:10B4C8004FF0010B0BFA01FB4FF0A04EBAF1000F41
:10B4D80068D0CEF80CB501F5E0714FF0030B4EF8CB
:10B4E80021B0DFF8DCE0242101FB06E181F81EA091
:10B4F800C5F808C5C5F80C35019BC5F81035A36813
:10B50800C5F82435637B003318BF0123022A4CD0C9
:10B51800032A4DD0012A01D143F00203C5F854355E
:10B52800A379C5F8C035B9F1000F02D04023C5F89A
:10B5380004330723C5F80035B9F1000F27D0D8F830
:10B5480000206179120B53B2002BA8BF03F16044AD
:10B55800D2B24FEA5313B8BF02F00F054FEA4111B8
:10B56800B4BF194C04F561444FEA8303C9B203F12F
:10B578006043B4BF615584F8001303F5614302F0DA
:10B588001F02012101FA02F2C3F880211A60009A11
:10B59800242303FB0626002373770123337703B0A4
:10B5A800BDE8F08FCEF808B595E743F00403B5E79A
:10B5B80043F00603B2E70820F1E71120EFE700BFE8
:10B5C800602D0020A5B3010014ED00E0F8B5057961
:10B5D8001C4C006824236B43E618E358D3B1030BD3
:10B5E8005AB2520903F01F0301212032164F01FA03
:10B5F80003F347F82230154BC0F80833737F4BB17B
:10B608004161D0F80431002BFBD0242303FB054310
:10B6180000225A77242303FB0543002693F82030A1
:10B62800FF2B1FBF03F5E0734FF0A042022142F841
:10B638002310C0F80065FFF7A5FE242303FB05448B
:10B648002677F8BD602D002000E100E052010800D7
:10B658002DE9F3410579474E24236B431446F2182C
:10B668000F46517F8046002940F08180F35823B16E
:10B6780014F0140F04BF0123537797E80F004FF01D
:10B68800240C0CFB056C0CF10C0E8EE80F009CF8DA
:10B698001F20FF2A08D09CF81E10012393404FF06A
:10B6A800A042C1B1C2F80835396821B101F0604340
:10B6B800B3F1005F06D1BA6882B102F06043B3F11A
:10B6C800005F0BD0242303FB056500236B77102054
:10B6D80002B0BDE8F081C2F80C35E5E7D8F80030D3
:10B6E8007868C3F84415C3F84805F968C3F83425E1
:10B6F8000022C3F83815C3F81821D3F8182101928D
:10B70800019A14F0010218BF0122C3F8502514F061
:10B71800020218BF0122C3F8402522075CBF01229C
:10B728001A6124226A43B258B2B9D3F81821002A00
:10B73800FBD0242303FB0565EA7FFF2A07D0A87FF7
:10B74800012393404FF0A04218B1C2F80C350020F5
:10B75800BEE7C2F80835BBE714F004004FF040021A
:10B7680002D0C3F80823F2E7C3F80423B0E7112096
:10B77800AEE700BF602D00207FB503788DF8043058
:10B788004368029383688DF80C30C3680493036997
:10B798008DF81430054A064B01A853F8213052F8A9
:10B7A8002110984707B05DF804FB00BF842D0020E6
:10B7B800902D0020F0B50646944616F8047B194AE9
:10B7C80042F827C0184A42F82730184B0C460FCBCE
:10B7D80085B06D4685E80F0023788DF800306378D2
:10B7E8008DF80130A3788DF80230E3788DF80330B6
:10B7F80023798DF8053063798DF80630A3680293B4
:10B80800237B8DF80C30BCF1000F637B8DF80D3075
:10B81800074A3B4608BF002229463046FFF7EAFDA3
:10B8280005B0F0BD902D0020842D002014330200B7
:10B8380081B7010008B5094B1B7853B10020FFF709
:10B8480045FB0120FFF742FB0320BDE80840FFF756
:10B858003DBBBDE80840FFF745BB00BF9C2D00205D
:10B86800F8B57B4C237805461BB100232370FFF7FE
:10B87800E1FF172D00F28880DFE805F00C17174369
:10B8880054657680888D888D959A9A9A9A9AC4C9B3
:10B89800D1D9E4E4FFF7CEFF6E48FEF771FD6E4B99
:10B8A800002204461A702046F8BD0020FFF7F4FA7B
:10B8B800F8B10020FFF70AFB022D0CBF4FF4E1613D
:10B8C8004FF47A61644B1D704FF400404FF4FA74E2
:10B8D8000025E0FB01454FF47A72002320462946F3
:10B8E80006F0BFFB002201465A48BDE8F840FEF7C3
:10B8F80003BDFFF7DFFA022D0CBFC8214FF4C87152
:10B90800E0E70020FFF7C8FA40B10020FFF7DEFAB1
:10B918004FF44871504B03221A70D5E7FFF7CAFA63
:10B92800C821F7E70020FFF7B7FA38B10020FFF782
:10B93800CDFA4FF47A61484B0422EDE7FFF7BAFAE3
:10B948004FF4C871F7E70020FFF7A6FA48B10020C6
:10B95800FFF7BCFA404B05221A7041F69A110022F3
:10B96800C2E7FFF7A7FAF5E70020FFF7D9FA3A4B45
:10B9780006221A70002240F6CD41B5E70020FFF7F5
:10B9880099FA354B07221A7000248CE701202070A1
:10B99800FFF7C6FAEEE701202070FFF7C1FA002290
:10B9A8004FF48041A0E7FFF7ACFA2B4B0C22EAE7F3
:10B9B8002A482B4EFEF7E4FCD5F1110504461CD0AD
:10B9C800D8B9012D13D0C8235D434FF400474FF475
:10B9D800FA7000214FF47A720023C7FB050106F0C4
:10B9E80040FB224601461D48FEF786FC044602201D
:10B9F800FFF760FA0123337055E70220FFF766FA74
:10BA08000023F8E7FFF716FF134B1222BBE7FFF7F7
:10BA180011FF0020FFF74EFA0F4B1322B3E7FFF791
:10BA280009FF0120FFF746FA0B4B1422ABE7FFF79B
:10BA380001FF0020FFF73EFA0120FFF73BFA064B13
:10BA48001522A0E7FFF75DFA034B1D709CE700BFC6
:10BA5800F02D0020C02D0020F12D0020A02D002069
:10BA68009C2D0020044B1B6813F0010301D0FFF745
:10BA7800F7BE1846704700BFEC2D0020032812D8E7
:10BA8800012A0BD1012908D100F10E02D2B200EB34
:10BA980040000C4B1A540020704700220129F6D0B0
:10BAA80009D3022901D007207047064B00EB40005C
:10BAB80018444270EFE7034B00EB400018448270D3
:10BAC800E9E700BFE02D0020032808B512D8FFF7EA
:10BAD80039FA800000F1A040D0F8003723F4403351
:10BAE800C0F80037D0F8003743F44033C0F80037C7
:10BAF800002008BD0620FCE708B50122022100202D
:10BB0800FFF7BCFF08B1072810D107220221012046
:10BB1800FFF7B4FF08B1072808D100210A22084618
:10BB2800FFF7ACFF10B1072808BF002008BD0000D0
:10BB38000388102B10B502D0112B1ED010BD1A4C43
:10BB48002168B1B901220846FFF798FF08B1072814
:10BB580024D1072202210120FFF790FF08B107280E
:10BB68001CD1042202210020FFF788FF08B1072812
:10BB780014D1236801332360E0E70B4A1368013BC3
:10BB88001360002BDAD1FFF7B7FF0028D6D0074B98
:10BB98001B68002BD2D0BDE810401847034B1B6828
:10BBA800002BE6D09847E4E7F82D0020F42D00207C
:10BBB80008B50020FFF788FF08B1062806D1012044
:10BBC800FFF782FF10B1062808BF002008BD76DF06
:10BBD800704777DF70477ADF70477CDF70477FDF19
:10BBE80070478FDF7047B1DF704733DF70473CDF46
:10BBF800704742DF7047000020B1034B800143F0DB
:10BC080001031847704700BF5033020000F180401D
:10BC180000F5E040002382B0036003680193019BB4
:10BC280002B07047014B01221A707047544A002035
:10BC3800FFF7E2BFFEF7CCB808B50020FFF712FF08
:10BC480008B1FEF7C5F8FFF7B3FF08B1FEF7C0F873
:10BC5800FFF7CBFF18B1BDE80840FEF7B9B808BD3B
:10BC68000388212B13B504463BD01FD8112B28D0AD
:10BC7800132B3ED0102B32D1264B27482749C01A08
:10BC8800C008000440F00300FDF7D6FE0720FFF7C8
:10BC9800E9FE08B1FEF79CF8214BA18821481980DC
:10BCA80004F00EFCD8B1FEF793F818E0522B28D018
:10BCB800562B01D03B2B12D11321A088FFF787FF09
:10BCC800F0E7144B14481849C01AC008000440F0A3
:10BCD8000300FDF7B1FE124B4FF6FF721A8002B057
:10BCE80010BD02A9002321F8043D8088FFF779FFE1
:10BCF800D8E70B4800231A4685210088FFF76FFF15
:10BD0800D0E7074800231A4619460088FFF76BFF5B
:10BD1800C8E700BF042C0200342C020034330200B0
:10BD28007E250020144A00203E33020010B5044648
:10BD38004FF47A70FFF760FF013CF9D110BD08B1EC
:10BD4800FFF7F4BF7047FFF7FABF00000D4B4A88B2
:10BD58001B889A4214D10A8840F677239A420FD159
:10BD68008B88094A09480A49033B9BB21380094A50
:10BD7800801AC00800041A4640F00300FDF76ABEA6
:10BD8800704700BF7E2500207C250020342C02004F
:10BD980056330200042C020008B503784BB9054B52
:10BDA8003B211888FFF713FF18B1BDE80840FEF7DC
:10BDB8000FB808BD7E25002008B548B103280BD16F
:10BDC8000220FFF74FFE38B1BDE80840FEF700B883
:10BDD800BDE80840FFF730BF08BD000038B50E4B7E
:10BDE8000E4D01221A702B78A3B10D4B0D4C0E4944
:10BDF800E41AE408240444F003042046FDF71CFE7A
:10BE0800284606F0F5FA294682B22046BDE83840B1
:10BE1800FDF72ABE38BD00BF744A0020204A002022
:10BE2800042C0200342C0200A43302001FB5CDE913
:10BE38000001CDE90223694600220348FFF708FC08
:10BE480005B05DF804FB00BF983302002DE9F0410E
:10BE58004FF0000890B01E4C0D46174641461E2272
:10BE680068461E4684F8008006F06DFA1E22414698
:10BE780008A806F068FAFF238DF820304FF0A04399
:10BE88004FF4806265F07F058DF80050C3F80C25EB
:10BE9800731CDBB208AA19466846FFF7C7FF237868
:10BEA8006BB14FF0A0434FF48062C3F8082500231C
:10BEB800DAB2964205D8002010B0BDE8F08120BF64
:10BEC800EDE708AA1A445278FA540133F0E700BFA4
:10BED800744A00202DE9F041002488B0DFF86C8016
:10BEE8000E46174621461E2268461D4688F8004021
:10BEF80006F029FA2146CAB2B3189542DBB219D81E
:10BF08004FF0A0434FF48062C3F80C256B00DBB2FE
:10BF1800002219466846FFF789FF98F800309BB160
:10BF28004FF0A0434FF480620020C3F8082508B002
:10BF3800BDE8F08103F07F030DF811300DEB4103EC
:10BF48007A5C5A700131D6E720BFE6E7744A0020D0
:10BF58002DE9F041002488B0184E8846174621463E
:10BF68001E2268461D46347006F0EDF98DF80080F3
:10BF7800631CE4B2AC4218D34FF0A0434FF48012D4
:10BF8800C3F80C256B1CDBB2002219466846FFF784
:10BF98004DFF337883B14FF0A0434FF48012002057
:10BFA800C3F8082508B0BDE8F08108AA2244395D25
:10BFB80002F81F1C1C46DBE720BFEAE7744A002092
:10BFC8002DE9F0414FF0000890B01D4C0F46164681
:10BFD80041461E2268461D4684F8008006F0B3F9E3
:10BFE8001E22414608A806F0AEF94FF0A0434FF4D0
:10BFF800801267F07F078DF80070C3F80C256B1C62
:10C00800DBB208AA19466846FFF710FF237873B118
:10C018004FF0A0434FF48012C3F8082500235A1CA0
:10C02800DBB2AB4205D3002010B0BDE8F08120BFE1
:10C03800ECE710A9194411F81F1CF1541346EEE758
:10C04800744A00202DE9F043002489B01A4E814635
:10C058008846154621461E2268461F46347006F05B
:10C0680072F98DF80090E3B29D4204F101041AD8E8
:10C078003A68012393404FF0A0426846C2F80C3555
:10C088006B1CDBB200221946FFF7D0FE33788BB168
:10C098003A68012393404FF0A0420020C2F80835C7
:10C0A80009B0BDE8F08308AA1A4418F8033002F86A
:10C0B8001F3CD8E720BFE9E7744A00202DE9F04388
:10C0C8004FF0000891B01E4C1F46814615460E469B
:10C0D8001E224146684684F8008006F034F91E2284
:10C0E800414608A806F02FF93A688DF80090012318
:10C0F80093404FF0A0426846C2F80C356B1CDBB287
:10C1080008AA1946FFF792FE237883B13A680123FB
:10C1180093404FF0A042C2F808350023DAB29542A6
:10C1280003F1010305D8002011B0BDE8F08320BF5A
:10C13800EAE710A9114411F81F1CB154EEE700BF3B
:10C14800744A0020FDF744BE08B50849084804F0C1
:10C15800CBF808B1FDF73CFEF721054804F0D6F806
:10C1680018B1BDE80840FDF733BE08BD55BD010054
:10C17800004A0020104A08B50323C2F8F03502230C
:10C18800C2F8F4356FF00043C2F808334FF48270F8
:10C19800FFF73CFD4FF48070FFF738FD01234FF0A7
:10C1A8008171C2F80035C2F828150021C2F824159B
:10C1B800C2F8203508BD00BF007000400000000034
:10C1C8001FB5274A01210723C2F820354FF4827092
:10C1D800C2F80015C2F82CD6C2F83016FFF716FDC3
:10C1E800204B1160196042F2107203F580731968D0
:10C1F80001B94ABB1C4B012119604FF48070FFF74D
:10C2080005FD4FF48270FFF701FD154B0021C3F8BF
:10C218000015DAB1BDF800004FF47A7240F6E30376
:10C2280010FB023041F2C71390FBF3F080B204F028
:10C23800F9FC09A3D3E9002304F0F6FE04F041FD5C
:10C2480080B205B05DF804FB013AD0E742F20F7006
:10C25800F7E700BFAFF300808230BFEC01B31340B3
:10C2680000700040047000400870004000000000AA
:10C278001FB533490122C1F820254FF48270C1F857
:10C288000025C1F82CD6C1F83026FFF7BFFC2D4B8E
:10C298000A601A6042F2107203F58073196809B9CE
:10C2A800002A3ED1284B012119604FF48070FFF716
:10C2B800ADFC4FF48270FFF7A9FC214B0021C3F8B5
:10C2C800001582B3BDF80030DFED206A1BB207EE1F
:10C2D800903AF8EEE77A87EEA67AF3EE057AC7EE9B
:10C2E800277A17EE900A04F002FD02460B4610A1C9
:10C2F800D1E9000104F04EFF0FA3D3E9002304F0B5
:10C308004DFD04F010FD9FED127A07EE900AC7EE7E
:10C31800277AFDEEE77A17EE903A18B205B05DF885
:10C3280004FB013ABAE741F2B350F7E7AFF30080F4
:10C3380018A203C5A114533F3BDF4F8D976E723F80
:10C3480000700040047000400870004000388E45BE
:10C358000000C842000000001FB5334A0121042331
:10C36800C2F820354FF48270C2F80015C2F82CD6F6
:10C37800C2F83016FFF74AFC2C4B1160196042F2E4
:10C38800107203F58073196809B9002A3ED1284B49
:10C39800012119604FF48070FFF738FC4FF4827068
:10C3A800FFF734FC204B0021C3F8001582B3BDF819
:10C3B8000030DFED206A1BB207EE903AF8EEE77A1C
:10C3C80087EEA67ADFED1C7AC7EE277A17EE900A79
:10C3D80004F08DFC02460B460FA1D1E9000104F0E0
:10C3E800D9FE0FA3D3E9002304F0D8FC04F09BFC8A
:10C3F8009FED127A07EE900AC7EE277AFDEEE77AEC
:10C4080017EE903A18B205B05DF804FB013ABAE7A6
:10C4180041F2B350F7E700BF18A203C5A114533F78
:10C42800FCA9F1D24D62703F0070004004700040DA
:10C438000870004000388E450000FC4200007A4435
:10C4480070B54FF0A04440254FF49670C4F80855D5
:10C45800FFF7D2FBFFF780FF074B084E1B88C01A77
:10C46800A6F84E00FFF704FF054B1B88C01AA6F874
:10C478004C00C4F80C5570BD584A00208C4A002066
:10C48800564A00201FB50E4B0FCB6C4684E80F00B0
:10C498000C4B00930C4A0D4800232146FFF78AF9FC
:10C4A80008B1FDF795FC0A4B0A480B49C01AC008A9
:10C4B800000440F00300FDF7BFFA04B010BD00BF50
:10C4C800243302000E0F1214E5BD0100943302005C
:10C4D800042C0200342C0200AF330200044B054A3E
:10C4E8009A60054ADA60054A5A610020704700BF21
:10C4F8003C2E0020DDBE010055BE01004FBD0100ED
:10C5080030B500258BB0204C14222946684625708A
:10C5180005F019FF142229460DEB020005F013FF60
:10C5280006238DF800304FF0A0434FF40072C3F893
:10C538000C25012305AA19466846FFF777FC2378DE
:10C54800F3B14FF0A0434FF400721049C3F8082527
:10C55800009101218DF8041000212170C3F80C25E9
:10C56800052305AA19466846FFF760FC23784BB1F6
:10C578004FF0A0434FF40072C3F808250BB030BD4C
:10C5880020BFDCE720BFF1E7744A002002008000EA
:10C5980030B500258BB0204C1422294668462570FA
:10C5A80005F0D1FE142229460DEB020005F0CBFE62
:10C5B80006238DF800304FF0A0434FF40072C3F803
:10C5C8000C25012305AA19466846FFF72FFC237896
:10C5D800F3B14FF0A0434FF400721049C3F8082597
:10C5E800009101218DF8041000212170C3F80C2559
:10C5F800052305AA19466846FFF718FC23784BB1AE
:10C608004FF0A0434FF40072C3F808250BB030BDBB
:10C6180020BFDCE720BFF1E7744A00200200800158
:10C6280030B500258BB0254C142229466846257064
:10C6380005F089FE142229460DEB020005F083FE61
:10C6480006238DF800304FF0A0434FF40072C3F872
:10C658000C25012305AA19466846FFF7E7FB23784E
:10C668003BB34FF0A0424FF40071154BC2F80815C8
:10C678001B6814480090C3F307408DF804008DF838
:10C688000630C3F307200023237007238DF8050025
:10C69800C2F80C15684605AA1946FFF7C7FB2378A8
:10C6A8004BB14FF0A0434FF40072C3F808250BB00C
:10C6B80030BD20BFD3E720BFF1E700BF744A002098
:10C6C8003C490020020080032DE9F04F0024A9B066
:10C6D800A64F44222146054606A83C7005F033FEC5
:10C6E8004422214617A805F02EFE06238DF818309F
:10C6F8004FF0A0434FF40072C3F80C25012317AA8A
:10C70800194606A8FFF792FB3B78002B00F0298119
:10C71800974B984ED3ED0B7A9C6899699A6AB3F94E
:10C728004C80B3F94EE0B3F950C04FF0A0494FF434
:10C73800007AC9F808A5CDED007AD3ED0C7A05F595
:10C748000140CDED017A4FF0020BD3ED0D7A8DF853
:10C7580018B0C0F3074BCDED027A8DF819B0D3EDC0
:10C768000E7A8DF81B00C0F3072B30685D68CDED9D
:10C77800037A8DF81AB0D3ED0F7A8DF81C00C0F348
:10C78800072B8DF81DB0C0F3074BC0F30760CDED44
:10C79800047A8DF81F00D3ED107A8DF82050C5F378
:10C7A80007208DF82100C5F307405B6CCDED057AB5
:10C7B8008DF81EB08DF82200C4F307208DF82500EF
:10C7C800C4F307408DF82600C1F307208DF8281020
:10C7D8008DF82900C1F30740C1F307618DF82B10CC
:10C7E800C2F307218DF82C208DF82D10C2F30741D4
:10C7F800C2F307628DF82F20009A8DF82E10C2F32D
:10C8080007218DF830208DF83110C2F30741C2F3AB
:10C8180007628DF83320019A8DF83210C2F3072190
:10C828008DF834208DF83510C2F30741C2F3076242
:10C838008DF83720029A8DF83610C2F307218DF84B
:10C8480024408DF838208DF839108DF83C80C2F3DB
:10C8580007418DF83EE0C2F30762CEF3072EC5F319
:10C868000765C4F30764C8F307288DF82A008DF814
:10C878003A108DF83B208DF83FE08DF823508DF865
:10C8880027408DF83D808DF840C0039A8DF84C20E4
:10C89800C2F307208DF84D00C2F30740C2F30762C8
:10C8A8008DF84F20049A8DF84E00C2F307208DF8BA
:10C8B80050208DF85100C2F30740C2F307628DF88B
:10C8C8005320059A8DF85200C2F307208DF85420A2
:10C8D8008DF85500C2F30740C2F307628DF8572060
:10C8E800C3F307228DF858308DF85920C3F3074257
:10C8F800C3F3076300218DF85B30CCF3072C442386
:10C90800ADF84210ADF84410ADF846108DF8560059
:10C918008DF85A2039708DF841C017AAC9F80CA5AE
:10C92800194606A8FFF782FA104A1378DBB14FF0D0
:10C93800A0434FF40072C3F808250F4AD6ED007AD9
:10C948001368403313600D4B93ED007A77EE877AC6
:10C9580040F25910C6ED007AFFF74EF929B0BDE84C
:10C96800F08F20BFD0E620BFDFE700BF744A002069
:10C978008C4A0020344900203C49002044490020CA
:10C988002DE9F04F2DED048BD3B08422002110A89F
:10C9980005F0D9FCBC4C8422002131A805F0D3FC59
:10C9A8000023237006238DF840304FF0A0434FF446
:10C9B8000072C3F80C25012331AA194610A8FFF705
:10C9C80035FA2378002B00F051814FF0A0414FF445
:10C9D8000070AE4AC1F8080502238DF8403013688C
:10C9E80003F58173DB01C3F307459FEDA38B9FED2F
:10C9F800A49B8DF841500027C3F307258DF84250BA
:10CA08008DF84330277020AEC1F80C0510AD0192A7
:10CA1800019B9F4A1B6814685B001C44803B3B4495
:10CA280007EE903A9B4B3C447F2C93ED007A9A4B4F
:10CA3800C8BF803C342202FB04340DF1100A23687D
:10CA4800CAF80030F8EEE77A63680593A36806939E
:10CA580067EE877A2369E06808930DF10C0B636928
:10CA6800CBED007A0993079004F041F9B0EE481A2B
:10CA7800F0EE681A41EC100B05F016F8206959EC35
:10CA8800108B04F034F9B0EE481AF0EE681A41EC55
:10CA9800100B05F009F8404653EC102B494604F0FA
:10CAA8007FF980466069894604F021F9B0EE481A9A
:10CAB800F0EE681A41EC100B04F0F6FF404653EC18
:10CAC800102B494604F06CF9B0EE491AF0EE691AD9
:10CAD80041EC100B04F0E8FF51EC100B04F023F9C3
:10CAE800236A0B93636A0C93A36A0D93E36A0A9013
:10CAF8000E93B4F91800236BB4F91A10B4F91C207A
:10CB08000F930023EC181BF803C084F804C001330A
:10CB1800042BF7D10023EC181AF803C084F808C0D6
:10CB28000133042BF7D100230DF1140CEC181CF879
:10CB380003C084F80CC00133042BF5D100230DF198
:10CB4800180CEC181CF803C084F810C00133042B2F
:10CB5800F5D100230DF11C0EEC1813F80EC084F863
:10CB680014C00133042BF7D100230DF1200EEC186B
:10CB780013F80EC084F818C00133042BF7D1002332
:10CB88000DF1240EEC1813F80EC084F81CC0013304
:10CB9800042BF7D100230DF1280EEC1813F80EC062
:10CBA80084F820C00133042BF7D14FF0000306F8B6
:10CBB800163C0023C3F3072306F81C0C06F81A1CBE
:10CBC800C0F30720C1F3072106F8182CC2F3072287
:10CBD80006F81B0C06F8153C06F8191C06F8172C65
:10CBE80000230BA8EA18195C82F82C100133042BD7
:10CBF800F8D100230CA8EA18195C82F83410013324
:10CC0800042BF8D100230DA8EA18195C82F8381013
:10CC18000133042BF8D100230EA8EA18195C82F816
:10CC28003C100133042BF8D100230FA95A5CF254AD
:10CC38000133042BFAD140364035CFB1842331AAD1
:10CC4800194610A8FFF7F2F80F4A137893B14FF07E
:10CC5800A0434FF40072C3F808250C4A1368013347
:10CC6800136053B0BDEC048BBDE8F08F20BFA8E67D
:10CC78000127CDE620BFE8E70000000000000040E3
:10CC8800000000000000E03F744A00203049002006
:10CC98002C490020444900202C2F00201FB5204C8F
:10CCA800002300F501402370CDE9013303930323EA
:10CCB8008DF80030C0F307438DF80130C0F3072327
:10CCC8008DF802304FF0A0434FF400728DF8030046
:10CCD800C3F80C2508230DEB030219466846FFF735
:10CCE800A5F82378D3B14FF0A0434FF40072C3F8EE
:10CCF80008259DF80C20002362F307039DF80D20FA
:10CD080062F30F239DF80E2062F317439DF80F205E
:10CD180062F31F6300EE103A04B010BD20BFE0E7D5
:10CD2800744A00201FB51C4C0023CDE90033237042
:10CD3800CDE9023303238DF800304FF46073ADF86A
:10CD480002304FF0A0434FF40072C3F80C250723BC
:10CD580002AA19466846FFF769F82378D3B14FF05D
:10CD6800A0434FF40072C3F808259DF80C20002357
:10CD780062F317439DF80D2062F30F239DF80E20F0
:10CD880062F30703054A9342054A88BF00231360EC
:10CD980004B010BD20BFE0E7744A0020FEFFFF008A
:10CDA8003C4900201FB5134C0023CDE90033237004
:10CDB800CDE9023303238DF8003080238DF802304B
:10CDC8004FF0A0434FF40072C3F80C25052302AAC4
:10CDD80019466846FFF72AF823784BB14FF0A0436D
:10CDE8004FF40072C3F808259DF80C0004B010BD7C
:10CDF80020BFF1E7744A00201FB5144C0023CDE989
:10CE080000332370CDE9023303238DF800304FF44B
:10CE1800C073ADF802304FF0A0434FF40072C3F86E
:10CE28000C25052302AA19466846FEF7FFFF23785A
:10CE38004BB14FF0A0434FF40072C3F808259DF89A
:10CE48000C0004B010BD20BFF1E700BF744A0020F9
:10CE58002DE9F043002485B0CDE9014403224FF4C5
:10CE68000077204D03948DF800204FF0A046B84677
:10CE7800DFF87490D9F8003003F50143C3F3074293
:10CE88008DF801208DF80330C3F3072208238DF8AD
:10CE980002201946C6F80C850DEB030268462C7073
:10CEA800FEF7C4FF00E020BF2B78002BFBD0C6F8AC
:10CEB80008759DF80C30FF2B0BD19DF80D30FF2B1A
:10CEC80007D19DF80E30FF2B03D19DF80F30FF2BB3
:10CED80005D0D9F800301033C9F80030C8E705B0DC
:10CEE800BDE8F083744A00203C49002013B51D4C6E
:10CEF800002323708DF8043006238DF800304FF09E
:10CF0800A0434FF40072C3F80C25012301AA194667
:10CF18006846FEF78BFF2378FBB14FF0A0434FF430
:10CF28000072C721C3F808258DF800100021217070
:10CF3800C3F80C25012301AA19466846FEF776FFB7
:10CF4800237863B14FF0A0434FF40072C3F808256B
:10CF5800054B00221A6002B010BD20BFDBE720BFDE
:10CF6800EEE700BF744A00203049002010B52DEDCF
:10CF7800028B104C8AB0224606A9032002F0D4F98D
:10CF8800DDE9080103F0CFFEDFED0B7A07EE100AAA
:10CF980087EE278ADDE9060103F0C5FE01902046E9
:10CFA80002F04FF9DDED010AB0EE480A0AB0BDEC17
:10CFB800028B10BD602E002000007A4400000000A3
:10CFC80013B5FFF7D3FF224C10EE100A84ED010AC7
:10CFD800C4ED120A03F08BFE17A3D3E9002304F073
:10CFE800D9F803F0A0FE03F082FE9FED151B41EC7B
:10CFF800100B04F059FD51EC100B03F094FE07EEF2
:10D00800100AF7EE007A77EEC77A17EE900A03F067
:10D018006EFE0DA3D3E9002304F006F803F083FEA7
:10D02800D4ED037A07EE100A77EE677AC4ED047A36
:10D0380002B010BDAFF30080CDCCCCCCCC5459405D
:10D048003CDD79E2395BC83F9A999999B3BE0141B1
:10D058008C4A002000000000F8B52DED028BFFF788
:10D06800EFF9B14CB14B94ED067A93ED006AD4ED2B
:10D07800027AD4ED096AAE4BAE4AD3ED005AAE4BF4
:10D08800AE49E7EE067AA6EE267AE6EEA57AD3ED65
:10D09800005AAB4B94ED046A84ED067A93ED007A5E
:10D0A800C4ED027A36EE477A83ED006AC7EE257A38
:10D0B800A44B1B78C2ED007AA34A92ED007AC2ED28
:10D0C800007A37EEC77AC7EE256AC1ED006A002BF1
:10D0D8003DD1FDEEE67A17EE900A05F0ACF803F0C4
:10D0E800A1FD0022994B04F0B4F980B3984B1A685B
:10D0F800984B1B689A422AD1D4ED027A94ED047AAF
:10D10800954BD4ED066A37EE677A83ED007A934B38
:10D1180093ED006A924BE7EE067A93ED006A914B25
:10D12800C4ED027AE7EE066A93ED006AC4ED066A7A
:10D13800D4ED096AE7EE066A94ED057AC4ED096A4A
:10D14800F4EEC77AF1EE10FAC8BFC4ED057A864B43
:10D15800D4ED068A1D78854B93ED008A1DB3844E65
:10D16800337803B3DFED837AF4EEE78AF1EE10FA51
:10D1780019DD606A03F0BBFD69A3D3E9002304F05D
:10D1880068F980B1002333707B4B83ED008A7B4BB9
:10D198001A68724B1A607A4B1A68714B1A60794B8D
:10D1A8001A68704B1A60E06903F0A1FD0022764B03
:10D1B80003F03AFF064618EE900A0F4603F097FD73
:10D1C80002460B463046394603F0EAFD00226F4B13
:10D1D80003F0E0FF03F0A7FD6D4BE0611A7807EE5E
:10D1E800900A7AB9B8EE007AF4EEC77AF1EE10FA3E
:10D1F80008D50122B2EE0E7A1A7038EE077A654A1F
:10D2080082ED007A1A78E2B1B8EE007AF4EEC77AC5
:10D21800F1EE10FA15DD5F4AD2ED007AF4EEC87A25
:10D22800F1EE10FA0DD594ED027ADFED527AB4EEF4
:10D23800E77AF1EE10FA04D5574A0121117000225D
:10D248001A70564B56491A78CAB9C5B1F5EEC08A54
:10D25800F1EE10FA13D5534A94ED057AD2ED007A1F
:10D26800B4EEE77AF1EE10FA09DD4FF0A0424FF480
:10D278008070C2F8080501221A7081ED008A4A48B8
:10D288004A4A0578F5B91B78E3B1494B94ED027A1F
:10D29800D3ED007AB4EEE77AF1EE10FA12D5414BED
:10D2A80094ED057AD3ED007AB4EEE77AF1EE10FA50
:10D2B80008DD4FF0A0438024C3F80845012303701C
:10D2C80082ED008A3B4BD1ED007A93ED007A77EE40
:10D2D800877AF4EEC87AF1EE10FA02D42E4B1B7856
:10D2E8002BB14FF0A0434FF48071C3F80C15324BAB
:10D2F800D2ED007A93ED007A77EE877AF4EEC87A69
:10D30800F1EE10FA02D4244B1B7823B14FF0A0435E
:10D318008022C3F80C25BDEC028BF8BDAFF300806A
:10D328009A999999991940C08C4A0020784A002006
:10D338007C4A0020E04A00203C250020242E0020C2
:10D348002C2E0020332E0020E44A00200040DF402D
:10D35800342E002030250020142E0020182E002006
:10D368001C2E0020202E0020424900203449002095
:10D37800282F002000004842844A00201025002061
:10D3880018250020202500200000334000003440EC
:10D39800312E0020B025002041490020282E0020F1
:10D3A800804A0020AC250020314A0020884A00200D
:10D3B800A42500202C250020A82500200A4B0B4A74
:10D3C8005A601A600A4900229A60DA605A611A6142
:10D3D8009A61DA611A625A629A62DA621A635A6365
:10D3E8000022C3E9121270478C4A002066A6CA427E
:10D3F800000070411FB5134B0193134B13481A6873
:10D40800C2F30721D3B28DF808308DF809100B4408
:10D41800C2F3074151FA83F3C2F307628DF80B2078
:10D4280052FA83F304AA8DF80C30092322F80E3D32
:10D43800074B8DF80A101B8801A903F0B3F905B052
:10D448005DF804FBF50C04053C490020802500200C
:10D458007E25002073B50023ADF8063040F2F55361
:10D4680002ACADF80430FA238DF80730042324F811
:10D47800063D0B4D0B482B88224601A903F092F973
:10D4880058B1084E0520FEF751FC2B88224601A909
:10D49800304603F087F90028F4D102B070BD00BF10
:10D4A8007E250020802500201FB50023ADF80A3016
:10D4B8000A4B019340F20243ADF8083004AA062350
:10D4C8008DF80C30092322F80E3D054B05481B88C2
:10D4D80001A903F067F905B05DF804FBF50A040338
:10D4E8007E250020802500207FB5124B0193124B2A
:10D4F8009A6803925A699B6C029300238DF8143042
:10D50800042304920DEB0301585C9DF814200133A9
:10D518000244102B8DF81420F6D106AA112322F804
:10D52800163D064B06481B8803F03CF907B05DF82A
:10D5380004FB00BFF5010C028C4A00207E25002068
:10D5480080250020054B01221A70054B4FF400522C
:10D558001A60044B00221A60FEF7D2BF684A002006
:10D568003C4900203449002008B5FFF7EBFF024B87
:10D5780000221A7008BD00BF322E002008B5B12164
:10D588000020FEF734FBBFF34F8F0549054BCA68EF
:10D5980002F4E0621343CB60BFF34F8F00BFFDE797
:10D5A80000ED00E00400FA052DE9F04F2DED028BA7
:10D5B800ADF50B7DFFF71EFF5E4B1B689B0808EE61
:10D5C800103A5D4B18888008073803F02BFB41ECB4
:10D5D800100B04F0E9FC51EC100B03F072FB05ADE5
:10D5E80004464FF405720021284604F0ACFE7F2C57
:10D5F8003CD83F2C3CD81F2C3CD80F2C3CD8072CAF
:10D608003CD8032C3CD8012C8CBF0224012407EE03
:10D61800904AB8EEE77AF8EEC87A40F2F573C7EEAA
:10D62800877A2B80E3B29A1C023BAA70EB704FF00A
:10D638000008DFF80891DFF808A1474617EE900ABE
:10D6480003F055FB41EC100B03F046FF51EC100BB7
:10D6580003F010FB0290029B9F4213D1FFF7FAFEE2
:10D668000DF50B7DBDEC028BBDE8F08F8024CEE775
:10D678004024CCE72024CAE71024C8E70824C6E7DA
:10D688000424C4E7C7F30723FEB22E716B711E444E
:10D6980018EE103A04FB17339C4228BF1C46E3B22D
:10D6A8009A1C033BEB70A10006AB0B440093C5EB3F
:10D6B8008803F6B2AA7028460193009B00F1040B78
:10D6C8005B4514D105AB1944A3000733A0448E7100
:10D6D800ADF81230B9F800300DF1120205A9504624
:10D6E80003F060F818B30520FEF720FBF2E7019B72
:10D6F80003911844FFF7D2FA10EE102A9BF801E0C4
:10D708000399D3B2C2F3072C8BF802307344C2F3E7
:10D7180007408BF803C09C448BF80400604406441F
:10D72800C2F307628BF80520F6B25846C5E7013701
:10D7380091E700BF3C4900207C2500207E25002081
:10D7480080250020000000002DE9F0415C4FDFF843
:10D75800C0813D785B4C2DED028B0026A5B10023DE
:10D768003B7088F80030584B616803F5D0525E6012
:10D7780019609E6034339342F9D1BDEC028B534B50
:10D7880000221A60BDE8F081514B1D70FFF7AEFB17
:10D798006420FEF7CBFAFFF713FCFFF70FFE6420B7
:10D7A800FEF7C4FAFFF70CFC60682661206003F0FE
:10D7B8009EFA3DA3D3E9002303F0ECFC03F0B3FA8F
:10D7C800E06003F094FA9FED3A1B41EC100B04F073
:10D7D8006BF951EC100B03F0A6FA07EE900AB7EEBE
:10D7E800008A78EE677A17EE900A03F080FA32A37F
:10D7F800D3E9002303F018FC03F095FAE0606068B1
:10D8080003F075FA28A3D3E9002303F0C3FC03F05F
:10D818008AFA206103F06BFA9FED251B41EC100B8F
:10D8280004F042F951EC100B03F07DFA07EE900A70
:10D8380078EE677A17EE900A03F059FA1EA3D3E937
:10D84800002303F0F1FB03F06EFA224A224B157015
:10D85800224A1D601570224A224B1570224AD4EDC7
:10D86800037A1570214A1E601570214A214B1570E4
:10D87800214A1E601168214A1160214A1168214A13
:10D888001160214A07EE100A1168204A77EE677A7C
:10D8980011604FF0A04201234FF40031C4ED047A27
:10D8A8003B70C2F80C155CE7CDCCCCCCCC545940BD
:10D8B8003CDD79E2395BC83F9A999999B3BE014139
:10D8C800322E00208C4A00202C2F00202C490020CA
:10D8D800684A0020424900203C490020312E00209F
:10D8E800414900203449002040490020282E0020CA
:10D8F800314A0020844A00200C250020182E0020E0
:10D90800142500201C2E00201C250020202E00207D
:10D91800434900201FB50023ADF80C308DF80E30B8
:10D928000D4B0293FEF74CFC04AAC0F30723C0B2C8
:10D938008DF80D308DF80C001844072322F80A3DA5
:10D94800064B8DF80E001B88054802A902F02AFF35
:10D9580005B05DF804FB00BFF50202F97E25002042
:10D96800802500201FB51449144B0193B1F94C30A0
:10D97800B1F94E10C3F30722C1F30720DBB2C9B2D5
:10D988008DF808300B4413448DF8092050FA83F3BE
:10D9980004AA8DF80C30092322F80E3D084B8DF8A7
:10D9A8000B008DF80A101B88064801A902F0FAFE40
:10D9B80005B05DF804FB00BF8C4A0020F50B040499
:10D9C8007E250020802500201FB50E4B0E481A78B2
:10D9D8000E4B19784FF0000361F3000362F3410323
:10D9E8000B4A029204AA8DF80C308DF80D300623EC
:10D9F80022F80A3D074B02A91B8802F0D3FE05B0A6
:10DA08005DF804FB684A002080250020322E0020A3
:10DA1800F50601FC7E25002038B5032304460125C0
:10DA280080F8AB30002380F8A95080F8AA5080F81D
:10DA3800AC3080F8AD300146362001F075F984F835
:10DA4800A8502046BDE8384001F0FBBB30B5164C65
:10DA5800164B2168342202FB0133154A50681860BE
:10DA68009068586090699860906AD860D06A186128
:10DA7800106B5861B2F84C00956B1883B2F84E00E1
:10DA880058835D62B2F85000D56B98839D62002080
:10DA9800156C526C1862DD621A634B1C802B08BF30
:10DAA8000346236030BD00BF2C4900202C2F0020E6
:10DAB8008C4A0020000000002DE97043544D554E5B
:10DAC800554C2DED028B3146284600F028FE534B6D
:10DAD80093ED006AB5F9003007EE903AB5F90230D7
:10DAE80006EE903AB5F904304D4D07EE103AF8EECF
:10DAF800E77AF8EEE66AB8EEC77A67EE867A66EEF7
:10DB0800866A27EE067AC4ED0A7AC4ED126A84EDB5
:10DB18000C7A17EE900A03F0EAF89FED378B41EC88
:10DB2800100BB0EE481AF0EE681A03F0BDFFE06A79
:10DB380059EC108B03F0DBF8B0EE481AF0EE681AD7
:10DB480041EC100B03F0B0FF404653EC102B494654
:10DB580003F026F98046206B894603F0C8F8B0EE3A
:10DB6800481AF0EE681A41EC100B03F09DFF40468E
:10DB780053EC102B494603F013F99FED211B41ECA0
:10DB8800100B03F091FF51EC100B03F0CCF8314669
:10DB98006063284600F0A9FE224BD3ED006AB5F970
:10DBA800003007EE103AB8EEC77AB5F9023027EE22
:10DBB800267A9FED150B84ED0E7A07EE103AB5F92B
:10DBC800043007EE903AB8EEC77AF8EEE77A27EE17
:10DBD800267A67EEA67A84ED0F7AC4ED107A04F0FF
:10DBE8009FF851EC100B03F09EF8BDEC028B6064BB
:10DBF800BDE87083AFF30080000000000000004023
:10DC0800000000000000E03F000000000000454068
:10DC1800542E0020482500208C4A0020282500206A
:10DC28005A2E00204425002038B54FF0A0444FF468
:10DC38000035C4F80C553220FEF778F8C4F80855BA
:10DC48003220FEF773F8C4F80C553220FEF76EF850
:10DC5800C4F808553220FEF769F8C4F80C5532208C
:10DC6800FEF764F8C4F808550B48FDF7AFFC042329
:10DC7800C4F85037C4F82437C4F82837C4F80C3728
:10DC8800C4F81037C4F870374FF40043C4F80835A7
:10DC9800BDE83840FDF7A9BF9833020038B54FF00A
:10DCA800A0444FF48075C4F8085540F6B830FEF724
:10DCB8003DF8C4F80C5538BD38B54FF0A044802560
:10DCC800C4F8085540F6B830FEF730F8C4F80C55DB
:10DCD80038BD000008B50378F3B9838A042B1BD13B
:10DCE80003699A78C2B959781A780A44D978D2B2AD
:10DCF800914211D1134A00200021C2E900015B784A
:10DD0800F13B072B08D8DFE803F00408070C0E10D6
:10DD180014180D4B01221A7008BDBDE80840FFF722
:10DD280023BC0A4BF6E7FFF729FCBDE80840FFF7DC
:10DD38007BBFBDE80840FFF7B1BFBDE80840FFF76B
:10DD4800BBBF00BF604A0020302E002038490020A9
:10DD58002DE9F04F4FF40041B5B00020FBF7A6FCC9
:10DD680008B1FCF735F8FBF7D9FBFCF783FA08B1E3
:10DD7800FCF72EF8CE4ACF480121FCF7ABFA08B1E0
:10DD8800FCF726F8CC4BCD4CCD49D3E9002306A8A7
:10DD980004F070FA0E22CB49204604F080FA9DF870
:10DDA8001830A3739DF81930E3739DF81A30237463
:10DDB8009DF81B3063749DF81C30A3749DF81D30CA
:10DDC800E3749DF81E3023759DF81F3063759DF828
:10DDD8002030A3759DF82130E3759DF82230237615
:10DDE800FEF7C8F9FEF7ECF9FCF742FE08B1FBF7BD
:10DDF800EFFF02F055FD08B1FBF7EAFF34AC002352
:10DE080044F8AC3D0120214602F0D6FD08B1FBF7ED
:10DE1800DFFF204602F09CFE08B1FBF7D9FF34ADC6
:10DE2800112305F8BC3DA54804F0E2FAA34982B2E3
:10DE38002846FDF7D2FE08B1FBF7CAFF00210822E9
:10DE4800204604F080FAA0494FF0C8732046CDE977
:10DE58000913FDF7C0FE08B1FBF7BAFFFEF774F926
:10DE68009A4B9B480993214602F018FB08B1FBF72F
:10DE7800AFFF00210422284604F065FA954B964826
:10DE88000593294602F01AFC08B1FBF7A1FFAC2262
:10DE98000021204604F057FA062202238DF8272095
:10DEA80001228E498DF82430ADF8702000238DF8BA
:10DEB800A0204FF4A0728DF826301D91CDE92B23B8
:10DEC8002146874B8748329301F0A6FD08B1FBF73E
:10DED8007FFF0121834801F09CFD1C220021204680
:10DEE80004F031FA00234FF42032CDE90932ADF8BD
:10DEF80032304FF470228DF834307B4B0B920E93F6
:10DF080003227A4B8DF8302020460F9302F032F826
:10DF180008B1FBF75DFF0321724801F0EFFD08B17E
:10DF2800FBF756FF4FF0A0440422002101200325EF
:10DF3800FDF74FFE4FF40043C4F83C574FF4FA7016
:10DF4800C4F80C35FDF7F2FE4FF48013C4F85057AF
:10DF5800C4F808354FF40073C4F82457C4F80835DA
:10DF68004FF48063C4F82857C4F808354FF40053B9
:10DF7800C4F83457C4F808354FF48073C4F82057F0
:10DF8800C4F80C358023C4F81C57C4F80C354FF07E
:10DF9800804301221A60D3F80021002AFBD0544C98
:10DFA800544DFDF726FEFEF76DFA534B6360534B55
:10DFB800A3600026524BE36020466670A67001F00D
:10DFC80011F828702046FFF727FD4E4C2870642072
:10DFD800FDF7ACFEFEF7CAFFFEF780FA6420FDF7F6
:10DFE800A5FEFFF7EBF9204600F0F0FA287020466E
:10DFF80000F0F1FB0C23A37403232374287002237D
:10E0080020466374E67300F056FBA36A61682870C3
:10E018000A209847204600F00CFB6168A36A287024
:10E028000A20984701232046A37563752675E67470
:10E0380000F029FCA36AA16828700A2098472046A6
:10E0480000F0E4FBA36AA16828700A2098472E4CC8
:10E058006420FDF76BFEFEF7B3FFFFF7AFF964200E
:10E06800FDF764FEFEF7ACFF6068206002F03FFE3B
:10E078000BA3D3E9002303F08DF802F054FEE0600F
:10E0880002F035FE9FED081B41EC100B03F00CFD70
:10E0980051EC100B02F047FE38E000BFAFF30080F0
:10E0A800CDCCCCCCCC5459403CDD79E2395BC83F6F
:10E0B8002DBC010090330200A4000010FC2D0020AC
:10E0C800723302007533020010003C003DBC0100B1
:10E0D800144A0020DDDC010080250020782500207E
:10E0E800C1BD010048490020A1BD01004DC101008A
:10E0F800602E0020694A0020C9BF010059BF0100F5
:10E1080047BD0100482500208C4A002007EE100A70
:10E11800F7EE007A77EEC77A17EE900A02F0E7FD7D
:10E128005DA3D3E9002302F07FFF02F0FCFD484B1A
:10E13800E06000226068226103F5D0515A601860DF
:10E148009A6034339942F9D1424B434E434D0027EC
:10E158001F60434B1A68434B1A60434B1A68434B82
:10E168001A60434B1A68434B1A60434B93ED007A8D
:10E178003368013307EE903AF8EEE77A3F4B67EEE3
:10E18800877A17EE100AC3ED007A3D4B83ED007ACB
:10E1980002F0ADFD0022804689463A4B02F044FF6A
:10E1A80042464B4602F040FF02F0BDFD364B2F7051
:10E1B8001860FEF7F7FD0746FEF71EFE012FCDE9B2
:10E1C800026542D1FF2840D1FEF742FE00224221DB
:10E1D8002E48FCF791F808B1FBF7FAFD4FF0A0457F
:10E1E80003264FF40037C5F844674FF4FA60C5F8C2
:10E1F8000C75FDF79BFD40F20333C5F80875C5F8AB
:10E208002067C5F81C67C5F818374023C5F80C35D2
:10E21800FBF7A6FAFCF742FC0423C5F83837C5F823
:10E2280040373B44C5F83837194A1A4B9B1AF34014
:10E238001B043343019300254FF0A046D6F8103550
:10E248005A045DD54FF0000850E0FEF76BFDBDE7BE
:10E258002C2F00202C490020B42500204049002004
:10E268000C250020182E0020142500201C2E00202C
:10E278001C250020202E00203C2500204449002099
:10E28800784A00200000E03F7C4A0020344A002001
:10E29800042C0200342C02009A999999B3BE0141CA
:10E2A8000120FDF743FD08F1010840F6B833984511
:10E2B8001CD14FF400373220C6F80C75FDF736FD37
:10E2C8003220C6F80875FDF731FD3220C6F80C7506
:10E2D800FDF72CFD3220C6F80875FDF727FDC6F8B6
:10E2E8000C753220FDF722FDC6F80875D6F81035F2
:10E2F8005B04D5D440F6B733984501DDFFF794FCAD
:10E30800734B1A781AB100221A70FFF74DF9714B46
:10E318001A781AB100221A70FFF716FA6E4B1A789B
:10E32800002A89D000221A706C4B1B78A3B36C4B5F
:10E338001B788BBB94ED067AF3EE0E7AB4EEE77A8F
:10E34800F1EE10FA08DD94ED027ADFED667AB4EEAC
:10E35800E77AF1EE10FA08DC606B02F0C8FC5AA309
:10E36800D3E9002303F091F8B0B15C4A002313709D
:10E378005D4A00210020C2E900014FF0A0424FF49D
:10E388000031C2F80815594A1370594A012313700D
:10E39800584A1370FFF7D6F8DFF880B1564BDBF810
:10E3A80000209A4282BF4E4B00221A70534A1378BB
:10E3B8006BB1039900230B70494913700B70FEF77A
:10E3C8002FF94FF42F70FDF717FCFEF7E1F8DFF88F
:10E3D80050A1DFF85081DAF80020494F494EDFF8A4
:10E3E800489130680132CAF80020D8F8002001327C
:10E3F800C8F800203A6801323A60D9F800200130A4
:10E408009042306003DD00223260FEF7D9FDFFF74D
:10E4180053FBFEF721FE3268D9F800108A42C4BFC8
:10E4280000223260384ADAF80010126891420CDD96
:10E4380036490198FBF700FB0022CAF80020FFF7D5
:10E4480053F8FFF7C1FAFFF78DFA029BD8F80020BE
:10E458001B689A4211DD0023C8F80030204B1B7856
:10E4680063B3DBF80000FEF72FF9294B1A68294B34
:10E478001B689A4201DAFEF783FA274B3A681B6851
:10E488009A4205DD00233B60FFF744FAFFF70CF8DA
:10E49800164B1B78002B3FF4CFAE0135EDB2012DA2
:10E4A8003FF4CAAE4FF0A0434FF40032C92DC3F871
:10E4B80008257FF4C1AEC3F80C25BCE6FFF7C6FA01
:10E4C800DBE700BFAFF300806666666666265840E5
:10E4D80038490020302E0020544A0020322E0020D7
:10E4E800684A002000004842604A00204349002052
:10E4F80042490020282F0020007E070041490020C3
:10E50800382E0020342E0020B82500208433020045
:10E518003049002038250020342500203C490020BF
:10E52800704A00206C4A00203025002068B1036A38
:10E538005BB1436A4BB1836A3BB143682BB18068D6
:10E54800B0FA80F04009404270474FF0FF30704702
:10E5580038B51C461B7B656A012B08BF00F07F009D
:10E568006368A847002884F82C0018BF6FF00100E2
:10E5780038BD2DE9F84315469A7B2A441C46D31D1D
:10E5880023F0070300AFADEB030D237B266A012BB5
:10E59800E846894608BF40F0800063684146B047B6
:10E5A80084F82C0080B16FF00100BD46BDE8F88307
:10E5B800A17B08EB0206715C09F802109AB2954239
:10E5C80003F10103F4D8F0E70346F7E713B5002396
:10E5D8008DF807300446FFF7A9FF0346D8B9227B18
:10E5E800012A1BD12346A2730DF10701FFF7C1FFD2
:10E5F800034680B9234601220DF107010020FFF7E9
:10E60800B8FF034638B9627B012A09D19DF8072073
:10E618001F2A0BD12270184602B010BDA073E9E77B
:10E62800022A03D19DF807201E2AF2E76FF00203A1
:10E63800F1E7F7B500230546ADF80430FFF776FF9C
:10E64800A0BBAC7C6A7B6F7C2E7C631F012ADBB28B
:10E6580004D1032E94BF0020012001E0022AF8D043
:10E66800072B25D8022F23D810BB2B46022201A93D
:10E678004020FFF77EFFC8B99DF8043023F00F0350
:10E688001C439DF8053006F0030623F003033343CB
:10E6980024F0700444EA07148DF8053002222B4652
:10E6A80001A940208DF80440FFF752FF03B0F0BDE8
:10E6B8006FF00700FAE737B500230546ADF80430D8
:10E6C800FFF734FF0446F8B9EB7B03BB04238DF84E
:10E6D80005302B46012201A97C20FFF739FF0446AB
:10E6E80090B9AB6A696841F2883098472B46012295
:10E6F8000DF105017D20FFF72BFF044620B9AB6A19
:10E70800696841F288309847204603B030BD032B32
:10E7180002D18DF80430DCE76FF00404F4E713B598
:10E7280004460846FFF702FFF0B9ECB10B46062293
:10E7380069461220FFF71DFFA0B99DF801209DF83A
:10E74800003043EA022323809DF803209DF802301D
:10E7580043EA022363809DF805209DF8043043EACC
:10E768000223A38002B010BD4FF0FF30FAE768B172
:10E77800036A5BB1436A4BB1836A3BB143682BB10F
:10E788008068B0FA80F04009404270474FF0FF308F
:10E79800704738B51C461B7B256A012B08BF40F023
:10E7A8008000A368A847002884F82C0018BF6FF0E1
:10E7B800010038BD38B51C461B7B656A012B08BFB4
:10E7C80000F07F00A368A847002884F82C0018BF31
:10E7D8006FF0010038BD13B500238DF807300446EB
:10E7E800FFF7C5FF034670B9234601220DF1070163
:10E7F800FFF7CFFF034630B99DF807200F2A0CBF5B
:10E8080062706FF00203184602B010BD73B504467B
:10E81800FFF7ADFFA8BB267DA57D042E01D8072DE7
:10E8280002D96FF007002CE0234601220DF1070101
:10E838001020FFF7AEFF20BB9DF8073023F00F0331
:10E848001D43012223460DF1070110208DF80750C2
:10E85800FFF7B0FFA8B9234601220DF107010F20E9
:10E86800FFF797FF68B99DF8073023F00703334394
:10E878008DF80730012223460DF107010F20FFF71D
:10E8880099FF02B070BD37B50546FFF770FF044623
:10E89800F8B92B4601220DF107011120FFF779FF86
:10E8A8000446B0B9EB7C8DF80630802B17D19DF863
:10E8B8000730202B10D02B4601220DF10601112024
:10E8C800FFF778FF044620B9AB6AA96847F23050D1
:10E8D8009847204603B030BD6FF00404F9E7202BB9
:10E8E800E9D19DF80730802BE4E713B504460846C4
:10E8F800FFF73DFFF0B9ECB10B460622694602204E
:10E90800FFF747FFA0B99DF801209DF8003043EAC2
:10E91800022323809DF803209DF8023043EA022356
:10E9280063809DF805209DF8043043EA0223A38004
:10E9380002B010BD4FF0FF30FAE7000070B5054691
:10E9480092B048222A49684603F0D4FC95F8A940B9
:10E95800A4B195F8AB4027490020002C39D10022FA
:10E96800254B02F061FB254B002202F019FA02F058
:10E97800A8F94FF47A7380B2B0FBF3F495F8AA3093
:10E98800CBB195F8AC601B4900204EBB02F0CBF927
:10E998009FED1B7ADFED1B7A06EE900AE6EE877A8A
:10E9A800FCEEE77A17EE903A98B24FF47A73B0FB20
:10E9B800F3F0204484B295F8AE3012AA02EB830338
:10E9C80053F8483CA34294BF6FF00200002012B0F5
:10E9D80070BD02460B46013C02F0E2F9E4B2BCE726
:10E9E80002460B46013E02F0DBF9F6B2CDE700BF66
:10E9F800C43302000000F03F00409F400080784090
:10EA08000000FA4400809C4348B143683BB18368E6
:10EA18002BB1C068B0FA80F04009404270474FF00F
:10EA2800FF3070472DE9F04F834689B08A461C466F
:10EA38001546002A00F0D180002B00F0CE8010F09F
:10EA4800030F22D0486802F004F9D4E9002302F049
:10EA5800A5F902460B4606460F4602F0E5FAD4E948
:10EA6800042302F0E1FAD4E90223804689463046BD
:10EA7800394602F0D9FA02460B464046494602F0AA
:10EA88008FF9C4E91C01C5E900011BF0010000F081
:10EA9800A180D4E91C8942464B464046494602F0CB
:10EAA800C3FA02460B46CDE900014046494602F04A
:10EAB800BBFACDE90201DAF8000002F0CAF8024612
:10EAC8000B4682468B4602F0AFFAD4E90823CDE91B
