:020000021000EC
:109000000000012079930100619301006393010046
:10901000659301006793010069930100000000005F
:109020000000000000000000000000006B93010041
:109030006D930100000000006F9301007193010027
:10904000C1AF010073930100E9B3010091B40100C5
:1090500065B40100739301006DB2010073930100C8
:1090600073930100739301007393010073930100E4
:1090700073930100739301007393010073930100D4
:1090800073930100AD9E010073930100739301007F
:10909000499F010073930100CDEE0100739301001D
:1090A00073930100739301007393010073930100A4
:1090B00073930100739301000000000000000000A2
:1090C0007393010073930100739301007393010084
:1090D000610B020073930100739301000000000014
:1090E0000000000000000000000000000000000080
:1090F0000000000000000000000000000000000070
:10910000000000000000000000000000000000005F
:10911000000000000000000000000000000000004F
:10912000000000000000000000000000000000003F
:10913000000000000000000000000000000000002F
:10914000000000000000000000000000000000001F
:10915000000000000000000000000000000000000F
:1091600000000000000000000000000000000000FF
:1091700000000000000000000000000000000000EF
:1091800000000000000000000000000000000000DF
:1091900000000000000000000000000000000000CF
:1091A00000000000000000000000000000000000BF
:1091B00000000000000000000000000000000000AF
:1091C000000000000000000000000000000000009F
:1091D000000000000000000000000000000000008F
:1091E000000000000000000000000000000000007F
:1091F000000000000000000000000000000000006F
:10920000364937480A1A02D0072291438D4635491C
:1092100035480A1A06D00722914381F309880222B1
:1092200082F3148831483249324A00F045F8324816
:109230003249334A00F040F832483349334A00F0AB
:109240003BF833483349344A00F036F83348344960
:10925000344A00F031F834483449354A00F02CF8EB
:1092600034483549354A00F027F835483549002259
:1092700000F02DF834483549002200F028F8344831
:109280003449091A082903DB002202600430016016
:10929000314A90471F482049884205D0026804306F
:1092A00003B4904703BCF7E700208646EC46002055
:1092B00000212A4A9047FEE7884207D0521A05D07B
:1092C000037801300B700131013AF9D170478842BF
:1092D00002D002700130FAE7704700000000012060
:1092E00000F8002000000120000001204845020095
:1092F0000025002078250020D8930100D893010094
:10930000A03402004845020000250020002500206E
:109310009C3502009C3502009C3502009C35020001
:109320009C3502009C3502009C3502009C350200F1
:1093300048450200C045020078250020782500201D
:1093400078250020B4360020B4360020B83600203E
:10935000B8360020B83E0020A1930100C9D1010019
:10936000FEE7FEE7FEE7FEE7FEE7FEE7FEE7FEE7D5
:10937000FEE7FEE7704700BF1048804710484FF0F7
:109380000701884385460F4880470F48016841F42C
:1093900070010160BFF34F8FBFF36F8FFFF730BFD6
:1093A0000A480B490B4A884207D0521A05D0037865
:1093B00001300B700131013AF9D17047759301000A
:1093C0000000012025AB010088ED00E09C35020083
:0893D00000250020002500200B
:1093D80000487047AC3600207047000007B5044BC2
:1093E8000093044A402300F030F803B05DF804FB12
:1093F80001940100792500202DE9F8438946144697
:10940800B2B10F4B0F4E0325002743F00108224647
:1094180009EB0701002004F001FB0744241A48B9AE
:1094280033782BB14FF47A40C047013D02D13570F3
:10943800BDE8F88301233370002CE8D1F8E700BFBA
:10944800A0350200782500207047F0B595B01C467D
:10945800164608460D4601F082FA1A9B0D93CDE98F
:10946800086400242346082205A928460A948DF892
:109478002C400C9401F091FA079B0293BDF8183028
:10948800ADF80C30BDF81A30ADF80E309DF8143038
:109498008DF8114003F00302012A1DD1BDF81440D4
:1094A800059EC3F3C203C4F383148DF81030A200E1
:1094B80008230EA9284601F070FAC6F3952608ABD2
:1094C8000093224602AB0EA9304600F083FB2846E3
:1094D80001F049FA15B0F0BD022AF8D1BDF81640DE
:1094E800C3F3C203A4098DF810300827082C2646B8
:1094F80028BF08263B4632460EA9284601F04DFAF9
:10950800A41B08AB02AA31460EA8374400F0C6FBDC
:10951800002CEBD1DBE7037813F0040216D003F03C
:109528000303012B03D0022B09D0012070470A68DE
:1095380000880232C0F3831002440A60F5E70B6822
:109548004288023303EB92130B60EEE71046704734
:109558002DE9F04F89B00546861C08A8484C0192B1
:1095680000230F4600F8113D00F0D6FE23683B604B
:10957800D4E901231344226801339B1A04F21C47DF
:1095880004F5836A04F21448B3421AD3019A0023FB
:10959800002A6DD0012262F3010343F0040365F34E
:1095A80089132168A2689DF80F000A4003320E440F
:1095B80044F82230266000F0D3FE012009B0BDE84F
:1095C800F08F0121384600F028FF504600F03BFF9D
:1095D800404600F038FF0DF120096068D4F808B063
:1095E80049F8100D00EA0B00033004EB80004946EF
:1095F800FFF791FF049BB0B90BEA030204EB820268
:10960800D16805919A1C013303EA0B0B04EB8B0C10
:1096180001F00303012B0492DCF80CB020D0022BDC
:1096280004D083460BE00BEA0300DDE7BDF81630F3
:109638009B0903334FEA1B4B02EB93030493404609
:1096480000F004FF08B1049B63605946384600F0F7
:10965800E4FED4E901231344226801339B1A93E7FB
:10966800BDF81430C3F383134FEA1B4B1344E5E7EB
:10967800022262F3010343F0040365F39F5390E76A
:109688008C26002030B50A4C71B10A4A0A49121BCF
:10969800D20800239A4201D1002030BD31F823506E
:1096A800854202D00133F5E7034654F83300F4E766
:1096B8001C3502008C35020000250020094B0139B9
:1096C80003EBC000032909D8DFE801F00A02040609
:1096D8000420704700797047407970470020704730
:1096E800022070471C350200034BD3E90030C31A2F
:1096F80058425841704700BF8C2600202DE9F0439E
:1097080087B0FFF7F1FF0646002840F0FC807F4D48
:10971800C5F81804BFF34F8F6868AC6806AF47F800
:10972800100D2040033005EB80003946FFF7F3FEAB
:10973800029B18B1D5F81824002A5FD004EA030266
:10974800991C013305EB8202234005EB8303D268A1
:10975800DB68049302F00303022B0392029162D1A7
:10976800BDF80E306A484FEA9318B8F1500FC14659
:1097780028BF4FF0500969F38F1309F10801ADF8BC
:109788000E3001F0BDF80746002800F0A78001F070
:10979800E6F803A900230822384601F0F3F80299F5
:1097A80024EA01060136B600B14535D95FFA89F9D0
:1097B8007EB3F6B2A9EB0609214003315FFA89F4BA
:1097C800B146544E05EB810108234A46384601F05C
:1097D800D9F836B109F1080322463146384601F076
:1097E800D1F8029B08F1030803EB98030293D5F81C
:1097F8001834002B4BD1D5F810445BE02A689A4204
:1098080004D86A60304607B0BDE8F08304EA030074
:1098180088E740493446D7E72140033108234A46C0
:1098280005EB8101DAE7012B58D1BDF80C30384837
:10983800C3F38311062928BF062161F38913023176
:109848008900ADF80C3001F05BF80746002845D0D8
:1098580001F085F80023082203A9384601F092F8A0
:109868000026BDF80C20C2F38312B31C96424FEABF
:109878008303BCD202994A1C21400331029205EBB2
:1098880081010422384601F07DF80136E9E73846BF
:1098980001F069F8FFF728FF80F00100C6B2B1E7D0
:1098A800E3685B7923B1236839461B6820469847EB
:1098B800E3681C68002CF3D1384601F054F806A878
:1098C80000F8114D00F028FDD5F818340BB9029BAB
:1098D8006B609DF8070000F043FDDBE7D5F8104406
:1098E80054B90D4B0D480E49C01AC008000440F089
:1098F800020000F06FF8CDE7236820469B68984780
:10990800E3681C68ECE700267CE700BF8C26002093
:1099180008350200982600201C3502004C3502004C
:10992800C43502002DE9F74F284C80460F46924671
:1099380001A9012218469B46D4F80890FFF708FEB3
:1099480088B3019D0026A91C5E4506EB010234D1AF
:1099580000211F4800F036FD80F310006A1C02EA5F
:10996800090204EB8202000405EA0903033340EA12
:109978001840D06014F8232068F3C50204F82320A7
:1099880034F8232066F3891224F8232054F823207E
:10999800012167F39F2244F8232061F301026FF34A
:1099A800820204F8232094F820341BB1FFF7A6FEA6
:1099B8000028FBD103B0BDE8F08F09EA020204EBEE
:1099C80082025AF82630D3600136BDE78C26002083
:1099D800A82A002000231A46FFF7A4BF13B502AC3B
:1099E800012344F8042D2246FFF79CFF02B010BD66
:1099F80007B5CDE9002302236A46FFF793FF03B0BA
:109A08005DF804FB7FB5CDE90123089B0393099B0F
:109A180004930A9B059301AA0523FFF783FF07B068
:109A28005DF804FB2DE9F3478046304CD01C8A468C
:109A3800174601A900228008A568FFF789FD0028BC
:109A480040D0DDF80490A66809F1020001900136C3
:109A58002840361AB6000330B74204EB80003BD8E2
:109A68003A46514609F0F4F80021214800F0AAFCD2
:109A780080F3100009F101032B4004EB83034FEA44
:109A8800184242EA0040D86005EA0903033304EBB0
:109A9800830214F8231068F3C50104F8231034F87E
:109AA80023106FF38F1124F82310518867F38F1157
:109AB800518014F82320022161F301026FF382021E
:109AC80004F8232094F820341BB1FFF717FE002870
:109AD800FBD102B0BDE8F0873246514609F0B8F82C
:109AE800BA1B0AEB060104F10C00BBE78C26002028
:109AF800A82A0020094A38B50123D2F8104482F870
:109B080020341D4604B938BDE3685D7123682046DA
:109B18005B689847E3681C68F4E700BF8C26002060
:109B2800037A052B10B50C460FD0437A23B1084AA7
:109B38000849204600F0D4FC0749204600F0D0FC34
:109B48002046BDE8104000F0C0BC002AF8D0F3E77A
:109B58000F3602001436020034360200C38873B58B
:109B680004460D4633B1144A00921449144A284653
:109B780000F0B6FC217A05291CD0637A4BB1A08885
:109B8800FFF79CFD0F4B104953F82020284600F0A2
:109B9800A7FC227A0D4BA08853F822600021FFF71A
:109BA80071FD0B4903463246284602B0BDE87040B5
:109BB80000F096BC02B070BD0F3602001F360200DE
:109BC80017360200DC350200143602004436020063
:109BD800373602002DE9F04385B01F460C9D00235F
:109BE80006460C46904695F80C902B732946384645
:109BF800FFF7B4FFB8F1060F09D8DFE808F0041240
:109C0800181F283340003146284600F069FC00221E
:109C180029463846FFF784FF85F80C9005B0BDE863
:109C2800F08322683146284600F05AFCEFE7D4E971
:109C380000233146284600F053FCE8E7A368009368
:109C48003146D4E90023284600F04AFCDFE7E36800
:109C58000193A36800933146D4E90023284600F015
:109C68003FFCD4E723690293E3680193A368009358
:109C78003146D4E90023284600F032FCC7E763697F
:109C8800039323690293E3680193A3680093314621
:109C9800D4E90023284600F023FCB8E708292DE979
:109CA800F84F80460E4617461C4636D8002593F8CE
:109CB8000C901D7319461046FFF750FFDFF87CA083
:109CC800DFF87CB0AE422AD918F80520594620465C
:109CD80000F006FC0135082DF4D11649DFF864B010
:109CE800204600F0FDFB0025AE421DD918F805A05E
:109CF800504608F05DFF002814BF52462E225946F0
:109D0800204600F0EDFB0135082DEDD1012221465A
:109D18003846FFF705FF84F80C90BDE8F88F5146E8
:109D2800204600F0DDFBD5E70349204600F0D8FBCC
:109D3800E9E700BF0A3602000836020006360200CC
:109D4800003602000C3602001FB50021039001AA5C
:109D580044F20100CDE9011100F004F805B05DF806
:109D680004FB000010B572B6FFF7C4FEFFF7C6FC8F
:109D78000028FBD1104B114C1149E41AE4082404C3
:109D880044F00100FFF726FE0E4B1B68DB0700D5E9
:109D980000BE0D4944F00200FFF71CFEBFF34F8FD1
:109DA8000A490B4BCA6802F4E0621343CB60BFF365
:109DB8004F8F00BFFDE700BF1C3502004C35020085
:109DC800A3360200F0ED00E0AF36020000ED00E03F
:109DD8000400FA05094A537891780133DBB29942B5
:109DE80008BF0023117899421FBF037050781823C9
:109DF80003FB002014BF043000207047B02A002065
:109E080073B5054602A8002400F8014D0E4600F07F
:109E180083FA0DF10600FFF7DDFF90B106700A4BDB
:109E28009DF8062045605A709DF8070000F098FAE2
:109E380024B9064B4FF48012C3F80021204602B023
:109E480070BD0424F0E700BFB02A002000E100E064
:109E5800024B4FF43C6043F001031847C036020040
:109E680038B50C4B0C4C4FF40032C3F88020012558
:109E78004FF48033C4F84833C4F808336560FFF7FB
:109E8800E7FF064BA56000241C60FFF7E1FF044BC9
:109E98001C7038BD00E100E000100140CC2B002010
:109EA800BD2B0020F8B51F4B1F491B680025C1F8C2
:109EB8004051C1F84451C1F84851C1F84C51C1F85A
:109EC8000051C1F804514BB3D1F80445174909684A
:109ED800641A24F07F442F461A68A24209D8A41AAB
:109EE80015441A7CDE691AB11F74D3E9052090471E
:109EF800AEB90F4B0F4A197813788B4205D101334D
:109F0800DBB2022B08BF0023137012780A4B43F808
:109F180022500A4B4FF48012C3F80021F8BD334693
:109F2800DAE700BFD02B002000100140CC2B002026
:109F3800C82B0020C92B0020C02B002000E100E026
:109F48002DE9F74F9E4A9F49137809789E4D99420B
:109F58003CD00133DBB2022B08BF002313709B49AE
:109F680012789B4B0F6853F822003B1823F07F436D
:109F780000220B602B6816461446944613B942B16A
:109F88002B6006E0196881420ED902B12B60091ACC
:109F980019604FF001082B68DFF83CA200930027F6
:109FA800BEB9DFF83CB260E0401A0C44D968C3F887
:109FB80000C0D3F81CE031B13A1922F07F42C3E95E
:109FC8000121DE611E4601227346D7E70026B0460E
:109FD800E1E73446F6697D4A63681268DFF804C22F
:109FE800A068991A21F07F41614500F2A5800144DB
:109FF8002160012222742A680023C4E90133E36145
:10A00800002A40F0A2802C60CAE75A1C9BF8021074
:10A01800D2B291428BF8002004BF00228BF80020B6
:10A02800182202FB03B32A6819799C68022974D0A4
:10A0380003297ED0012918D1217CB1B9DA68626080
:10A048001A69A2605A699B69A361624BE2601B7836
:10A05800002BC0D06160BEE79C4200F09380994617
:10A06800DB69002BF8D1002323749BF800309BF8A0
:10A0780001209A42C9D12B682FB9009A934202D184
:10A08800B8F1000F43D0002B79D0D3F800A0524D7F
:10A098004E4BD5F804751C68DFF84C813E1B98F8C8
:10A0A800003026F07F4603369BB94FF48033C5F85D
:10A0B8004433C5F80433494B4FF400324FF00109DB
:10A0C800C3F880211A60C5F80090FFF7C1FE88F830
:10A0D8000090B2452CBF5444A41924F07F44C5F81D
:10A0E8004045D5F80435DB1B23F07F43E41B0333DD
:10A0F80024F07F44A3420AD9D5F80435C5F8403581
:10A10800FFF7A6FE354B4FF40032C3F80021314B60
:10A1180000221A7003B0BDE8F08F13469146A0E7FD
:10A128001174D2690123002AFAD1002B9DD02A602C
:10A138009BE700231946F6E7D31A23F07F438342AF
:10A1480034BFC31A0023236053E721681368994278
:10A1580013D8591A1160E26155E7091AD8691A46E5
:10A1680038B1034618688842F7D3401A1860184671
:10A1780013462160E061DC6112E71346F2E7FFF75E
:10A188006FFEC4E74C450DD1D3692B6053B90F4816
:10A1980001920121CAF8081003600E4B1970FFF7ED
:10A1A80057FE019AE1692368C9F81C1011B10868C3
:10A1B80003440B602B689A4218BF012753E700BF7E
:10A1C800C82B0020C92B0020D02B0020CC2B00202E
:10A1D800C02B0020BC2B00200010014000E100E053
:10A1E800B02A0020FEFF7F00BD2B002008B5FFF736
:10A1F80037FE104B00200B2218809A700E4B186007
:10A208000E4B18700E4B18700E4B4FF48012C02175
:10A21800C3F8802183F814131A6002F18042A2F572
:10A228006F22C2F8080583F81113074BD2F80425EA
:10A238001A6008BDB02A0020D02B0020C82B0020AF
:10A24800C92B002000E100E0CC2B0020074B9B78B5
:10A258004BB132B128B10368187C20B959745A61DE
:10A268007047072070470820704700BFB02A0020B9
:10A278002DE9F7431D4FBB7805460E4690469BB324
:10A2880090B304292ED9436973B3437C02A80024F0
:10A29800012B00F8014D0CBF8946A14600F03CF89F
:10A2A8000DF10600FFF796FDD0B101230370104BA6
:10A2B8004560D3F80435C0E90498C0E902369DF832
:10A2C80006307B709DF8070000F04AF824B9094B66
:10A2D8004FF48012C3F80021204603B0BDE8F08394
:10A2E8000424EFE70724F7E70824F5E7B02A00205D
:10A2F8000010014000E100E0064A92783AB130B11E
:10A30800426922B1002202740221FFF779BD0820B8
:10A31800704700BFB02A002070B5EFF3108672B600
:10A328000C4A946801239CB993600B4B0B4DD3F8EE
:10A33800801029401160C3F88050D3F88410516010
:10A348004FF0FF32C3F88420047006B962B670BDBE
:10A358000370FAE7D42B002000E100E0FC06FFBD03
:10A36800084B9A6810B55AB150B9EFF3108172B61C
:10A37800054A1C6814605C685460986001B962B64C
:10A3880010BD00BFD42B002000E100E001F01F0247
:10A398004B090121914000EB830000F01DB801F04A
:10A3A8001F0301229A404B0900EB8300D14300F0C0
:10A3B80029B84B0901F01F0150F82300C84000F0EC
:10A3C8000100704750E8002F0B4640E8003C9CF025
:10A3D800000FF7D11046704750E8003F43EA0102EA
:10A3E80040E8002C9CF0000FF6D11046704750E86A
:10A3F800002F02EA010340E8003C9CF0000FF6D170
:10A408001046704750E8003F03EA010240E8002C7C
:10A418009CF0000FF6D11046704750E8003F03EB60
:10A42800010240E8002C9CF0000FF6D1104670475E
:10A4380050E8003FA3EB010240E8002C9CF0000F1D
:10A44800F6D1104670470121FFF7C6BF0021FFF77C
:10A45800CEBF37B5054602A8002400F8014DFFF726
:10A468005BFF2A686B68116899420ED9481E106014
:10A4780011F8014CEB68298A01FB0434AB681179A7
:10A488001B1ADBB2994238BF13719DF80700FFF71A
:10A4980067FF204603B030BD37B5054602A8002344
:10A4A80000F8013D0C46FFF737FF2A681368591C6E
:10A4B8001160E968641A298AB4FBF1F41C709DF8EC
:10A4C8000700FFF74DFF03B030BD826810B50446A2
:10A4D8002AB143690168006998470023A36010BD49
:10A4E8000EB403B5039929B102AA04AB42F8043D9E
:10A4F80000F06AF802B05DF804EB03B070478268B8
:10A5080030B40468551C8560A154D0E901329A42E0
:10A5180002D330BCFFF7D9BF30BC70472DE9F84FE4
:10A528009946DDE90A431746824688460A460126C7
:10A53800BA420FD24E4538BF4E4613F0010B01D137
:10A5480064B900240125B9F1010F1AD909F1FF39BD
:10A558007D43F8E7B2FBF7F20136E9E79B070ED532
:10A56800B9F1000F0CBF30252025A642EAD2013CE4
:10A5780029465046FFF7C3FF002CF6D1E1E7202516
:10A58800F3E7B8FBF5F39F42E2D9DFF83890B8FB60
:10A59800F5F3504619F8031005FB1388FFF7AFFFD2
:10A5A800B5FBF7F5002DF2D1BBF1000F02D00CB1CD
:10A5B800A64201D3BDE8F88F20215046013CFFF7A1
:10A5C8009EFFF4E7C63602002DE9F74F0546904690
:10A5D8000E46002900F03A8116F8011B002958D0D0
:10A5E800252940F0D180002702E047F001071646F0
:10A5F800324612F8013B2D2BF7D0302B04D02B2BF1
:10A6080005D147F00407F2E747F00207EFE7002417
:10A618002A2B06F101021BD1D8F80030191D1B683E
:10A62800C8F800101C44164633782E2B1CD101366E
:10A638004FF0000A314611F8012BA2F13000092829
:10A6480014D80A2303FB0A23A3F1300A0E46F1E7C4
:10A6580012F8013CA3F130010929E5D80A2101FBD0
:10A668000434303C1646D3E74FF0000A324612F85D
:10A67800011B01F0FB0068281646F8D0692916D09E
:10A6880054D8582970D00ED825297DD03378002B7E
:10A69800A2D12B7B002B00F0D980284603B0BDE85F
:10A6A800F04FFFF712BF632968D06429EED1D8F8BC
:10A6B8000020D2F80090111D89EAE972C8F800104C
:10A6C800A2EBE9724FF0010B092A61DCD34538BFD0
:10A6D800D3462CB1B9F1000F01DB790700D5013C55
:10A6E800BA0702D5BAF1000F04D0FB0702D4002C38
:10A6F80054D10024B9F1000F58DAC9F100092D210D
:10A708002846FFF7FCFE07F00302022A05D1BAF13A
:10A71800000F02D1002C4DD10024CDE9004753464B
:10A728000A2249462846FFF7F9FEAFE7732954D0B5
:10A7380016D87029AAD1D8F800301A1DC8F80020F8
:10A74800302128461C68FFF7DAFE78212846FFF7F3
:10A75800D6FE00220823CDE9003221461022E1E787
:10A7680075292FD0782991D1D8F800100A1DC8F87A
:10A778000020CDE90047534610222CE0D8F80030DD
:10A788001A1D1978C8F800202846FFF7B8FE7DE79B
:10A798000A230BF1010B92FBF3F295E7A345A9D22B
:10A7A80020212846013CFFF7AAFEA0E77807AAD592
:10A7B8002B21A5E7A345B0D230212846013CFFF75D
:10A7C8009EFEA7E7D8F80010CDE900470A1DC8F893
:10A7D800002053460A220968A4E7D8F800301A1D59
:10A7E800C8F80020F907D3F8009012D54F46A7EB18
:10A7F800090B17F8011B41B9A345BFF447AF202146
:10A808002846013CFFF77BFEF6E72846FFF777FE70
:10A81800EDE7B9F1000F17D0484608F075FA07467A
:10A82800BC4200D954B909F1FF3919F8011F0029B0
:10A838003FF42CAF2846FFF762FEF6E720212846B2
:10A84800013CFFF75CFEEBE74F46E9E703B0BDE8E4
:10A85800F08F2DE9F047B0F806904479D2F800A0BF
:10A868009DF8208009FB04F4043C06460AEB03002B
:10A87800A0420F4688BFA4EB030A191DC2F800A026
:10A88800B1FBF9F509FB15114DB9A9EB01045445C4
:10A8980028BF5446BAF1000F04D1BDE8F0873668E6
:10A8A800013DF1E704317B1970182246B8F1000F19
:10A8B8000ED001461846AAEB040A08F0C9F9D1459A
:10A8C800254436684C464FF0000128BF5446E1E75E
:10A8D8001946F0E7F8B546790146721E0546002389
:10A8E80093422D6803D30024A64202D8F8BD013351
:10A8F800F6E70F682846FFF7CFFD01343946F3E73E
:10A908002DE9F843068ACD1C0746FFF7A2FD043E51
:10A9180035440446B5FBF6F5F0B14FF48073EDB25B
:10A928008380C680013D076081464FF00008A84536
:10A9380012D23846FFF78DFD064648B163790133D8
:10A94800637108F10108C9F8000007608146EEE765
:10A958002046FFF7BFFF34462046BDE8F8830121B3
:10A968000430FFF75ABD10B5012104460430FFF743
:10A978005FFD10F0FF0F04D12046BDE81040FFF73F
:10A98800A9BF10BD1FB504AC44F8042D00220092E5
:10A998002246FFF75EFF04B010BD1FB504AC44F8B3
:10A9A800042D012200922246FFF753FF04B010BD88
:10A9B80041DF7047064B10B500241C70054B1C6026
:10A9C800BFF35F8F0449054800F030F8204610BDFA
:10A9D800E82B0020EC2B0020D8360200E02B0020CA
:10A9E80007B502A8002300F8013DFFF795FCF1EE3A
:10A9F800103A23F09F03E1EE103ABFF35F8F0A4B42
:10AA08004022C3F884219DF80700FFF7A9FC04F051
:10AA18003FFA20B1FFF7CCFF03B05DF804FB20BF7D
:10AA280040BF20BFF8E700BF00E100E00B684A68BC
:10AA38004360934208BF0023016008BF436070472A
:10AA4800436843B10268916852680B44934243607B
:10AA580004BF0023436070470D4930B5A1F59472D7
:10AA68000225914201D800200EE08B1ADB1093FBDF
:10AA7800F5F302EBC30452F83330834205D802D20F
:10AA880004F10802EDE7606830BD2146E9E700BF40
:10AA98002838020008B5FFF7DFFF024B002808BF7F
:10AAA800184608BDED3602000C4B1B78062B10D15A
:10AAB8000B4B1B681A070CD10A4B186800F0F003FF
:10AAC800302B08D000F0E000A0F140035842584174
:10AAD8007047002070470120704700BFE00F00F06A
:10AAE800E40F00F0E80F00F0094B1B78062B0CD19F
:10AAF800084B1B681A0708D1074B186800F0F000CC
:10AB0800A0F130035842584170470020704700BFF9
:10AB1800E00F00F0E40F00F0E80F00F008B5FFF7D1
:10AB2800C3FF28B17D4B7E4A1B68C3F3042313601F
:10AB3800FFF7DAFF10B17B4B7B4A1A60FFF7B4FFCF
:10AB480028B17A4B7A4A1B68C3F342331360FFF784
:10AB5800CBFF20B1774AD36823F08073D360FFF727
:10AB6800A3FF40B14FF080430022C3F80C21C3F883
:10AB78001021C3F83825FFF7B7FF10B16E4B032239
:10AB88001A60FFF7B1FF40B16C4B05221A60012231
:10AB98009A6700229A603F225A60694B1B78062BFD
:10ABA80050D1684B1B6819074CD1674B1B6803F0E1
:10ABB800F003502B46D14FF08052644BD2F8041466
:10ABC800C3F82015D2F80814C3F82415D2F80C14C9
:10ABD800C3F82815D2F81014C3F82C15D2F8141499
:10ABE800C3F83015D2F81814C3F83415D2F81C1469
:10ABF800C3F84015D2F82014C3F84415D2F8241429
:10AC0800C3F84815D2F82814C3F84C15D2F82C14F8
:10AC1800C3F85015D2F83014C3F85415D2F83414C8
:10AC2800C3F86015D2F83814C3F86415D2F83C1488
:10AC3800C3F86815D2F84014C3F86C15D2F8442448
:10AC4800C3F87025FFF730FF28B1414B414A1B6814
:10AC580003F04F031360FFF727FF48B14FF080431D
:10AC6800D3F80024D20744BF6FF00102C3F80024D0
:10AC7800394B1B68062B08D1384B1B68062B01BFC4
:10AC8800374A136843F480631360364AD2F8883031
:10AC980043F47003C2F88830BFF34F8FBFF36F8F50
:10ACA8004FF01023D3F80022002A03DBD3F8043234
:10ACB800002B2FDA2C4B0122C3F80425D3F80024EB
:10ACC800002AFBD04FF010221521C2F80012D3F849
:10ACD8000024002AFBD04FF010231522C3F80422C9
:10ACE800214B1A46D3F800140029FBD00021C3F8E1
:10ACF8000415D2F80034002BFBD0BFF34F8F19494D
:10AD08001A4BCA6802F4E0621343CB60BFF34F8F5B
:10AD180000BFFDE7164B174A1A6008BD2403001050
:10AD28004035014074C007400DF0ADBA4402001030
:10AD38003C050040F0ED00E0A00500401056004042
:10AD4800E00F00F0E40F00F0E80F00F000C0004052
:10AD580058020010E40E00403001001034010010C9
:10AD68003C17004000ED00E000E001400400FA0557
:10AD7800082500200090D003054A4FF0A043105C3E
:10AD8800D3F8043523FA00F0C04300F001007047FF
:10AD9800E63B0200044B1A5C012393404FF0A042AB
:10ADA800C2F80C35704700BFE63B0200044B1A5C42
:10ADB800012393404FF0A042C2F80835704700BF06
:10ADC800E63B020008B50020FFF7F0FF0120FFF77F
:10ADD800EDFF0220FFF7EAFF0320BDE80840FFF778
:10ADE800E5BF08B50020FFF7D5FF0120FFF7D2FF28
:10ADF8000220FFF7CFFF0320BDE80840FFF7CABFD6
:10AE0800074A4FF0A041105CD1F804350122824076
:10AE180022EA03001340C1F80805C1F80C35704751
:10AE2800E63B0200014B185C704700BFE23B0200A2
:10AE380038B5084C04F108030546002818BF1C461D
:10AE480023682BB11A6822605B6828469847F7E7A1
:10AE580038BD00BFF82B002020B9054B01225A70DD
:10AE6800FFF7E6BF012802D1014A9070F8E7704762
:10AE7800F02B002020B9034B01225A70FFF7D8BFEE
:10AE8800704700BFF02B002038B50B4C237883B9EE
:10AE98000A486360A3602361E36000F05FF8054639
:10AEA80003F0F6FF08B900F067F80123237028467D
:10AEB80038BD8525FBE700BFF02B002061AE0100FF
:10AEC80037B502A80023094C00F8013DFFF724FA22
:10AED800E368013BE360E56815B900F061F8A57027
:10AEE8009DF80700FFF73CFA03B030BDF02B0020B7
:10AEF800012813B509D003D303281BD002B010BD15
:10AF08000F4B0122C3F88020F8E702A800230D4C5C
:10AF180000F8013DFFF700FA23780BB9FFF7B4FFFB
:10AF2800E3689DF807000133E3600123A370FFF78E
:10AF380017FAE3E700F020F8FFF7C2FFDEE700BFEB
:10AF480000E100E0F02B002000F18040002382B0F7
:10AF5800036003680193019B02B07047054A1379A7
:10AF68002BB9012110601171537118467047852063
:10AF7800704700BF042C0020084B1A68D20706D47B
:10AF8800C02283F800230122C3F880211A604FF001
:10AF980080430122C3F81825704700BF00E100E094
:10AFA800044B01221A604FF08042D2F81834DB03B8
:10AFB800FBD470470C000040124B1B6810B573B1EE
:10AFC8004FF48070FFF7C0FF4FF080430122C3F8B1
:10AFD80008230D4B587910B95A711B6898470B4BC9
:10AFE8001B6873B14FF48270FFF7AEFF4FF08043D8
:10AFF8000222C3F80823044B01201B68BDE8104057
:10B00800184710BD00010040042C00200401004036
:10B0180000F1804000F5C040002382B0036003685F
:10B028000193019B02B07047800000F1A040D0F866
:10B03800003723F44033C0F80037D0F8003743EA2C
:10B048000141C0F800177047054B4FF0FF32072841
:10B0580043F8202084BF1B1883F84820704700BF9E
:10B068000C2C002010B5174C94F8583043BBFF2126
:10B07800E2180133202B82F83010F9D10021C8B230
:10B08800FFF7E2FF01310C29F9D1042200210E4813
:10B0980007F007FE0D4BC02283F806234022C3F8B1
:10B0A80080214FF4BE701A60FFF7B2FF084B4FF0D3
:10B0B8000042C3F80423012384F85830002010BD4F
:10B0C8000820FCE70C2C0020602C002000E100E0A8
:10B0D80000600040034B93F85800003018BF01206F
:10B0E800704700BF0C2C0020F0B5394D2C18944641
:10B0F80094F93040002C68DA8E78C6F34006002EAA
:10B1080015BF0023082308270C27BB4201D10420C0
:10B11800F0BD55F8232001324FEA830441D12F189E
:10B1280045F823C087F8303016B9EA1882F8480085
:10B138008A78560716D4D70735D5820002F1A0427F
:10B14800D2F8006726F00206C2F80067214FC60849
:10B1580000F0070C012202FA0CF217F806C042EAC6
:10B168000C02BA558A780E7812F0020224D004F143
:10B17800804303F5C0430002D3F8102522F4473278
:10B1880022F44072C3F810253604D3F8102500F4D1
:10B19800F85006F4403630431043C3F81005002039
:10B1A800B6E70133B1E74E7800F5E0724FF0A047FB
:10B1B800B60047F82260C9E7083B2B4493F85000D3
:10B1C80040EA861683F85060E9E70820A0E700BF48
:10B1D8000C2C0020602C002038B5204C251895F93F
:10B1E8003020072A18DD224492F848309B09032BA7
:10B1F8000DD14FF0A043D3F81035C34013F0010F21
:10B208000CBF02210321BDE83840FFF70DBF012B19
:10B2180014BF03210221F6E7D3B2072B1CD89300F1
:10B2280003F1804303F5C043D3F8100540F0010053
:10B23800C3F8100502F14000800080B2FFF7E8FE75
:10B2480051B195F9303054F823302BB1012303FA6A
:10B2580002F2034BC3F8042338BD00BF0C2C0020B6
:10B26800006000402DE9FF470024584A584E594DC8
:10B27800019401211368A2F5C040012B80B206D1C8
:10B28800D6F804330B4202D0FFF7C2FE0C43043257
:10B29800AA424FEA4101EDD14F4B1B68012B0AD15D
:10B2A8004FF4BE70FFF7B4FE4FF0A04344F00044E3
:10B2B800D3F81035019314F0FF0F1AD0474F00252B
:10B2C8000126344210D0AB0003F1804303F5C0439C
:10B2D800D3F81005D3F8101557F82530C0F304201B
:10B2E800C1F3014103B198470135082D4FEA4606DD
:10B2F800E7D1002C66DA00224FF0FF33CDE90223B4
:10B30800DFF8D8900127002634464FF0A04809EB13
:10B31800060393F95020531C45D0D2B222F0C00541
:10B32800E90804A8084402F0070310F804CC07FA57
:10B3380003F31CEA030F36D009EB050C92099CF9BC
:10B3480030C059F82CA0BAF1000F0AD1032A2AD12B
:10B358000DF1080E1EF801C04CEA030C0EF801C0EE
:10B3680001E0032AF4D005F5E07110F80C0C58F848
:10B3780021101842C1F3014105D0022913D1032A33
:10B388000BD1114604E003290DD1032A05D102216E
:10B398002846FFF749FE0134E4B2BAF1000F02D0A3
:10B3A80011462846D0470136042EB0D154B14FF08B
:10B3B800A043019AD3F81035934203D00193029B1E
:10B3C8000393A0E704B0BDE8F08700BF0061004028
:10B3D80000600040206100407C6100400C2C00208F
:10B3E800014B1B68184700BF682C00200D4B984282
:10B3F80037B50D4610D102A8002300F8013DFEF72D
:10B408008BFF094B1C7914B901221D601A719DF834
:10B418000700FEF7A5FF14B9002003B030BD1120C6
:10B42800FBE700BF00200040682C0020C17FFF29F7
:10B43800034607D0807F01228A404FF0A04148B1DF
:10B44800C1F80C25184600225A7700F8082FD3E9CE
:10B4580000211047C1F80825F4E700004FF0402309
:10B4680082B0D3F818314BB1054B064800221A6058
:10B478001B680193019B02B0FFF7D8BF02B0704769
:10B4880018410040942C0020084BD3F8183182B0A2
:10B498004BB1074B074800221A601B680193019BB8
:10B4A80002B0FFF7C3BF02B0704700BF00300040D2
:10B4B80018310040702C00202DE9F74F0679724FA3
:10B4C80001934FF0240A0AFB06FA07EB0A0B914690
:10B4D8009BF81C20009780460C46002A40F0CF803D
:10B4E80005686A4A284652F82610FFF77FFF0028A9
:10B4F80040F0C780009B227B43F80A90019BCBF861
:10B50800043094F800C04FF0A041012303FA0CF373
:10B51800012A94BFC1F80C35C1F808350CF5E07361
:10B528004FF0010E41F823E06378FF2B1FBF0EFA9E
:10B5380003FEC1F80CE503F5E07E4FF0030A18BFDF
:10B5480041F82EA0A17808BF4FF0FF33FF2917BF9D
:10B5580001F5E07E4FF0FF374FF0A04A4FF0040BA3
:10B5680008BF0197009F1CBF01914AF82EB04FF009
:10B57800240E0EFB067E8EF82010E1788EF81F1040
:10B58800FF2919D094F804A04FF0010B0BFA01FB26
:10B598004FF0A04EBAF1000F68D0CEF80CB501F507
:10B5A800E0714FF0030B4EF821B0DFF8DCE0242106
:10B5B80001FB06E181F81EA0C5F808C5C5F80C35E1
:10B5C800019BC5F81035A368C5F82435637B0033A3
:10B5D80018BF0123022A4CD0032A4DD0012A01D1D9
:10B5E80043F00203C5F85435A379C5F8C035B9F15D
:10B5F800000F02D04023C5F804330723C5F80035EF
:10B60800B9F1000F27D0D8F800206179120B53B296
:10B61800002BA8BF03F16044D2B24FEA5313B8BF5E
:10B6280002F00F054FEA4111B4BF194C04F561440B
:10B638004FEA8303C9B203F16043B4BF615584F88C
:10B64800001303F5614302F01F02012101FA02F21F
:10B65800C3F880211A60009A242303FB06260023DE
:10B6680073770123337703B0BDE8F08FCEF808B5C0
:10B6780095E743F00403B5E743F00603B2E7082073
:10B68800F1E71120EFE700BF702C00200C3C02000E
:10B6980014ED00E02DE9F3410579474E24236B436F
:10B6A8001446F2180F46517F8046002940F08180E9
:10B6B800F35823B114F0140F04BF0123537797E80C
:10B6C8000F004FF0240C0CFB056C0CF10C0E8EE8EF
:10B6D8000F009CF81F20FF2A08D09CF81E10012399
:10B6E80093404FF0A042C1B1C2F80835396821B182
:10B6F80001F06043B3F1005F06D1BA6882B102F08D
:10B708006043B3F1005F0BD0242303FB05650023DE
:10B718006B77102002B0BDE8F081C2F80C35E5E780
:10B72800D8F800307868C3F84415C3F84805F968B4
:10B73800C3F834250022C3F83815C3F81821D3F804
:10B7480018210192019A14F0010218BF0122C3F8CE
:10B75800502514F0020218BF0122C3F84025220721
:10B768005CBF01221A6124226A43B258B2B9D3F8E5
:10B778001821002AFBD0242303FB0565EA7FFF2A52
:10B7880007D0A87F012393404FF0A04218B1C2F818
:10B798000C350020BEE7C2F80835BBE714F00400FA
:10B7A8004FF0400202D0C3F80823F2E7C3F804239D
:10B7B800B0E71120AEE700BF702C00207FB50378FA
:10B7C8008DF804304368029383688DF80C30C368A1
:10B7D800049303698DF81430054A064B01A853F801
:10B7E800213052F82110984707B05DF804FB00BFDC
:10B7F800B82C0020C42C0020F0B50646944616F854
:10B80800047B194A42F827C0184A42F82730184BD7
:10B818000C460FCB85B06D4685E80F0023788DF870
:10B82800003063788DF80130A3788DF80230E37822
:10B838008DF8033023798DF8053063798DF806305B
:10B84800A3680293237B8DF80C30BCF1000F637B57
:10B858008DF80D30074A3B4608BF0022294630467E
:10B86800FFF72AFE05B0F0BDC42C0020B82C00203C
:10B878001C3C0200C5B7010008B5094B1B7853B141
:10B888000020FFF793FA0120FFF790FA0320BDE8A4
:10B898000840FFF78BBABDE80840FFF793BA00BF2E
:10B8A800D02C0020F8B57B4C237805461BB100232B
:10B8B8002370FFF7E1FF172D00F28880DFE805F01D
:10B8C8000C17174354657680888D888D959A9A9AB7
:10B8D8009A9AC4C9D1D9E4E4FFF7CEFF6E48FEF7BF
:10B8E8000BFD6E4B002204461A702046F8BD00205E
:10B8F800FFF742FAF8B10020FFF758FA022D0CBF03
:10B908004FF4E1614FF47A61644B1D704FF40040CD
:10B918004FF4FA740025E0FB01454FF47A720023D6
:10B928002046294607F04AF8002201465A48BDE851
:10B93800F840FEF79DBCFFF72DFA022D0CBFC82179
:10B948004FF4C871E0E70020FFF716FA40B1002075
:10B95800FFF72CFA4FF44871504B03221A70D5E7C1
:10B96800FFF718FAC821F7E70020FFF705FA38B102
:10B978000020FFF71BFA4FF47A61484B0422EDE7E9
:10B98800FFF708FA4FF4C871F7E70020FFF7F4F95A
:10B9980048B10020FFF70AFA404B05221A7041F619
:10B9A8009A110022C2E7FFF7F5F9F5E70020FFF743
:10B9B80027FA3A4B06221A70002240F6CD41B5E725
:10B9C8000020FFF7E7F9354B07221A7000248CE7AF
:10B9D80001202070FFF714FAEEE701202070FFF72E
:10B9E8000FFA00224FF48041A0E7FFF7FAF92B4B3A
:10B9F8000C22EAE72A482B4EFEF77EFCD5F111050A
:10BA080004461CD0D8B9012D13D0C8235D434FF488
:10BA180000474FF4FA7000214FF47A720023C7FBF5
:10BA2800050106F0CBFF224601461D48FEF720FC23
:10BA380004460220FFF7AEF90123337055E70220D0
:10BA4800FFF7B4F90023F8E7FFF716FF134B1222AC
:10BA5800BBE7FFF711FF0020FFF79CF90F4B1322FC
:10BA6800B3E7FFF709FF0120FFF794F90B4B142206
:10BA7800ABE7FFF701FF0020FFF78CF90120FFF784
:10BA880089F9064B1522A0E7FFF7ABF9034B1D70A8
:10BA98009CE700BF242D0020F42C0020252D002039
:10BAA800D42C0020D02C0020044B1B6813F0010379
:10BAB80001D0FFF7F7BE1846704700BF202D0020C1
:10BAC800032812D8012A0BD1012908D100F10E024E
:10BAD800D2B200EB40000C4B1A54002070470022F1
:10BAE8000129F6D009D3022901D007207047064B57
:10BAF80000EB400018444270EFE7034B00EB4000B6
:10BB080018448270E9E700BF142D0020032808B507
:10BB180012D8FFF787F9800000F1A040D0F800376D
:10BB280023F44033C0F80037D0F8003743F44033EB
:10BB3800C0F80037002008BD0620FCE708B5012240
:10BB480002210020FFF7BCFF08B1072810D1072207
:10BB580002210120FFF7B4FF08B1072808D100210E
:10BB68000A220846FFF7ACFF10B1072808BF0020DB
:10BB780008BD00000388102B10B502D0112B1ED071
:10BB880010BD1A4C2168B1B901220846FFF798FF89
:10BB980008B1072824D1072202210120FFF790FFCE
:10BBA80008B107281CD1042202210020FFF788FFD2
:10BBB80008B1072814D1236801332360E0E70B4A52
:10BBC8001368013B1360002BDAD1FFF7B7FF002899
:10BBD800D6D0074B1B68002BD2D0BDE810401847C1
:10BBE800034B1B68002BE6D09847E4E72C2D002078
:10BBF800282D002008B50020FFF788FF08B1062887
:10BC080006D10120FFF782FF10B1062808BF0020E7
:10BC180008BD76DF704777DF70477ADF70477CDFD3
:10BC280070477FDF70478FDF7047B1DF704733DFC2
:10BC380070473FDF704700F1804000F5E040002387
:10BC480082B0036003680193019B02B07047000053
:10BC5800014B01221A70704778320020014B0020F6
:10BC68005B6B18475C410200FEF76EB808B5002010
:10BC7800FFF71AFF08B1FEF767F8FFF7BBFF08B137
:10BC8800FEF762F8FFF7D3FF18B1BDE80840FEF7EA
:10BC98005BB808BD30B5062987B00446154640D1C3
:10BCA8000378542B3DD1D0F8020000BA05F0BAFD54
:10BCB8000022214B05F0B8FF05F035FE1F4B6278D6
:10BCC80007EE900A1E48C01AC008F5EEC07A0004B4
:10BCD800F1EE10FA40F003002BD5BFEE007AF4EE37
:10BCE800C77AF1EE10FA24DD164B9FED176A009320
:10BCF800FDEEE76AF5EEC07AB8EEE67AF1EE10FAF4
:10BD0800CCBF77EEC77A77EE677ACDED016A67EE3A
:10BD1800867A2B46FDEEE77A0C49CDED027AFDF7DF
:10BD280071FE0B4B5B6B0593002007B0BDE83040FC
:10BD38001847084BD9E700BF0000D03F1C35020068
:10BD48004C350200E23C02000000C8423C3C0200C4
:10BD58005C410200363602000388212B13B50446E5
:10BD68003BD01FD8112B28D0132B3ED0102B32D10B
:10BD7800264B27482749C01AC008000440F0030092
:10BD8800FDF728FE0720FFF78FFE08B1FDF7DCFF5F
:10BD9800214BA1882148198002F04EFED8B1FDF749
:10BDA800D3FF18E0522B28D0562B01D03B2B12D1B1
:10BDB8001321A088FFF72DFFF0E7144B144818490A
:10BDC800C01AC008000440F00300FDF703FE124B40
:10BDD8004FF6FF721A8002B010BD02A9002321F8A5
:10BDE800043D8088FFF71FFFD8E70B4800231A4659
:10BDF80085210088FFF715FFD0E7074800231A467A
:10BE080019460088FFF711FFC8E700BF1C3502007C
:10BE18004C3502008B3C02003225002038320020CD
:10BE2800953C02000D4B4A881B889A4214D10A8817
:10BE380040F677239A420FD18B88094A09480A4964
:10BE4800033B9BB21380094A801AC00800041A46B3
:10BE580040F00300FDF7CCBD704700BF322500203D
:10BE6800302500204C350200B63C02001C3502008B
:10BE780008B503784BB9054B3B211888FFF7C9FE75
:10BE880018B1BDE80840FDF75FBF08BD32250020A6
:10BE980008B548B103280BD10220FFF705FE38B1D9
:10BEA800BDE80840FDF750BFBDE80840FFF7DEBE1B
:10BEB80008BD000038B50E4B0E4D01221A702B78C4
:10BEC800A3B10D4B0D4C0E49E41AE408240444F0C8
:10BED80003042046FDF77EFD284606F015FF294697
:10BEE80082B22046BDE83840FDF79CBD38BD00BF92
:10BEF80088320020443200201C3502004C350200F4
:10BF0800043D02001FB5CDE90001CDE902236946D1
:10BF180000220348FFF7BEFB05B05DF804FB00BF35
:10BF2800F83C02002DE9F041002488B0184E8846FC
:10BF3800174621461E2268461D46347006F0B1FE9B
:10BF48008DF80080631CE4B2AC4218D34FF0A043D4
:10BF58004FF00052C3F80C256B1CDBB200221946C7
:10BF68006846FFF7CFFF337883B14FF0A0434FF017
:10BF780000520020C3F8082508B0BDE8F08108AADF
:10BF88002244395D02F81F1C1C46DBE720BFEAE7A4
:10BF9800883200202DE9F0414FF0000890B01D4C88
:10BFA8000F46164641461E2268461D4684F8008004
:10BFB80006F077FE1E22414608A806F072FE4FF0F2
:10BFC800A0434FF0005267F07F078DF80070C3F868
:10BFD8000C256B1CDBB208AA19466846FFF792FFCE
:10BFE800237873B14FF0A0434FF00052C3F80825EF
:10BFF80000235A1CDBB2AB4205D3002010B0BDE8C9
:10C00800F08120BFECE710A9194411F81F1CF15466
:10C018001346EEE7883200207047FDF795BE000012
:10C0280038B5054D044645F001054FF47A40A84758
:10C03800013CFAD138BD00BFB03C020008B1FFF79F
:10C04800EFBF704708B50849084802F009FC08B175
:10C05800FDF77AFEF721054802F014FC18B1BDE897
:10C068000840FDF771BE08BD2DBE01002432002036
:10C07800104A08B50323C2F8F0350223C2F8F43594
:10C088006FF00043C2F808334FF48270FFF7D3FD16
:10C098004FF48070FFF7CFFD0123C2F80035064B3F
:10C0A800C2F828350023C2F824350923C2F8203500
:10C0B80008BD00BF00700040000005011FB51D4904
:10C0C8000122C1F800254FF48270C1F82CD6C1F8BE
:10C0D8003026FFF7B0FD184B0A601A6042F2107262
:10C0E80003F58073196801B9FAB9144B0121196075
:10C0F8004FF48070FFF79FFD4FF48270FFF79BFDB0
:10C108000C4B0021C3F800158AB1BDF8000040F6B9
:10C11800E3034FF47A7210FB023041F2C71390FB2D
:10C12800F3F080B205B05DF804FB013ADAE742F2B9
:10C138000F70F7E70070004004700040087000407E
:10C148001FB5104B0FCB6C4684E80F0040F2034339
:10C15800ADF800301C238DF802300B4A0B48002341
:10C168002146FFF749FB08B1FDF7EEFD084B0948EA
:10C178000949C01AC008000440F00300FDF72AFC72
:10C1880004B010BD2C3C0200BDBE0100F43C02000E
:10C198001C3502004C3502000F3D020030B5002569
:10C1A8008BB0204C142229466846257006F079FD8C
:10C1B800142229460DEB020006F073FD06238DF8C4
:10C1C80000304FF0A0434FF40072C3F80C25012350
:10C1D80005AA19466846FFF795FE2378F3B14FF094
:10C1E800A0434FF400721049C3F8082500910121BB
:10C1F8008DF8041000212170C3F80C25052305AA29
:10C2080019466846FFF77EFE23784BB14FF0A043EE
:10C218004FF40072C3F808250BB030BD20BFDCE72F
:10C2280020BFF1E7883200200200800030B50025E9
:10C238008BB0204C142229466846257006F031FD43
:10C24800142229460DEB020006F02BFD06238DF87B
:10C2580000304FF0A0434FF40072C3F80C250123BF
:10C2680005AA19466846FFF74DFE2378F3B14FF04B
:10C27800A0434FF400721049C3F80825009101212A
:10C288008DF8041000212170C3F80C25052305AA98
:10C2980019466846FFF736FE23784BB14FF0A043A6
:10C2A8004FF40072C3F808250BB030BD20BFDCE79F
:10C2B80020BFF1E7883200200200800130B5002558
:10C2C8008BB0254C142229466846257006F0E9FCF7
:10C2D800142229460DEB020006F0E3FC06238DF834
:10C2E80000304FF0A0434FF40072C3F80C2501232F
:10C2F80005AA19466846FFF705FE23783BB34FF0B9
:10C30800A0424FF40071154BC2F808151B68144879
:10C318000090C3F307408DF804008DF80630C3F38E
:10C3280007200023237007238DF80500C2F80C1599
:10C33800684605AA1946FFF7E5FD23784BB14FF08B
:10C34800A0434FF40072C3F808250BB030BD20BFDE
:10C35800D3E720BFF1E700BF88320020603100201A
:10C3680002008003F0B500268BB04D4C14223146F4
:10C3780005466846267006F094FC142231460DEBFB
:10C38800020006F08EFC06238DF800304FF0A04323
:10C398004FF40072C3F80C25012305AA1946684614
:10C3A800FFF7B0FD2378002B75D04FF0A04605F5B8
:10C3B80001404FF400774FF0020C3A4DC6F808756B
:10C3C8008DF800C0C0F3074C374B8DF801C08DF8CD
:10C3D8000300C0F3072C286859688DF802C0C0F321
:10C3E800072C8DF804008DF805C0C0F3074CC0F386
:10C3F80007609A688DF80700C1F307208DF80810C8
:10C408008DF80900C1F30740C1F307619B698DF8F6
:10C418000B10C2F307218DF80C208DF80D10C2F314
:10C428000741C2F307628DF80F20C3F307228DF886
:10C4380010308DF81120C3F30742C3F307638DF85A
:10C4480013300023237014238DF80A008DF80E1082
:10C458008DF812208DF806C00DEB0302C6F80C7596
:10C4680019466846FFF74EFD2378B3B14FF0A04355
:10C478004FF40072C3F808250C4AD5ED007A13680A
:10C48800103313600A4B93ED007A77EE877AC5ED87
:10C49800007A0BB0F0BD20BF84E720BFE4E700BFFF
:10C4A8008832002058310020983200206031002066
:10C4B800683100202DE9F04FCBB08422002108A874
:10C4C80006F0EFFB8422002129A806F0EAFB5D4B69
:10C4D8005D4F43F0010302934FF42F409847002427
:10C4E8004FF0A0454FF400764FF000033B70062351
:10C4F8008DF820304FF40073C5F80C35012329AAB4
:10C50800194608A8FFF7FEFC3B78002B00F0968040
:10C51800DFF84881C5F8086502238DF82030D8F87F
:10C52800003003F50143C3F307428DF821208DF84D
:10C538002330C3F307224FF000033B70434B8DF8C1
:10C548002220D3ED007A424BC5F80C6593ED007AB2
:10C55800404B1B6823440CAA03F108010192039184
:10C5680008AA0DF1140C0DF1180E0DF11C093F2B42
:10C578003948CDED047A19464FF00C0AC8BFA3F12B
:10C5880040010AFB0101D1F800A0CCF800A0D1F8C5
:10C5980004A08968C9F80010CEF800A0002104A8FA
:10C5A80002EB010A10F801B08AF804B0013104293D
:10C5B800F5D1002102EB010A1CF801B08AF808B095
:10C5C80001310429F6D1002102EB010A11F80EB05D
:10C5D8008AF80CB001310429F6D10021019811F82C
:10C5E80009A000F801A001310429F7D10146103152
:10C5F8000191039901338B4277EE877A02F1100299
:10C60800B5D1124BC3ED007A842329AA194608A88C
:10C61800FFF778FC3B789BB1C5F80865D8F800307F
:10C628008033C8F800304FF42F40029B08349847F5
:10C63800402C7FF459AF4BB0BDE8F08F20BF63E7C3
:10C6480020BFE7E7B03C02008832002058310020C4
:10C658006831002054310020542E00206031002021
:10C668001FB5204C002300F501402370CDE90133AC
:10C67800039303238DF80030C0F307438DF801308E
:10C68800C0F307238DF802304FF0A0434FF4007237
:10C698008DF80300C3F80C2508230DEB0302194697
:10C6A8006846FFF72FFC2378D3B14FF0A0434FF42F
:10C6B8000072C3F808259DF80C20002362F30703D5
:10C6C8009DF80D2062F30F239DF80E2062F31743A7
:10C6D8009DF80F2062F31F6300EE103A04B010BDFE
:10C6E80020BFE0E7883200201FB51C4C0023CDE9AD
:10C6F80000332370CDE9023303238DF800304FF463
:10C708006073ADF802304FF0A0434FF40072C3F8E5
:10C718000C25072302AA19466846FFF7F3FB23787E
:10C72800D3B14FF0A0434FF40072C3F808259DF829
:10C738000C20002362F317439DF80D2062F30F23AA
:10C748009DF80E2062F30703054A9342054A88BF05
:10C758000023136004B010BD20BFE0E7883200203A
:10C76800FEFFFF00603100201FB5134C0023CDE908
:10C7780000332370CDE9023303238DF80030802382
:10C788008DF802304FF0A0434FF40072C3F80C2527
:10C79800052302AA19466846FFF7B4FB23784BB174
:10C7A8004FF0A0434FF40072C3F808259DF80C0021
:10C7B80004B010BD20BFF1E7883200201FB5144C2B
:10C7C8000023CDE900332370CDE9023303238DF82C
:10C7D80000304FF4C073ADF802304FF0A0434FF46F
:10C7E8000072C3F80C25052302AA19466846FFF70C
:10C7F80089FB23784BB14FF0A0434FF40072C3F884
:10C8080008259DF80C0004B010BD20BFF1E700BF5B
:10C81800883200202DE9F043002485B0CDE9014499
:10C8280003224FF40077204D03948DF800204FF039
:10C83800A046B846DFF87490D9F8003003F50143F4
:10C84800C3F307428DF801208DF80330C3F30722A4
:10C8580008238DF802201946C6F80C850DEB030253
:10C8680068462C70FFF74EFB00E020BF2B78002BAA
:10C87800FBD0C6F808759DF80C30FF2B0BD19DF83E
:10C888000D30FF2B07D19DF80E30FF2B03D19DF8FB
:10C898000F30FF2B05D0D9F800301033C9F800301D
:10C8A800C8E705B0BDE8F083883200206031002079
:10C8B80013B51B4C002323708DF8043006238DF824
:10C8C80000304FF0A0434FF40072C3F80C25012349
:10C8D80001AA19466846FFF715FB2378E3B14FF024
:10C8E800A0434FF40072C721C3F808258DF8001043
:10C8F80000212170C3F80C25012301AA19466846B6
:10C90800FFF700FB23784BB14FF0A0434FF40072C0
:10C91800C3F8082502B010BD20BFDEE720BFF1E74D
:10C928008832002010B52DED028B104C8AB02246BB
:10C9380006A9032004F03EFFDDE9080104F0F3FF37
:10C94800DFED0B7A07EE100A87EE278ADDE906018C
:10C9580004F0E9FF0190204604F0B9FEDDED010A7C
:10C96800B0EE480A0AB0BDEC028B10BD882D00203D
:10C9780000007A440000000013B5FFF7D3FF224CF3
:10C9880010EE100A84ED010AC4ED0A0A04F0AFFFA4
:10C9980017A3D3E9002305F0FDF904F0C4FF04F060
:10C9A800A6FF9FED151B41EC100B05F07DFE51EC29
:10C9B800100B04F0B8FF07EE100AF7EE007A77EED6
:10C9C800C77A17EE900A04F092FF0DA3D3E900236B
:10C9D80005F02AF904F0A7FFD4ED037A07EE100A50
:10C9E80077EE677AC4ED047A02B010BDAFF3008029
:10C9F800CDCCCCCCCC5459403CDD79E2395BC83F36
:10CA08009A999999B3BE014198320020000000001C
:10CA1800F8B57B4C7B4B94ED067A93ED006AD4ED28
:10CA2800027AD4ED096A784B784AD3ED005A784BEC
:10CA38007849E7EE067AA6EE267AE6EEA57AD3EDF1
:10CA4800005A754B94ED046A84ED067A93ED007AEA
:10CA5800C4ED027A36EE477A2DED028BC7EE257AC1
:10CA680083ED006AC2ED007A6C4A6D4B92ED007A54
:10CA78001B78C2ED007A37EEC77AC7EE256AC1ED9A
:10CA8800006ABBBBFDEEE67A17EE900A06F081F865
:10CA980004F0C8FE0022634B05F0DBFA50B3D4ED76
:10CAA800027A94ED047A604B37EE677A83ED007A68
:10CAB8005E4BD3ED006A5E4BE7EE267A93ED006A93
:10CAC800D4ED066A5B4BC4ED027AE7EE066A93ED95
:10CAD800006AC4ED066AD4ED096AE7EE066A94EDC9
:10CAE800057AC4ED096AF4EEC77AF1EE10FAC8BF08
:10CAF800C4ED057A504B94ED068A1B7823B34F4D4D
:10CB08002B780BB3DFED4E7AB4EEE78AF1EE10FA2C
:10CB18001ADD606A04F0EBFE37A3D3E9002305F0C1
:10CB280098FA88B100232B70464B1A68464B1A6056
:10CB3800464B1A683D4B1A60454B1A683C4B1A60C5
:10CB4800444B1A683B4B1A60E06904F0D0FE00229F
:10CB5800414B05F069F8064618EE100A0F4604F036
:10CB6800C6FE02460B463046394604F019FF00223D
:10CB78003A4B05F00FF904F0D6FE394BE0611A780C
:10CB880007EE900A92B9B8EE007AF4EEC77AF1EEA1
:10CB980010FA0BD501221A702A4A92ED007A314A0E
:10CBA800F2EE0E6A37EE267A82ED007A1B78EBB148
:10CBB800B8EE007AF4EEC77AF1EE10FA16DD214BE2
:10CBC80093ED007A274BD3ED007AB4EEE77AF1EED5
:10CBD80010FA0BDD94ED027ADFED197AB4EEE77AFC
:10CBE800F1EE10FA42BF204B01221A70BDEC028B05
:10CBF800F8BD00BFAFF300809A999999991940C080
:10CC0800983200208C32002090320020C43200205C
:10CC180028250020742D0020782D0020C8320020FF
:10CC28007F2D00200040DF40482D00204C2D0020A3
:10CC3800502D0020542D002066310020502E002059
:10CC4800000048425831002094320020102500206E
:10CC58001825002020250020000033400000344023
:10CC68007D2D00205825002065310020074B084AFB
:10CC78005A601A6000229A60DA605A611A619A61F1
:10CC8800DA611A625A62034A9A627047983200203F
:10CC980066A6CA4200006C421FB5134B0193134BA2
:10CCA80013481A68C2F30721D3B28DF808308DF8FB
:10CCB80009100B44C2F3074151FA83F3C2F3076228
:10CCC8008DF80B2052FA83F304AA8DF80C3009234F
:10CCD80022F80E3D074B8DF80A101B8801A902F0B7
:10CCE8001DF805B05DF804FBF50304FC6031002075
:10CCF800342500203225002073B50023ADF8063016
:10CD080040F2F55302ACADF80430FA238DF8073041
:10CD1800042324F8063D0B4D0B482B88224601A915
:10CD280001F0FCFF58B1084E0520FFF779F92B8870
:10CD3800224601A9304601F0F1FF0028F4D102B0E3
:10CD480070BD00BF32250020342500207FB5124B6E
:10CD58000193124B9A6803925A699B6A02930023C3
:10CD68008DF81430042304920DEB0301585C9DF8F0
:10CD7800142001330244102B8DF81420F6D106AA92
:10CD8800112322F8163D064B06481B8801F0C6FF02
:10CD980007B05DF804FB00BFF5010C0298320020D3
:10CDA8003225002034250020054B01221A70054B3E
:10CDB80000221A60044B00221A60FFF7EFB900BF87
:10CDC80079320020603100205831002008B5FFF783
:10CDD800EBFF024B00221A7008BD00BF7E2D002019
:10CDE8000378ABB9838A042B12D101698B787BB99C
:10CDF8004A780B78C9781344DBB2994208D1F22AF1
:10CE080007D0F42A07D0F12A02D1044B01221A7064
:10CE18007047FFF7DBBF024BF8E700BF7C2D00200F
:10CE28005C3100202DE9F04FADF50B7DFFF734FFA5
:10CE38004F4B1E684F4B18888008053804F0F2FCE9
:10CE480041EC100B05F0D4FC51EC100B04F039FD4B
:10CE580005AD04464FF405720021284605F021FF70
:10CE68007F2C4FEA960639D83F2C39D81F2C39D851
:10CE78000F2C39D8072C39D8032C39D8012C8CBF62
:10CE88000224012440F2F5732B80E3B25A1CB6FB4E
:10CE9800F4F0033BAA70EB7004F0DBFC41EC100BE0
:10CEA80005F01AF9A400631D009351EC100BA31DA3
:10CEB800019304F0DFFCDFF8C090DFF8C0A00DF1AB
:10CEC8001D03C5F1000883461F1900265E4511D1D0
:10CED800FFF712FF0DF50B7DBDE8F08F8024D1E739
:10CEE8004024CFE72024CDE71024CBE70824C9E766
:10CEF8000424C7E7F1B229710DF11900021D974208
:10CF080011D1009BE954019BADF81230B9F80030FB
:10CF18000DF112022946504601F000FF28B3052002
:10CF2800FFF77EF8F2E705384044CDE90212FFF733
:10CF380097FB10EE100A039A0299C3B2C0F3072CAC
:10CF480002F8043C63440B44C0F3074151FA83F3ED
:10CF5800C0F3076050FA83F302F8021C02F8010CD0
:10CF680002F803CCD9B21046C8E70136A044ADE7B1
:10CF78006031002030250020322500203425002093
:10CF880038B53B4B3B4C00221A70FFF791FC6420EC
:10CF9800FFF746F8FFF7F0FCFFF768FE6420FFF79D
:10CFA8003FF8FFF7E9FC6068206004F0A0FC2AA3C2
:10CFB800D3E9002304F0EEFE04F0B5FCE06004F0D1
:10CFC80096FC9FED271B41EC100B05F06DFB51EC17
:10CFD800100B04F0A8FC07EE100AF7EE007A77EEC3
:10CFE800C77A17EE900A04F082FC1FA3D3E9002346
:10CFF80004F01AFE04F097FC1F4BE060A568606817
:10D0080003F5407100225D6018609A600C338B4212
:10D01800F9D11A4900230B6019490B6019490A60B4
:10D0280019490A60194A01211170194A1370194ADD
:10D038001370194A1370194A1370194B1A68194B4F
:10D048001A60194B1A68194B1A60194B1A68194B50
:10D058001A6038BDAFF30080CDCCCCCCCC5459404D
:10D068003CDD79E2395BC83F9A999999B3BE014191
:10D078007932002098320020542E002054310020AC
:10D088006031002058310020943200207E2D00208D
:10D09800663100207D2D002065310020643100209C
:10D0A8000C2500204C2D002014250020502D002098
:10D0B8001C250020542D00201FB50023ADF80C308E
:10D0C8008DF80E300D4B0293FEF7F8FF04AAC0F35B
:10D0D8000723C0B28DF80D308DF80C0018440723D3
:10D0E80022F80A3D064B8DF80E001B88054802A958
:10D0F80001F014FE05B05DF804FB00BFF50202F96B
:10D1080032250020342500201FB50E4B0E481A7812
:10D118000E4B19784FF0000361F3000362F34103EB
:10D128000B4A029204AA8DF80C308DF80D300623B4
:10D1380022F80A3D074B02A91B8801F0EFFD05B054
:10D148005DF804FB79320020342500207E2D002074
:10D15800F50601FC3225002038B5032304460125D5
:10D1680080F8AB30002380F8A95080F8AA5080F8E6
:10D17800AC3080F8AD300146362004F01BF884F856
:10D18800A8502046BDE8384004F0A1BA09490A4829
:10D198000B6810B50C2202FB0302084801334468EF
:10D1A8001460402B84688069546008BF0023906035
:10D1B8000B6010BD54310020542E002098320020FE
:10D1C8002DE9F04F2DED048BBDB0FDF70FF808B138
:10D1D800FCF7BAFDC84AC9480121FDF737F808B17C
:10D1E800FCF7B2FDC64BC74CC749D3E900230EA8CC
:10D1F80005F0EEFC0E22C549204605F0FEFC9DF820
:10D208003830A3739DF83930E3739DF83A302374AE
:10D218009DF83B3063749DF83C30A3749DF83D3015
:10D22800E3749DF83E3023759DF83F3063759DF893
:10D238004030A3759DF84130E3759DF84230237660
:10D24800FEF716FFFEF73AFFFDF7B4FB08B1FCF74F
:10D258007BFD01F0E1FD08B1FCF776FD3CAC002355
:10D2680044F8AC3D0120214601F062FE08B1FCF70C
:10D278006BFD204601F028FF08B1FCF765FD3CADC9
:10D288000120FEF7D6FC112305F8BC3D9D4805F0AA
:10D298003BFD9C4982B22846FEF7C1FC08B1FCF769
:10D2A80053FD08220021204605F0FBFC984A4FF068
:10D2B800C8732046CDE91123FEF7AFFC08B1FCF78F
:10D2C80043FDFEF7BFFE934B93481193214601F0AF
:10D2D800A1FB08B1FCF738FD00210422284605F01F
:10D2E800E0FC8E4B8E480D93294601F0A3FC08B153
:10D2F800FCF72AFDAC220021204605F0D2FC0622CC
:10D3080002238DF84720012286498DF84430ADF874
:10D31800902000238DF8C0204FF4A0728DF846307D
:10D328002591CDE9332321467F4B80483A9300F07D
:10D338002FFE08B1FCF708FD01217C4800F025FE0E
:10D348001C220021204605F0ACFC00234FF42032BB
:10D35800CDE91132ADF852304FF470228DF85430C7
:10D36800734B139216930322724B8DF8502020466C
:10D37800179301F0BBF808B1FCF7E6FC03216B48F2
:10D3880000F078FE08B1FCF7DFFC04220021012040
:10D39800FEF741FC4FF0A0434FF000510322C3F8C1
:10D3A8007427C3F80815C3F824274FF40072C3F88C
:10D3B8000825614C614D624EFEF7C2FE0023637082
:10D3C800A370604B6360604BA36020465F4BE360D3
:10D3D80004F04EF828702046FFF7BEFE28705C4D1A
:10D3E8005C4C6420FEF71CFEFFF79CFAFFF73EFC3E
:10D3F800002364206B61FEF713FEFFF7BDFA64207B
:10D40800FEF70EFE6868286004F071FA34A3D3E9C9
:10D41800002304F0BFFC04F086FAE86004F067FA21
:10D428009FED311B41EC100B05F03EF951EC100B50
:10D4380004F079FA07EE900AB7EE008A78EE677A78
:10D44800A24617EE900A04F052FA29A3D3E9002362
:10D4580004F0EAFB04F067FA3F4BE8601A683F4BB8
:10D468001A603F4B1A683F4B1A603F4B1A683F4B94
:10D478001A603F4B93ED007A3368013307EE903A18
:10D48800F8EEE77A3B4B67EE877A17EE100AC3EDA2
:10D49800007A394B83ED007A04F029FA002280469D
:10D4A8008946364B04F0C0FB42464B4604F0BCFBB1
:10D4B80004F039FA324B186001232370FFF754F94E
:10D4C8000746FFF77BF9012F0B9640F0C480FF2831
:10D4D80040F0C180FFF79EF954E000BFAFF3008031
:10D4E800CDCCCCCCCC5459403CDD79E2395BC83F3B
:10D4F8009A999999B3BE014159BC0100F03C0200C8
:10D50800A4000010302D0020D23C0200D53C0200BF
:10D5180010003C0071BC010038320020E9CD010048
:10D52800342500202C25002099BE01006C310020F4
:10D5380079BE010023C00100882D00207A32002026
:10D54800803200209DBF01002DBF010045C00100B1
:10D5580098320020643100200C2500204C2D00203A
:10D5680014250020502D00201C250020542D0020BB
:10D5780028250020683100208C3200200000E03F80
:10D5880090320020002240F28F213748FCF770FECD
:10D5980008B1FCF7D9FB4FF0A0474FF003094FF44F
:10D5A8000034C7F844974FF4FA60C7F80C45FEF703
:10D5B80037FDC7F80845C7F82097C7F81C97FCF748
:10D5C8009DF8FDF70DFA0C23C7F8403703F54033F3
:10D5D800C7F8403701F0E2FD2448254B8360DFF8A7
:10D5E800A480244B0361244BC360D8F800309847CB
:10D5F80000240822CDE90042D8F818200123184653
:10D60800CDE90843CDE90443164621460722CDE972
:10D618000644CDE90244B047D8F83430204698474C
:10D628004FF40053C7F80C35144A154BC7F8349714
:10D638009B1A23FA09F31B049FED099B43EA09038C
:10D648000A9327464FF0A046D6F8103513F48033D6
:10D658004AD19B463EE0FFF747F893E7AFF30080D7
:10D668003CDD79E2395BC83F58320020582D002054
:10D678009DBC010065BC010021C001001C350200F1
:10D688004C3502005C4102000120FEF7C9FC0BF199
:10D69800010B40F6B8339B451CD14FF400393220BA
:10D6A800C6F80C95FEF7BCFC3220C6F80895FEF7C4
:10D6B800B7FC3220C6F80C95FEF7B2FC3220C6F84B
:10D6C8000895FEF7ADFCC6F80C953220FEF7A8FCCD
:10D6D800C6F80895D6F81025D303D5D540F6B73245
:10D6E800934501DDFEF7A3FA8D4B1A781AB1002293
:10D6F8001A70FFF797FB8B4B1E7856B100221A70F1
:10D70800FFF73EFC4FF0A0434FF40032C3F80C255E
:10D718003446854E3378002B00F0F080D8F860301E
:10D72800984700233370814E3378002B3CD0804BD0
:10D73800804993F800E001224FF00C0C0EEB020335
:10D74800DBB2402B28BF002301320CFB0313D2B2FB
:10D758000B2A1868F2D1286004F0C9F86CA3D3E941
:10D76800002304F017FB04F0DEF8E86004F0BFF8CB
:10D77800B0EE491AF0EE691A41EC100B04F094FF70
:10D7880051EC100B04F0CFF807EE900A78EE677AA8
:10D7980017EE900A04F0ABF85FA3D3E9002304F076
:10D7A80043FA04F0C0F8E86095ED067AF3EE0E7AD5
:10D7B800B4EEE77AF1EE10FA23DD95ED027AF2EE97
:10D7C800047AB4EEE77AF1EE10FA1ADD5A4B1B78B8
:10D7D800BBB95A4BD3F80090B9F1000F11D14FF0F3
:10D7E800A0434FF4003286F80090C3F80825544A45
:10D7F80001231370534A1370FFF7D6FAFEF75AFE47
:10D808004C46514BDFED517A93ED007AB4EEE77A4E
:10D81800F1EE10FAC2BF484B00221A704C4B1A782E
:10D8280082B1454901228AF8002000221A700A7044
:10D83800FEF744FD474B4FF42F4043F00103984750
:10D84800FEF7F4FCDFF824B1DFF82491DBF80030B0
:10D85800414E0133CBF80030D9F800300133C9F814
:10D8680000303368013333609AF8003063B9FFF74A
:10D8780083F83A4B1B782BB1D5ED057A77EE887A89
:10D88800C5ED057AFFF7C4F8354BDBF800201B68B7
:10D898009A420ADD33490A98FCF79CF80023CBF832
:10D8A8000030FFF753FAFFF72FFC0B9BD9F8002045
:10D8B8001B689A4209DD0023C9F800301E4B1B780B
:10D8C8000BB31E4B1868FEF74DFD274B32681B68DB
:10D8D8009A4203DD00233360FFF7EEFB74B1013792
:10D8E800FFB2052F0AD94FF0A0434FF40032C82FDA
:10D8F800C3F8082584BF0027C3F80C25FBF7FEFEF4
:10D90800FDF76EF89EE6FFF741FCDEE7AFF3008017
:10D91800CDCCCCCCCC5459409A999999B3BE0141FD
:10D928005C3100207C2D0020783200207E2D0020E4
:10D9380054310020542E002079320020603100201C
:10D9480066310020502E0020583100200000074486
:10D9580065310020B03C0200802D00207F2D002082
:10D968005C250020E43C02002425002084320020AD
:10D978007C3200200369C1688B429DBF8268D2183F
:10D9880002F1FF3203F1FF3394BF501A581A70475F
:10D998002DE9F041D0E902670446F61B406896423B
:10D9A80088461546384405D905F052F93D44E560E6
:10D9B800BDE8F0813246AD1B05F04AF92A4608EB6E
:10D9C8000601606805F044F9F1E72DE9F843C568F8
:10D9D8000646894617464FF000083469B3687068F0
:10D9E800A54228BFE418013C621B5C1BBC4228BF4F
:10D9F8003C46944228BF144649462844224605F02E
:10DA080027F9B3682544AB4208BF00253F1BA04453
:10DA1800A144F560E1D14046BDE8F883F8B5184C5B
:10DA2800182300FB033503FB00402544C46A012C7E
:10DA38000F46164611D003D3022C1BD000240AE04F
:10DA48002846FFF797FF864205D8324639462846CA
:10DA5800FFF79EFF34462046F8BD2846FFF78AFFA9
:10DA68008642344628BF0446224639462846FFF7F0
:10DA78008FFFF0E72846BDE8F840FFF7A6BF00BFD4
:10DA8800CC3200206DDF704779DF70477DDF70474B
:10DA980064DF70472DE9F74F0C9CBDF834B0278838
:10DAA800002580468A4691462E46B8F80020B242A4
:10DAB8000BDC35B12288013AD21B92B2FF2A39D841
:10DAC800DA55002003B0BDE8F08FD8F8042052F8EA
:10DAD8002600019000220DF1030101A8FFF7D8FFED
:10DAE8000028EFD19DF803204A4521D12288002D36
:10DAF80014BF0020022002EB09010144594519DC3A
:10DB08003DB9013292B2228003F802A02288013284
:10DB1800228022880DF103011A4401A8FFF7B8FFFB
:10DB28000028CFD121889DF803200A4422800125AE
:10DB38000136BAE70C20C5E72DE9F341089CBDF88A
:10DB480024501746CDE9004502220646FFF7A2FFFA
:10DB580048B9102239463046CDE9084502B0BDE83B
:10DB6800F041FFF797BF02B0BDE8F0812DE9F04F13
:10DB780000231688138090F82D3085B007460D468F
:10DB8800144653B3082E01D80C2026E102A8FFF74B
:10DB980079FF002840F0218113880822CA5423887D
:10DBA80001339BB21B222380CA542088013080B2E3
:10DBB800208006220DF10901284405F049F8238840
:10DBC8009DF8082006339BB212F0FE0218BF01220E
:10DBD8002380EA54238801332380BB78FBB1238850
:10DBE8000433B342D0D802A8FFF74EFF002840F014
:10DBF800F48023880322EA54238801339BB2192234
:10DC08002380EA542388BDF8082001339BB2E91821
:10DC18002380EA54120A4A70238802332380FA7850
:10DC28009AB12388D91CB142AED80221E95423887D
:10DC380001339BB201212380E95423880B449BB212
:10DC48002380EA5423880B4423807A68AAB1238866
:10DC5800D91CB14298D8022192F90020E9542388AE
:10DC680001339BB20A212380E954238801339BB2F4
:10DC78002380EA542388013323803B89002B40F01A
:10DC8800A0803B8A5BB1CDE900462B4607220321E1
:10DC980007F11000FFF750FF002840F09E803B8BF3
:10DCA8005BB1CDE900462B461522142107F1180077
:10DCB800FFF742FF002840F090803A6A002A40F0BF
:10DCC8008F80D7F82480B8F1000F30D0B8F804302E
:10DCD8002188981C8A1C0244B2423FF655AFFE28A0
:10DCE8003FF652AF03336B54238801339BB2FF22B4
:10DCF8002380EA54238801339BB22380B8F800209C
:10DD0800EA54E918120A4A702088023080B220804A
:10DD1800B8F804205AB1D8F8081000296AD0284465
:10DD280004F096FF2388B8F804201344238097F85A
:10DD38002C30002B40F09980387800284DD03B8853
:10DD4800012B57D021888A1CB2423FF61DAF01280B
:10DD580005D17B7802330B449E42FFF415AF023E97
:10DD6800761A04A9B6B221F8086DA818FFF78EFE36
:10DD780098BB3978BDF80820022900F0BB807B7871
:10DD8800934202D3B24240F2B380012940F0B480FA
:10DD98009BB29E42C0F0B080ADF808300821BDF8B3
:10DDA8000830FE2B3FF6F0AE22880133AB542288B0
:10DDB800013292B22280A954228813442380002081
:10DDC8000BE0CDE900462B460622022107F10800A8
:10DDD800FFF7B2FE00283FF454AF05B0BDE8F08F5E
:10DDE800B4F800C00CF10603B3423FF6CDAE11887B
:10DDF800052901D80720F0E76FF4486E01EB0E0300
:10DE08009BB24FF27D3E7345F4D95388052BF1D967
:10DE18006FF44860181880B27045EBD94FF6FF7060
:10DE2800814203D0834201D09942E3D8052305F803
:10DE38000C30238801339BB212212380E9542388B4
:10DE480001339BB223801188E954E818090A41700C
:10DE5800238802339BB223805288EA54E918120AB5
:10DE68004A702388023323802BE7BB6A002BC1D07A
:10DE78004FF000094FF00C0A4FF0160B97F82C30B2
:10DE88005FFA89F293427FF657AFB96A0AFB02F24A
:10DE980001EB0208B8F80430981CFE283FF674AE6F
:10DEA800208803332B54238801339BB2238005F841
:10DEB80003B0238801339BB223808A5AEA54E918B5
:10DEC800120A4A702088023080B22080B8F80420F4
:10DED8005AB1D8F8081000298CD0284404F0B8FEAC
:10DEE8002388B8F804201344238009F10109C5E701
:10DEF800092154E7B242FBD9ADF808604EE770B586
:10DF0800C0B14AB116880024B44203D305196D780C
:10DF18009D4208D0A14201D800200BE0055D0135E3
:10DF28002C44A4B2F0E7A142F6D9A31C1380005DEB
:10DF3800013880B270BD37B502AC002324F8023D29
:10DF4800134622460546FFF7DAFF10B1BDF8060072
:10DF5800284403B030BD72DF704773DF704738B5AF
:10DF6800012204460D46B0F89810D0F89400FFF747
:10DF7800E2FF00B1057004F13C0204F1940104F1E0
:10DF88005400BDE83840FFF7E6BF80F8301070470E
:10DF9800F8B504460F46002968D0002866D091F8E5
:10DFA8007A301BB191F89830002B61D1D7F8A030A6
:10DFB800042B5DD0D7F89C30042B59D007F1780694
:10DFC8000FCE4FF0000C251D84F802C00FC50FCEF0
:10DFD8000FC596E8070085E8070084F830C0D7F831
:10DFE800A4306363D7F8A830A3634FF6FF7504F134
:10DFF8009403C4F8A430A4F8A8500722614604F199
:10E00800AA0004F04EFE23780BB984F85450224637
:10E0180004F155011F25C4F89410384622F8985F7A
:10E02800FFF7A4FD08BB224604F17401C4F89C1054
:10E0380007F13C0022F8A05FFFF798FDA8B9A26994
:10E04800A4F8482001236269206484F850006264BF
:10E05800014684F8513084F83C3004F13C0204F164
:10E068005400FFF778FF00B92370F8BD0E20FCE7D5
:10E078000720FAE7F8B5077804460D46002F00F0A8
:10E08800FA8000F1AA06A17007220021304604F0A8
:10E0980008FEE38813B1A378012B04D0E3794BB1D0
:10E0A800A378022B06D1636BA3B1012284F8B120B7
:10E0B80008209847334604F1B00113F8012F12B92C
:10E0C8009942FAD117466B1E032B53D8DFE803F0A9
:10E0D800050B0F1284F8B130ECE7A3791BB194F863
:10E0E800243003B95FB9E3790BB1002F44D1237A07
:10E0F800002B43D1637A002B0CBF00250425636BEA
:10E10800A570002B3CD0033D012D39D86279002A37
:10E1180036D094F8B220002A32D184F8B4200122F3
:10E1280084F8B3200720984704F13C051822002101
:10E13800284604F0B6FDE36A0122591E914288BFC1
:10E14800134684F8513094F8243084F83C2033B1D5
:10E15800914296BFA36A84F8522084F85230A2787C
:10E16800002384F85030042A1BD8DFE802F06C0D35
:10E17800223252000025C2E70225C0E70325BEE788
:10E18800002384F8B330CFE7C4F8A430C4E910639F
:10E198000223012284F83C30802384F83120A4F83B
:10E1A8004830A378002B51D1636B002B5FD100203E
:10E1B8005CE0022384F83130032384F83C3023697F
:10E1C800A4F848300023C4F8A430E36826646364E4
:10E1D800E7E763696364A369A4F848306379B3B176
:10E1E80094F8B2309BB994F8B43083B1022384F820
:10E1F800503004212046FFF7B2FE0028D1D1052374
:10E2080084F8313004F19403C4F8A430C9E7032337
:10E21800F6E7E3696364236AA4F84830637983B155
:10E2280094F8B2306BB994F8B43053B1022384F83F
:10E23800503004212046FFF792FE0028B1D1062372
:10E24800DEE70423DCE784F83130AAE72A46D4F86D
:10E25800A41004F15400FFF77EFE38B994F830108A
:10E2680094F85400FFF779FE00289DD0F8BD94F883
:10E27800310098479BE70820F8E70388112B10B571
:10E288000C460AD0262B1FD0102B05D1C37B012B9F
:10E2980002D18388A1F8A83010BD0022838881F8B4
:10E2A800B220B1F8A8209A42F6D10B79002BF3D10D
:10E2B80001212046FFF7DEFE0028EDD0A36B002BDE
:10E2C800EAD0BDE810401847037A013B012BE3D898
:10E2D80089780523013191FBF3F303EB8303C91A12
:10E2E800C9B2E6E7704775DF704776DF70477ADFB7
:10E2F80070477BDF70470000034B1A8882420CBFCF
:10E3080018460020704700BF60330020024B9B690D
:10E3180003B11847704700BF4433002037B585B2B2
:10E328002846FFF7E9FF034670B1164C017A227BB5
:10E3380091420BD200F10A012846FFF7D4FFE8B159
:10E34800112801D0FFF7E2FF03B030BD237C002283
:10E35800027243B13B212846FFF7C7FF30F008039C
:10E3680001D0FFF7D3FF6369002BEDD000228DF8B1
:10E378000420ADF8065001A89847E5E71A7A01325B
:10E388001A72E1E74433002013B50B46497A0F4C63
:10E39800024669B9D4E901101C7A002C18BF01465D
:10E3A8005868FBF765FF08B1FFF7B0FF02B010BD72
:10E3B800002119726369002BF8D00121ADF806001D
:10E3C8008DF8041001A89847F0E700BF44330020F7
:10E3D8008388B3F5FA7F28BF6FF4F97230B528BF88
:10E3E8009C1805884A8838BF002495420CD8408874
:10E3F800904209D38A88A24206D303F2F3109042CE
:10E4080034BF0020012030BD0020FCE70388112B19
:10E4180070B5014648D002D8102B1ED070BD122B03
:10E4280052D0502BFAD12F4BC288DB899A42F5D1B2
:10E43800038A022BF2D186883046FFF75DFF054636
:10E448000028EBD001F1120000F05FF930BB6868DA
:10E45800FBF752FF0028E1D009E0C37B012BDDD197
:10E468004FF6FF70FFF748FF054620B90420BDE8C6
:10E478007040FFF74BBF1C4A8E880680002303724A
:10E488001368C5F80A300A30536843601031FFF743
:10E498009FFF144B6872DB89002BBFD12946304699
:10E4A800BDE87040FFF770BF8088FFF725FF04467E
:10E4B8000028B3D04068FBF71FFF08B1FFF726FF1D
:10E4C8004FF6FF732380A9E786883046FFF714FFCD
:10E4D80005460028A2D008310A30FFF779FF687294
:10E4E800DCE700BF4433002074330020F8B506464B
:10E4F80050B305460FCD154F3C460FC495E80700AD
:10E5080084E807003068124B3B60B8B1FFF7EFFEB4
:10E51800C8B931680A681A604A685A600D480E4AD4
:10E528004FF6FF7303800D4B40F8043F0021FBF7C3
:10E538008DFE002814BF0320002004E01846FFF7D2
:10E54800D8FE0028EAD0F8BD0E20FCE744330020AE
:10E55800743300206033002025E301007C33002061
:10E5680073B50191019C06466CB100252C462946DD
:10E5780001A8FBF71EFF18B106EB440301349D8088
:10E588000135142DF3D13046346002B070BD00005F
:10E598002DE9F04303888488112B8DB0064640D0BE
:10E5A8001A2B43D0102B16D1294DAB680CA8DB438E
:10E5B80040F8303D55F8041FFBF724FF009901A8E7
:10E5C800FFF7CEFF0027019B9F4207D3132C18D9D2
:10E5D8000420FBF7B9FB0DB0BDE8F08301AB03EBFA
:10E5E80047034FF00008B3F8049005EB08004946CC
:10E5F80008F10408FBF7D3FEB8F1740FF5D1013721
:10E60800E1E721461348FBF7C1FE21461248FBF714
:10E61800BDFEF37B012BDED010482146FBF7B6FE8A
:10E62800D9E70C482146FBF7BAFED4E7057A0C482F
:10E638002D09012D214606D9FBF7A8FE022D2146FA
:10E648000848F0D0EAE7FBF7AAFE21460548EAE7C2
:10E658009C330020A4330020A0330020A8330020DE
:10E66800AC330020B03300201328014602D80248FA
:10E67800FBF79FBE00207047A033002010B504466A
:10E68800FFF7F2FF002814BF2046142010BD70B514
:10E69800054616460AB90E2070BD002313600028EF
:10E6A800F9D00368002BF6D0C38813F003040FD108
:10E6B8000846FFF7E3FFC0B214280BD02B7983423A
:10E6C8000AD9EB882A6800FB032030602046E3E77C
:10E6D8000720E1E70520DFE70420DDE7AADF704730
:10E6E800002301380B70042806D8DFE800F0030681
:10E6F800080A0C0011230B7070472123FBE7312314
:10E70800F9E71223F7E72223F5E7007800F0010084
:10E718007047F0B58B7891B005460C46164603B99C
:10E72800012303228DF80E3000212388ADF80C3028
:10E73800684604F0B6FA6946607CFFF7D1FF0DF130
:10E748000101A07CFFF7CCFF9DF80230E27B62F369
:10E75800C303227C62F30413227B62F30003227D4D
:10E76800002A14BF0222012262F3420300211C2264
:10E7780009A88DF8023004F094FA637B13F0300F87
:10E7880015D002AF03220021384604F08AFA0DF1B1
:10E798000901E07CFFF7A4FF11238DF808309DF8EC
:10E7A8000A300E97012262F342038DF80A30637B28
:10E7B8008DF824301422A37B8DF82530002104A87D
:10E7C80004F06FFA03AB0493A388ADF81C30A36878
:10E7D800CDF814D01BB1E288ADF818200893A369CE
:10E7E800002B2ED001AF03220021384604F059FA3D
:10E7F800A3691A88ADF82C205A88187BADF82E200A
:10E8080039465A680A920D97FFF76AFFA3690DF116
:10E818000501587BFFF764FFA2699DF80630917ADD
:10E8280061F3C303D17A61F30413117A927B002A4E
:10E8380061F3000314BF0222012262F342038DF840
:10E848000630E36903B10C93334604AA09A92846A4
:10E85800FFF744FF11B0F0BDA5DF7047B5DF704783
:10E8680070B14FF0F7130360FB230371F723C380E4
:10E87800172303810023C1608372C372184670474F
:10E888000E20704730B1A1F11703E02B04D80180A6
:10E89800002070470E20704707207047838837B5DF
:10E8A8000C4683B90288112A64D00ED8102A3ED0AB
:10E8B800A37A43B1E1880020FFF7CEFF00287AD180
:10E8C8000123A072E37203B030BD3A2A58D0552A0A
:10E8D800EED1C288C988A372172A38BF17228A4284
:10E8E80028BF0A4622811846FFF7B8FF60B1FCF737
:10E8F800D1F8394A394B3A499B1ADB081B040246BE
:10E9080043F00100FBF76AF8E27A002AD0D1E36805
:10E91800002BCDD040F67721ADF802202289ADF842
:10E928000010ADF80420694620469847C0E7C37B2D
:10E93800012B04BF0B88CB80C98823898B42B7D2AF
:10E948000020FFF789FF10B90123E372B0E711280F
:10E9580002D10123A372ABE7FCF79CF81E4A1F4BB8
:10E9680020499B1ADB081B04024643F00100FBF711
:10E9780035F89DE7F722CA8017220A818B72E4E7EF
:10E988004289C988E5688A4228BF0A46172A38BFDB
:10E998001722228165B1E17A51B140F67721ADF8AD
:10E9A8000010ADF80230ADF8042069462046A847AB
:10E9B8000023E372CEE7112885D0FCF76BF8064AEE
:10E9C800064B08499B1ADB081B04024643F001006A
:10E9D800FBF704F877E700BF1C3502006435020036
:10E9E800553D0200243D0200B0DF704766DF7047E6
:10E9F800034610B500214088FFF7F8FF024608B922
:10EA08001A7210BD112801D10122F9E75B68BDE82F
:10EA18001040184760B159B10378DE2B0AD00B6853
:10EA28004360DE2303704FF6FF7343800020704776
:10EA38000E2070470820704728B10378DE2B04D1D8
:10EA48004180002070470E20704708207047F0B5BD
:10EA5800054685B00C46F1B1E8B10B78DE2B1AD12A
:10EA680082884B889A4204D10B7A13B10846FFF783
:10EA7800BFFF2B88112B32D0512B0ED0012B0AD17E
:10EA88002B7A012B07D1A9886288914203D123727E
:10EA98002046FFF7ADFF05B0F0BDAE886388B342EE
:10EAA800F9D1AF79022FF6D1AD7B2B1F022BF2D80B
:10EAB80000211022684604F0F4F8052D14BF4FF425
:10EAC800C0730023694630468DF80070ADF80430F5
