:020000021000EC
:109000000000012079930100619301006393010046
:10901000659301006793010069930100000000005F
:109020000000000000000000000000006B93010041
:109030006D930100000000006F9301007193010027
:109040002DB001007393010055B401004DB501002E
:109050005DB5010073930100D9B201007393010063
:1090600073930100739301007393010073930100E4
:1090700073930100739301007393010073930100D4
:10908000739301007D9E01007393010073930100AF
:10909000199F01007393010031E3010073930100F4
:1090A00073930100739301007393010073930100A4
:1090B00073930100739301000000000000000000A2
:1090C0007393010073930100739301007393010084
:1090D0003900020073930100739301000000000047
:1090E0000000000000000000000000000000000080
:1090F0000000000000000000000000000000000070
:10910000000000000000000000000000000000005F
:10911000000000000000000000000000000000004F
:10912000000000000000000000000000000000003F
:10913000000000000000000000000000000000002F
:10914000000000000000000000000000000000001F
:10915000000000000000000000000000000000000F
:1091600000000000000000000000000000000000FF
:1091700000000000000000000000000000000000EF
:1091800000000000000000000000000000000000DF
:1091900000000000000000000000000000000000CF
:1091A00000000000000000000000000000000000BF
:1091B00000000000000000000000000000000000AF
:1091C000000000000000000000000000000000009F
:1091D000000000000000000000000000000000008F
:1091E000000000000000000000000000000000007F
:1091F000000000000000000000000000000000006F
:10920000364937480A1A02D0072291438D4635491C
:1092100035480A1A06D00722914381F309880222B1
:1092200082F3148831483249324A00F045F8324816
:109230003249334A00F040F832483349334A00F0AB
:109240003BF833483349344A00F036F83348344960
:10925000344A00F031F834483449354A00F02CF8EB
:1092600034483549354A00F027F835483549002259
:1092700000F02DF834483549002200F028F8344831
:109280003449091A082903DB002202600430016016
:10929000314A90471F482049884205D0026804306F
:1092A00003B4904703BCF7E700208646EC46002055
:1092B00000212A4A9047FEE7884207D0521A05D07B
:1092C000037801300B700131013AF9D170478842BF
:1092D00002D002700130FAE7704700000000012060
:1092E00000F80020000001200000012048300200AA
:1092F0000025002060250020D8930100D8930100AC
:10930000541F0200483002000025002000250020E4
:109310005020020050200200502002005020020085
:109320005020020050200200502002005020020075
:1093300048300200A830020060250020602500208F
:10934000602500207C3500207C3500208035002001
:1093500080350020803D0020A1930100A5C80100B8
:10936000FEE7FEE7FEE7FEE7FEE7FEE7FEE7FEE7D5
:10937000FEE7FEE7704700BF1048804710484FF0F7
:109380000701884385460F4880470F48016841F42C
:1093900070010160BFF34F8FBFF36F8FFFF730BFD6
:1093A0000A480B490B4A884207D0521A05D0037865
:1093B00001300B700131013AF9D17047759301000A
:1093C0000000012065AB010088ED00E050200200A4
:0893D00000250020002500200B
:1093D80000487047743500207047000007B5044BFB
:1093E8000093044A402300F032F803B05DF804FB10
:1093F80001940100612500202DE9F84389461446AF
:10940800B2B10F4B0F4E0325002743F00108224647
:1094180009EB0701002003F031FD0744241A48B97D
:1094280033782BB14FF47A40C047013D02D13570F3
:10943800BDE8F88301233370002CE8D1F8E700BFBA
:109448005020020060250020704703F04BBDF0B5A6
:1094580095B01C46164608460D4601F084FA1A9B3C
:109468000D93CDE9086400242346082205A928465F
:109478000A948DF82C400C9401F093FA079B029300
:10948800BDF81830ADF80C30BDF81A30ADF80E3014
:109498009DF814308DF8114003F00302012A1DD104
:1094A800BDF81440059EC3F3C203C4F383148DF8BA
:1094B8001030A20008230EA9284601F072FAC6F35C
:1094C800952608AB0093224602AB0EA9304600F061
:1094D80069FB284601F04BFA15B0F0BD022AF8D115
:1094E800BDF81640C3F3C203A4098DF8103008274D
:1094F800082C264628BF08263B4632460EA9284691
:1095080001F04FFAA41B08AB02AA31460EA8374453
:1095180000F0ACFB002CEBD1DBE7000008B5FFF74F
:1095280094FF0421034800F0ABFA034B01225A715F
:1095380008BD00BF4020020000250020037813F07A
:10954800040216D003F00303012B03D0022B09D029
:10955800012070470A6800880232C0F38310024471
:109568000A60F5E70B684288023303EB92130B603D
:10957800EEE71046704700002DE9F04F89B0054628
:10958800861C08A8484C019200230F4600F8113D9C
:1095980000F0ACFE23683B60D4E901231344226841
:1095A80001339B1A04F21C4704F5836A04F2144839
:1095B800B3421AD3019A0023002A6DD0012262F324
:1095C800010343F0040365F389132168A2689DF839
:1095D8000F000A4003320E4444F82230266000F09F
:1095E800A9FE012009B0BDE8F08F0121384600F03E
:1095F800FEFE504600F011FF404600F00EFF0DF150
:1096080020096068D4F808B049F8100D00EA0B008A
:10961800033004EB80004946FFF790FF049BB0B984
:109628000BEA030204EB8202D16805919A1C01330C
:1096380003EA0B0B04EB8B0C01F00303012B0492E0
:10964800DCF80CB020D0022B04D083460BE00BEAE8
:109658000300DDE7BDF816309B0903334FEA1B4BC7
:1096680002EB93030493404600F0DAFE08B1049B32
:1096780063605946384600F0BAFED4E90123134422
:10968800226801339B1A93E7BDF81430C3F38313A0
:109698004FEA1B4B1344E5E7022262F3010343F050
:1096A800040365F39F5390E7742600200B4B0C4886
:1096B800FF2210B59A600022C3F81824C3E90022DB
:1096C800C3F8142483F8202401F006F9044610B9DD
:1096D800044801F0AFF9204610BD00BF74260020F1
:1096E800BC1F02007420020030B50A4C71B10A4A4E
:1096F8000A49121BD20800239A4201D1002030BD2A
:1097080031F82350854202D00133F5E7034654F877
:109718003300F4E7D01F020040200200002500209B
:10972800094B013903EBC000032909D8DFE801F030
:109738000A02040604207047007970474079704790
:109748000020704702207047D01F0200034BD3E966
:109758000030C31A58425841704700BF7426002091
:109768002DE9F04387B0FFF7F1FF0646002840F0E7
:10977800FC807F4DC5F81804BFF34F8F6868AC684C
:1097880006AF47F8100D2040033005EB800039463E
:10979800FFF7D4FE029B18B1D5F81824002A5FD031
:1097A80004EA0302991C013305EB8202234005EB0E
:1097B8008303D268DB68049302F00303022B03924D
:1097C800029162D1BDF80E306A484FEA9318B8F199
:1097D800500FC14628BF4FF0500969F38F1309F1A4
:1097E8000801ADF80E3001F08FF80746002800F0A8
:1097F800A78001F0B8F803A900230822384601F031
:10980800C5F8029924EA01060136B600B14535D9F2
:109818005FFA89F97EB3F6B2A9EB06092140033154
:109828005FFA89F4B146544E05EB810108234A4694
:10983800384601F0ABF836B109F108032246314643
:10984800384601F0A3F8029B08F1030803EB9803DC
:109858000293D5F81834002B4BD1D5F810445BE0AF
:109868002A689A4204D86A60304607B0BDE8F08397
:1098780004EA030088E740493446D7E7214003312A
:1098880008234A4605EB8101DAE7012B58D1BDF8D8
:109898000C303848C3F38311062928BF062161F329
:1098A800891302318900ADF80C3001F02DF8074614
:1098B800002845D001F057F80023082203A93846AC
:1098C80001F064F80026BDF80C20C2F38312B31C23
:1098D80096424FEA8303BCD202994A1C21400331C5
:1098E800029205EB81010422384601F04FF8013657
:1098F800E9E7384601F03BF8FFF728FF80F0010060
:10990800C6B2B1E7E3685B7923B1236839461B68BF
:1099180020469847E3681C68002CF3D1384601F0CC
:1099280026F806A800F8114D00F0E0FCD5F8183428
:109938000BB9029B6B609DF8070000F0FBFCDBE7AE
:10994800D5F8104454B90D4B0D480E49C01AC0083B
:10995800000440F0020000F06FF8CDE723682046CD
:109968009B689847E3681C68ECE700267CE700BF23
:1099780074260020BC1F020080260020D01F020091
:1099880000200200802002002DE9F74F284C804675
:109998000F46924601A9012218469B46D4F8089022
:1099A800FFF7EAFD88B3019D0026A91C5E4506EB7A
:1099B800010234D100211F4800F0EEFC80F31000B2
:1099C8006A1C02EA090204EB8202000405EA0903A0
:1099D800033340EA1840D06014F8232068F3C50226
:1099E80004F8232034F8232066F3891224F823206E
:1099F80054F82320012167F39F2244F8232061F3C0
:109A080001026FF3820204F8232094F820341BB17A
:109A1800FFF7A6FE0028FBD103B0BDE8F08F09EAE6
:109A2800020204EB82025AF82630D3600136BDE701
:109A380074260020902A002000231A46FFF7A4BFAE
:109A480013B502AC012344F8042D2246FFF79CFF0E
:109A580002B010BD07B5CDE9002302236A46FFF71F
:109A680093FF03B05DF804FB1FB5CDE90123069B06
:109A7800039301AA0323FFF787FF05B05DF804FBF2
:109A880030B50F49D1F81024002314463CB9C468F6
:109A9800237152B9C1F810042260184630BDE46839
:109AA80025799D4206D02468F0E7D26811682160C4
:109AB8001060F2E701330A2BE7D14FF0FF33ECE7F0
:109AC80074260020094A38B50123D2F8104482F8D8
:109AD80020341D4604B938BDE3685D71236820460B
:109AE8005B689847E3681C68F4E700BF74260020A9
:109AF800037A052B10B50C460FD0437A23B1084AD8
:109B08000849204600F0EDFC0749204600F0E9FC32
:109B18002046BDE8104000F0D9BC002AF8D0F3E791
:109B2800CB200200D0200200F0200200C38873B5C9
:109B380004460D4633B1144A00921449144A284683
:109B480000F0CFFC217A05291CD0637A4BB1A0889C
:109B5800FFF7E6FD0F4B104953F82020284600F088
:109B6800C0FC227A0D4BA08853F822600021FFF731
:109B7800BBFD0B4903463246284602B0BDE870409B
:109B880000F0AFBC02B070BDCB200200DB200200A9
:109B9800D320020098200200D020020000210200F9
:109BA800F32002002DE9F04385B01F460C9D0023E9
:109BB80006460C46904695F80C902B732946384675
:109BC800FFF7B4FFB8F1060F09D8DFE808F0041270
:109BD800181F283340003146284600F082FC002236
:109BE80029463846FFF784FF85F80C9005B0BDE894
:109BF800F08322683146284600F073FCEFE7D4E989
:109C080000233146284600F06CFCE8E7A36800937F
:109C18003146D4E90023284600F063FCDFE7E36817
:109C28000193A36800933146D4E90023284600F045
:109C380058FCD4E723690293E3680193A36800936F
:109C48003146D4E90023284600F04BFCC7E7636996
:109C5800039323690293E3680193A3680093314651
:109C6800D4E90023284600F03CFCB8E708292DE990
:109C7800F84F80460E4617461C4636D8002593F8FE
:109C88000C901D7319461046FFF750FFDFF87CA0B3
:109C9800DFF87CB0AE422AD918F80520594620468C
:109CA80000F01FFC0135082DF4D11649DFF864B027
:109CB800204600F016FC0025AE421DD918F805A074
:109CC800504607F0ADFC002814BF52462E225946D4
:109CD800204600F006FC0135082DEDD10122214671
:109CE8003846FFF705FF84F80C90BDE8F88F514619
:109CF800204600F0F6FBD5E70349204600F0F1FBCB
:109D0800E9E700BFC6200200C4200200C22002000A
:109D1800BC200200C82002001FB50021039001AA40
:109D280044F20100CDE9011100F004F805B05DF836
:109D380004FB000010B572B6FFF7C4FEFFF710FD74
:109D48000028FBD1104B114C1149E41AE4082404F3
:109D580044F00100FFF770FE0E4B1B68DB0700D5CF
:109D680000BE0D4944F00200FFF766FEBFF34F8FB7
:109D78000A490B4BCA6802F4E0621343CB60BFF395
:109D88004F8F00BFFDE700BFD01F02000020020078
:109D98005F210200F0ED00E06B21020000ED00E021
:109DA8000400FA05094A537891780133DBB29942E5
:109DB80008BF0023117899421FBF037050781823F9
:109DC80003FB002014BF043000207047302B002014
:109DD80073B5054602A8002400F8014D0E4600F0B0
:109DE80085FA0DF10600FFF7DDFF90B106700A4B0A
:109DF8009DF8062045605A709DF8070000F09AFA11
:109E080024B9064B4FF48012C3F80021204602B053
:109E180070BD0424F0E700BF302B002000E100E013
:109E2800024B4FF43C6043F00103184780210200C5
:109E380038B50C4B0C4C4FF40032C3F88020012588
:109E48004FF48033C4F84833C4F808336560FFF72B
:109E5800E7FF064BA56000241C60FFF7E1FF044BF9
:109E68001C7038BD00E100E0001001404C2C0020BF
:109E78003D2C0020F8B51F4B1F491B680025C1F871
:109E88004051C1F84451C1F84851C1F84C51C1F88A
:109E98000051C1F804514BB3D1F80445174909687A
:109EA800641A24F07F442F461A68A24209D8A41ADB
:109EB80015441A7CDE691AB11F74D3E9052090474E
:109EC800AEB90F4B0F4A197813788B4205D101337D
:109ED800DBB2022B08BF0023137012780A4B43F839
:109EE80022500A4B4FF48012C3F80021F8BD3346C4
:109EF800DAE700BF502C0020001001404C2C002055
:109F0800482C0020492C0020402C002000E100E0D3
:109F18002DE9F74F9E4A9F49137809789E4D99423B
:109F28003CD00133DBB2022B08BF002313709B49DE
:109F380012789B4B0F6853F822003B1823F07F439D
:109F480000220B602B6816461446944613B942B19A
:109F58002B6006E0196881420ED902B12B60091AFC
:109F680019604FF001082B68DFF83CA20093002726
:109F7800BEB9DFF83CB260E0401A0C44D968C3F8B7
:109F880000C0D3F81CE031B13A1922F07F42C3E98E
:109F98000121DE611E4601227346D7E70026B0463E
:109FA800E1E73446F6697D4A63681268DFF804C25F
:109FB800A068991A21F07F41614500F2A58001440B
:109FC8002160012222742A680023C4E90133E36175
:109FD800002A40F0A2802C60CAE75A1C9BF80210A5
:109FE800D2B291428BF8002004BF00228BF80020E7
:109FF800182202FB03B32A6819799C68022974D0D5
:10A0080003297ED0012918D1217CB1B9DA686260B0
:10A018001A69A2605A699B69A361624BE2601B7866
:10A02800002BC0D06160BEE79C4200F09380994647
:10A03800DB69002BF8D1002323749BF800309BF8D0
:10A0480001209A42C9D12B682FB9009A934202D1B4
:10A05800B8F1000F43D0002B79D0D3F800A0524DAF
:10A068004E4BD5F804751C68DFF84C813E1B98F8F8
:10A07800003026F07F4603369BB94FF48033C5F88D
:10A088004433C5F80433494B4FF400324FF001090B
:10A09800C3F880211A60C5F80090FFF7C1FE88F860
:10A0A8000090B2452CBF5444A41924F07F44C5F84D
:10A0B8004045D5F80435DB1B23F07F43E41B03330D
:10A0C80024F07F44A3420AD9D5F80435C5F84035B1
:10A0D800FFF7A6FE354B4FF40032C3F80021314B91
:10A0E80000221A7003B0BDE8F08F13469146A0E72E
:10A0F8001174D2690123002AFAD1002B9DD02A605D
:10A108009BE700231946F6E7D31A23F07F438342DF
:10A1180034BFC31A0023236053E7216813689942A8
:10A1280013D8591A1160E26155E7091AD8691A4615
:10A1380038B1034618688842F7D3401A18601846A1
:10A1480013462160E061DC6112E71346F2E7FFF78E
:10A158006FFEC4E74C450DD1D3692B6053B90F4846
:10A1680001920121CAF8081003600E4B1970FFF71D
:10A1780057FE019AE1692368C9F81C1011B10868F3
:10A1880003440B602B689A4218BF012753E700BFAE
:10A19800482C0020492C0020502C00204C2C00205A
:10A1A800402C00203C2C00200010014000E100E081
:10A1B800302B0020FEFF7F003D2C002010B5FFF75C
:10A1C80037FE114B00200B2218809A700F4B186035
:10A1D8000F4B18700F4B18700F4B4FF48012C021A3
:10A1E800C3F8802183F814131A6002F18042A2F5A3
:10A1F8006F221F24C2F8084583F81113074BD2F8C1
:10A2080004251A6010BD00BF302B0020502C002000
:10A21800482C0020492C002000E100E04C2C0020B4
:10A22800074B9B784BB132B128B10368187C20B931
:10A2380059745A617047072070470820704700BF5B
:10A24800302B00202DE9F7431D4FBB7805460E46FD
:10A2580090469BB390B304292ED9436973B3437CCA
:10A2680002A80024012B00F8014D0CBF8946A14625
:10A2780000F03CF80DF10600FFF794FDD0B1012382
:10A288000370104B4560D3F80435C0E90498C0E961
:10A2980002369DF806307B709DF8070000F04AF8FA
:10A2A80024B9094B4FF48012C3F80021204603B0AB
:10A2B800BDE8F0830424EFE70724F7E70824F5E76F
:10A2C800302B00200010014000E100E0064A92789F
:10A2D8003AB130B1426922B1002202740221FFF77B
:10A2E80077BD0820704700BF302B002070B5EFF312
:10A2F800108672B60C4A946801239CB993600B4B84
:10A308000B4DD3F8801029401160C3F88050D3F862
:10A31800841051604FF0FF32C3F88420047006B9EE
:10A3280062B670BD0370FAE7542C002000E100E02B
:10A33800FC06FFBD084B9A6810B55AB150B9EFF347
:10A34800108172B6054A1C6814605C685460986095
:10A3580001B962B610BD00BF542C002000E100E036
:10A3680001F01F024B090121914000EB830000F02E
:10A378001DB801F01F0301229A404B0900EB83002E
:10A38800D14300F029B84B0901F01F0150F8230010
:10A39800C84000F00100704750E8002F0B4640E825
:10A3A800003C9CF0000FF7D11046704750E8003F82
:10A3B80043EA010240E8002C9CF0000FF6D1104659
:10A3C800704750E8002F02EA010340E8003C9CF087
:10A3D800000FF6D11046704750E8003F03EA01022B
:10A3E80040E8002C9CF0000FF6D11046704750E86A
:10A3F800003F03EB010240E8002C9CF0000FF6D16F
:10A408001046704750E8003FA3EB010240E8002CDB
:10A418009CF0000FF6D1104670470121FFF7C6BF28
:10A428000021FFF7CEBF10B590B1D0E90123016834
:10A438009B1ADBB20A60013BDBB2FF2B026802D138
:10A448000020107110BD11684C1C14600B70F2E7ED
:10A458000E20F7E737B5054602A8002400F8014D9D
:10A46800FFF744FF2A686B68116899420ED9481EA5
:10A47800106011F8014CEB68298A01FB0434AB68C1
:10A4880011791B1ADBB2994238BF13719DF8070086
:10A49800FFF750FF204603B030BD37B5054602A888
:10A4A800002300F8013D0C46FFF720FF2A681368D7
:10A4B800591C1160E968641A298AB4FBF1F41C700C
:10A4C8009DF80700FFF736FF03B030BD826810B56E
:10A4D80004462AB143690168006998470023A360CC
:10A4E80010BD0EB403B5039929B102AA04AB42F812
:10A4F800043D00F06BF802B05DF804EB03B0704760
:10A50800826830B40468551C8560A154D0E90132D2
:10A518009A4202D330BCFFF7D9BF30BC7047000065
:10A528002DE9F84F9946DDE90A43174682468846E1
:10A538000A460126BA420FD24E4538BF4E4613F09E
:10A54800010B01D164B900240125B9F1010F1AD911
:10A5580009F1FF397D43F8E7B2FBF7F20136E9E785
:10A568009B070ED5B9F1000F0CBF30252025A64258
:10A57800EAD2013C29465046FFF7C2FF002CF6D12B
:10A58800E1E72025F3E7B8FBF5F39F42E2D9DFF8CE
:10A598003890B8FBF5F3504619F8031005FB1388FB
:10A5A800FFF7AEFFB5FBF7F5002DF2D1BBF1000FB9
:10A5B80002D00CB1A64201D3BDE8F88F2021504645
:10A5C800013CFFF79DFFF4E7862102002DE9F74FD4
:10A5D800054690460E46002900F03A8116F8011B00
:10A5E800002958D0252940F0D180002702E047F003
:10A5F80001071646324612F8013B2D2BF7D0302BB7
:10A6080004D02B2B05D147F00407F2E747F00207E7
:10A61800EFE700242A2B06F101021BD1D8F80030FD
:10A62800191D1B68C8F800101C44164633782E2BD9
:10A638001CD101364FF0000A314611F8012BA2F166
:10A648003000092814D80A2303FB0A23A3F1300A8F
:10A658000E46F1E712F8013CA3F130010929E5D8CB
:10A668000A2101FB0434303C1646D3E74FF0000AB8
:10A67800324612F8011B01F0FB0068281646F8D094
:10A68800692916D054D8582970D00ED825297DD0DC
:10A698003378002BA2D12B7B002B00F0D9802846E1
:10A6A80003B0BDE8F04FFFF711BF632968D06429F4
:10A6B800EED1D8F80020D2F80090111D89EAE9728D
:10A6C800C8F80010A2EBE9724FF0010B092A61DC0F
:10A6D800D34538BFD3462CB1B9F1000F01DB790758
:10A6E80000D5013CBA0702D5BAF1000F04D0FB0728
:10A6F80002D4002C54D10024B9F1000F58DAC9F162
:10A7080000092D212846FFF7FBFE07F00302022A65
:10A7180005D1BAF1000F02D1002C4DD10024CDE9AA
:10A72800004753460A2249462846FFF7F9FEAFE795
:10A73800732954D016D87029AAD1D8F800301A1D18
:10A74800C8F80020302128461C68FFF7D9FE782178
:10A758002846FFF7D5FE00220823CDE9003221461E
:10A768001022E1E775292FD0782991D1D8F8001067
:10A778000A1DC8F80020CDE90047534610222CE0F6
:10A78800D8F800301A1D1978C8F800202846FFF7B5
:10A79800B7FE7DE70A230BF1010B92FBF3F295E775
:10A7A800A345A9D220212846013CFFF7A9FEA0E72E
:10A7B8007807AAD52B21A5E7A345B0D23021284692
:10A7C800013CFFF79DFEA7E7D8F80010CDE9004748
:10A7D8000A1DC8F8002053460A220968A4E7D8F8D9
:10A7E80000301A1DC8F80020F907D3F8009012D5D8
:10A7F8004F46A7EB090B17F8011B41B9A345BFF456
:10A8080047AF20212846013CFFF77AFEF6E72846A5
:10A81800FFF776FEEDE7B9F1000F17D0484606F0CE
:10A82800CDFF0746BC4200D954B909F1FF3919F8E0
:10A83800011F00293FF42CAF2846FFF761FEF6E719
:10A8480020212846013CFFF75BFEEBE74F46E9E78E
:10A8580003B0BDE8F08F2DE9F047B0F806904479D1
:10A86800D2F800A09DF8208009FB04F4043C0646B9
:10A878000AEB0300A0420F4688BFA4EB030A191D88
:10A88800C2F800A0B1FBF9F509FB15114DB9A9EB08
:10A898000104544528BF5446BAF1000F04D1BDE85D
:10A8A800F0873668013DF1E704317B1970182246BC
:10A8B800B8F1000F0ED001461846AAEB040A06F0BC
:10A8C800FFFED145254436684C464FF0000128BFAD
:10A8D8005446E1E71946F0E7FFF7A5BDF8B5467914
:10A8E8000146721E0546002393422D6803D30024B7
:10A8F800A64202D8F8BD0133F6E70F682846FFF7ED
:10A90800CCFD01343946F3E72DE9F843068ACD1C1E
:10A918000746FFF79FFD043E35440446B5FBF6F5B0
:10A92800F0B14FF48073EDB28380C680013D0760BB
:10A9380081464FF00008A84512D23846FFF78AFD35
:10A94800064648B163790133637108F10108C9F813
:10A95800000007608146EEE72046FFF7BFFF344658
:10A968002046BDE8F88301210430FFF740BD10B54B
:10A97800012104460430FFF745FD10F0FF0F04D114
:10A988002046BDE81040FFF7A9BF10BD1FB504ACB5
:10A9980044F8042D002200922246FFF75CFF04B021
:10A9A80010BD1FB504AC44F8042D012200922246C4
:10A9B800FFF751FF04B010BD41DF7047064B10B5DB
:10A9C80000241C70054B1C60BFF35F8F04490548C9
:10A9D80000F039F8204610BD682C00206C2C0020AF
:10A9E80098210200602C002007B502A8002300F877
:10A9F800013DFFF77BFCF1EE103A23F09F03E1EEF7
:10AA0800103ABFF35F8F0A4B4022C3F884219DF8A8
:10AA18000700FFF78FFC03F06DFC20B1FFF7CCFFB8
:10AA280003B05DF804FB20BF40BF20BFF8E700BFBC
:10AA380000E100E0836800225A609A60C3E90422BA
:10AA4800DA601A6070470B684A684360934208BF2F
:10AA58000023016008BF43607047436843B1026840
:10AA6800916852680B449342436004BF00234360DB
:10AA7800704700000D4930B5A1F594720225914246
:10AA880001D800200EE08B1ADB1093FBF5F302EBE4
:10AA9800C30452F83330834205D802D204F10802C5
:10AAA800EDE7606830BD2146E9E700BFE822020013
:10AAB80008B5FFF7DFFF024B002808BF184608BD9E
:10AAC800AD210200BFF34F8F0549064BCA6802F457
:10AAD800E0621343CB60BFF34F8F00BFFDE700BFB9
:10AAE80000ED00E00400FA050C4B1B78062B10D192
:10AAF8000B4B1B681A070CD10A4B186800F0F003BF
:10AB0800302B08D000F0E000A0F140035842584133
:10AB18007047002070470120704700BFE00F00F029
:10AB2800E40F00F0E80F00F0094B1B78062B0CD15E
:10AB3800084B1B681A0708D1074B186800F0F0008B
:10AB4800A0F130035842584170470020704700BFB9
:10AB5800E00F00F0E40F00F0E80F00F008B5FFF791
:10AB6800C3FF28B1894B8A4A1B68C3F304231360C7
:10AB7800FFF7DAFF10B1874B874A1A60FFF7B4FF77
:10AB880028B1864B864A1B68C3F342331360FFF72C
:10AB9800CBFF20B1834AD36823F08073D360FFF7DB
:10ABA800A3FF40B14FF080430022C3F80C21C3F843
:10ABB8001021C3F83825FFF7B7FF10B17A4B0322ED
:10ABC8001A60FFF7B1FF40B1784B05221A600122E5
:10ABD8009A6700229A603F225A60754B1B78062BB1
:10ABE80050D1744B1B6818074CD1734B1B6803F08A
:10ABF800F003502B46D14FF08052704BD2F804141A
:10AC0800C3F82015D2F80814C3F82415D2F80C1488
:10AC1800C3F82815D2F81014C3F82C15D2F8141458
:10AC2800C3F83015D2F81814C3F83415D2F81C1428
:10AC3800C3F84015D2F82014C3F84415D2F82414E8
:10AC4800C3F84815D2F82814C3F84C15D2F82C14B8
:10AC5800C3F85015D2F83014C3F85415D2F8341488
:10AC6800C3F86015D2F83814C3F86415D2F83C1448
:10AC7800C3F86815D2F84014C3F86C15D2F8442408
:10AC8800C3F87025FFF730FF28B14D4B4D4A1B68BC
:10AC980003F04F031360FFF727FF48B14FF08043DD
:10ACA800D3F80024D10744BF6FF00102C3F8002491
:10ACB800454B1B68062B08D1444B1B68062B01BF6C
:10ACC800434A136843F480631360424AD2F88830D9
:10ACD80043F47003C2F88830BFF34F8FBFF36F8F10
:10ACE8004FF01023D3F80C22D2071ED53A4B01227D
:10ACF800C3F80425D3F80024002AFBD04FF0102213
:10AD0800D2F80C3223F00103C2F80C32324B1A4647
:10AD1800D3F800140029FBD00021C3F80415D2F899
:10AD28000034002BFBD0FFF7CDFED3F80022002A19
:10AD380003DBD3F80432002B23DA274B0122C3F8B4
:10AD48000425D3F80024002AFBD04FF01022152147
:10AD5800C2F80012D3F80024002AFBD04FF01023C9
:10AD68001522C3F804221C4B1A46D3F800140029F4
:10AD7800FBD00021C3F80415D2F80034002BFBD017
:10AD8800D1E7164B164A1A6008BD00BF240300100D
:10AD98004035014074C007400DF0ADBA44020010C0
:10ADA8003C050040F0ED00E0A005004010560040D2
:10ADB800E00F00F0E40F00F0E80F00F000C00040E2
:10ADC80058020010E40E0040300100103401001059
:10ADD8003C17004000ED00E000E00140082500209D
:10ADE8000090D003054A4FF0A043105CD3F8043517
:10ADF80023FA00F0C04300F001007047A6260200C5
:10AE0800044B1A5C012393404FF0A042C2F80C3562
:10AE1800704700BFA6260200044B1A5C012393402A
:10AE28004FF0A042C2F80835704700BFA6260200BE
:10AE380008B50020FFF7F0FF0120FFF7EDFF022023
:10AE4800FFF7EAFF0320BDE80840FFF7E5BF08B5B4
:10AE58000020FFF7D5FF0120FFF7D2FF0220FFF700
:10AE6800CFFF0320BDE80840FFF7CABF074A4FF0ED
:10AE7800A041105CD1F804350122824022EA030087
:10AE88001340C1F80805C1F80C357047A626020022
:10AE9800014B185C704700BFA226020038B5084C69
:10AEA80004F108030546002818BF1C4623682BB187
:10AEB8001A6822605B6828469847F7E738BD00BFE4
:10AEC800782C002020B9054B01225A70FFF7E6BF05
:10AED800012802D1014A9070F8E77047702C0020D1
:10AEE80020B9034B01225A70FFF7D8BF704700BF43
:10AEF800702C002038B50B4C237883B90A4863605E
:10AF0800A3602361E36000F05FF8054603F0F2F9FF
:10AF180008B900F067F801232370284638BD852555
:10AF2800FBE700BF702C0020CDAE010037B502A8AA
:10AF38000023094C00F8013DFFF7D8F9E368013B0D
:10AF4800E360E56815B900F061F8A5709DF80700A1
:10AF5800FFF7F0F903B030BD702C0020012813B5BD
:10AF680009D003D303281BD002B010BD0F4B012218
:10AF7800C3F88020F8E702A800230D4C00F8013D33
:10AF8800FFF7B4F923780BB9FFF7B4FFE3689DF82E
:10AF980007000133E3600123A370FFF7CBF9E3E770
:10AFA80000F020F8FFF7C2FFDEE700BF00E100E095
:10AFB800702C002000F18040002382B003600368F9
:10AFC8000193019B02B07047054A13792BB90121FF
:10AFD800106011715371184670478520704700BF83
:10AFE800842C0020084B1A68D20706D4C02283F8A4
:10AFF80000230122C3F880211A604FF08043012208
:10B00800C3F81825704700BF00E100E0044B012297
:10B018001A604FF08042D2F81834DB03FBD4704733
:10B028000C000040124B1B6810B573B14FF48070D0
:10B03800FFF7C0FF4FF080430122C3F808230D4BF0
:10B04800587910B95A711B6898470B4B1B6873B134
:10B058004FF48270FFF7AEFF4FF080430222C3F82F
:10B068000823044B01201B68BDE81040184710BD99
:10B0780000010040842C00200401004000F18040C1
:10B0880000F5C040002382B0036003680193019B70
:10B0980002B07047800000F1A040D0F8003723F4D8
:10B0A8004033C0F80037D0F8003743EA0141C0F810
:10B0B80000177047054B4FF0FF32072843F8202050
:10B0C80084BF1B1883F84820704700BF8C2C0020D1
:10B0D80010B5174C94F8583043BBFF21E2180133E0
:10B0E800202B82F83010F9D10021C8B2FFF7E2FF17
:10B0F80001310C29F9D1042200210E4806F009FB80
:10B108000D4BC02283F806234022C3F880214FF458
:10B11800BE701A60FFF7B2FF084B4FF00042C3F849
:10B128000423012384F85830002010BD0820FCE7D0
:10B138008C2C0020E02C002000E100E000600040A2
:10B14800034B93F85800003018BF0120704700BF28
:10B158008C2C0020F0B5394D2C18944694F93040C9
:10B16800002C68DA8E78C6F34006002E15BF00233F
:10B17800082308270C27BB4201D10420F0BD55F84D
:10B18800232001324FEA830441D12F1845F823C008
:10B1980087F8303016B9EA1882F848008A785607D6
:10B1A80016D4D70735D5820002F1A042D2F800673D
:10B1B80026F00206C2F80067214FC60800F0070C07
:10B1C800012202FA0CF217F806C042EA0C02BA553C
:10B1D8008A780E7812F0020224D004F1804303F535
:10B1E800C0430002D3F8102522F4473222F44072FB
:10B1F800C3F810253604D3F8102500F4F85006F4E7
:10B20800403630431043C3F810050020B6E7013339
:10B21800B1E74E7800F5E0724FF0A047B60047F866
:10B228002260C9E7083B2B4493F8500040EA861691
:10B2380083F85060E9E70820A0E700BF8C2C0020C5
:10B24800E02C002038B5204C251895F93020072A25
:10B2580018DD224492F848309B09032B0DD14FF09A
:10B26800A043D3F81035C34013F0010F0CBF0221DF
:10B278000321BDE83840FFF70DBF012B14BF0321A0
:10B288000221F6E7D3B2072B1CD8930003F18043C1
:10B2980003F5C043D3F8100540F00100C3F81005CA
:10B2A80002F14000800080B2FFF7E8FE51B195F945
:10B2B800303054F823302BB1012303FA02F2034B48
:10B2C800C3F8042338BD00BF8C2C00200060004068
:10B2D8002DE9FF470024584A584E594D0194012141
:10B2E8001368A2F5C040012B80B206D1D6F804330A
:10B2F8000B4202D0FFF7C2FE0C430432AA424FEAC7
:10B308004101EDD14F4B1B68012B0AD14FF4BE70A0
:10B31800FFF7B4FE4FF0A04344F00044D3F81035D3
:10B32800019314F0FF0F1AD0474F0025012634422D
:10B3380010D0AB0003F1804303F5C043D3F81005E8
:10B34800D3F8101557F82530C0F30420C1F3014194
:10B3580003B198470135082D4FEA4606E7D1002C7E
:10B3680066DA00224FF0FF33CDE90223DFF8D890E8
:10B378000127002634464FF0A04809EB060393F94D
:10B388005020531C45D0D2B222F0C005E90804A8C9
:10B39800084402F0070310F804CC07FA03F31CEA88
:10B3A800030F36D009EB050C92099CF930C059F807
:10B3B8002CA0BAF1000F0AD1032A2AD10DF1080EE8
:10B3C8001EF801C04CEA030C0EF801C001E0032A84
:10B3D800F4D005F5E07110F80C0C58F8211018425B
:10B3E800C1F3014105D0022913D1032A0BD111461B
:10B3F80004E003290DD1032A05D102212846FFF7CD
:10B4080049FE0134E4B2BAF1000F02D011462846D1
:10B41800D0470136042EB0D154B14FF0A043019A61
:10B42800D3F81035934203D00193029B0393A0E70E
:10B4380004B0BDE8F08700BF006100400060004034
:10B44800206100407C6100408C2C0020014B1B686F
:10B45800184700BFE82C00200D4B984237B50D4621
:10B4680010D102A8002300F8013DFEF73FFF094B69
:10B478001C7914B901221D601A719DF80700FEF7A6
:10B4880059FF14B9002003B030BD1120FBE700BFFD
:10B4980000200040E82C002037B5D0F818358A691C
:10B4A800DBB28DF807304B6A93423EBF4A699DF87C
:10B4B8000740D4544A6A91F82840531C4B62023220
:10B4C8003CB10C69A2428C6938BF0A61944288BFBA
:10B4D8008A610D69954205D9CB689B5CC0F81C351B
:10B4E80001200BE08C69944202D991F82030F5E7ED
:10B4F800AB42F5D3A3422CBF0020012003B030BDDE
:10B5080013B50022C0F80821D0F808310193019B37
:10B51800FFF7C2FFA0B98A7FFF2A1EBF012393400D
:10B528004FF0A042084618BFC2F8083500234B77F1
:10B5380000F8083FD1E9003102B0BDE810401847D3
:10B5480002B010BD01490248FFF7DABFF02C002015
:10B558000030004002494FF04020FFF7D1BF00BF44
:10B568001C2D00202DE9F74F06796A4D2C277743CB
:10B5780005EB070A9B469AF81C3080460C46914614
:10B58800002B40F0C280644B006853F82610FFF788
:10B5980063FF002840F0BB8045F80790CAF804B064
:10B5A80094F800C0277B4FF0A042012303FA0CF364
:10B5B800012F94BFC2F80C35C2F808350CF5E073BA
:10B5C800012142F823106378FF2B1FBF9940C2F86E
:10B5D8000C1503F5E0714FF0030E18BF42F821E097
:10B5E800A27808BF4FF0FF33FF2A1FBF02F5E071B2
:10B5F8004FF0A04E4FF0040B4EF821B098F804100D
:10B6080001914FF02C0E0EFB015E18BF92468EF88A
:10B618001F20E27808BF4FF0FF3AFF2A0CD04FF006
:10B62800A04B4FF0010E0EFA02FECBF808E502F52A
:10B63800E07E03214BF82E1001994FF02C0E0EFBE3
:10B64800015E8EF81E20D8F80020C2F808C5C2F89E
:10B658000C35A368C2F810A5C2F82435637B003303
:10B6680018BF0123022F4AD0032F4BD0012F01D13D
:10B6780043F002030199C2F854352C2303FB01510E
:10B68800637981F82030B9F1000F02D00423C2F8A1
:10B6980004330123C2F80035B9F1000F25D0120B8D
:10B6A80053B22179002BA8BF03F16044D2B24FEA0C
:10B6B8005313B8BF02F00F074FEA4111B4BF174C3C
:10B6C80004F561444FEA8303C9B203F16043B4BF90
:10B6D800E15584F8001303F5614302F01F020121CC
:10B6E80001FA02F2C3F880211A602C2303FB0655E5
:10B6F80000236B7701232B7703B0BDE8F08F43F06D
:10B708000403B7E743F00603B4E70820F4E7112081
:10B71800F2E700BFF02C0020CC26020014ED00E078
:10B728002DE9F7430679424D2C2373439646EA18D0
:10B738000F46517F8146002978D155F803C0BCF1E6
:10B74800000F01D00123537797E80F002C2404FB46
:10B75800065404F10C0888E80F00A27F0023FF2A92
:10B7680084F828301FBF012393404FF0A042C2F84D
:10B778000C352C23BEF1000F07D003FB0653002223
:10B788005A77062003B0BDE8F083D9F800400422B8
:10B79800C4F8082303FB0653C4F808E1D4F80821C9
:10B7A800C3F824E00092009A7A688AB13B681B7853
:10B7B800C4F81C35012A0ED93B685B78C4F81C35DF
:10B7C800BCF1000F10D00423C4F804330020D9E7DB
:10B7D80093F82030ECE7FB68012BF1D92C2303FB0D
:10B7E800065393F82030E9E74FF02C0806FB085879
:10B7F8006746D4F80831002BFBD0C4F80871D4F898
:10B808000831019341462046019BFFF745FE002879
:10B81800EFD12C2303FB0655AA7FFF2AB2D00123C0
:10B8280093404FF0A042C2F80835ABE71120A9E7D2
:10B83800F02C00207FB503788DF80430436802931C
:10B8480083688DF80C30C368049303698DF814304D
:10B85800054A064B01A853F8213052F821109847A1
:10B8680007B05DF804FB00BF482D0020542D0020D0
:10B8780030B4084D10F8044B45F82420064D002A32
:10B8880045F82430054A234608BF002230BCFFF79C
:10B8980069BE00BF542D0020482D00203DB801008E
:10B8A80008B5094B1B7853B10020FFF7B5FA012002
:10B8B800FFF7B2FA0320BDE80840FFF7ADBABDE8CC
:10B8C8000840FFF7B5BA00BF602D0020F8B57A4CE4
:10B8D800237805461BB100232370FFF7E1FF172DDE
:10B8E80000F28680DFE805F00C1717435465757E73
:10B8F800868B868B939898989898C2C7CFD7E2E2A0
:10B90800FFF7CEFF6D48FEF7E1FC6D4B00220446C1
:10B918001A702046F8BD0020FFF764FAF8B100203D
:10B92800FFF77AFA022D0CBF4FF4E1614FF47A6108
:10B93800634B1D704FF400404FF47A540025E0FB30
:10B9480001454FF4FA4200232046294605F072FDCE
:10B95800002201465948BDE8F840FEF773BCFFF7DE
:10B968004FFA022D0CBFC8214FF4C871E0E7002040
:10B97800FFF738FA40B10020FFF74EFA4FF448714C
:10B988004F4B03221A70D5E7FFF73AFAC821F7E7B9
:10B998000020FFF727FA38B10020FFF73DFA4FF4EF
:10B9A8007A61474B0422EDE7FFF72AFA4FF4C87192
:10B9B800F7E70020FFF716FA40B10020FFF72CFA4E
:10B9C8003F4B05221A70CD210022C3E7FFF718FA72
:10B9D800F6E70020FFF74AFA394B06221A700022D0
:10B9E8006621B7E70020FFF70BFA354B07221A70DC
:10B9F80000248EE701202070FFF738FAEFE70120D6
:10BA08002070FFF733FA00224FF40071A2E7FFF726
:10BA18001EFA2B4B0C22EAE72A482B4EFEF756FC5F
:10BA2800D5F1110504461CD0D8B9012D13D0C8236F
:10BA38005D434FF400474FF47A5000214FF4FA4227
:10BA48000023C7FB050105F0F5FC224601461D4809
:10BA5800FEF7F8FB04460220FFF7D2F90123337002
:10BA680057E70220FFF7D8F90023F8E7FFF718FF98
:10BA7800134B1222BBE7FFF713FF0020FFF7C0F9B3
:10BA88000F4B1322B3E7FFF70BFF0120FFF7B8F9BD
:10BA98000B4B1422ABE7FFF703FF0020FFF7B0F9C9
:10BAA8000120FFF7ADF9064B1522A0E7FFF7CFF904
:10BAB800034B1D709CE700BFB42D0020842D00208F
:10BAC800B52D0020642D0020602D0020044B1B683C
:10BAD80013F0010301D0FFF7F9BE1846704700BF05
:10BAE800B02D0020032812D8012A0BD1012908D132
:10BAF80000F10E02D2B200EB40000C4B1A540020A9
:10BB0800704700220129F6D009D3022901D0072065
:10BB18007047064B00EB400018444270EFE7034BB8
:10BB280000EB400018448270E9E700BFA42D002014
:10BB3800032808B512D8FFF7ABF9800000F1A04040
:10BB4800D0F8003723F44033C0F80037D0F8003776
:10BB580043F44033C0F80037002008BD0620FCE756
:10BB680008B5012202210020FFF7BCFF08B1072811
:10BB780010D1072202210120FFF7B4FF08B10728DE
:10BB880008D100210A220846FFF7ACFF10B10728A8
:10BB980008BF002008BD00000388102B10B502D094
:10BBA800112B1ED010BD1A4C2168B1B901220846CC
:10BBB800FFF798FF08B1072824D1072202210120A6
:10BBC800FFF790FF08B107281CD1042202210020AA
:10BBD800FFF788FF08B1072814D1236801332360D1
:10BBE800E0E70B4A1368013B1360002BDAD1FFF73B
:10BBF800B7FF0028D6D0074B1B68002BD2D0BDE872
:10BC080010401847034B1B68002BE6D09847E4E721
:10BC1800BC2D0020B82D002008B50020FFF788FFB4
:10BC280008B1062806D10120FFF782FF10B10628C7
:10BC380008BF002008BD76DF704777DF70477ADFDE
:10BC480070477CDF70477FDF70478FDF7047B1DF59
:10BC5800704733DF70473FDF70470000024B8001B9
:10BC680043F00103184700BFF026020000F18040AE
:10BC780000F5E040002382B0036003680193019B54
:10BC880002B07047014B01221A707047382F00200C
:10BC9800014B024A9A627047582F00200000C842A0
:10BCA800034B044A9A62044B00205B6E184700BF9E
:10BCB800582F0020000020C26C2C020030B41E292E
:10BCC8008AB007EE102A07EE903A0ED1002302A997
:10BCD800C25CCA5401331E2BF9D10C460FCC0B4D54
:10BCE8000FC594E80F0085E80F00094BB8EEC77A36
:10BCF800F8EEE77A83ED027AC3ED057A054B5B6EC1
:10BD0800019300200AB030BC184700BF182E00204D
:10BD1800582F00206C2C0200FDF7FEBF08B500204C
:10BD2800FFF7D4FE08B1FDF7F7FFFFF775FF08B17D
:10BD3800FDF7F2FFFFF78DFF18B1BDE80840FDF7EA
:10BD4800EBBF08BD0388212B13B504463BD01FD891
:10BD5800112B28D0132B3ED0102B32D1264B27483D
:10BD68002749C01AC008000440F00300FDF764FE2C
:10BD78000720FFF7ABFE08B1FDF7CEFF214BA188E6
:10BD88002148198002F08AF8D8B1FDF7C5FF18E0FC
:10BD9800522B28D0562B01D03B2B12D11321A0882F
:10BDA800FFF749FFF0E7144B14481849C01AC008B8
:10BDB800000440F00300FDF73FFE124B4FF6FF7200
:10BDC8001A8002B010BD02A9002321F8043D808822
:10BDD800FFF73BFFD8E70B4800231A468521008868
:10BDE800FFF731FFD0E7074800231A4619460088B5
:10BDF800FFF72DFFC8E700BFD01F02000020020098
:10BE0800D8260200222500200C2F0020E22602005E
:10BE180010B504464FF47A70FFF720FF013CF9D1C2
:10BE280010BD00000D4B4A881B889A4214D10A881D
:10BE380040F677239A420FD18B88094A09480A4964
:10BE4800033B9BB21380094A801AC00800041A46B3
:10BE580040F00300FDF7FEBD704700BF222500201B
:10BE68002025002000200200F6260200D01F020034
:10BE780008B503784BB9054B3B211888FFF7DBFE63
:10BE880018B1BDE80840FDF747BF08BD22250020CE
:10BE980008B548B103280BD10220FFF717FE38B1C7
:10BEA800BDE80840FDF738BFBDE80840FFF736BFDA
:10BEB80008BD00001FB5CDE90001CDE902236946A0
:10BEC80000220348FFF72CFC05B05DF804FB00BF17
:10BED8002428020070477047FDF71EBF08B50849BF
:10BEE800084801F0EFFE08B1FDF716FFF7210548F5
:10BEF80001F0FAFE18B1BDE80840FDF70DBF08BD16
:10BF08002DBE0100F82E0020104A08B50323C2F800
:10BF1800F0350223C2F8F4356FF00043C2F8083355
:10BF28004FF48270FFF7A2FE4FF48070FFF79EFE79
:10BF38000123C2F80035064BC2F828350023C2F8A1
:10BF480024350923C2F8203508BD00BF0070004021
:10BF5800000005011FB51D490122C1F800254FF455
:10BF68008270C1F82CD6C1F83026FFF77FFE184B37
:10BF78000A601A6042F2107203F58073196801B9F9
:10BF8800FAB9144B012119604FF48070FFF76EFE67
:10BF98004FF48270FFF76AFE0C4B0021C3F80015BE
:10BFA8008AB1BDF8000040F6E3034FF47A7210FB43
:10BFB800023041F2C71390FBF3F080B205B05DF890
:10BFC80004FB013ADAE742F20F70F7E7007000402D
:10BFD800047000400870004030B500258BB0204C3C
:10BFE800142229466846257005F093FB1422294639
:10BFF8000DEB020005F08DFB06238DF800304FF0A5
:10C00800A0434FF40072C3F80C25012305AA194672
:10C018006846FFF74FFF2378F3B14FF0A0434FF482
:10C0280000721049C3F80825009101218DF8041009
:10C0380000212170C3F80C25052305AA1946684676
:10C04800FFF738FF23784BB14FF0A0434FF400724D
:10C05800C3F808250BB030BD20BFDCE720BFF1E7EF
:10C068004C2F002002008000074B084A5A601A60D3
:10C0780000229A60DA605A611A619A61DA611A627A
:10C088005A62034A9A627047582F002066A6CA422D
:10C0980000006C427FB5124B0193124B9A680392D1
:10C0A8005A699B6A029300238DF814300423049282
:10C0B8000DEB0301585C9DF8142001330244102B4A
:10C0C8008DF81420F6D106AA112322F8163D064B46
:10C0D80006481B8802F054F807B05DF804FB00BF5F
:10C0E800F5010C02582F00202225002024250020CD
:10C0F80030B5144D0FCD95B002AC0FC495E80F00C4
:10C1080084E80F00104B0A9300231A4602ACA15C86
:10C118000AA8104401320B441E2A0171DBB2F6D181
:10C128000022ADF84A2014AA8DF84C30252322F8B5
:10C138004A3D064B06481B880AA902F021F815B0AB
:10C1480030BD00BF182E0020F508201D2225002034
:10C1580024250020054B01221A70054B00221A6085
:10C16800044B00221A60FFF737BF00BF392F0020A9
:10C17800142E00200C2E002008B5FFF7EBFF024B11
:10C1880000221A7008BD00BF012E00200378ABB949
:10C19800838A042B12D101698B787BB94A780B7892
:10C1A800C9781344DBB2994208D1F22A07D0F42A9D
:10C1B80007D0F12A02D1044B01221A707047FFF709
:10C1C800DBBF024BF8E700BF002E0020102E002036
:10C1D8001FB50023ADF80C308DF80E300D4B0293CF
:10C1E800FFF7B8FE04AAC0F30723C0B28DF80D30DC
:10C1F8008DF80C001844072322F80A3D064B8DF8E9
:10C208000E001B88054802A901F0BAFF05B05DF8C9
:10C2180004FB00BFF50202F9222500202425002096
:10C228001FB50E4B0E481A780E4B19784FF00003C5
:10C2380061F3000362F341030B4A029204AA8DF8EA
:10C248000C308DF80D30062322F80A3D074B02A961
:10C258001B8801F095FF05B05DF804FB392F00201D
:10C2680024250020012E0020F50601FC22250020AF
:10C27800002370B51A461C46CD1C5E1CDBB29D42DD
:10C2880003DA08448271C47170BD03449B781A4470
:10C29800D2B21444E4B23346EFE700002DE9F0418E
:10C2A800ADF5007DFF220021684605F032FAF12243
:10C2B80000210DF5877005F02CFA002640ACFF230D
:10C2C80033550136FF2EFBD1DF4AE049E04D00230C
:10C2D800C4E90012A360A381082120462B70FFF750
:10C2E800C7FF4FF0A0434FF48062C3F80C253146D6
:10C2F80033466A462046FFF7DDFD2B78002B00F019
:10C308009A814FF0A0464FF480670A20C6F8087556
:10C31800FFF7A4FC00232B70082101232046E371BA
:10C32800FFF7A6FFFF23C6F80C756A461946204694
:10C33800FFF7C0FD2B78002B00F07F814FF0A0465F
:10C348004FF480670A20C6F80875FFF787FC0023BA
:10C358002B70082102232046E371FFF789FFFF2392
:10C36800C6F80C756A4619462046FFF7A3FD2B78D8
:10C37800002B00F064814FF0A0464FF480670A203C
:10C38800C6F80875FFF76AFC00232B700821032301
:10C398002046E371FFF76CFFFF23C6F80C756A4669
:10C3A80019462046FFF786FD2B78002B00F04981BF
:10C3B8004FF0A0464FF480670A20C6F80875FFF7CB
:10C3C8004DFC00232B70082104232046E371FFF75E
:10C3D8004FFFFF23C6F80C756A4619462046FFF73B
:10C3E80069FD2B78002B00F041814FF0A0464FF4F7
:10C3F80080670A20C6F80875FFF730FC00232B7009
:10C40800082105232046E371FFF732FFFF23C6F812
:10C418000C756A4619462046FFF74CFD2B78002B11
:10C4280000F026814FF0A0464FF480670A20C6F836
:10C438000875FFF713FC00232B70082141232046C1
:10C44800E371FFF715FFFF23C6F80C756A46194616
:10C458002046FFF72FFD2B78002B00F00B814FF0C3
:10C46800A0464FF480670A20C6F80875FFF7F6FB68
:10C4780000232B7040F20173E3800821012320463A
:10C488002373FFF7F5FEFF23C6F80C756A461946B5
:10C498002046FFF70FFD2B78002B00F0ED804FF0C2
:10C4A800A0434FF48062C3F808250027FF23E35513
:10C4B8000137FF2FFBD1DFF8B08100266420C4E9E3
:10C4C8000086C4E902662682FFF7C8FB314620468B
:10C4D8002E70FFF7CDFE4FF0A0434FF48062C3F8F3
:10C4E8000C2539463B466A462046FFF7E3FC43469F
:10C4F8002A78002A00F0C2804FF0A0424FF48061F1
:10C50800C2F808150026FF22A2550136FF2EFBD1DE
:10C518002360504B0C27C4E901734F4BE3600123A0
:10C5280023820A20FFF79AFB0023394620462B7006
:10C53800FFF79EFE4FF0A0434FF48062C3F80C252E
:10C54800314633466A462046FFF7B4FC2B78002B69
:10C5580000F096804FF0A0434FF48062C3F808259E
:10C568000026FF23A3550136FF2EFBD13B4B4FF08E
:10C5780014080027C4E900384FF46023C4E90237DF
:10C58800A3F55C032361364B63610A202783FFF719
:10C5980065FB414620462F70FFF76AFE4FF0A04327
:10C5A8004FF48062C3F80C25314633466A4620466C
:10C5B800FFF780FC2B78002B64D04FF0A0434FF49A
:10C5C8008062C3F808250023FF22E2540133FF2BC1
:10C5D800FBD1244B23602423A3800123A37140AD06
:10C5E800072300265E5501332C2BFBD10A20184C5B
:10C5F800FFF734FB242128462670FFF739FE4FF059
:10C60800A0434FF48062C3F80C25FF236A461946FD
:10C618002846FFF74FFC2378002B35D04FF0A04376
:10C628004FF48062C3F808250A20FFF717FB0DF5C1
:10C63800007DBDE8F08120BF5FE620BF7AE620BF1D
:10C6480095E620BFB0E600BF0800F000B56206011D
:10C658004C2F0020FF01020308000100B562061EEE
:10C6680000008080B5620624B562063E20BFB8E6A9
:10C6780020BFD3E620BFEEE620BF0CE720BF37E798
:10C6880020BF63E720BF95E720BFC4E70000000094
:10C698002DE9F041FF24ADF5027D0026784D2246B4
:10C6A800314602A82E7005F034F82246314642A8D9
:10C6B8008DF8084005F02DF84FF0A0434FF4806244
:10C6C8008DF808412146C3F80C2502A8234642AA42
:10C6D800FFF7F0FB2B78002B00F0C2804FF0A0434F
:10C6E8004FF48062C3F808259DF82631654D9DF802
:10C6F80025619DF82271AF70002463F307049DF84B
:10C708002731EE7063F30F249DF8283163F3174443
:10C718009DF8293163F31F649DF82A312C61A046E6
:10C7280063F307049DF82B3163F30F249DF82C3134
:10C7380063F317449DF82D3163F31F649DF832317C
:10C74800EC6063F307049DF8333163F30F249DF81D
:10C75800343163F317449DF8353163F31F649DF852
:10C7680046316C6163F307049DF8473163F30F2486
:10C778009DF8483163F317449DF8493163F31F640A
:10C78800204603F08BFD38A3D3E9002303F088FF8C
:10C7980003F0ACFD9DF84A31688363F307049DF804
:10C7A8004B3163F30F249DF84C3163F317449DF824
:10C7B8004D3163F31F64204603F070FD2AA3D3E9CB
:10C7C800002303F06DFF03F091FD9DF84E3128839F
:10C7D80063F307049DF84F3163F30F249DF850313C
:10C7E80063F317449DF8513163F31F6442F21073E9
:10C7F80094FBF3F4AC83244CD4ED027AB7EE007AC0
:10C8080077EE877A4046C4ED027A03F047FD18A315
:10C81800D3E9002303F044FF03F0C1FD6061304613
:10C8280003F03CFD0022194B03F0F4FD12A3D3E9F9
:10C83800002303F035FF03F0B2FD154BA062154845
:10C848009DF818210096C01AC00800043B461249FA
:10C8580040F00300FDF708F90DF5027DBDE8F08111
:10C8680020BF37E7AFF30080E5E48AFA40CCA03F69
:10C8780048AFBC9AF2D77A3E721CC7711CC7E13F19
:10C888004C2F0020182E0020582F00200000404078
:10C89800D01F020000200200102802002DE9F043FA
:10C8A800C44BC54CC549E41AE408240444F0030405
:10C8B800BBB02046FDF7C0F84FF480610020FCF7BC
:10C8C800F5FE08B1FDF728FAFCF728FEBC4920461A
:10C8D800FDF7B2F8FDF772FC08B1FDF71DFAB94A89
:10C8E800B9480121FDF79CFC08B1FDF715FAB749D5
:10C8F800B74D2046FDF7A0F8B64BB749D3E900235A
:10C908000CA804F09DFE0E22B449284604F0ADFEA2
:10C918009DF83030AB739DF83130EB739DF83230B1
:10C928002B749DF833306B749DF83430AB749DF8DC
:10C938003530EB749DF836302B759DF837306B75B4
:10C948009DF83830AB759DF83930A549EB75204610
:10C958009DF83A302B76FDF76FF8FFF7D5FAFFF719
:10C96800F9FAA0492046FDF767F8FEF727F808B15D
:10C97800FDF7D2F901F082FC08B1FDF7CDF93AAD27
:10C98800002345F8AC3D0120294601F003FD08B11C
:10C99800FDF7C2F9284601F0C9FD08B1FDF7BCF959
:10C9A80091492046FDF748F83AAE0120FFF753F9C0
:10C9B800112306F8BC3D864804F000FF844982B282
:10C9C8003046FFF73EF908B1FDF7A6F90021082225
:10C9D800284604F09EFE85494FF0C8732846CDE9E5
:10C9E8000F13FFF72CF908B1FDF796F9FFF776FA60
:10C9F8007F4B80480F93294601F03EFA08B1FDF7B6
:10CA08008BF900210422304604F083FE7A4B7B48E0
:10CA18000B93314601F040FB08B1FDF77DF9AC22DC
:10CA28000021284604F075FE062202238DF83F20D7
:10CA3800012273498DF83C30ADF8882000238DF829
:10CA4800B8204FF4A0728DF83E302391CDE9312300
:10CA580029466C4B6C48389300F0CCFC08B1FDF7C4
:10CA68005BF90121684800F0C2FC1C22002128461D
:10CA780004F04FFE00234FF4A052CDE90F32ADF879
:10CA88004A304FF4F0428DF84C30604B11921493B9
:10CA980003225F4B8DF848202846159300F058FF75
:10CAA80008B1FDF739F95B492046FCF7C5FF0321BA
:10CAB800554800F011FD08B1FDF72EF904220021B8
:10CAC8000120FFF7BAF84FF0A04553492046FCF77C
:10CAD800B3FF0323C5F828374FF48063C5F808353A
:10CAE8004E492046FCF7A8FFFFF7D8FB4C492046E3
:10CAF800FCF7A2FFFFF7B8FA4A4B002264205A61FC
:10CB0800FFF786F9484B1A68484B1A60484B1A6871
:10CB1800484B1A60484B1A68484B1A60484B93EDCB
:10CB2800007A484B1B68013307EE903AF8EEE77A33
:10CB3800454B67EE877A17EE100AC3ED007A434B30
:10CB480083ED007A03F00FFC002206460F46404BA7
:10CB580003F0A6FD32463B4603F0A2FD03F01FFC9E
:10CB68003C4B3D4918603D4B012220461A70FCF7AA
:10CB780063FF00224FF400613948FDF763FB08B1F9
:10CB8800FDF7CAF84FF4FA60FFF742F94FF40033A3
:10CB9800C5F808350323C5F858374FF48003C5F89E
:10CBA80008353049DFF8C0802046FCF745FF0C23E4
:10CBB8005CE000BFD01F0200002002001227020024
:10CBC800202702008DBC01000C2802002C2702003F
:10CBD800C02D0020A40000103A2702003D270200C3
:10CBE8004C270200602702007527020010003C0055
:10CBF80021BD01000C2F002095C101002425002033
:10CC08001C25002099BE0100402E002079BE01009D
:10CC1800E1BE01008727020096270200A72702002D
:10CC2800B3270200582F00200C250020D82D002003
:10CC380010250020DC2D002014250020E02D0020E8
:10CC480018250020402F00203C2E0020502F0020C7
:10CC58000000E03F542F0020BF270200382E00209C
:10CC6800182F0020CD270200382F0020C5F84037A4
:10CC780003F54033C5F8403701F0C2FC2E492F4D6B
:10CC88002046FCF7D9FE2E482E4B83602E4B0361BD
:10CC98002E4BC3602E4B43602E4B03602B68984786
:10CCA800002340F6B8320120CDE907320822CDE949
:10CCB80001020B22CDE90330CDE905330092EE697C
:10CCC8001A461621B0472449244E2046FCF7B4FEE4
:10CCD80098F800305BB3FFF7DBFC2B6E204F9847CA
:10CCE80020493B680A6801320A60326801323260C2
:10CCF8001D4A126801334FF00009934288F80090EA
:10CD08003B600BDD19492046FCF796FEC7F80090FA
:10CD1800FFF7C0F9FFF784FAFFF7EAF9144B326816
:10CD28001B689A4203DD00233360FFF751FAFCF7D2
:10CD380017FDFDF759FECBE7DF2702006C2C020038
:10CD4800E42D0020C5BC0100A9BC010099BC01006C
:10CD5800DFBE0100DDBE0100EC270200042E00202A
:10CD6800442F00203C2F0020482F0020FD270200E0
:10CD7800082E00200369C1688B429DBF8268D218C3
:10CD880002F1FF3203F1FF3394BF501A581A70476B
:10CD98002DE9F041D0E902670446F61B4068964247
:10CDA80088461546384405D904F08AFC3D44E560B8
:10CDB800BDE8F0813246AD1B04F082FC2A4608EB40
:10CDC8000601606804F07CFCF1E72DE9F843C568CA
:10CDD8000646894617464FF000083469B3687068FC
:10CDE800A54228BFE418013C621B5C1BBC4228BF5B
:10CDF8003C46944228BF144649462844224604F03B
:10CE08005FFCB3682544AB4208BF00253F1BA04424
:10CE1800A144F560E1D14046BDE8F88310B5114C56
:10CE2800114AA2610223C4E90433104BE361A264EE
:10CE38004FF400730E4A2362E264002310220D4966
:10CE4800A362E01D6362E362A3656365E36522652F
:10CE580004F092FC0849204604F08EFC2023A371BC
:10CE680010BD00BF842F0020302802000C300020A5
:10CE7800FC2F0020392802003D280200F8B5184C84
:10CE8800182300FB033503FB00402544C46A012C2A
:10CE98000F46164611D003D3022C1BD000240AE0FB
:10CEA8002846FFF767FF864205D8324639462846A6
:10CEB800FFF76EFF34462046F8BD2846FFF75AFFB5
:10CEC8008642344628BF0446224639462846FFF79C
:10CED8005FFFF0E72846BDE8F840FFF776BF00BFE0
:10CEE800842F0020FFF79ABF6DDF704779DF704706
:10CEF8007DDF704764DF70472DE9F74F0C9CBDF864
:10CF080034B02788002580468A4691462E46B8F8D0
:10CF18000020B2420BDC35B12288013AD21B92B212
:10CF2800FF2A39D8DA55002003B0BDE8F08FD8F8C9
:10CF3800042052F82600019000220DF1030101A8F7
:10CF4800FFF7D8FF0028EFD19DF803204A4521D1EB
:10CF58002288002D14BF0020022002EB09010144A1
:10CF6800594519DC3DB9013292B2228003F802A07A
:10CF780022880132228022880DF103011A4401A877
:10CF8800FFF7B8FF0028CFD121889DF803200A4475
:10CF9800228001250136BAE70C20C5E72DE9F341C7
:10CFA800089CBDF824501746CDE9004502220646E4
:10CFB800FFF7A2FF48B9102239463046CDE90845A7
:10CFC80002B0BDE8F041FFF797BF02B0BDE8F081BD
:10CFD8002DE9F04F00231688138090F82D3085B086
:10CFE80007460D46144653B3082E01D80C2026E1F7
:10CFF80002A8FFF779FF002840F021811388082252
:10D00800CA54238801339BB21B222380CA54208828
:10D01800013080B2208006220DF10901284404F075
:10D028004FFB23889DF8082006339BB212F0FE02BE
:10D0380018BF01222380EA54238801332380BB7858
:10D04800FBB123880433B342D0D802A8FFF74EFFC0
:10D05800002840F0F48023880322EA54238801330F
:10D068009BB219222380EA542388BDF80820013393
:10D078009BB2E9182380EA54120A4A7023880233C3
:10D088002380FA789AB12388D91CB142AED80221FC
:10D09800E954238801339BB201212380E954238872
:10D0A8000B449BB22380EA5423880B4423807A687C
:10D0B800AAB12388D91CB14298D8022192F900203C
:10D0C800E954238801339BB20A212380E954238839
:10D0D80001339BB22380EA542388013323803B89A0
:10D0E800002B40F0A0803B8A5BB1CDE900462B467F
:10D0F8000722032107F11000FFF750FF002840F036
:10D108009E803B8B5BB1CDE900462B46152214214E
:10D1180007F11800FFF742FF002840F090803A6AB4
:10D12800002A40F08F80D7F82480B8F1000F30D063
:10D13800B8F804302188981C8A1C0244B2423FF691
:10D1480055AFFE283FF652AF03336B5423880133A3
:10D158009BB2FF222380EA54238801339BB22380A9
:10D16800B8F80020EA54E918120A4A7020880230F8
:10D1780080B22080B8F804205AB1D8F808100029E5
:10D188006AD0284404F09CFA2388B8F80420134491
:10D19800238097F82C30002B40F0998038780028AD
:10D1A8004DD03B88012B57D021888A1CB2423FF6CC
:10D1B8001DAF012805D17B7802330B449E42FFF452
:10D1C80015AF023E761A04A9B6B221F8086DA81860
:10D1D800FFF78EFE98BB3978BDF80820022900F0C9
:10D1E800BB807B78934202D3B24240F2B3800129DC
:10D1F80040F0B4809BB29E42C0F0B080ADF80830D9
:10D208000821BDF80830FE2B3FF6F0AE2288013326
:10D21800AB542288013292B22280A9542288134446
:10D22800238000200BE0CDE900462B460622022190
:10D2380007F10800FFF7B2FE00283FF454AF05B02D
:10D24800BDE8F08FB4F800C00CF10603B3423FF616
:10D25800CDAE1188052901D80720F0E76FF4486E94
:10D2680001EB0E039BB24FF27D3E7345F4D9538810
:10D27800052BF1D96FF44860181880B27045EBD9C6
:10D288004FF6FF70814203D0834201D09942E3D820
:10D29800052305F80C30238801339BB21221238023
:10D2A800E954238801339BB223801188E954E81894
:10D2B800090A4170238802339BB223805288EA54BA
:10D2C800E918120A4A702388023323802BE7BB6AC5
:10D2D800002BC1D04FF000094FF00C0A4FF0160B8D
:10D2E80097F82C305FFA89F293427FF657AFB96A04
:10D2F8000AFB02F201EB0208B8F80430981CFE2879
:10D308003FF674AE208803332B54238801339BB235
:10D31800238005F803B0238801339BB223808A5AFF
:10D32800EA54E918120A4A702088023080B2208034
:10D33800B8F804205AB1D8F8081000298CD028442D
:10D3480004F0BEF92388B8F804201344238009F1B7
:10D358000109C5E7092154E7B242FBD9ADF80860D5
:10D368004EE770B5C0B14AB116880024B44203D361
:10D3780005196D789D4208D0A14201D800200BE024
:10D38800055D01352C44A4B2F0E7A142F6D9A31CEF
:10D398001380005D013880B270BD37B502AC002340
:10D3A80024F8023D134622460546FFF7DAFF10B17E
:10D3B800BDF80600284403B030BD72DF704773DF44
:10D3C800704738B5012204460D46B0F89810D0F8D9
:10D3D8009400FFF7E2FF00B1057004F13C0204F18C
:10D3E800940104F15400BDE83840FFF7E6BF80F827
:10D3F80030107047F8B504460F46002968D0002859
:10D4080066D091F87A301BB191F89830002B61D131
:10D41800D7F8A030042B5DD0D7F89C30042B59D016
:10D4280007F178060FCE4FF0000C251D84F802C0D6
:10D438000FC50FCE0FC596E8070085E8070084F8EA
:10D4480030C0D7F8A4306363D7F8A830A3634FF689
:10D45800FF7504F19403C4F8A430A4F8A850072277
:10D46800614604F1AA0004F054F923780BB984F852
:10D478005450224604F155011F25C4F8941038462B
:10D4880022F8985FFFF7A4FD08BB224604F1740157
:10D49800C4F89C1007F13C0022F8A05FFFF798FD44
:10D4A800A8B9A269A4F8482001236269206484F815
:10D4B80050006264014684F8513084F83C3004F12D
:10D4C8003C0204F15400FFF778FF00B92370F8BD5F
:10D4D8000E20FCE70720FAE7F8B5077804460D4662
:10D4E800002F00F0FA8000F1AA06A170072200219F
:10D4F800304604F00EF9E38813B1A378012B04D069
:10D50800E3794BB1A378022B06D1636BA3B1012257
:10D5180084F8B12008209847334604F1B00113F885
:10D52800012F12B99942FAD117466B1E032B53D813
:10D53800DFE803F0050B0F1284F8B130ECE7A379AC
:10D548001BB194F8243003B95FB9E3790BB1002F0C
:10D5580044D1237A002B43D1637A002B0CBF0025DA
:10D568000425636BA570002B3CD0033D012D39D8F1
:10D578006279002A36D094F8B220002A32D184F891
:10D58800B420012284F8B3200720984704F13C0511
:10D5980018220021284604F0BCF8E36A0122591E2B
:10D5A800914288BF134684F8513094F8243084F8A7
:10D5B8003C2033B1914296BFA36A84F8522084F884
:10D5C8005230A278002384F85030042A1BD8DFE8B0
:10D5D80002F06C0D223252000025C2E70225C0E796
:10D5E8000325BEE7002384F8B330CFE7C4F8A4309E
:10D5F800C4E910630223012284F83C30802384F8B4
:10D608003120A4F84830A378002B51D1636B002B4C
:10D618005FD100205CE0022384F83130032384F8D2
:10D628003C302369A4F848300023C4F8A430E368E8
:10D6380026646364E7E763696364A369A4F8483010
:10D648006379B3B194F8B2309BB994F8B43083B12C
:10D65800022384F8503004212046FFF7B2FE002848
:10D66800D1D1052384F8313004F19403C4F8A430EF
:10D67800C9E70323F6E7E3696364236AA4F848303B
:10D68800637983B194F8B2306BB994F8B43053B17C
:10D69800022384F8503004212046FFF792FE002828
:10D6A800B1D10623DEE70423DCE784F83130AAE7AA
:10D6B8002A46D4F8A41004F15400FFF77EFE38B9C6
:10D6C80094F8301094F85400FFF779FE00289DD0A4
:10D6D800F8BD94F8310098479BE70820F8E70388DD
:10D6E800112B10B50C460AD0262B1FD0102B05D1B4
:10D6F800C37B012B02D18388A1F8A83010BD00227A
:10D70800838881F8B220B1F8A8209A42F6D10B7923
:10D71800002BF3D101212046FFF7DEFE0028EDD0D3
:10D72800A36B002BEAD0BDE810401847037A013BF1
:10D73800012BE3D889780523013191FBF3F303EB3F
:10D748008303C91AC9B2E6E7704775DF704776DF09
:10D7580070477ADF70477BDF70470000034B1A88F9
:10D7680082420CBF18460020704700BF28320020B4
:10D77800024B9B6903B11847704700BF0C32002069
:10D7880037B585B22846FFF7E9FF034670B1164C56
:10D79800017A227B91420BD200F10A012846FFF759
:10D7A800D4FFE8B1112801D0FFF7E2FF03B030BD84
:10D7B800237C0022027243B13B212846FFF7C7FFB2
:10D7C80030F0080301D0FFF7D3FF6369002BEDD0D9
:10D7D80000228DF80420ADF8065001A89847E5E727
:10D7E8001A7A01321A72E1E70C32002013B50B469F
:10D7F800497A0F4C024669B9D4E901101C7A002C09
:10D8080018BF01465868FCF71DFD08B1FFF7B0FFC7
:10D8180002B010BD002119726369002BF8D00121F4
:10D82800ADF806008DF8041001A89847F0E700BF8E
:10D838000C3200208388B3F5FA7F28BF6FF4F972A1
:10D8480030B528BF9C1805884A8838BF00249542FF
:10D858000CD84088904209D38A88A24206D303F2A2
:10D86800F310904234BF0020012030BD0020FCE7B7
:10D878000388112B70B5014648D002D8102B1ED052
:10D8880070BD122B52D0502BFAD12F4BC288DB8996
:10D898009A42F5D1038A022BF2D186883046FFF7E7
:10D8A8005DFF05460028EBD001F1120000F05FF99A
:10D8B80030BB6868FCF70AFD0028E1D009E0C37BAB
:10D8C800012BDDD14FF6FF70FFF748FF054620B961
:10D8D8000420BDE87040FFF74BBF1C4A8E880680C5
:10D8E800002303721368C5F80A300A30536843608E
:10D8F8001031FFF79FFF144B6872DB89002BBFD1F3
:10D9080029463046BDE87040FFF770BF8088FFF7B2
:10D9180025FF04460028B3D04068FCF7D7FC08B1BF
:10D92800FFF726FF4FF6FF732380A9E78688304666
:10D93800FFF714FF05460028A2D008310A30FFF788
:10D9480079FF6872DCE700BF0C3200203C3200200F
:10D95800F8B5064650B305460FCD154F3C460FC4E3
:10D9680095E8070084E807003068124B3B60B8B1BF
:10D97800FFF7EFFEC8B931680A681A604A685A604A
:10D988000D480E4A4FF6FF7303800D4B40F8043FD5
:10D998000021FCF745FC002814BF0320002004E008
:10D9A8001846FFF7D8FE0028EAD0F8BD0E20FCE79D
:10D9B8000C3200203C3200202832002089D7010098
:10D9C8004432002073B50191019C06466CB10025D4
:10D9D8002C46294601A8FCF7D6FC18B106EB4403EF
:10D9E80001349D800135142DF3D13046346002B0E6
:10D9F80070BD00002DE9F04303888488112B8DB099
:10DA0800064640D01A2B43D0102B16D1294DAB68AF
:10DA18000CA8DB4340F8303D55F8041FFCF7DCFC4C
:10DA2800009901A8FFF7CEFF0027019B9F4207D36B
:10DA3800132C18D90420FCF76FF90DB0BDE8F0835A
:10DA480001AB03EB47034FF00008B3F8049005EB74
:10DA58000800494608F10408FCF78BFCB8F1740F7C
:10DA6800F5D10137E1E721461348FCF779FC214657
:10DA78001248FCF775FCF37B012BDED010482146D9
:10DA8800FCF76EFCD9E70C482146FCF772FCD4E79A
:10DA9800057A0C482D09012D214606D9FCF760FCB2
:10DAA800022D21460848F0D0EAE7FCF762FC21463F
:10DAB8000548EAE7643200206C3200206832002012
:10DAC800703200207432002078320020132801467A
:10DAD80002D80248FCF757BC002070476832002083
:10DAE80010B50446FFF7F2FF002814BF20461420A3
:10DAF80010BD70B5054616460AB90E2070BD002344
:10DB080013600028F9D00368002BF6D0C38813F0FF
:10DB180003040FD10846FFF7E3FFC0B214280BD067
:10DB28002B7983420AD9EB882A6800FB03203060EE
:10DB38002046E3E70720E1E70520DFE70420DDE7EB
:10DB4800AADF7047002301380B70042806D8DFE8E5
:10DB580000F00306080A0C0011230B7070472123FC
:10DB6800FBE73123F9E71223F7E72223F5E70078EB
:10DB780000F001007047F0B58B7891B005460C466F
:10DB8800164603B9012303228DF80E30002123889D
:10DB9800ADF80C30684603F0BCFD6946607CFFF7C1
:10DBA800D1FF0DF10101A07CFFF7CCFF9DF80230F9
:10DBB800E27B62F3C303227C62F30413227B62F3E9
:10DBC8000003227D002A14BF0222012262F34203CD
:10DBD80000211C2209A88DF8023003F09AFD637B0E
:10DBE80013F0300F15D002AF03220021384603F09E
:10DBF80090FD0DF10901E07CFFF7A4FF11238DF8DA
:10DC080008309DF80A300E97012262F342038DF81E
:10DC18000A30637B8DF824301422A37B8DF82530DD
:10DC2800002104A803F075FD03AB0493A388ADF8A5
:10DC38001C30A368CDF814D01BB1E288ADF81820C9
:10DC48000893A369002B2ED001AF03220021384688
:10DC580003F05FFDA3691A88ADF82C205A88187B59
:10DC6800ADF82E2039465A680A920D97FFF76AFFD9
:10DC7800A3690DF10501587BFFF764FFA2699DF8C0
:10DC88000630917A61F3C303D17A61F30413117AF0
:10DC9800927B002A61F3000314BF0222012262F37F
:10DCA80042038DF80630E36903B10C93334604AAA6
:10DCB80009A92846FFF744FF11B0F0BDA5DF70475A
:10DCC800B5DF704770B14FF0F7130360FB230371A2
:10DCD800F723C380172303810023C1608372C372B3
:10DCE800184670470E20704730B1A1F11703E02B9A
:10DCF80004D80180002070470E2070470720704725
:10DD0800838837B50C4683B90288112A64D00ED8A7
:10DD1800102A3ED0A37A43B1E1880020FFF7CEFF56
:10DD280000287AD10123A072E37203B030BD3A2AE9
:10DD380058D0552AEED1C288C988A372172A38BF8D
:10DD480017228A4228BF0A4622811846FFF7B8FFE1
:10DD580060B1FCF7ADFE394A394B3A499B1ADB08EA
:10DD68001B04024643F00100FBF76AFEE27A002A30
:10DD7800D0D1E368002BCDD040F67721ADF8022052
:10DD88002289ADF80010ADF804206946204698476E
:10DD9800C0E7C37B012B04BF0B88CB80C9882389CC
:10DDA8008B42B7D20020FFF789FF10B90123E37235
:10DDB800B0E7112802D10123A372ABE7FCF778FE84
:10DDC8001E4A1F4B20499B1ADB081B04024643F0DE
:10DDD8000100FBF735FE9DE7F722CA8017220A816A
:10DDE8008B72E4E74289C988E5688A4228BF0A46F7
:10DDF800172A38BF1722228165B1E17A51B140F65E
:10DE08007721ADF80010ADF80230ADF8042069466E
:10DE18002046A8470023E372CEE7112885D0FCF7F7
:10DE280047FE064A064B08499B1ADB081B040246B4
:10DE380043F00100FBF704FE77E700BFD01F0200A4
:10DE4800182002007528020044280200B0DF70473D
:10DE580066DF7047034610B500214088FFF7F8FFDA
:10DE6800024608B91A7210BD112801D10122F9E73A
:10DE78005B68BDE81040184760B159B10378DE2BE4
:10DE88000AD00B684360DE2303704FF6FF734380AC
:10DE9800002070470E2070470820704728B103788B
:10DEA800DE2B04D14180002070470E2070470820E7
:10DEB8007047F0B5054685B00C46F1B1E8B10B786E
:10DEC800DE2B1AD182884B889A4204D10B7A13B17F
:10DED8000846FFF7BFFF2B88112B32D0512B0ED0ED
:10DEE800012B0AD12B7A012B07D1A988628891428C
:10DEF80003D123722046FFF7ADFF05B0F0BDAE8811
:10DF08006388B342F9D1AF79022FF6D1AD7B2B1FCD
:10DF1800022BF2D800211022684603F0FAFB052DE7
:10DF280014BF4FF4C0730023694630468DF8007063
:10DF3800ADF80430FFF78AFF0028DED06368984701
:10DF4800DBE76388AA889A4204BF4FF6FF736380B1
:10DF5800D3E7A8DF7047ADDF7047AEDF704762DFF9
:10DF6800704770B505468AB00C46002963D0002872
:10DF780061D00388502B38D0572B73D0102B5AD12F
:10DF88000AAA0026818842F8246D6069FFF7B1FD6E
:10DF9800082231460DEB020003F0BBFB022302AA64
:10DFA800218AA888CDF80CD00293FFF7D4FF002867
:10DFB80041D1A369002B3ED00398FFF7D8FD002874
:10DFC80039D0019B0BB101221A701822002104A834
:10DFD80003F09FFB02238DF81030AB88ADF81830A2
:10DFE800019B05940793A36923E08188606902AACD
:10DFF800FFF77FFD1822002104A803F08AFBAB88F5
:10E00800ADF818302189EB88029A05949942079255
:10E0180018D12E8A022E15D16AB105F11200FFF728
:10E02800A6FD029B48B101221A708DF81060A36901
:10E038000BB104A898470AB070BD187003238DF877
:10E048001030F4E7A2899A42F5D1A369002BF2D0E7
:10E0580000228DF8102005F1120208922A8AADF8E4
:10E068002420E6E78188606902AAFFF742FD01469D
:10E078000028E0D1029B1B78002BDCD0182204A8D2
:10E0880003F047FB01238DF81030AB88ADF818304A
:10E098000594029BA6E70000F0B5374B8FB002AAA3
:10E0A80005460E4603F1100C1746186859681446C1
:10E0B80003C4083363452246F7D1002D59D0002EFA
:10E0C80057D03368AB6129463846FFF748FF002828
:10E0D8004DD12A460EA9012412F8023B21F8344DED
:10E0E80020468DF80630FFF734FF00283FD101465F
:10E0F800202206A803F00DFB2A460223ADF81830AB
:10E1080012F80C3B8DF81A309DF825301B4E6888A4
:10E11800079643F00C0306A98DF824408DF82530A6
:10E128008DF829408DF82A40FFF725FDF8B90146FA
:10E13800202206A803F0EDFA2A460323ADF818308A
:10E1480012F8043B8DF81A309DF825306888079638
:10E1580043F0100306A98DF824408DF825308DF87A
:10E1680029408DF82A408DF82B40FFF704FD0FB0A9
:10E17800F0BD0E20FBE700BFB1280200F40001004B
:10E18800F0B50F4687B016461C46054618B301AAD7
:10E1980019464069FFF7ADFCD8B94FF6FF739C42AA
:10E1A8001BD0019BCBB11B78CBB13388F42B18D88B
:10E1B8000146102202A803F0ACFAAB88ADF808308B
:10E1C80002A901232046CDE904678DF80A30FFF73C
:10E1D800C4FE07B0F0BD0E20FBE70520F9E70820D4
:10E1E800F7E70720F5E710DF7047000013B504468E
:10E1F80009496846FCF727FC019808B902B010BD28
:10E20800D0E900312046984718B16846FCF725FC4C
:10E21800F2E71120F2E700BFD028020013B5044648
:10E2280007496846FCF70FFC019B0BB902B010BD0B
:10E238002046D3E9002190476846FCF70EFCF3E737
:10E24800E82802000B4991F816335A09EC231341C8
:10E25800DB0706D5084B9A683AB94FF480030B6080
:10E26800704742F20200FBF757BD1A6842F4800279
:10E278001A60704700E100E0542C0020F7B5184FF1
:10E288003C785CBB174E012520463570FFF7AEFF82
:10E29800112820D02046FFF7C1FF134B18680190C2
:10E2A80002A800F8054DFCF721F8104901A8FFF76E
:10E2B8009AFF0446B0FA80F0400938709DF80300D0
:10E2C800FCF738F83CB90A4B34701C70FFF7BAFFFA
:10E2D8002846FFF7A3FF204603B0F0BD0824FAE75D
:10E2E800DD320020DC320020C92802003D9D0100FB
:10E2F800DE320020014B1878704700BFDD32002065
:10E3080007B508496846FCF79EFB019B13B903B0A3
:10E318005DF804FBD3E9002090476846FCF79DFBB5
:10E32800F3E700BFDC280200FFF7EABF60DF7047B1
:10E3380069DF704761DF704730B5114DADF5017D7C
:10E348004FF4FA740DF1020103A8ADF80240FFF78B
:10E35800F1FF70B9294601A8FCF775FB029B002B59
:10E36800F0D003A8D3E90021904701A8FCF775FB7A
:10E37800F4E7052801D0FBF7CFFC0DF5017D30BD92
:10E388006C2B0200024B1B780BB1FFF7D5BF70470F
:10E39800DF32002030B5054685B00C46002900F074
:10E3A800B080594B0B600C22002101A803F0B1F991
:10E3B80001238DF8063022688DF80450062301A940
:10E3C8002020ADF80830FFF7B3FF60B1FCF770FB11
:10E3D8004E4A4F4B4F499B1ADB081B04024643F039
:10E3E8000100FBF72DFB0C22002101A803F091F995
:10E3F800012322688DF8053001A94020FFF798FF16
:10E4080060B1FCF755FB414A414B43499B1ADB0875
:10E418001B04024643F00100FBF712FB0C2200210B
:10E4280001A803F076F9F72322688DF8045001A9B2
:10E438002320ADF80630FFF77BFF60B1FCF738FB0F
:10E44800324A334B35499B1ADB081B04024643F01A
:10E458000100FBF7F5FA0C22002101A803F059F995
:10E46800012022688DF8040001A9FFF761FF60B15F
:10E47800FCF71EFB254A264B29499B1ADB081B047F
:10E48800024643F00100FBF7DBFA0C22002101A849
:10E4980003F03FF94FF4B0632268019301A9A1206A
:10E4A800FFF746FF60B1FCF703FB184A184B1D49FC
:10E4B8009B1ADB081B04024643F00100FBF7C0FA75
:10E4C8000C22002101A803F024F99DF804302268E9
:10E4D8006FF3000301A9A0208DF80430FFF728FF8F
:10E4E80068B1FCF7E5FA094A094B0F499B1ADB08A2
:10E4F8001B04024643F00100FBF7A2FA002005B016
:10E5080030BD0E20FBE700BF00250020D01F020011
:10E5180028200200FC280200422902008E2902005D
:10E52800D5290200212A0200722A0200F8B50646FF
:10E538000768FFF7FBFE3368BB4205461DD9194B38
:10E54800194C1A49E41AE408240444F00204204649
:10E55800FBF772FA336816493A462046FBF77AFA0F
:10E568004FF080533268D3F80C3112499B0203F103
:10E5780000539A1A2046FBF763FA25B90E4B01227D
:10E588001A702846F8BD2846FCF792FA054A064B49
:10E598000A499B1ADB081B04024643F00100FBF7FB
:10E5A8004FFAEEE7D01F020028200200C52A020019
:10E5B800F42A0200252B0200DF3200204F2B020034
:10E5C8004BDF70471FB50D4C01A8FFF7F9FF70B975
:10E5D800214602A8FCF737FA039B002BF4D00198D8
:10E5E800D3E90021904702A8FCF737FAF4E7052899
:10E5F80001D0FBF791FB04B010BD00BF842B0200D3
:10E6080007B501F061FD4FF0FF330093192217237E
:10E618001A21044800F098F800F0E0F8002003B050
:10E628005DF804FBD434002070477047024B53F860
:10E63800203003B118477047E032002030B51F2959
:10E648009DF80C30049C11D80160037101F5E0704D
:10E658007AB933B1012B0AD0022B4FF0000308BF5F
:10E6680001234FF0A0429B0042F8203030BD032325
:10E67800F7E74FF0A0430325012A43F82050F5D1CE
:10E688008A4014B9C3F80C25F0E7C3F80825EDE76C
:10E6980002681F2A73B505460C4628D83BB31A49A9
:10E6A80041F822309DF8063003F0FE036FF3410372
:10E6B8008DF80630FCF744FD20B9FCF709FD08B1D8
:10E6C800FBF72AFB012C2E6813D18DF804402B7917
:10E6D800ABB90E4A8DF8053001A93046FCF73AFD72
:10E6E80008B1FBF719FB01213046FCF7ABFD02B07E
:10E6F80070BD022CE9D003238DF80430E7E7012B25
:10E708000CBF03230123E4E7E032002035E60100D3
:10E7180002681F2A09D8012393404FF0A04211B97B
:10E72800C2F80C357047C2F80835704703681F2BCC
:10E738009FBF4FF0A042D2F81005D84000F001006A
:10E7480088BF002070470000F0B51E46124B0446F3
:10E758000F4694460FCB85B06D4685E80F000F4AEB
:10E7680062604FF00042002302920A9A8DF803205B
:10E778002370237223731A46294620468DF802C057
:10E788008DF801708DF80060FDF772F808B1FBF79D
:10E79800C3FA05B0F0BD00BF9C2B0200003000405A
:10E7A80010B588B00446ADF8061008B9FBF7B4FAFE
:10E7B8000DF106030DF10F0204930123CDE90623A1
:10E7C80004A90022201D0593FCF7AAFF08B1FBF756
:10E7D800A3FA9DF80F0008B010BD000037B50F4D23
:10E7E80000240122CDE90042234628461821FFF7DC
:10E7F80025FF23462246A5F16400CDE900441B21EC
:10E80800FFF71CFFCDE90044234622460B21A5F162
:10E818005800FFF713FF03B030BD00BF08350020D4
:10E828000346032201210148FFF732BFB03400201C
:10E8380037B50F4D00240A2001F0CEFB23460122F4
:10E8480013212846CDE90044FFF7F8FE142001F013
:10E85800C3FB2846CDE90044234622461321FFF78F
:10E86800EDFE0A2003B0BDE8304001F0B5BB00BFA3
:10E878009834002010B5034C2046FFF757FF0128B5
:10E88800FAD010BDA434002038B50546FFF7F2FFD2
:10E8980000212848FFF73CFF1D212748FFF780FF8C
:10E8A80009212548FFF77CFF20212348FFF778FF3F
:10E8B80000212148FFF774FF00211F48FFF770FF70
:10E8C800012104461B48FFF723FFEDB1FFF7D2FFF4
:10E8D80000211848FFF71CFF0D211748FFF760FFBC
:10E8E80009211548FFF75CFF20211348FFF758FF5F
:10E8F80044F00801C9B21048FFF752FF01210D4842
:10E90800BDE83840FFF704BFFFF7B4FF29460948C0
:10E91800FFF7FEFE0D210848FFF742FF09210648D0
:10E92800FFF73EFF20210448FFF73AFF04F0F70104
:10E93800E1E700BF08350020D434002038B50D4C7D
:10E94800FFF772FEA4F1340520460021FFF7E0FE30
:10E95800C0212846FFF724FF00212846FFF720FFA3
:10E9680020460121FFF7D4FEFFF784FFBDE83840B9
:10E97800FFF75BBE08350020F8B5154606460C467D
:10E9880000F042FF00210E480E4FFFF7C1FE31464E
:10E998000C48FFF705FF013C2544AC4209D1012191
:10E9A8000748FFF7B5FE842E09D0BDE8F840FFF709
:10E9B80061BF14F8011F3846FFF7F2FEEDE7F8BD16
:10E9C80008350020D434002070B5154606460C469C
:10E9D80000F01AFF00210F48FFF79AFE31460E4853
:10E9E8000D4EFFF7DDFE00210B48FFF7D9FE013C75
:10E9F8002544AC4207D101210648FFF789FEBDE84E
:10EA08007040FFF737BF00213046FFF7C9FE04F812
:10EA1800010FEEE708350020D434002070B5154604
:10EA280006460C4600F0F0FE00211148FFF770FE84
:10EA38000D211048FFF7B4FE310A0E48FFF7B0FE6B
:10EA4800F1B20C480B4EFFF7ABFE013C2544AC423B
:10EA580007D101210648FFF75BFEBDE87040FFF7CC
:10EA680009BF14F8011F3046FFF79AFEEFE700BF11
:10EA780008350020D434002007B502AB012203F882
:10EA8800011D1946FFF7CAFF03B05DF804FB00003B
:10EA980070B5154606460C4600F0B6FE0021134830
:10EAA800FFF736FE1D211248FFF77AFE310A10489B
:10EAB800FFF776FEF1B20E480D4EFFF771FE00210A
:10EAC8000B48FFF76DFE013C2544AC4207D10121FC
