:020000021000EC
:109000000000012079930100619301006393010046
:10901000659301006793010069930100000000005F
:109020000000000000000000000000006B93010041
:109030006D930100000000006F9301007193010027
:10904000B5B0010073930100DDB40100D5B5010096
:10905000E5B501007393010061B301007393010052
:1090600073930100739301007393010073930100E4
:1090700073930100739301007393010073930100D4
:1090800073930100559F01007393010073930100D6
:10909000F19F01007393010049F0010073930100F7
:1090A00073930100739301007393010073930100A4
:1090B00073930100739301000000000000000000A2
:1090C0007393010073930100739301007393010084
:1090D000510D020073930100739301000000000022
:1090E0000000000000000000000000000000000080
:1090F0000000000000000000000000000000000070
:10910000000000000000000000000000000000005F
:10911000000000000000000000000000000000004F
:10912000000000000000000000000000000000003F
:10913000000000000000000000000000000000002F
:10914000000000000000000000000000000000001F
:10915000000000000000000000000000000000000F
:1091600000000000000000000000000000000000FF
:1091700000000000000000000000000000000000EF
:1091800000000000000000000000000000000000DF
:1091900000000000000000000000000000000000CF
:1091A00000000000000000000000000000000000BF
:1091B00000000000000000000000000000000000AF
:1091C000000000000000000000000000000000009F
:1091D000000000000000000000000000000000008F
:1091E000000000000000000000000000000000007F
:1091F000000000000000000000000000000000006F
:10920000364937480A1A02D0072291438D4635491C
:1092100035480A1A06D00722914381F309880222B1
:1092200082F3148831483249324A00F045F8324816
:109230003249334A00F040F832483349334A00F0AB
:109240003BF833483349344A00F036F83348344960
:10925000344A00F031F834483449354A00F02CF8EB
:1092600034483549354A00F027F835483549002259
:1092700000F02DF834483549002200F028F8344831
:109280003449091A082903DB002202600430016016
:10929000314A90471F482049884205D0026804306F
:1092A00003B4904703BCF7E700208646EC46002055
:1092B00000212A4A9047FEE7884207D0521A05D07B
:1092C000037801300B700131013AF9D170478842BF
:1092D00002D002700130FAE7704700000000012060
:1092E00000F800200000012000000120A847020033
:1092F0000025002070250020D8930100D89301009C
:10930000CC360200A84702000025002000250020DE
:10931000C8370200C8370200C8370200C837020049
:10932000C8370200C8370200C8370200C837020039
:10933000A847020018480200702500207025002070
:109340007025002068390020683900206C39002021
:109350006C3900206C410020A1930100B9D20100BA
:10936000FEE7FEE7FEE7FEE7FEE7FEE7FEE7FEE7D5
:10937000FEE7FEE7704700BF1048804710484FF0F7
:109380000701884385460F4880470F48016841F42C
:1093900070010160BFF34F8FBFF36F8FFFF730BFD6
:1093A0000A480B490B4A884207D0521A05D0037865
:1093B00001300B700131013AF9D17047759301000A
:1093C0000000012019AC010088ED00E0C837020060
:0893D00000250020002500200B
:1093D80000487047603900207047000007B5044B0B
:1093E8000093044A402300F032F803B05DF804FB10
:1093F80001940100712500202DE9F843894614469F
:10940800B2B10F4B0F4E0325002743F00108224647
:1094180009EB0701002004F0BDFB0744241A48B9F2
:1094280033782BB14FF47A40C047013D02D13570F3
:10943800BDE8F88301233370002CE8D1F8E700BFBA
:10944800D037020070250020704704F0D7BBF0B574
:1094580095B01C46164608460D4601F0F0FA1A9BD0
:109468000D93CDE9086400242346082205A928465F
:109478000A948DF82C400C9401F0FFFA079B029394
:10948800BDF81830ADF80C30BDF81A30ADF80E3014
:109498009DF814308DF8114003F00302012A1DD104
:1094A800BDF81440059EC3F3C203C4F383148DF8BA
:1094B8001030A20008230EA9284601F0DEFAC6F3F0
:1094C800952608AB0093224602AB0EA9304600F061
:1094D800D5FB284601F0B7FA15B0F0BD022AF8D13D
:1094E800BDF81640C3F3C203A4098DF8103008274D
:1094F800082C264628BF08263B4632460EA9284691
:1095080001F0BBFAA41B08AB02AA31460EA83744E7
:1095180000F018FC002CEBD1DBE7000008B5FFF7E2
:1095280094FF0421034800F017FB034B01225A71F2
:1095380008BD00BFB837020000250020037813F0EB
:10954800040216D003F00303012B03D0022B09D029
:10955800012070470A6800880232C0F38310024471
:109568000A60F5E70B684288023303EB92130B603D
:10957800EEE71046704700002DE9F04F89B0054628
:10958800861C08A8484C019200230F4600F8113D9C
:1095980000F018FF23683B60D4E9012313442268D4
:1095A80001339B1A04F21C4704F5836A04F2144839
:1095B800B3421AD3019A0023002A6DD0012262F324
:1095C800010343F0040365F389132168A2689DF839
:1095D8000F000A4003320E4444F82230266000F09F
:1095E80015FF012009B0BDE8F08F0121384600F0D1
:1095F8006AFF504600F07DFF404600F07AFF0DF10B
:1096080020096068D4F808B049F8100D00EA0B008A
:10961800033004EB80004946FFF790FF049BB0B984
:109628000BEA030204EB8202D16805919A1C01330C
:1096380003EA0B0B04EB8B0C01F00303012B0492E0
:10964800DCF80CB020D0022B04D083460BE00BEAE8
:109658000300DDE7BDF816309B0903334FEA1B4BC7
:1096680002EB93030493404600F046FF08B1049BC5
:1096780063605946384600F026FFD4E901231344B5
:10968800226801339B1A93E7BDF81430C3F38313A0
:109698004FEA1B4B1344E5E7022262F3010343F050
:1096A800040365F39F5390E7842600200B4B0C4876
:1096B800FF2210B59A600022C3F81824C3E90022DB
:1096C800C3F8142483F8202401F072F9044610B971
:1096D800044801F01BFA204610BD00BF8426002074
:1096E80034370200F437020030B50A4C71B10A4A27
:1096F8000A49121BD20800239A4201D1002030BD2A
:1097080031F82350854202D00133F5E7034654F877
:109718003300F4E748370200B8370200002500207C
:10972800094B013903EBC000032909D8DFE801F030
:109738000A02040604207047007970474079704790
:10974800002070470220704748370200034BD3E9D6
:109758000030C31A58425841704700BF8426002081
:109768002DE9F04387B0FFF7F1FF0646002840F0E7
:10977800FC807F4DC5F81804BFF34F8F6868AC684C
:1097880006AF47F8100D2040033005EB800039463E
:10979800FFF7D4FE029B18B1D5F81824002A5FD031
:1097A80004EA0302991C013305EB8202234005EB0E
:1097B8008303D268DB68049302F00303022B03924D
:1097C800029162D1BDF80E306A484FEA9318B8F199
:1097D800500FC14628BF4FF0500969F38F1309F1A4
:1097E8000801ADF80E3001F0FBF80746002800F03C
:1097F800A78001F024F903A900230822384601F0C4
:1098080031F9029924EA01060136B600B14535D985
:109818005FFA89F97EB3F6B2A9EB06092140033154
:109828005FFA89F4B146544E05EB810108234A4694
:10983800384601F017F936B109F1080322463146D6
:10984800384601F00FF9029B08F1030803EB98036F
:109858000293D5F81834002B4BD1D5F810445BE0AF
:109868002A689A4204D86A60304607B0BDE8F08397
:1098780004EA030088E740493446D7E7214003312A
:1098880008234A4605EB8101DAE7012B58D1BDF8D8
:109898000C303848C3F38311062928BF062161F329
:1098A800891302318900ADF80C3001F099F80746A8
:1098B800002845D001F0C3F80023082203A9384640
:1098C80001F0D0F80026BDF80C20C2F38312B31CB7
:1098D80096424FEA8303BCD202994A1C21400331C5
:1098E800029205EB81010422384601F0BBF80136EB
:1098F800E9E7384601F0A7F8FFF728FF80F00100F4
:10990800C6B2B1E7E3685B7923B1236839461B68BF
:1099180020469847E3681C68002CF3D1384601F0CC
:1099280092F806A800F8114D00F04CFDD5F818344F
:109938000BB9029B6B609DF8070000F067FDDBE741
:10994800D5F8104454B90D4B0D480E49C01AC0083B
:10995800000440F0020000F06FF8CDE723682046CD
:109968009B689847E3681C68ECE700267CE700BF23
:109978008426002034370200902600204837020051
:1099880078370200003802002DE9F74F284C80464E
:109998000F46924601A9012218469B46D4F8089022
:1099A800FFF7EAFD88B3019D0026A91C5E4506EB7A
:1099B800010234D100211F4800F05AFD80F3100045
:1099C8006A1C02EA090204EB8202000405EA0903A0
:1099D800033340EA1840D06014F8232068F3C50226
:1099E80004F8232034F8232066F3891224F823206E
:1099F80054F82320012167F39F2244F8232061F3C0
:109A080001026FF3820204F8232094F820341BB17A
:109A1800FFF7A6FE0028FBD103B0BDE8F08F09EAE6
:109A2800020204EB82025AF82630D3600136BDE701
:109A380084260020A02A002000231A46FFF7A4BF8E
:109A480013B502AC012344F8042D2246FFF79CFF0E
:109A580002B010BD07B5CDE9002302236A46FFF71F
:109A680093FF03B05DF804FB7FB5CDE90123089BA4
:109A78000393099B04930A9B059301AA0523FFF707
:109A880083FF07B05DF804FB2DE9F3478046304CAF
:109A9800D01C8A46174601A900228008A568FFF74E
:109AA8006BFD002840D0DDF80490A66809F102009B
:109AB800019001362840361AB6000330B74204EB4D
:109AC80080003BD83A46514609F0B6F900212148B2
:109AD80000F0CEFC80F3100009F101032B4004EBE9
:109AE80083034FEA184242EA0040D86005EA0903B6
:109AF800033304EB830214F8231068F3C50104F858
:109B0800231034F823106FF38F1124F82310518891
:109B180067F38F11518014F82320022161F30102A9
:109B28006FF3820204F8232094F820341BB1FFF766
:109B380017FE0028FBD102B0BDE8F0873246514637
:109B480009F07AF9BA1B0AEB060104F10C00BBE72D
:109B580084260020A02A002030B50F49D1F810240F
:109B6800002314463CB9C468237152B9C1F81004E3
:109B78002260184630BDE46825799D4206D02468E5
:109B8800F0E7D268116821601060F2E701330A2B10
:109B9800E7D14FF0FF33ECE784260020094A38B5B7
:109BA8000123D2F8104482F820341D4604B938BD88
:109BB800E3685D71236820465B689847E3681C6822
:109BC800F4E700BF84260020037A052B10B50C4665
:109BD8000FD0437A23B1084A0849204600F0EDFC2B
:109BE8000749204600F0E9FC2046BDE8104000F097
:109BF800D9BC002AF8D0F3E74B38020050380200ED
:109C080070380200C38873B504460D4633B1144A50
:109C180000921449144A284600F0CFFC217A0529FD
:109C28001CD0637A4BB1A088FFF77AFD0F4B10491F
:109C380053F82020284600F0C0FC227A0D4BA0885B
:109C480053F822600021FFF74FFD0B4903463246C7
:109C5800284602B0BDE8704000F0AFBC02B070BD4D
:109C68004B3802005B3802005338020018380200F3
:109C78005038020080380200733802002DE9F043A2
:109C880085B01F460C9D002306460C46904695F865
:109C98000C902B7329463846FFF7B4FFB8F1060F2E
:109CA80009D8DFE808F00412181F283340003146AD
:109CB800284600F082FC002229463846FFF784FF38
:109CC80085F80C9005B0BDE8F08322683146284637
:109CD80000F073FCEFE7D4E900233146284600F092
:109CE8006CFCE8E7A36800933146D4E900232846D2
:109CF80000F063FCDFE7E3680193A3680093314653
:109D0800D4E90023284600F058FCD4E723690293DD
:109D1800E3680193A36800933146D4E900232846F9
:109D280000F04BFCC7E76369039323690293E36878
:109D38000193A36800933146D4E90023284600F034
:109D48003CFCB8E708292DE9F84F80460E4617462F
:109D58001C4636D8002593F80C901D7319461046FA
:109D6800FFF750FFDFF87CA0DFF87CB0AE422AD9BD
:109D780018F805205946204600F01FFC0135082D2B
:109D8800F4D11649DFF864B0204600F016FC00252F
:109D9800AE421DD918F805A0504608F0FDFF00286E
:109DA80014BF52462E225946204600F006FC0135C3
:109DB800082DEDD1012221463846FFF705FF84F82A
:109DC8000C90BDE8F88F5146204600F0F6FBD5E729
:109DD8000349204600F0F1FBE9E700BF46380200DE
:109DE80044380200423802003C3802004838020079
:109DF8001FB50021039001AA44F20100CDE9011129
:109E080000F004F805B05DF804FB000010B572B668
:109E1800FFF7C4FEFFF7A4FC0028FBD1104B114C40
:109E28001149E41AE408240444F00100FFF704FE91
:109E38000E4B1B68DB0700D500BE0D4944F002003D
:109E4800FFF7FAFDBFF34F8F0A490B4BCA6802F4BC
:109E5800E0621343CB60BFF34F8F00BFFDE700BF45
:109E68004837020078370200DF380200F0ED00E0E2
:109E7800EB38020000ED00E00400FA05094A5378C7
:109E880091780133DBB2994208BF002311789942D7
:109E98001FBF03705078182303FB002014BF043041
:109EA80000207047402B002073B5054602A8002407
:109EB80000F8014D0E4600F085FA0DF10600FFF797
:109EC800DDFF90B106700A4B9DF8062045605A7078
:109ED8009DF8070000F09AFA24B9064B4FF4801257
:109EE800C3F80021204602B070BD0424F0E700BF8B
:109EF800402B002000E100E0024B4FF43C6043F0AF
:109F0800010318470039020038B50C4B0C4C4FF4CC
:109F18000032C3F8802001254FF48033C4F8483359
:109F2800C4F808336560FFF7E7FF064BA560002417
:109F38001C60FFF7E1FF044B1C7038BD00E100E036
:109F4800001001405C2C00204D2C0020F8B51F4B60
:109F58001F491B680025C1F84051C1F84451C1F898
:109F68004851C1F84C51C1F80051C1F804514BB3E4
:109F7800D1F8044517490968641A24F07F442F462C
:109F88001A68A24209D8A41A15441A7CDE691AB1C3
:109F98001F74D3E905209047AEB90F4B0F4A1978C3
:109FA80013788B4205D10133DBB2022B08BF0023A3
:109FB800137012780A4B43F822500A4B4FF4801260
:109FC800C3F80021F8BD3346DAE700BF602C002053
:109FD800001001405C2C0020582C0020592C002037
:109FE800502C002000E100E02DE9F74F9E4A9F49E0
:109FF800137809789E4D99423CD00133DBB2022B8D
:10A0080008BF002313709B4912789B4B0F6853F8C5
:10A0180022003B1823F07F4300220B602B68164672
:10A028001446944613B942B12B6006E01968814280
:10A038000ED902B12B60091A19604FF001082B687C
:10A04800DFF83CA200930027BEB9DFF83CB260E01D
:10A05800401A0C44D968C3F800C0D3F81CE031B1E9
:10A068003A1922F07F42C3E90121DE611E4601222E
:10A078007346D7E70026B046E1E73446F6697D4ADD
:10A0880063681268DFF804C2A068991A21F07F415A
:10A09800614500F2A58001442160012222742A68EA
:10A0A8000023C4E90133E361002A40F0A2802C6058
:10A0B800CAE75A1C9BF80210D2B291428BF80020D2
:10A0C80004BF00228BF80020182202FB03B32A6881
:10A0D80019799C68022974D003297ED0012918D1E6
:10A0E800217CB1B9DA6862601A69A2605A699B6911
:10A0F800A361624BE2601B78002BC0D06160BEE7B1
:10A108009C4200F093809946DB69002BF8D100232C
:10A1180023749BF800309BF801209A42C9D12B6820
:10A128002FB9009A934202D1B8F1000F43D0002B07
:10A1380079D0D3F800A0524D4E4BD5F804751C6861
:10A14800DFF84C813E1B98F8003026F07F46033636
:10A158009BB94FF48033C5F84433C5F80433494BF1
:10A168004FF400324FF00109C3F880211A60C5F896
:10A178000090FFF7C1FE88F80090B2452CBF544408
:10A18800A41924F07F44C5F84045D5F80435DB1BF5
:10A1980023F07F43E41B033324F07F44A3420AD90E
:10A1A800D5F80435C5F84035FFF7A6FE354B4FF412
:10A1B8000032C3F80021314B00221A7003B0BDE809
:10A1C800F08F13469146A0E71174D2690123002A43
:10A1D800FAD1002B9DD02A609BE700231946F6E7A9
:10A1E800D31A23F07F43834234BFC31A002323606A
:10A1F80053E721681368994213D8591A1160E2612C
:10A2080055E7091AD8691A4638B1034618688842CA
:10A21800F7D3401A1860184613462160E061DC61E4
:10A2280012E71346F2E7FFF76FFEC4E74C450DD17E
:10A23800D3692B6053B90F4801920121CAF808105D
:10A2480003600E4B1970FFF757FE019AE169236806
:10A25800C9F81C1011B1086803440B602B689A42B6
:10A2680018BF012753E700BF582C0020592C0020A5
:10A27800602C00205C2C0020502C00204C2C00204E
:10A288000010014000E100E0402B0020FEFF7F00AD
:10A298004D2C002010B5FFF737FE114B00200B2284
:10A2A80018809A700F4B18600F4B18700F4B18706E
:10A2B8000F4B4FF48012C021C3F8802183F8141388
:10A2C8001A6002F18042A2F56F221F24C2F80845E5
:10A2D80083F81113074BD2F804251A6010BD00BF8C
:10A2E800402B0020602C0020582C0020592C0020E6
:10A2F80000E100E05C2C0020074B9B784BB132B1A9
:10A3080028B10368187C20B959745A61704707202E
:10A3180070470820704700BF402B00202DE9F74305
:10A328001D4FBB7805460E4690469BB390B3042953
:10A338002ED9436973B3437C02A80024012B00F88B
:10A34800014D0CBF8946A14600F03CF80DF106000E
:10A35800FFF794FDD0B101230370104B4560D3F88B
:10A368000435C0E90498C0E902369DF806307B70D0
:10A378009DF8070000F04AF824B9094B4FF4801201
:10A38800C3F80021204603B0BDE8F0830424EFE7BA
:10A398000724F7E70824F5E7402B002000100140C8
:10A3A80000E100E0064A92783AB130B1426922B140
:10A3B800002202740221FFF777BD0820704700BF12
:10A3C800402B002070B5EFF3108672B60C4A9468E3
:10A3D80001239CB993600B4B0B4DD3F88010294097
:10A3E8001160C3F88050D3F8841051604FF0FF32E9
:10A3F800C3F88420047006B962B670BD0370FAE72A
:10A40800642C002000E100E0FC06FFBD084B9A68C0
:10A4180010B55AB150B9EFF3108172B6054A1C68ED
:10A4280014605C685460986001B962B610BD00BFE2
:10A43800642C002000E100E001F01F024B0901211B
:10A44800914000EB830000F01DB801F01F030122CA
:10A458009A404B0900EB8300D14300F029B84B091F
:10A4680001F01F0150F82300C84000F001007047B8
:10A4780050E8002F0B4640E8003C9CF0000FF7D155
:10A488001046704750E8003F43EA010240E8002CBC
:10A498009CF0000FF6D11046704750E8002F02EAF2
:10A4A800010340E8003C9CF0000FF6D110467047CD
:10A4B80050E8003F03EA010240E8002C9CF0000F3E
:10A4C800F6D11046704750E8003F03EB010240E820
:10A4D800002C9CF0000FF6D11046704750E8003F62
:10A4E800A3EB010240E8002C9CF0000FF6D11046C7
:10A4F80070470121FFF7C6BF0021FFF7CEBF10B597
:10A5080090B1D0E9012301689B1ADBB20A60013BD4
:10A51800DBB2FF2B026802D10020107110BD116858
:10A528004C1C14600B70F2E70E20F7E737B50546B0
:10A5380002A8002400F8014DFFF744FF2A686B6861
:10A54800116899420ED9481E106011F8014CEB6849
:10A55800298A01FB0434AB6811791B1ADBB29942D2
:10A5680038BF13719DF80700FFF750FF204603B06E
:10A5780030BD37B5054602A8002300F8013D0C465A
:10A58800FFF720FF2A681368591C1160E968641AEC
:10A59800298AB4FBF1F41C709DF80700FFF736FF19
:10A5A80003B030BD826810B504462AB1436901681A
:10A5B800006998470023A36010BD0EB403B5039942
:10A5C80029B102AA04AB42F8043D00F06BF802B0CE
:10A5D8005DF804EB03B07047826830B40468551C1A
:10A5E8008560A154D0E901329A4202D330BCFFF70A
:10A5F800D9BF30BC704700002DE9F84F9946DDE916
:10A608000A431746824688460A460126BA420FD2AE
:10A618004E4538BF4E4613F0010B01D164B90024F2
:10A628000125B9F1010F1AD909F1FF397D43F8E77E
:10A63800B2FBF7F20136E9E79B070ED5B9F1000F37
:10A648000CBF30252025A642EAD2013C29465046B7
:10A65800FFF7C2FF002CF6D1E1E72025F3E7B8FBAE
:10A66800F5F39F42E2D9DFF83890B8FBF5F350468E
:10A6780019F8031005FB1388FFF7AEFFB5FBF7F5D4
:10A68800002DF2D1BBF1000F02D00CB1A64201D3CC
:10A69800BDE8F88F20215046013CFFF79DFFF4E705
:10A6A800063902002DE9F74F054690460E46002967
:10A6B80000F03A8116F8011B002958D0252940F0EE
:10A6C800D180002702E047F001071646324612F80B
:10A6D800013B2D2BF7D0302B04D02B2B05D147F085
:10A6E8000407F2E747F00207EFE700242A2B06F1F8
:10A6F80001021BD1D8F80030191D1B68C8F80010DA
:10A708001C44164633782E2B1CD101364FF0000A14
:10A71800314611F8012BA2F13000092814D80A2378
:10A7280003FB0A23A3F1300A0E46F1E712F8013CB5
:10A73800A3F130010929E5D80A2101FB0434303C92
:10A748001646D3E74FF0000A324612F8011B01F013
:10A75800FB0068281646F8D0692916D054D858291D
:10A7680070D00ED825297DD03378002BA2D12B7B31
:10A77800002B00F0D980284603B0BDE8F04FFFF762
:10A7880011BF632968D06429EED1D8F80020D2F827
:10A798000090111D89EAE972C8F80010A2EBE9726D
:10A7A8004FF0010B092A61DCD34538BFD3462CB1E1
:10A7B800B9F1000F01DB790700D5013CBA0702D5D2
:10A7C800BAF1000F04D0FB0702D4002C54D10024A6
:10A7D800B9F1000F58DAC9F100092D212846FFF711
:10A7E800FBFE07F00302022A05D1BAF1000F02D1DD
:10A7F800002C4DD10024CDE9004753460A22494692
:10A808002846FFF7F9FEAFE7732954D016D8702908
:10A81800AAD1D8F800301A1DC8F8002030212846DF
:10A828001C68FFF7D9FE78212846FFF7D5FE0022DD
:10A838000823CDE9003221461022E1E775292FD0FF
:10A84800782991D1D8F800100A1DC8F80020CDE960
:10A858000047534610222CE0D8F800301A1D19780A
:10A86800C8F800202846FFF7B7FE7DE70A230BF15A
:10A87800010B92FBF3F295E7A345A9D220212846C4
:10A88800013CFFF7A9FEA0E77807AAD52B21A5E789
:10A89800A345B0D230212846013CFFF79DFEA7E72B
:10A8A800D8F80010CDE900470A1DC8F80020534623
:10A8B8000A220968A4E7D8F800301A1DC8F8002051
:10A8C800F907D3F8009012D54F46A7EB090B17F8F4
:10A8D800011B41B9A345BFF447AF20212846013CDD
:10A8E800FFF77AFEF6E72846FFF776FEEDE7B9F1BF
:10A8F800000F17D0484608F01DFB0746BC4200D998
:10A9080054B909F1FF3919F8011F00293FF42CAF98
:10A918002846FFF761FEF6E720212846013CFFF7AD
:10A928005BFEEBE74F46E9E703B0BDE8F08F2DE9A2
:10A93800F047B0F806904479D2F800A09DF820803E
:10A9480009FB04F4043C06460AEB0300A0420F4648
:10A9580088BFA4EB030A191DC2F800A0B1FBF9F5E2
:10A9680009FB15114DB9A9EB0104544528BF5446FC
:10A97800BAF1000F04D1BDE8F0873668013DF1E770
:10A9880004317B1970182246B8F1000F0ED0014629
:10A998001846AAEB040A08F04FFAD1452544366850
:10A9A8004C464FF0000128BF5446E1E71946F0E74E
:10A9B800FFF7A5BDF8B546790146721E0546002386
:10A9C80093422D6803D30024A64202D8F8BD013370
:10A9D800F6E70F682846FFF7CCFD01343946F3E760
:10A9E8002DE9F843068ACD1C0746FFF79FFD043E74
:10A9F80035440446B5FBF6F5F0B14FF48073EDB27B
:10AA08008380C680013D076081464FF00008A84555
:10AA180012D23846FFF78AFD064648B163790133FA
:10AA2800637108F10108C9F8000007608146EEE784
:10AA38002046FFF7BFFF34462046BDE8F8830121D2
:10AA48000430FFF740BD10B5012104460430FFF77C
:10AA580045FD10F0FF0F04D12046BDE81040FFF778
:10AA6800A9BF10BD1FB504AC44F8042D0022009204
:10AA78002246FFF75CFF04B010BD1FB504AC44F8D4
:10AA8800042D012200922246FFF751FF04B010BDA9
:10AA980041DF7047064B10B500241C70054B1C6045
:10AAA800BFF35F8F0449054800F039F8204610BD10
:10AAB800782C00207C2C002018390200702C0020F3
:10AAC80007B502A8002300F8013DFFF77BFCF1EE73
:10AAD800103A23F09F03E1EE103ABFF35F8F0A4B61
:10AAE8004022C3F884219DF80700FFF78FFC04F08B
:10AAF8008DFA20B1FFF7CCFF03B05DF804FB20BF4F
:10AB080040BF20BFF8E700BF00E100E083680022F3
:10AB18005A609A60C3E90422DA601A6070470B68C9
:10AB28004A684360934208BF0023016008BF43603E
:10AB38007047436843B10268916852680B44934276
:10AB4800436004BF00234360704700000D4930B5DF
:10AB5800A1F594720225914201D800200EE08B1ACB
:10AB6800DB1093FBF5F302EBC30452F83330834256
:10AB780005D802D204F10802EDE7606830BD21462D
:10AB8800E9E700BF683A020008B5FFF7DFFF024BAC
:10AB9800002808BF184608BD2D3902000C4B1B7849
:10ABA800062B10D10B4B1B681A070CD10A4B1868DF
:10ABB80000F0F003302B08D000F0E000A0F14003D3
:10ABC800584258417047002070470120704700BF25
:10ABD800E00F00F0E40F00F0E80F00F0094B1B78DD
:10ABE800062B0CD1084B1B681A0708D1074B1868AD
:10ABF80000F0F000A0F1300358425841704700209F
:10AC0800704700BFE00F00F0E40F00F0E80F00F01D
:10AC180008B5FFF7C3FF28B17D4B7E4A1B68C3F315
:10AC280004231360FFF7DAFF10B17B4B7B4A1A60ED
:10AC3800FFF7B4FF28B17A4B7A4A1B68C3F3423353
:10AC48001360FFF7CBFF20B1774AD36823F08073F6
:10AC5800D360FFF7A3FF40B14FF080430022C3F851
:10AC68000C21C3F81021C3F83825FFF7B7FF10B13E
:10AC78006E4B03221A60FFF7B1FF40B16C4B0522FF
:10AC88001A6001229A6700229A603F225A60694B33
:10AC98001B78062B50D1684B1B6819074CD1674BA2
:10ACA8001B6803F0F003502B46D14FF08052644BE1
:10ACB800D2F80414C3F82015D2F80814C3F82415E0
:10ACC800D2F80C14C3F82815D2F81014C3F82C15B0
:10ACD800D2F81414C3F83015D2F81814C3F8341580
:10ACE800D2F81C14C3F84015D2F82014C3F8441540
:10ACF800D2F82414C3F84815D2F82814C3F84C1510
:10AD0800D2F82C14C3F85015D2F83014C3F85415DF
:10AD1800D2F83414C3F86015D2F83814C3F864159F
:10AD2800D2F83C14C3F86815D2F84014C3F86C156F
:10AD3800D2F84424C3F87025FFF730FF28B1414BFF
:10AD4800414A1B6803F04F031360FFF727FF48B120
:10AD58004FF08043D3F80024D20744BF6FF00102BC
:10AD6800C3F80024394B1B68062B08D1384B1B68E5
:10AD7800062B01BF374A136843F480631360364AD1
:10AD8800D2F8883043F47003C2F88830BFF34F8F8D
:10AD9800BFF36F8F4FF01023D3F80022002A03DB94
:10ADA800D3F80432002B2FDA2C4B0122C3F80425E8
:10ADB800D3F80024002AFBD04FF010221521C2F846
:10ADC8000012D3F80024002AFBD04FF010231522DC
:10ADD800C3F80422214B1A46D3F800140029FBD0EB
:10ADE8000021C3F80415D2F80034002BFBD0BFF3C0
:10ADF8004F8F19491A4BCA6802F4E0621343CB60BB
:10AE0800BFF34F8F00BFFDE7164B174A1A6008BD06
:10AE1800240300104035014074C007400DF0ADBA5E
:10AE2800440200103C050040F0ED00E0A0050040A1
:10AE380010560040E00F00F0E40F00F0E80F00F0BB
:10AE480000C0004058020010E40E0040300100101D
:10AE5800340100103C17004000ED00E000E0014024
:10AE68000400FA05082500200090D003054A4FF099
:10AE7800A043105CD3F8043523FA00F0C04300F077
:10AE880001007047263E0200044B1A5C01239340E0
:10AE98004FF0A042C2F80C35704700BF263E0200B2
:10AEA800044B1A5C012393404FF0A042C2F80835C6
:10AEB800704700BF263E020008B50020FFF7F0FFEC
:10AEC8000120FFF7EDFF0220FFF7EAFF0320BDE8AE
:10AED8000840FFF7E5BF08B50020FFF7D5FF0120C0
:10AEE800FFF7D2FF0220FFF7CFFF0320BDE808409D
:10AEF800FFF7CABF074A4FF0A041105CD1F80435EC
:10AF08000122824022EA03001340C1F80805C1F873
:10AF18000C357047263E0200014B185C704700BF95
:10AF2800223E020038B5084C04F108030546002803
:10AF380018BF1C4623682BB11A6822605B68284634
:10AF48009847F7E738BD00BF882C002020B9054B8B
:10AF580001225A70FFF7E6BF012802D1014A90701A
:10AF6800F8E77047802C002020B9034B01225A7063
:10AF7800FFF7D8BF704700BF802C002038B50B4CB6
:10AF8800237883B90A486360A3602361E36000F013
:10AF98005FF8054604F03AF808B900F067F80123AD
:10AFA8002370284638BD8525FBE700BF802C00208C
:10AFB80055AF010037B502A80023094C00F8013D40
:10AFC800FFF700FAE368013BE360E56815B900F0B4
:10AFD80061F8A5709DF80700FFF718FA03B030BDB7
:10AFE800802C0020012813B509D003D303281BD0D7
:10AFF80002B010BD0F4B0122C3F88020F8E702A869
:10B0080000230D4C00F8013DFFF7DCF923780BB95C
:10B01800FFF7B4FFE3689DF807000133E3600123FD
:10B02800A370FFF7F3F9E3E700F020F8FFF7C2FF9A
:10B03800DEE700BF00E100E0802C002000F1804046
:10B04800002382B0036003680193019B02B070473C
:10B05800054A13792BB901211060117153711846F3
:10B0680070478520704700BF942C0020084B1A6851
:10B07800D20706D4C02283F800230122C3F8802116
:10B088001A604FF080430122C3F81825704700BFAB
:10B0980000E100E0044B01221A604FF08042D2F830
:10B0A8001834DB03FBD470470C000040124B1B68BC
:10B0B80010B573B14FF48070FFF7C0FF4FF08043B5
:10B0C8000122C3F808230D4B587910B95A711B682F
:10B0D80098470B4B1B6873B14FF48270FFF7AEFFB4
:10B0E8004FF080430222C3F80823044B01201B6859
:10B0F800BDE81040184710BD00010040942C002006
:10B108000401004000F1804000F5C040002382B0F7
:10B11800036003680193019B02B07047800000F14F
:10B12800A040D0F8003723F44033C0F80037D0F8F7
:10B13800003743EA0141C0F800177047054B4FF04C
:10B14800FF32072843F8202084BF1B1883F84820C3
:10B15800704700BF9C2C002010B5174C94F858304D
:10B1680043BBFF21E2180133202B82F83010F9D1BC
:10B178000021C8B2FFF7E2FF01310C29F9D10422FE
:10B1880000210E4807F081FE0D4BC02283F80623EC
:10B198004022C3F880214FF4BE701A60FFF7B2FF57
:10B1A800084B4FF00042C3F80423012384F85830B9
:10B1B800002010BD0820FCE79C2C0020F02C00206B
:10B1C80000E100E000600040034B93F858000030B5
:10B1D80018BF0120704700BF9C2C0020F0B5394DE6
:10B1E8002C18944694F93040002C68DA8E78C6F30F
:10B1F8004006002E15BF0023082308270C27BB4252
:10B2080001D10420F0BD55F8232001324FEA830410
:10B2180041D12F1845F823C087F8303016B9EA18FD
:10B2280082F848008A78560716D4D70735D58200A1
:10B2380002F1A042D2F8006726F00206C2F80067C1
:10B24800214FC60800F0070C012202FA0CF217F889
:10B2580006C042EA0C02BA558A780E7812F0020249
:10B2680024D004F1804303F5C0430002D3F810252D
:10B2780022F4473222F44072C3F810253604D3F87A
:10B28800102500F4F85006F4403630431043C3F854
:10B2980010050020B6E70133B1E74E7800F5E072FB
:10B2A8004FF0A047B60047F82260C9E7083B2B4497
:10B2B80093F8500040EA861683F85060E9E70820C2
:10B2C800A0E700BF9C2C0020F02C002038B5204CB3
:10B2D800251895F93020072A18DD224492F84830BD
:10B2E8009B09032B0DD14FF0A043D3F81035C34071
:10B2F80013F0010F0CBF02210321BDE83840FFF70E
:10B308000DBF012B14BF03210221F6E7D3B2072B8F
:10B318001CD8930003F1804303F5C043D3F810050C
:10B3280040F00100C3F8100502F14000800080B22F
:10B33800FFF7E8FE51B195F9303054F823302BB1BE
:10B34800012303FA02F2034BC3F8042338BD00BFFC
:10B358009C2C0020006000402DE9FF470024584A3B
:10B36800584E594D019401211368A2F5C040012B94
:10B3780080B206D1D6F804330B4202D0FFF7C2FEE2
:10B388000C430432AA424FEA4101EDD14F4B1B68EE
:10B39800012B0AD14FF4BE70FFF7B4FE4FF0A04363
:10B3A80044F00044D3F81035019314F0FF0F1AD07D
:10B3B800474F00250126344210D0AB0003F18043EB
:10B3C80003F5C043D3F81005D3F8101557F8253006
:10B3D800C0F30420C1F3014103B198470135082D9A
:10B3E8004FEA4606E7D1002C66DA00224FF0FF3319
:10B3F800CDE90223DFF8D8900127002634464FF024
:10B40800A04809EB060393F95020531C45D0D2B24B
:10B4180022F0C005E90804A8084402F0070310F860
:10B4280004CC07FA03F31CEA030F36D009EB050C2A
:10B4380092099CF930C059F82CA0BAF1000F0AD132
:10B44800032A2AD10DF1080E1EF801C04CEA030C9C
:10B458000EF801C001E0032AF4D005F5E07110F8F8
:10B468000C0C58F821101842C1F3014105D00229EB
:10B4780013D1032A0BD1114604E003290DD1032A65
:10B4880005D102212846FFF749FE0134E4B2BAF19A
:10B49800000F02D011462846D0470136042EB0D1FD
:10B4A80054B14FF0A043019AD3F81035934203D01A
:10B4B8000193029B0393A0E704B0BDE8F08700BFA7
:10B4C8000061004000600040206100407C61004055
:10B4D8009C2C0020014B1B68184700BFF82C00204B
:10B4E8000D4B984237B50D4610D102A8002300F83D
:10B4F800013DFEF767FF094B1C7914B901221D6055
:10B508001A719DF80700FEF781FF14B9002003B0F7
:10B5180030BD1120FBE700BF00200040F82C0020C0
:10B5280037B5D0F818358A69DBB28DF807304B6A21
:10B5380093423EBF4A699DF80740D4544A6A91F83D
:10B548002840531C4B6202323CB10C69A2428C6900
:10B5580038BF0A61944288BF8A610D69954205D94E
:10B56800CB689B5CC0F81C3501200BE08C699442C9
:10B5780002D991F82030F5E7AB42F5D3A3422CBFAE
:10B588000020012003B030BD13B50022C0F8082107
:10B59800D0F808310193019BFFF7C2FFA0B98A7F59
:10B5A800FF2A1EBF012393404FF0A042084618BF50
:10B5B800C2F8083500234B7700F8083FD1E900317D
:10B5C80002B0BDE81040184702B010BD014902485A
:10B5D800FFF7DABF002D00200030004002494FF08D
:10B5E8004020FFF7D1BF00BF2C2D00202DE9F74FD9
:10B5F80006796A4D2C27774305EB070A9B469AF88C
:10B608001C3080460C469146002B40F0C280644BAB
:10B61800006853F82610FFF763FF002840F0BB804E
:10B6280045F80790CAF804B094F800C0277B4FF09B
:10B63800A042012303FA0CF3012F94BFC2F80C3582
:10B64800C2F808350CF5E073012142F8231063783D
:10B65800FF2B1FBF9940C2F80C1503F5E0714FF09E
:10B66800030E18BF42F821E0A27808BF4FF0FF335D
:10B67800FF2A1FBF02F5E0714FF0A04E4FF0040BF8
:10B688004EF821B098F8041001914FF02C0E0EFBE3
:10B69800015E18BF92468EF81F20E27808BF4FF06F
:10B6A800FF3AFF2A0CD04FF0A04B4FF0010E0EFAD4
:10B6B80002FECBF808E502F5E07E03214BF82E10D8
:10B6C80001994FF02C0E0EFB015E8EF81E20D8F863
:10B6D8000020C2F808C5C2F80C35A368C2F810A546
:10B6E800C2F82435637B003318BF0123022F4AD0E8
:10B6F800032F4BD0012F01D143F002030199C2F867
:10B7080054352C2303FB0151637981F82030B9F1BA
:10B71800000F02D00423C2F804330123C2F8003515
:10B72800B9F1000F25D0120B53B22179002BA8BF15
:10B7380003F16044D2B24FEA5313B8BF02F00F07C7
:10B748004FEA4111B4BF174C04F561444FEA830333
:10B75800C9B203F16043B4BFE15584F8001303F59F
:10B76800614302F01F02012101FA02F2C3F88021AD
:10B778001A602C2303FB065500236B7701232B77D4
:10B7880003B0BDE8F08F43F00403B7E743F00603C6
:10B79800B4E70820F4E71120F2E700BF002D0020ED
:10B7A8004C3E020014ED00E02DE9F7430679424DC6
:10B7B8002C2373439646EA180F46517F8146002989
:10B7C80078D155F803C0BCF1000F01D0012353779D
:10B7D80097E80F002C2404FB065404F10C0888E8B1
:10B7E8000F00A27F0023FF2A84F828301FBF0123FF
:10B7F80093404FF0A042C2F80C352C23BEF1000F45
:10B8080007D003FB065300225A77062003B0BDE891
:10B81800F083D9F800400422C4F8082303FB065338
:10B82800C4F808E1D4F80821C3F824E00092009A8B
:10B838007A688AB13B681B78C4F81C35012A0ED98E
:10B848003B685B78C4F81C35BCF1000F10D00423AA
:10B85800C4F804330020D9E793F82030ECE7FB68FC
:10B86800012BF1D92C2303FB065393F82030E9E789
:10B878004FF02C0806FB08586746D4F80831002B0F
:10B88800FBD0C4F80871D4F808310193414620462A
:10B89800019BFFF745FE0028EFD12C2303FB06553B
:10B8A800AA7FFF2AB2D0012393404FF0A042C2F8EA
:10B8B8000835ABE71120A9E7002D00207FB50378F4
:10B8C8008DF804304368029383688DF80C30C368A0
:10B8D800049303698DF81430054A064B01A853F800
:10B8E800213052F82110984707B05DF804FB00BFDB
:10B8F800582D0020642D002030B4084D10F8044B5A
:10B9080045F82420064D002A45F82430054A2346E8
:10B9180008BF002230BCFFF769BE00BF642D0020BD
:10B92800582D0020C5B8010008B5094B1B7853B144
:10B938000020FFF7B5FA0120FFF7B2FA0320BDE8AF
:10B948000840FFF7ADBABDE80840FFF7B5BA00BF39
:10B95800702D0020F8B57A4C237805461BB10023DA
:10B968002370FFF7E1FF172D00F28680DFE805F06E
:10B978000C1717435465757E868B868B9398989819
:10B988009898C2C7CFD7E2E2FFF7CEFF6D48FEF71F
:10B9980009FD6D4B002204461A702046F8BD0020B0
:10B9A800FFF764FAF8B10020FFF77AFA022D0CBF0E
:10B9B8004FF4E1614FF47A61634B1D704FF400401E
:10B9C8004FF47A540025E0FB01454FF4FA42002376
:10B9D8002046294607F0E6F8002201465948BDE806
:10B9E800F840FEF79BBCFFF74FFA022D0CBFC821A9
:10B9F8004FF4C871E0E70020FFF738FA40B10020A3
:10BA0800FFF74EFA4FF448714F4B03221A70D5E7EF
:10BA1800FFF73AFAC821F7E70020FFF727FA38B10D
:10BA28000020FFF73DFA4FF47A61474B0422EDE717
:10BA3800FFF72AFA4FF4C871F7E70020FFF716FA64
:10BA480040B10020FFF72CFA3F4B05221A70CD2198
:10BA58000022C3E7FFF718FAF6E70020FFF74AFAD3
:10BA6800394B06221A7000226621B7E70020FFF73B
:10BA78000BFA354B07221A7000248EE7012020703C
:10BA8800FFF738FAEFE701202070FFF733FA0022BA
:10BA98004FF40071A2E7FFF71EFA2B4B0C22EAE7DE
:10BAA8002A482B4EFEF77EFCD5F1110504461CD022
:10BAB800D8B9012D13D0C8235D434FF400474FF484
:10BAC8007A5000214FF4FA420023C7FB050107F022
:10BAD80069F8224601461D48FEF720FC044602206C
:10BAE800FFF7D2F90123337057E70220FFF7D8F99F
:10BAF8000023F8E7FFF718FF134B1222BBE7FFF705
:10BB080013FF0020FFF7C0F90F4B1322B3E7FFF72D
:10BB18000BFF0120FFF7B8F90B4B1422ABE7FFF737
:10BB280003FF0020FFF7B0F90120FFF7ADF9064B3E
:10BB38001522A0E7FFF7CFF9034B1D709CE700BF64
:10BB4800C42D0020942D0020C52D0020742D002028
:10BB5800702D0020044B1B6813F0010301D0FFF780
:10BB6800F9BE1846704700BFC02D0020032812D820
:10BB7800012A0BD1012908D100F10E02D2B200EB43
:10BB880040000C4B1A540020704700220129F6D0BF
:10BB980009D3022901D007207047064B00EB40006B
:10BBA80018444270EFE7034B00EB400018448270E2
:10BBB800E9E700BFB42D0020032808B512D8FFF725
:10BBC800ABF9800000F1A040D0F8003723F44033EF
:10BBD800C0F80037D0F8003743F44033C0F80037D6
:10BBE800002008BD0620FCE708B50122022100203C
:10BBF800FFF7BCFF08B1072810D107220221012056
:10BC0800FFF7B4FF08B1072808D100210A22084627
:10BC1800FFF7ACFF10B1072808BF002008BD0000DF
:10BC28000388102B10B502D0112B1ED010BD1A4C52
:10BC38002168B1B901220846FFF798FF08B1072823
:10BC480024D1072202210120FFF790FF08B107281D
:10BC58001CD1042202210020FFF788FF08B1072821
:10BC680014D1236801332360E0E70B4A1368013BD2
:10BC78001360002BDAD1FFF7B7FF0028D6D0074BA7
:10BC88001B68002BD2D0BDE810401847034B1B6837
:10BC9800002BE6D09847E4E7CC2D0020C82D0020E3
:10BCA80008B50020FFF788FF08B1062806D1012053
:10BCB800FFF782FF10B1062808BF002008BD76DF15
:10BCC800704777DF70477ADF70477CDF70477FDF28
:10BCD80070478FDF7047B1DF704733DF70473FDF52
:10BCE800704700F1804000F5E040002382B0036017
:10BCF80003680193019B02B070470000014B0122C9
:10BD08001A70704718330020014B024A9A62704734
:10BD18003C3300200000C842034B044A9A62044B9B
:10BD280000205B6B184700BF3C330020000020C296
:10BD380080430200FEF75CB808B50020FFF70AFF51
:10BD480008B1FEF755F8FFF7ABFF08B1FEF750F85A
:10BD5800FFF7C3FF18B1BDE80840FEF749B808BDB2
:10BD680010B52DED028B86B00629059208EE103A23
:10BD78004DD10378542B4AD14478D0F8020000BA48
:10BD880005F046FE284B002206F044F805F0C1FEF7
:10BD98009DED057A254BB8EEC77AB8EEC88A07EE4E
:10BDA800900A986283ED027A83ED058A2048214B38
:10BDB800C01AC008F5EEC07A0004F1EE10FA40F09F
:10BDC80003002ED5BFEE007AF4EEC77AF1EE10FA32
:10BDD80027DD194B9FED196A0093FDEEE76AF5EE32
:10BDE800C07AB8EEE67AF1EE10FACCBF77EEC77AF1
:10BDF80077EE677ACDED016A67EE867A059B104982
:10BE0800FDEEE77A2246CDED027AFDF72DFE0D4BC9
:10BE18005B6B0593002006B0BDEC028BBDE81040BB
:10BE28001847094BD6E700BF0000D03F3C3300203D
:10BE38007837020048370200023F02000000C8427B
:10BE4800683E020080430200723802000388212BFA
:10BE580013B504463BD01FD8112B28D0132B3ED046
:10BE6800102B32D1264B27482749C01AC008000496
:10BE780040F00300FDF7E0FD0720FFF76BFE08B177
:10BE8800FDF7B6FF214BA1882148198002F092FEE8
:10BE9800D8B1FDF7ADFF18E0522B28D0562B01D0B2
:10BEA8003B2B12D11321A088FFF709FFF0E7144BB1
:10BEB80014481849C01AC008000440F00300FDF7F0
:10BEC800BBFD124B4FF6FF721A8002B010BD02A9DB
:10BED800002321F8043D8088FFF7FBFED8E70B48D4
:10BEE80000231A4685210088FFF7F1FED0E70748AE
:10BEF80000231A4619460088FFF7EDFEC8E700BF81
:10BF08004837020078370200B43E02002E25002090
:10BF1800D8320020BE3E02000D4B4A881B889A4248
:10BF280014D10A8840F677239A420FD18B88094AA0
:10BF380009480A49033B9BB21380094A801AC00882
:10BF480000041A4640F00300FDF784BD704700BFA7
:10BF58002E2500202C25002078370200D63E02002E
:10BF68004837020008B503784BB9054B3B211888C0
:10BF7800FFF7A5FE18B1BDE80840FDF739BF08BDB9
:10BF88002E25002008B548B103280BD10220FFF761
:10BF9800E1FD38B1BDE80840FDF72ABFBDE808401B
:10BFA800FFF7CABE08BD000038B50E4B0E4D012282
:10BFB8001A702B78A3B10D4B0D4C0E49E41AE40806
:10BFC800240444F003042046FDF736FD284606F015
:10BFD800B1FF294682B22046BDE83840FDF754BD7E
:10BFE80038BD00BF2C330020E4320020483702005F
:10BFF80078370200243F02001FB5CDE90001CDE9E2
:10C008000223694600220348FFF7CEFB05B05DF81E
:10C0180004FB00BF183F02002DE9F041002488B05E
:10C02800184E8846174621461E2268461D4634701B
:10C0380006F02BFF8DF80080631CE4B2AC4218D3E5
:10C048004FF0A0434FF00052C3F80C256B1CDBB235
:10C05800002219466846FFF7CFFF337883B14FF0C7
:10C06800A0434FF000520020C3F8082508B0BDE8EF
:10C07800F08108AA2244395D02F81F1C1C46DBE740
:10C0880020BFEAE72C3300202DE9F0414FF00008EB
:10C0980090B01D4C0F46164641461E2268461D4666
:10C0A80084F8008006F0F1FE1E22414608A806F03A
:10C0B800ECFE4FF0A0434FF0005267F07F078DF879
:10C0C8000070C3F80C256B1CDBB208AA1946684639
:10C0D800FFF792FF237873B14FF0A0434FF000525F
:10C0E800C3F8082500235A1CDBB2AB4205D3002055
:10C0F80010B0BDE8F08120BFECE710A9194411F891
:10C108001F1CF1541346EEE72C330020704770478C
:10C11800FDF76EBE38B5054D044645F001054FF4F0
:10C128007A40A847013CFAD138BD00BFD03E020092
:10C1380008B1FFF7EFBF704708B50849084802F093
:10C148004DFC08B1FDF754FEF721054802F058FCF4
:10C1580018B1BDE80840FDF74BBE08BD21BF01007E
:10C16800C4320020104A08B50323C2F8F035022370
:10C17800C2F8F4356FF00043C2F808334FF4827008
:10C18800FFF7AFFD4FF48070FFF7ABFD0123C2F856
:10C198000035064BC2F828350023C2F82435092398
:10C1A800C2F8203508BD00BF00700040000005013E
:10C1B8001FB51D490122C1F800254FF48270C1F84E
:10C1C8002CD6C1F83026FFF78CFD184B0A601A6090
:10C1D80042F2107203F58073196801B9FAB9144B69
:10C1E800012119604FF48070FFF77BFD4FF48270D6
:10C1F800FFF777FD0C4B0021C3F800158AB1BDF895
:10C20800000040F6E3034FF47A7210FB023041F26B
:10C21800C71390FBF3F080B205B05DF804FB013A58
:10C22800DAE742F20F70F7E7007000400470004050
:10C23800087000401FB5104B0FCB6C4684E80F0008
:10C2480040F20343ADF800301C238DF802300B4A4E
:10C258000B4800232146FFF74FFB08B1FDF7C8FD47
:10C26800084B09480949C01AC008000440F00300F7
:10C27800FDF7E2FB04B010BD583E0200B1BF01005B
:10C28800143F020048370200783702002F3F0200AF
:10C2980030B500258BB0204C1422294668462570FD
:10C2A80006F0F3FD142229460DEB020006F0EDFD21
:10C2B80006238DF800304FF0A0434FF40072C3F806
:10C2C8000C25012305AA19466846FFF795FE237831
:10C2D800F3B14FF0A0434FF400721049C3F808259A
:10C2E800009101218DF8041000212170C3F80C255C
:10C2F800052305AA19466846FFF77EFE23784BB149
:10C308004FF0A0434FF40072C3F808250BB030BDBE
:10C3180020BFDCE720BFF1E72C33002002008000BB
:10C3280030B500258BB0204C14222946684625706C
:10C3380006F0ABFD142229460DEB020006F0A5FD20
:10C3480006238DF800304FF0A0434FF40072C3F875
:10C358000C25012305AA19466846FFF74DFE2378E8
:10C36800F3B14FF0A0434FF400721049C3F8082509
:10C37800009101218DF8041000212170C3F80C25CB
:10C38800052305AA19466846FFF736FE23784BB100
:10C398004FF0A0434FF40072C3F808250BB030BD2E
:10C3A80020BFDCE720BFF1E72C330020020080012A
:10C3B80030B500258BB0254C1422294668462570D7
:10C3C80006F063FD142229460DEB020006F05DFD20
:10C3D80006238DF800304FF0A0434FF40072C3F8E5
:10C3E8000C25012305AA19466846FFF705FE2378A0
:10C3F8003BB34FF0A0424FF40071154BC2F808153B
:10C408001B6814480090C3F307408DF804008DF8AA
:10C418000630C3F307200023237007238DF8050097
:10C42800C2F80C15684605AA1946FFF7E5FD2378FA
:10C438004BB14FF0A0434FF40072C3F808250BB07E
:10C4480030BD20BFD3E720BFF1E700BF2C33002069
:10C458000032002002008003F0B500268BB04D4C5E
:10C468001422314605466846267006F00EFD142251
:10C4780031460DEB020006F008FD06238DF800306A
:10C488004FF0A0434FF40072C3F80C25012305AA0E
:10C4980019466846FFF7B0FD2378002B75D04FF09A
:10C4A800A04605F501404FF400774FF0020C3A4DD5
:10C4B800C6F808758DF800C0C0F3074C374B8DF8E7
:10C4C80001C08DF80300C0F3072C286859688DF85F
:10C4D80002C0C0F3072C8DF804008DF805C0C0F326
:10C4E800074CC0F307609A688DF80700C1F307206E
:10C4F8008DF808108DF80900C1F30740C1F30761F2
:10C508009B698DF80B10C2F307218DF80C208DF86C
:10C518000D10C2F30741C2F307628DF80F20C3F371
:10C5280007228DF810308DF81120C3F30742C3F3AA
:10C5380007638DF813300023237014238DF80A0045
:10C548008DF80E108DF812208DF806C00DEB030241
:10C55800C6F80C7519466846FFF74EFD2378B3B147
:10C568004FF0A0434FF40072C3F808250C4AD5EDEC
:10C57800007A1368103313600A4B93ED007A77EE54
:10C58800877AC5ED007A0BB0F0BD20BF84E720BFE5
:10C59800E4E700BF2C330020F83100203C330020B2
:10C5A80000320020083200202DE9F04FCBB0842261
:10C5B800002108A806F069FC8422002129A806F0B9
:10C5C80064FC5D4B5D4F43F0010302934FF42F4031
:10C5D800984700244FF0A0454FF400764FF0000331
:10C5E8003B7006238DF820304FF40073C5F80C35E6
:10C5F800012329AA194608A8FFF7FEFC3B78002B5F
:10C6080000F09680DFF84881C5F8086502238DF8A8
:10C618002030D8F8003003F50143C3F307428DF802
:10C6280021208DF82330C3F307224FF000033B701D
:10C63800434B8DF82220D3ED007A424BC5F80C65A8
:10C6480093ED007A404B1B6823440CAA03F10801C0
:10C658000192039108AA0DF1140C0DF1180E0DF1B9
:10C668001C093F2B3948CDED047A19464FF00C0AC6
:10C67800C8BFA3F140010AFB0101D1F800A0CCF822
:10C6880000A0D1F804A08968C9F80010CEF800A06D
:10C69800002104A802EB010A10F801B08AF804B0DE
:10C6A80001310429F5D1002102EB010A1CF801B07F
:10C6B8008AF808B001310429F6D1002102EB010AF9
:10C6C80011F80EB08AF80CB001310429F6D1002116
:10C6D800019811F809A000F801A001310429F7D147
:10C6E800014610310191039901338B4277EE877A25
:10C6F80002F11002B5D1124BC3ED007A842329AAA6
:10C70800194608A8FFF778FC3B789BB1C5F808657F
:10C71800D8F800308033C8F800304FF42F40029B1F
:10C7280008349847402C7FF459AF4BB0BDE8F08FE0
:10C7380020BF63E720BFE7E7D03E02002C3300208C
:10C74800F831002008320020F4310020F42E0020B7
:10C75800003200201FB5204C002300F50140237053
:10C76800CDE90133039303238DF80030C0F3074369
:10C778008DF80130C0F307238DF802304FF0A04345
:10C788004FF400728DF80300C3F80C2508230DEB55
:10C79800030219466846FFF72FFC2378D3B14FF000
:10C7A800A0434FF40072C3F808259DF80C2000231D
:10C7B80062F307039DF80D2062F30F239DF80E2006
:10C7C80062F317439DF80F2062F31F6300EE103ADF
:10C7D80004B010BD20BFE0E72C3300201FB51C4C6F
:10C7E8000023CDE900332370CDE9023303238DF80C
:10C7F80000304FF46073ADF802304FF0A0434FF4AF
:10C808000072C3F80C25072302AA19466846FFF7E9
:10C81800F3FB2378D3B14FF0A0434FF40072C3F871
:10C8280008259DF80C20002362F317439DF80D207E
:10C8380062F30F239DF80E2062F30703054A934223
:10C84800054A88BF0023136004B010BD20BFE0E78D
:10C858002C330020FEFFFF00003200201FB5134CD0
:10C868000023CDE900332370CDE9023303238DF88B
:10C87800003080238DF802304FF0A0434FF400724F
:10C88800C3F80C25052302AA19466846FFF7B4FB2E
:10C8980023784BB14FF0A0434FF40072C3F808253A
:10C8A8009DF80C0004B010BD20BFF1E72C33002028
:10C8B8001FB5144C0023CDE900332370CDE90233B2
:10C8C80003238DF800304FF4C073ADF802304FF0F9
:10C8D800A0434FF40072C3F80C25052302AA194699
:10C8E8006846FFF789FB23784BB14FF0A0434FF41C
:10C8F8000072C3F808259DF80C0004B010BD20BFD5
:10C90800F1E700BF2C3300202DE9F043002485B067
:10C91800CDE9014403224FF40077204D03948DF8AC
:10C9280000204FF0A046B846DFF87490D9F80030E0
:10C9380003F50143C3F307428DF801208DF8033056
:10C94800C3F3072208238DF802201946C6F80C8580
:10C958000DEB030268462C70FFF74EFB00E020BF8A
:10C968002B78002BFBD0C6F808759DF80C30FF2BF0
:10C978000BD19DF80D30FF2B07D19DF80E30FF2B02
:10C9880003D19DF80F30FF2B05D0D9F800301033B4
:10C99800C9F80030C8E705B0BDE8F0832C330020A3
:10C9A8000032002013B51B4C002323708DF804308F
:10C9B80006238DF800304FF0A0434FF40072C3F8FF
:10C9C8000C25012301AA19466846FFF715FB2378B1
:10C9D800E3B14FF0A0434FF40072C721C3F8082514
:10C9E8008DF8001000212170C3F80C25012301AA3D
:10C9F80019466846FFF700FB23784BB14FF0A04378
:10CA08004FF40072C3F8082502B010BD20BFDEE75E
:10CA180020BFF1E72C33002010B52DED028B104C10
:10CA28008AB0224606A9032004F0BAFFDDE908010E
:10CA380005F06FF8DFED0B7A07EE100A87EE278A0C
:10CA4800DDE9060105F065F80190204604F035FFA0
:10CA5800DDED010AB0EE480A0AB0BDEC028B10BD4C
:10CA6800282E002000007A4413B5FFF7D5FF224C8A
:10CA780010EE100A84ED010AC4ED0A0A05F02DF83B
:10CA880017A3D3E9002305F07BFA05F042F805F077
:10CA980024F89FED151B41EC100B05F0F9FE51EC45
:10CAA800100B05F036F807EE100AF7EE007A77EE6D
:10CAB800C77A17EE900A05F010F80DA3D3E9002302
:10CAC80005F0A8F905F025F8D4ED037A07EE100A69
:10CAD80077EE677AC4ED047A02B010BDAFF3008038
:10CAE800CDCCCCCCCC5459403CDD79E2395BC83F45
:10CAF8009A999999B3BE01413C3300200000000087
:10CB0800F8B57B4C7B4B94ED067A93ED006AD4ED37
:10CB1800027AD4ED096A784B784AD3ED005A784BFB
:10CB28007849E7EE067AA6EE267AE6EEA57AD3ED00
:10CB3800005A754B94ED046A84ED067A93ED007AF9
:10CB4800C4ED027A36EE477A2DED028BC7EE257AD0
:10CB580083ED006AC2ED007A6C4A6D4B92ED007A63
:10CB68001B78C2ED007A37EEC77AC7EE256AC1EDA9
:10CB7800006ABBBBFDEEE67A17EE900A06F0FDF8F8
:10CB880004F046FF0022634B05F059FB50B3D4ED87
:10CB9800027A94ED047A604B37EE677A83ED007A77
:10CBA8005E4BD3ED006A5E4BE7EE267A93ED006AA2
:10CBB800D4ED066A5B4BC4ED027AE7EE066A93EDA4
:10CBC800006AC4ED066AD4ED096AE7EE066A94EDD8
:10CBD800057AC4ED096AF4EEC77AF1EE10FAC8BF17
:10CBE800C4ED057A504B94ED068A1B7823B34F4D5C
:10CBF8002B780BB3DFED4E7AB4EEE78AF1EE10FA3C
:10CC08001ADD606A04F069FF37A3D3E9002305F051
:10CC180016FB88B100232B70464B1A68464B1A60E6
:10CC2800464B1A683D4B1A60454B1A683C4B1A60D4
:10CC3800444B1A683B4B1A60E06904F04EFF00222F
:10CC4800414B05F0E7F8064618EE100A0F4604F0C7
:10CC580044FF02460B463046394604F097FF00224F
:10CC68003A4B05F08DF904F054FF394BE0611A781E
:10CC780007EE900A92B9B8EE007AF4EEC77AF1EEB0
:10CC880010FA0BD501221A702A4A92ED007A314A1D
:10CC9800F2EE0E6A37EE267A82ED007A1B78EBB157
:10CCA800B8EE007AF4EEC77AF1EE10FA16DD214BF1
:10CCB80093ED007A274BD3ED007AB4EEE77AF1EEE4
:10CCC80010FA0BDD94ED027ADFED197AB4EEE77A0B
:10CCD800F1EE10FA42BF204B01221A70BDEC028B14
:10CCE800F8BD00BFAFF300809A999999991940C08F
:10CCF8003C330020303300203433002068330020D8
:10CD080024250020142E0020182E00206C3300202B
:10CD18001F2E00200040DF40E82D0020EC2D0020D1
:10CD2800F02D0020F42D002006320020F02E0020E7
:10CD380000004842F8310020383300201025002038
:10CD48001825002020250020000033400000344032
:10CD58001D2E00205425002005320020074B084ACC
:10CD68005A601A6000229A60DA605A611A619A6100
:10CD7800DA611A625A62034A9A6270473C330020A9
:10CD880066A6CA4200006C421FB5134B0193134BB1
:10CD980013481A68C2F30721D3B28DF808308DF80A
:10CDA80009100B44C2F3074151FA83F3C2F3076237
:10CDB8008DF80B2052FA83F304AA8DF80C3009235E
:10CDC80022F80E3D074B8DF80A101B8801A902F0C6
:10CDD80063F805B05DF804FBF50304FC003200209D
:10CDE800302500202E25002073B50023ADF806302D
:10CDF80040F2F55302ACADF80430FA238DF8073051
:10CE0800042324F8063D0B4D0B482B88224601A924
:10CE180002F042F858B1084E0520FFF77BF92B883D
:10CE2800224601A9304602F037F80028F4D102B0B2
:10CE380070BD00BF2E250020302500207FB5124B85
:10CE48000193124B9A6803925A699B6A02930023D2
:10CE58008DF81430042304920DEB0301585C9DF8FF
:10CE6800142001330244102B8DF81420F6D106AAA1
:10CE7800112322F8163D064B06481B8802F00CF8D1
:10CE880007B05DF804FB00BFF5010C023C3300203D
:10CE98002E25002030250020054B01221A70054B55
:10CEA80000221A60044B00221A60FFF7F1B900BF94
:10CEB8001933002000320020F831002008B5FFF7B0
:10CEC800EBFF024B00221A7008BD00BF1E2E002087
:10CED8000378ABB9838A042B12D101698B787BB9AB
:10CEE8004A780B78C9781344DBB2994208D1F22A00
:10CEF80007D0F42A07D0F12A02D1044B01221A7074
:10CF08007047FFF7DBBF024BF8E700BF1C2E00207D
:10CF1800FC3100202DE9F04FADF50B7DFFF734FF14
:10CF28004F4B1E684F4B18888008053804F070FD79
:10CF380041EC100B05F050FD51EC100B04F0B7FD5F
:10CF480005AD04464FF405720021284605F09DFF03
:10CF58007F2C4FEA960639D83F2C39D81F2C39D860
:10CF68000F2C39D8072C39D8032C39D8012C8CBF71
:10CF78000224012440F2F5732B80E3B25A1CB6FB5D
:10CF8800F4F0033BAA70EB7004F059FD41EC100B70
:10CF980005F098F9A400631D009351EC100BA31D34
:10CFA800019304F05DFDDFF8C090DFF8C0A00DF13B
:10CFB8001D03C5F1000883461F1900265E4511D1DF
:10CFC800FFF712FF0DF50B7DBDE8F08F8024D1E748
:10CFD8004024CFE72024CDE71024CBE70824C9E775
:10CFE8000424C7E7F1B229710DF11900021D974217
:10CFF80011D1009BE954019BADF81230B9F800300B
:10D008000DF112022946504601F046FF28B30520CB
:10D01800FFF780F8F2E705384044CDE90212FFF740
:10D0280099FB10EE100A039A0299C3B2C0F3072CB9
:10D0380002F8043C63440B44C0F3074151FA83F3FC
:10D04800C0F3076050FA83F302F8021C02F8010CDF
:10D0580002F803CCD9B21046C8E70136A044ADE7C0
:10D06800003200202C2500202E250020302500200D
:10D0780038B53B4B3B4C00221A70FFF793FC6420F9
:10D08800FFF748F8FFF7F0FCFFF768FE6420FFF7AA
:10D0980041F8FFF7E9FC6068206004F01EFD2AA350
:10D0A800D3E9002304F06CFF04F033FDE06004F0E2
:10D0B80014FD9FED271B41EC100B05F0E9FB51EC2B
:10D0C800100B04F026FD07EE100AF7EE007A77EE53
:10D0D800C77A17EE900A04F000FD1FA3D3E90023D6
:10D0E80004F098FE04F015FD1F4BE060A568606829
:10D0F80003F5407100225D6018609A600C338B4222
:10D10800F9D11A4900230B6019490B6019490A60C3
:10D1180019490A60194A01211170194A1370194AEC
:10D128001370194A1370194A1370194B1A68194B5E
:10D138001A60194B1A68194B1A60194B1A68194B5F
:10D148001A6038BDAFF30080CDCCCCCCCC5459405C
:10D158003CDD79E2395BC83F9A999999B3BE0141A0
:10D16800193300203C330020F42E0020F431002035
:10D1780000320020F8310020383300201E2E002015
:10D18800063200201D2E0020053200200432002027
:10D198000C250020EC2D002014250020F02D002067
:10D1A8001C250020F42D00201FB50023ADF80C30FD
:10D1B8008DF80E300D4B0293FEF7FAFF04AAC0F368
:10D1C8000723C0B28DF80D308DF80C0018440723E2
:10D1D80022F80A3D064B8DF80E001B88054802A967
:10D1E80001F05AFE05B05DF804FB00BFF50202F934
:10D1F8002E250020302500201FB50E4B0E481A782A
:10D208000E4B19784FF0000361F3000362F34103FA
:10D218000B4A029204AA8DF80C308DF80D300623C3
:10D2280022F80A3D074B02A91B8801F035FE05B01C
:10D238005DF804FB19330020302500201E2E002045
:10D24800F50601FC2E25002038B5032304460125E8
:10D2580080F8AB30002380F8A95080F8AA5080F8F5
:10D26800AC3080F8AD300146362004F099F884F8E7
:10D27800A8502046BDE8384004F01FBB09490A48B9
:10D288000B6810B50C2202FB0302084801334468FE
:10D298001460402B84688069546008BF0023906044
:10D2A8000B6010BDF4310020F42E00203C33002028
:10D2B8002DE9F04F2DED048B4FF48061BFB00020B5
:10D2C800FCF7F4F908B1FCF793FDFCF727F9FCF734
:10D2D800E1FF08B1FCF78CFDC74AC8480121FDF7FA
:10D2E8000BF808B1FCF784FDC54BC64CC649D3E919
:10D2F800002310A805F060FD0E22C449204605F061
:10D3080070FD9DF84030A3739DF84130E3739DF89C
:10D31800423023749DF8433063749DF84430A374FD
:10D328009DF84530E3749DF8463023759DF84730E5
:10D3380063759DF84830A3759DF84930E3759DF8ED
:10D348004A302376FEF70EFFFEF732FFFDF7A2FB09
:10D3580008B1FCF74DFD01F01DFE08B1FCF748FDD2
:10D368003EAC002344F8AC3D0120214601F09EFE6E
:10D3780008B1FCF73DFD204601F064FF08B1FCF759
:10D3880037FD3EAD0120FEF7AAFC112305F8BC3D90
:10D398009C4805F0CFFD9B4982B22846FEF795FCD4
:10D3A80008B1FCF725FD08220021204605F06DFD97
:10D3B800974A4FF0C8732046CDE91323FEF783FC44
:10D3C80008B1FCF715FDFEF7B7FE924B9248139390
:10D3D800214601F0DDFB08B1FCF70AFD002104221B
:10D3E800284605F052FD8D4B8D480F93294601F0D4
:10D3F800DFFC08B1FCF7FCFCAC220021204605F05C
:10D4080044FD062202238DF84F20012285498DF81C
:10D418004C30ADF8982000238DF8C8204FF4A07246
:10D428008DF84E302791CDE9352321467E4B7F4834
:10D438003C9300F06BFE08B1FCF7DAFC01217B4855
:10D4480000F061FE1C220021204605F01EFD00238D
:10D458004FF4A052CDE91332ADF85A304FF4F042F0
:10D468008DF85C30724B159218930322714B8DF82E
:10D4780058202046199301F0F7F808B1FCF7B8FCDA
:10D4880003216A4800F0B4FE08B1FCF7B1FC04229D
:10D4980000210120FEF715FC4FF0A0434FF000518A
:10D4A8000322C3F87427C3F80815C3F824274FF4D8
:10D4B8000072C3F80825604C604D614EFEF7BAFE55
:10D4C80000236370A3705F4B63605F4BA3602046CB
:10D4D8005E4BE36004F0C2F828702046FFF7B4FE04
:10D4E80028705B4D5B4C6420FEF714FEFFF794FA3E
:10D4F800FFF734FC002364206B61FEF70BFEFFF797
:10D50800B3FA6420FEF706FE6868286004F0E5FABE
:10D5180033A3D3E9002304F033FD04F0FAFAE860FA
:10D5280004F0DBFA9FED301B41EC100B05F0B0F96D
:10D5380051EC100B04F0EDFA07EE900AB7EE008AF2
:10D5480078EE677AA24617EE900A04F0C6FA28A386
:10D55800D3E9002304F05EFC04F0DBFA3E4BE860FC
:10D568001A683E4B1A603E4B1A683E4B1A603E4B97
:10D578001A683E4B1A603E4B93ED007A33680133CC
:10D5880007EE903AF8EEE77A3A4B67EE877A17EEAD
:10D59800100AC3ED007A384B83ED007A04F09DFA47
:10D5A800002280468946354B04F034FC42464B46FF
:10D5B80004F030FC04F0ADFA314B186001232370FD
:10D5C800FFF74CF90746FFF773F9012F0D9640F066
:10D5D800C780FF2840F0C480FFF796F952E000BFEB
:10D5E800CDCCCCCCCC5459403CDD79E2395BC83F3A
:10D5F8009A999999B3BE014105BD0100103F0200F7
:10D60800A4000010D02D0020F23E0200F53E0200DA
:10D6180010003C003DBD0100D8320020D9CE0100E9
:10D6280030250020282500208DBF01000C32002065
:10D638006DBF010019C10100282E00201A330020F7
:10D648002033002091C0010021C0010039C1010030
:10D658003C330020043200200C250020EC2D002053
:10D6680014250020F02D00201C250020F42D00207A
:10D678002425002008320020303300200000E03F3D
:10D688003433002000224FF480613948FCF746FE0D
:10D6980008B1FCF7ADFB4FF0A0474FF003094FF47A
:10D6A8000034C7F844974FF4FA60C7F80C45FEF702
:10D6B80031FDC7F80845C7F82097C7F81C97FCF74D
:10D6C8004FF84FF00C0BFDF7FBF92A4BC7F840B7A2
:10D6D800C7F8403701F020FE2748284B8360284BC5
:10D6E8000361284BC360DFF8B080274B4360274BAA
:10D6F8000360D8F80030984700240822CDE900429A
:10D70800D8F81820012319461846CDE90843CDE971
:10D7180004431646CDE906445A46CDE90244B047CB
:10D72800D8F834300B93204698474FF40053C7F885
:10D738000C35174A174BC7F834979B1A23FA09F385
:10D748001B049FED099B43EA09030C9327464FF0FE
:10D75800A046D6F8103513F480334FD19B4643E0EA
:10D76800FFF73CF88EE700BF3CDD79E2395BC83F44
:10D77800F83200200C000300F82D002069BD0100DC
:10D7880021BD010011BD010017C1010015C1010033
:10D798004837020078370200804302000120FEF774
:10D7A800B9FC0BF1010B40F6B8339B451CD14FF483
:10D7B80000393220C6F80C95FEF7ACFC3220C6F8CA
:10D7C8000895FEF7A7FC3220C6F80C95FEF7A2FCD8
:10D7D8003220C6F80895FEF79DFCC6F80C95322055
:10D7E800FEF798FCC6F80895D6F81025D303D5D5CA
:10D7F80040F6B732934501DDFEF76FFA8E4B1A7883
:10D808001AB100221A70FFF785FB8C4B1E7856B1AF
:10D8180000221A70FFF72CFC4FF0A0434FF400329F
:10D82800C3F80C253446864E3378002B00F0F3807D
:10D8380000200B9B9847D8F8603098470023337036
:10D84800804E3378002B3CD07F4B804993F800E022
:10D8580001224FF00C0C0EEB0203DBB2402B28BF69
:10D86800002301320CFB0313D2B20B2A1868F2D141
:10D87800286004F032F96CA3D3E9002304F080FB9C
:10D8880004F047F9E86004F028F9B0EE491AF0EE20
:10D89800691A41EC100B04F0FBFF51EC100B04F07B
:10D8A80038F907EE900A78EE677A17EE900A04F0D6
:10D8B80014F95FA3D3E9002304F0ACFA04F029F9C2
:10D8C800E86095ED067AF3EE0E7AB4EEE77AF1EEBB
:10D8D80010FA23DD95ED027AF2EE047AB4EEE77AD7
:10D8E800F1EE10FA1ADD5A4B1B78BBB9594BD3F835
:10D8F8000090B9F1000F11D14FF0A0434FF400325E
:10D9080086F80090C3F80825534A01231370534A38
:10D918001370FFF7C1FAFEF747FE4C46504BDFED98
:10D92800517A93ED007AB4EEE77AF1EE10FAC2BFBD
:10D93800474B00221A704C4B1A7882B14449012295
:10D948008AF8002000221A700A70FEF731FD474B52
:10D958004FF42F4043F001039847FEF7E1FCDFF84E
:10D9680024B1DFF82491DBF80030414E0133CBF8C5
:10D978000030D9F800300133C9F80030336801337A
:10D9880033609AF8003063B9FFF76EF8394B1B78AB
:10D998002BB1D5ED057A77EE887AC5ED057AFFF7D4
:10D9A800AFF8354BDBF800201B689A420ADD334993
:10D9B8000C98FCF741F80023CBF80030FFF73EFA4B
:10D9C800FFF71AFC0D9BD9F800201B689A4209DD65
:10D9D8000023C9F800301E4B1B780BB31D4B186889
:10D9E800FEF73AFD264B32681B689A4203DD002396
:10D9F8003360FFF7D9FB74B10137FFB2052F0AD99D
:10DA08004FF0A0434FF40032C82FC3F8082584BF55
:10DA18000027C3F80C25FBF7A3FEFDF751F896E69F
:10DA2800FFF72CFCDEE700BFCDCCCCCCCC54594062
:10DA38009A999999B3BE0141FC3100201C2E00200F
:10DA4800183300201E2E0020F4310020F42E002070
:10DA5800193300200032002006320020F02E00206A
:10DA6800F83100200000074405320020D03E0200B3
:10DA7800202E00201F2E002028330020043F020003
:10DA8800242E0020243300201C3300200369C168A1
:10DA98008B429DBF8268D21802F1FF3203F1FF3337
:10DAA80094BF501A581A70472DE9F041D0E902671F
:10DAB8000446F61B4068964288461546384405D900
:10DAC80005F0BAF93D44E560BDE8F0813246AD1B8A
:10DAD80005F0B2F92A4608EB0601606805F0ACF9D2
:10DAE800F1E72DE9F843C5680646894617464FF021
:10DAF80000083469B3687068A54228BFE418013C7F
:10DB0800621B5C1BBC4228BF3C46944228BF14469B
:10DB180049462844224605F08FF9B3682544AB42AC
:10DB280008BF00253F1BA044A144F560E1D1404651
:10DB3800BDE8F88310B5114C114AA2610223C4E96B
:10DB48000433104BE361A2644FF400730E4A23625E
:10DB5800E264002310220D49A362E01D6362E362C0
:10DB6800A3656365E365226505F0C2F908492046A7
:10DB780005F0BEF92023A37110BD00BF703300204B
:10DB8800443F0200F8330020E83300204D3F0200F4
:10DB9800513F0200F8B5184C182300FB033503FB6E
:10DBA80000402544C46A012C0F46164611D003D301
:10DBB800022C1BD000240AE02846FFF767FF8642A4
:10DBC80005D8324639462846FFF76EFF34462046C8
:10DBD800F8BD2846FFF75AFF8642344628BF044658
:10DBE800224639462846FFF75FFFF0E72846BDE89A
:10DBF800F840FFF776BF00BF70330020FFF79ABFE9
:10DC08006DDF704779DF70477DDF704764DF7047ED
:10DC18002DE9F74F0C9CBDF834B0278800258046C5
:10DC28008A4691462E46B8F80020B2420BDC35B140
:10DC38002288013AD21B92B2FF2A39D8DA5500203D
:10DC480003B0BDE8F08FD8F8042052F82600019000
:10DC580000220DF1030101A8FFF7D8FF0028EFD13A
:10DC68009DF803204A4521D12288002D14BF0020A9
:10DC7800022002EB09010144594519DC3DB9013282
:10DC880092B2228003F802A02288013222802288E0
:10DC98000DF103011A4401A8FFF7B8FF0028CFD1FE
:10DCA80021889DF803200A44228001250136BAE71D
:10DCB8000C20C5E72DE9F341089CBDF82450174610
:10DCC800CDE9004502220646FFF7A2FF48B9102217
:10DCD80039463046CDE9084502B0BDE8F041FFF7C6
:10DCE80097BF02B0BDE8F0812DE9F04F00231688F8
:10DCF800138090F82D3085B007460D46144653B36F
:10DD0800082E01D80C2026E102A8FFF779FF002889
:10DD180040F0218113880822CA54238801339BB21A
:10DD28001B222380CA542088013080B2208006221A
:10DD38000DF10901284405F07FF823889DF8082093
:10DD480006339BB212F0FE0218BF01222380EA5468
:10DD5800238801332380BB78FBB123880433B34283
:10DD6800D0D802A8FFF74EFF002840F0F48023889F
:10DD78000322EA54238801339BB219222380EA54F0
:10DD88002388BDF8082001339BB2E9182380EA54A0
:10DD9800120A4A70238802332380FA789AB12388BA
:10DDA800D91CB142AED80221E954238801339BB271
:10DDB80001212380E95423880B449BB22380EA5431
:10DDC80023880B4423807A68AAB12388D91CB142DE
:10DDD80098D8022192F90020E954238801339BB294
:10DDE8000A212380E954238801339BB22380EA5413
:10DDF8002388013323803B89002B40F0A0803B8A95
:10DE08005BB1CDE900462B460722032107F110003C
:10DE1800FFF750FF002840F09E803B8B5BB1CDE9B7
:10DE280000462B461522142107F11800FFF742FF80
:10DE3800002840F090803A6A002A40F08F80D7F896
:10DE48002480B8F1000F30D0B8F804302188981C2D
:10DE58008A1C0244B2423FF655AFFE283FF652AF45
:10DE680003336B54238801339BB2FF222380EA5487
:10DE7800238801339BB22380B8F80020EA54E918BC
:10DE8800120A4A702088023080B22080B8F8042034
:10DE98005AB1D8F8081000296AD0284404F0CCFFF9
:10DEA8002388B8F804201344238097F82C30002BDB
:10DEB80040F09980387800284DD03B88012B57D006
:10DEC80021888A1CB2423FF61DAF012805D17B7814
:10DED80002330B449E42FFF415AF023E761A04A9A2
:10DEE800B6B221F8086DA818FFF78EFE98BB3978EE
:10DEF800BDF80820022900F0BB807B78934202D34A
:10DF0800B24240F2B380012940F0B4809BB29E42F5
:10DF1800C0F0B080ADF808300821BDF80830FE2BFD
:10DF28003FF6F0AE22880133AB542288013292B218
:10DF38002280A95422881344238000200BE0CDE9D5
:10DF480000462B460622022107F10800FFF7B2FE21
:10DF580000283FF454AF05B0BDE8F08FB4F800C016
:10DF68000CF10603B3423FF6CDAE1188052901D85E
:10DF78000720F0E76FF4486E01EB0E039BB24FF2F7
:10DF88007D3E7345F4D95388052BF1D96FF4486069
:10DF9800181880B27045EBD94FF6FF70814203D054
:10DFA800834201D09942E3D8052305F80C30238831
:10DFB80001339BB212212380E954238801339BB299
:10DFC80023801188E954E818090A4170238802332C
:10DFD8009BB223805288EA54E918120A4A702388AF
:10DFE800023323802BE7BB6A002BC1D04FF0000916
:10DFF8004FF00C0A4FF0160B97F82C305FFA89F2A5
:10E0080093427FF657AFB96A0AFB02F201EB0208A6
:10E01800B8F80430981CFE283FF674AE2088033305
:10E028002B54238801339BB2238005F803B023883F
:10E0380001339BB223808A5AEA54E918120A4A70BB
:10E048002088023080B22080B8F804205AB1D8F86D
:10E05800081000298CD0284404F0EEFE2388B8F874
:10E0680004201344238009F10109C5E7092154E775
:10E07800B242FBD9ADF808604EE770B5C0B14AB1FD
:10E0880016880024B44203D305196D789D4208D040
:10E09800A14201D800200BE0055D01352C44A4B253
:10E0A800F0E7A142F6D9A31C1380005D013880B2C5
:10E0B80070BD37B502AC002324F8023D1346224652
:10E0C8000546FFF7DAFF10B1BDF80600284403B093
:10E0D80030BD72DF704773DF704738B501220446E0
:10E0E8000D46B0F89810D0F89400FFF7E2FF00B1A1
:10E0F800057004F13C0204F1940104F15400BDE8F8
:10E108003840FFF7E6BF80F830107047F8B504468E
:10E118000F46002968D0002866D091F87A301BB1E4
:10E1280091F89830002B61D1D7F8A030042B5DD03E
:10E13800D7F89C30042B59D007F178060FCE4FF052
:10E14800000C251D84F802C00FC50FCE0FC596E838
:10E15800070085E8070084F830C0D7F8A430636367
:10E16800D7F8A830A3634FF6FF7504F19403C4F8F9
:10E17800A430A4F8A8500722614604F1AA0004F0CC
:10E1880084FE23780BB984F85450224604F15501D3
:10E198001F25C4F89410384622F8985FFFF7A4FDAD
:10E1A80008BB224604F17401C4F89C1007F13C0036
:10E1B80022F8A05FFFF798FDA8B9A269A4F8482043
:10E1C80001236269206484F850006264014684F87F
:10E1D800513084F83C3004F13C0204F15400FFF75C
:10E1E80078FF00B92370F8BD0E20FCE70720FAE796
:10E1F800F8B5077804460D46002F00F0FA8000F1C4
:10E20800AA06A17007220021304604F03EFEE388EA
:10E2180013B1A378012B04D0E3794BB1A378022B77
:10E2280006D1636BA3B1012284F8B1200820984776
:10E23800334604F1B00113F8012F12B99942FAD10B
:10E2480017466B1E032B53D8DFE803F0050B0F129C
:10E2580084F8B130ECE7A3791BB194F8243003B902
:10E268005FB9E3790BB1002F44D1237A002B43D156
:10E27800637A002B0CBF00250425636BA570002B67
:10E288003CD0033D012D39D86279002A36D094F864
:10E29800B220002A32D184F8B420012284F8B320B5
:10E2A8000720984704F13C0518220021284604F06D
:10E2B800ECFDE36A0122591E914288BF134684F897
:10E2C800513094F8243084F83C2033B1914296BF01
:10E2D800A36A84F8522084F85230A278002384F884
:10E2E8005030042A1BD8DFE802F06C0D22325200AD
:10E2F8000025C2E70225C0E70325BEE7002384F80E
:10E30800B330CFE7C4F8A430C4E910630223012274
:10E3180084F83C30802384F83120A4F84830A3786E
:10E32800002B51D1636B002B5FD100205CE00223EE
:10E3380084F83130032384F83C302369A4F848304A
:10E348000023C4F8A430E36826646364E7E76369DC
:10E358006364A369A4F848306379B3B194F8B23020
:10E368009BB994F8B43083B1022384F85030042167
:10E378002046FFF7B2FE0028D1D1052384F83130BA
:10E3880004F19403C4F8A430C9E70323F6E7E3696A
:10E398006364236AA4F84830637983B194F8B2308F
:10E3A8006BB994F8B43053B1022384F85030042187
:10E3B8002046FFF792FE0028B1D10623DEE70423AA
:10E3C800DCE784F83130AAE72A46D4F8A41004F12F
:10E3D8005400FFF77EFE38B994F8301094F85400D2
:10E3E800FFF779FE00289DD0F8BD94F831009847D2
:10E3F8009BE70820F8E70388112B10B50C460AD0D4
:10E40800262B1FD0102B05D1C37B012B02D183886B
:10E41800A1F8A83010BD0022838881F8B220B1F895
:10E42800A8209A42F6D10B79002BF3D1012120467E
:10E43800FFF7DEFE0028EDD0A36B002BEAD0BDE885
:10E4480010401847037A013B012BE3D8897805234C
:10E45800013191FBF3F303EB8303C91AC9B2E6E771
:10E46800704775DF704776DF70477ADF70477BDF6C
:10E4780070470000034B1A8882420CBF18460020E0
:10E48800704700BF14360020024B9B6903B1184740
:10E49800704700BFF835002037B585B22846FFF72A
:10E4A800E9FF034670B1164C017A227B91420BD2E8
:10E4B80000F10A012846FFF7D4FFE8B1112801D07E
:10E4C800FFF7E2FF03B030BD237C0022027243B1A4
:10E4D8003B212846FFF7C7FF30F0080301D0FFF7BC
:10E4E800D3FF6369002BEDD000228DF80420ADF82E
:10E4F800065001A89847E5E71A7A01321A72E1E74F
:10E50800F835002013B50B46497A0F4C024669B915
:10E51800D4E901101C7A002C18BF01465868FBF793
:10E52800FDFE08B1FFF7B0FF02B010BD002119725F
:10E538006369002BF8D00121ADF806008DF80410AE
:10E5480001A89847F0E700BFF83500208388B3F5A5
:10E55800FA7F28BF6FF4F97230B528BF9C18058878
:10E568004A8838BF002495420CD84088904209D385
:10E578008A88A24206D303F2F310904234BF0020E7
:10E58800012030BD0020FCE70388112B70B501463F
:10E5980048D002D8102B1ED070BD122B52D0502B51
:10E5A800FAD12F4BC288DB899A42F5D1038A022B14
:10E5B800F2D186883046FFF75DFF05460028EBD08C
:10E5C80001F1120000F05FF930BB6868FBF7EAFE62
:10E5D8000028E1D009E0C37B012BDDD14FF6FF70A5
:10E5E800FFF748FF054620B90420BDE87040FFF753
:10E5F8004BBF1C4A8E880680002303721368C5F837
:10E608000A300A30536843601031FFF79FFF144BFC
:10E618006872DB89002BBFD129463046BDE87040BF
:10E62800FFF770BF8088FFF725FF04460028B3D0A6
:10E638004068FBF7B7FE08B1FFF726FF4FF6FF73F8
:10E648002380A9E786883046FFF714FF054600288F
:10E65800A2D008310A30FFF779FF6872DCE700BF03
:10E66800F835002028360020F8B5064650B3054690
:10E678000FCD154F3C460FC495E8070084E8070006
:10E688003068124B3B60B8B1FFF7EFFEC8B931688C
:10E698000A681A604A685A600D480E4A4FF6FF73B6
:10E6A80003800D4B40F8043F0021FBF725FE0028AE
:10E6B80014BF0320002004E01846FFF7D8FE002806
:10E6C800EAD0F8BD0E20FCE7F835002028360020F7
:10E6D80014360020A1E401003036002073B5019102
:10E6E800019C06466CB100252C46294601A8FBF77B
:10E6F800B6FE18B106EB440301349D800135142D94
:10E70800F3D13046346002B070BD00002DE9F0430B
:10E7180003888488112B8DB0064640D01A2B43D02D
:10E72800102B16D1294DAB680CA8DB4340F8303DBF
:10E7380055F8041FFBF7BCFE009901A8FFF7CEFFB0
:10E748000027019B9F4207D3132C18D90420FBF7FD
:10E758004FFB0DB0BDE8F08301AB03EB47034FF06F
:10E768000008B3F8049005EB0800494608F10408CE
:10E77800FBF76BFEB8F1740FF5D10137E1E72146DD
:10E788001348FBF759FE21461248FBF755FEF37B69
:10E79800012BDED010482146FBF74EFED9E70C4886
:10E7A8002146FBF752FED4E7057A0C482D09012DC6
:10E7B800214606D9FBF740FE022D21460848F0D035
:10E7C800EAE7FBF742FE21460548EAE75036002013
:10E7D80058360020543600205C3600206036002071
:10E7E800643600201328014602D80248FBF737BEDA
:10E7F800002070475436002010B50446FFF7F2FF9A
:10E80800002814BF2046142010BD70B505461646D2
:10E818000AB90E2070BD002313600028F9D00368E0
:10E82800002BF6D0C38813F003040FD10846FFF776
:10E83800E3FFC0B214280BD02B7983420AD9EB88A6
:10E848002A6800FB032030602046E3E70720E1E761
:10E858000520DFE70420DDE7AADF70470023013841
:10E868000B70042806D8DFE800F00306080A0C003D
:10E8780011230B7070472123FBE73123F9E712239B
:10E88800F7E72223F5E7007800F001007047F0B5BC
:10E898008B7891B005460C46164603B9012303222E
:10E8A8008DF80E3000212388ADF80C30684604F04E
:10E8B800ECFA6946607CFFF7D1FF0DF10101A07CFD
:10E8C800FFF7CCFF9DF80230E27B62F3C303227CA2
:10E8D80062F30413227B62F30003227D002A14BF33
:10E8E8000222012262F3420300211C2209A88DF8AA
:10E8F800023004F0CAFA637B13F0300F15D002AF70
:10E9080003220021384604F0C0FA0DF10901E07C29
:10E91800FFF7A4FF11238DF808309DF80A300E97F1
:10E92800012262F342038DF80A30637B8DF82430AC
:10E938001422A37B8DF82530002104A804F0A5FA41
:10E9480003AB0493A388ADF81C30A368CDF814D0AA
:10E958001BB1E288ADF818200893A369002B2ED0CC
:10E9680001AF03220021384604F08FFAA3691A8800
:10E97800ADF82C205A88187BADF82E2039465A68F5
:10E988000A920D97FFF76AFFA3690DF10501587BFD
:10E99800FFF764FFA2699DF80630917A61F3C3031B
:10E9A800D17A61F30413117A927B002A61F3000390
:10E9B80014BF0222012262F342038DF80630E36994
:10E9C80003B10C93334604AA09A92846FFF744FF6C
:10E9D80011B0F0BDA5DF7047B5DF704770B14FF0DB
:10E9E800F7130360FB230371F723C3801723038105
:10E9F8000023C1608372C372184670470E207047A7
:10EA080030B1A1F11703E02B04D801800020704732
:10EA18000E20704707207047838837B50C4683B9A6
:10EA28000288112A64D00ED8102A3ED0A37A43B1A6
:10EA3800E1880020FFF7CEFF00287AD10123A072D9
:10EA4800E37203B030BD3A2A58D0552AEED1C288B5
:10EA5800C988A372172A38BF17228A4228BF0A46D4
:10EA680022811846FFF7B8FF60B1FCF78DF8394AE4
:10EA7800394B3A499B1ADB081B04024643F0010054
:10EA8800FAF7DEFFE27A002AD0D1E368002BCDD076
:10EA980040F67721ADF802202289ADF80010ADF8D4
:10EAA8000420694620469847C0E7C37B012B04BF72
:10EAB8000B88CB80C98823898B42B7D20020FFF707
:10EAC80089FF10B90123E372B0E7112802D10123AD
